{
  "contractName": "BREMFactory",
  "abi": [
    {
      "constant": true,
      "inputs": [
        {
          "name": "_operator",
          "type": "address"
        },
        {
          "name": "_role",
          "type": "string"
        }
      ],
      "name": "checkRole",
      "outputs": [],
      "payable": false,
      "stateMutability": "view",
      "type": "function"
    },
    {
      "constant": true,
      "inputs": [
        {
          "name": "_operator",
          "type": "address"
        },
        {
          "name": "_role",
          "type": "string"
        }
      ],
      "name": "hasRole",
      "outputs": [
        {
          "name": "",
          "type": "bool"
        }
      ],
      "payable": false,
      "stateMutability": "view",
      "type": "function"
    },
    {
      "constant": false,
      "inputs": [],
      "name": "addDeveloper",
      "outputs": [],
      "payable": false,
      "stateMutability": "nonpayable",
      "type": "function"
    },
    {
      "constant": true,
      "inputs": [],
      "name": "ROLE_AUDITOR",
      "outputs": [
        {
          "name": "",
          "type": "string"
        }
      ],
      "payable": false,
      "stateMutability": "view",
      "type": "function"
    },
    {
      "constant": true,
      "inputs": [],
      "name": "withdrawFeePercent",
      "outputs": [
        {
          "name": "",
          "type": "uint256"
        }
      ],
      "payable": false,
      "stateMutability": "view",
      "type": "function"
    },
    {
      "constant": true,
      "inputs": [
        {
          "name": "_addr",
          "type": "address"
        }
      ],
      "name": "isAuditor",
      "outputs": [
        {
          "name": "",
          "type": "bool"
        }
      ],
      "payable": false,
      "stateMutability": "view",
      "type": "function"
    },
    {
      "constant": false,
      "inputs": [
        {
          "name": "_newSuperuser",
          "type": "address"
        }
      ],
      "name": "transferSuperuser",
      "outputs": [],
      "payable": false,
      "stateMutability": "nonpayable",
      "type": "function"
    },
    {
      "constant": true,
      "inputs": [
        {
          "name": "_addr",
          "type": "address"
        }
      ],
      "name": "isDeveloper",
      "outputs": [
        {
          "name": "",
          "type": "bool"
        }
      ],
      "payable": false,
      "stateMutability": "view",
      "type": "function"
    },
    {
      "constant": true,
      "inputs": [],
      "name": "icoCreationPrice",
      "outputs": [
        {
          "name": "",
          "type": "uint256"
        }
      ],
      "payable": false,
      "stateMutability": "view",
      "type": "function"
    },
    {
      "constant": true,
      "inputs": [],
      "name": "projectsAmount",
      "outputs": [
        {
          "name": "",
          "type": "uint256"
        }
      ],
      "payable": false,
      "stateMutability": "view",
      "type": "function"
    },
    {
      "constant": false,
      "inputs": [
        {
          "name": "_name",
          "type": "string"
        }
      ],
      "name": "signUp",
      "outputs": [
        {
          "name": "",
          "type": "string"
        }
      ],
      "payable": false,
      "stateMutability": "nonpayable",
      "type": "function"
    },
    {
      "constant": true,
      "inputs": [],
      "name": "login",
      "outputs": [
        {
          "name": "",
          "type": "string"
        }
      ],
      "payable": false,
      "stateMutability": "view",
      "type": "function"
    },
    {
      "constant": true,
      "inputs": [
        {
          "name": "_addr",
          "type": "address"
        }
      ],
      "name": "isSuperuser",
      "outputs": [
        {
          "name": "",
          "type": "bool"
        }
      ],
      "payable": false,
      "stateMutability": "view",
      "type": "function"
    },
    {
      "constant": true,
      "inputs": [],
      "name": "ROLE_DEVELOPER",
      "outputs": [
        {
          "name": "",
          "type": "string"
        }
      ],
      "payable": false,
      "stateMutability": "view",
      "type": "function"
    },
    {
      "constant": false,
      "inputs": [
        {
          "name": "_newAuditor",
          "type": "address"
        }
      ],
      "name": "addAuditor",
      "outputs": [],
      "payable": false,
      "stateMutability": "nonpayable",
      "type": "function"
    },
    {
      "constant": true,
      "inputs": [],
      "name": "ROLE_SUPERUSER",
      "outputs": [
        {
          "name": "",
          "type": "string"
        }
      ],
      "payable": false,
      "stateMutability": "view",
      "type": "function"
    },
    {
      "anonymous": false,
      "inputs": [
        {
          "indexed": true,
          "name": "creator",
          "type": "address"
        },
        {
          "indexed": true,
          "name": "icoAddress",
          "type": "address"
        },
        {
          "indexed": true,
          "name": "tokenAddress",
          "type": "address"
        },
        {
          "indexed": false,
          "name": "name",
          "type": "string"
        }
      ],
      "name": "BREMICOCreated",
      "type": "event"
    },
    {
      "anonymous": false,
      "inputs": [
        {
          "indexed": true,
          "name": "operator",
          "type": "address"
        },
        {
          "indexed": false,
          "name": "role",
          "type": "string"
        }
      ],
      "name": "RoleAdded",
      "type": "event"
    },
    {
      "anonymous": false,
      "inputs": [
        {
          "indexed": true,
          "name": "operator",
          "type": "address"
        },
        {
          "indexed": false,
          "name": "role",
          "type": "string"
        }
      ],
      "name": "RoleRemoved",
      "type": "event"
    },
    {
      "constant": true,
      "inputs": [
        {
          "name": "_index",
          "type": "uint256"
        }
      ],
      "name": "getProject",
      "outputs": [
        {
          "name": "",
          "type": "address"
        }
      ],
      "payable": false,
      "stateMutability": "view",
      "type": "function"
    },
    {
      "constant": true,
      "inputs": [
        {
          "name": "_projectName",
          "type": "string"
        }
      ],
      "name": "getProjectByName",
      "outputs": [
        {
          "name": "",
          "type": "address"
        }
      ],
      "payable": false,
      "stateMutability": "view",
      "type": "function"
    },
    {
      "constant": false,
      "inputs": [
        {
          "name": "_icoCreationPrice",
          "type": "uint256"
        }
      ],
      "name": "setIcoCreationPrice",
      "outputs": [],
      "payable": false,
      "stateMutability": "nonpayable",
      "type": "function"
    },
    {
      "constant": false,
      "inputs": [
        {
          "name": "_withdrawFeePercent",
          "type": "uint256"
        }
      ],
      "name": "setWithdrawFeePercent",
      "outputs": [],
      "payable": false,
      "stateMutability": "nonpayable",
      "type": "function"
    }
  ],
  "bytecode": "0x608060405262000054336040805190810160405280600981526020017f73757065727573657200000000000000000000000000000000000000000000008152506200005a640100000000026401000000009004565b62000201565b620000e9826000836040518082805190602001908083835b60208310151562000099578051825260208201915060208101905060208303925062000072565b6001836020036101000a0380198251168184511680821785525050505050509050019150509081526020016040518091039020620001a36401000000000262001617179091906401000000009004565b8173ffffffffffffffffffffffffffffffffffffffff167fbfec83d64eaa953f2708271a023ab9ee82057f8f3578d548c1a4ba0b5b700489826040518080602001828103825283818151815260200191508051906020019080838360005b838110156200016457808201518184015260208101905062000147565b50505050905090810190601f168015620001925780820380516001836020036101000a031916815260200191505b509250505060405180910390a25050565b60018260000160008373ffffffffffffffffffffffffffffffffffffffff1673ffffffffffffffffffffffffffffffffffffffff16815260200190815260200160002060006101000a81548160ff0219169083151502179055505050565b6117a480620002116000396000f300608060405260043610610112576000357c0100000000000000000000000000000000000000000000000000000000900463ffffffff1680630988ca8c14610117578063217fe6c6146101a05780632b7d7489146102415780633f029aaf14610258578063447cb896146102e8578063495ef7051461031557806349b90557146103405780634b77f2691461039b57806357c393fa146104445780635eca4a701461048757806380d2370f146104e25780639cdd99131461050d578063adcfb4fc14610538578063b34e97e81461061a578063bceee05e146106aa578063c4f9181014610705578063e31cd22e14610732578063e429cef1146107c2578063ebb4f48414610805578063f0f3f2c814610895575b600080fd5b34801561012357600080fd5b5061019e600480360381019080803573ffffffffffffffffffffffffffffffffffffffff169060200190929190803590602001908201803590602001908080601f0160208091040260200160405190810160405280939291908181526020018383808284378201915050505050509192919290505050610902565b005b3480156101ac57600080fd5b50610227600480360381019080803573ffffffffffffffffffffffffffffffffffffffff169060200190929190803590602001908201803590602001908080601f0160208091040260200160405190810160405280939291908181526020018383808284378201915050505050509192919290505050610983565b604051808215151515815260200191505060405180910390f35b34801561024d57600080fd5b50610256610a0a565b005b34801561026457600080fd5b5061026d610a87565b6040518080602001828103825283818151815260200191508051906020019080838360005b838110156102ad578082015181840152602081019050610292565b50505050905090810190601f1680156102da5780820380516001836020036101000a031916815260200191505b509250505060405180910390f35b3480156102f457600080fd5b5061031360048036038101908080359060200190929190505050610ac0565b005b34801561032157600080fd5b5061032a610b37565b6040518082815260200191505060405180910390f35b34801561034c57600080fd5b50610381600480360381019080803573ffffffffffffffffffffffffffffffffffffffff169060200190929190505050610b3d565b604051808215151515815260200191505060405180910390f35b3480156103a757600080fd5b50610402600480360381019080803590602001908201803590602001908080601f0160208091040260200160405190810160405280939291908181526020018383808284378201915050505050509192919290505050610b85565b604051808273ffffffffffffffffffffffffffffffffffffffff1673ffffffffffffffffffffffffffffffffffffffff16815260200191505060405180910390f35b34801561045057600080fd5b50610485600480360381019080803573ffffffffffffffffffffffffffffffffffffffff169060200190929190505050610cb1565b005b34801561049357600080fd5b506104c8600480360381019080803573ffffffffffffffffffffffffffffffffffffffff169060200190929190505050610dad565b604051808215151515815260200191505060405180910390f35b3480156104ee57600080fd5b506104f7610df5565b6040518082815260200191505060405180910390f35b34801561051957600080fd5b50610522610dfb565b6040518082815260200191505060405180910390f35b34801561054457600080fd5b5061059f600480360381019080803590602001908201803590602001908080601f0160208091040260200160405190810160405280939291908181526020018383808284378201915050505050509192919290505050610e01565b6040518080602001828103825283818151815260200191508051906020019080838360005b838110156105df5780820151818401526020810190506105c4565b50505050905090810190601f16801561060c5780820380516001836020036101000a031916815260200191505b509250505060405180910390f35b34801561062657600080fd5b5061062f610fd8565b6040518080602001828103825283818151815260200191508051906020019080838360005b8381101561066f578082015181840152602081019050610654565b50505050905090810190601f16801561069c5780820380516001836020036101000a031916815260200191505b509250505060405180910390f35b3480156106b657600080fd5b506106eb600480360381019080803573ffffffffffffffffffffffffffffffffffffffff16906020019092919050505061111f565b604051808215151515815260200191505060405180910390f35b34801561071157600080fd5b5061073060048036038101908080359060200190929190505050611167565b005b34801561073e57600080fd5b506107476111c1565b6040518080602001828103825283818151815260200191508051906020019080838360005b8381101561078757808201518184015260208101905061076c565b50505050905090810190601f1680156107b45780820380516001836020036101000a031916815260200191505b509250505060405180910390f35b3480156107ce57600080fd5b50610803600480360381019080803573ffffffffffffffffffffffffffffffffffffffff1690602001909291905050506111fa565b005b34801561081157600080fd5b5061081a6112b7565b6040518080602001828103825283818151815260200191508051906020019080838360005b8381101561085a57808201518184015260208101905061083f565b50505050905090810190601f1680156108875780820380516001836020036101000a031916815260200191505b509250505060405180910390f35b3480156108a157600080fd5b506108c0600480360381019080803590602001909291905050506112f0565b604051808273ffffffffffffffffffffffffffffffffffffffff1673ffffffffffffffffffffffffffffffffffffffff16815260200191505060405180910390f35b61097f826000836040518082805190602001908083835b60208310151561093e5780518252602082019150602081019050602083039250610919565b6001836020036101000a038019825116818451168082178552505050505050905001915050908152602001604051809103902061133d90919063ffffffff16565b5050565b6000610a02836000846040518082805190602001908083835b6020831015156109c1578051825260208201915060208101905060208303925061099c565b6001836020036101000a038019825116818451168082178552505050505050905001915050908152602001604051809103902061135690919063ffffffff16565b905092915050565b600073ffffffffffffffffffffffffffffffffffffffff163373ffffffffffffffffffffffffffffffffffffffff1614151515610a4657600080fd5b610a85336040805190810160405280600981526020017f646576656c6f70657200000000000000000000000000000000000000000000008152506113af565b565b6040805190810160405280600781526020017f61756469746f720000000000000000000000000000000000000000000000000081525081565b610aff336040805190810160405280600981526020017f7375706572757365720000000000000000000000000000000000000000000000815250610902565b6006548114151515610b1057600080fd5b60008110158015610b22575060648111155b1515610b2d57600080fd5b8060068190555050565b60065481565b6000610b7e826040805190810160405280600781526020017f61756469746f7200000000000000000000000000000000000000000000000000815250610983565b9050919050565b60008060008351111515610b9857600080fd5b6004836040518082805190602001908083835b602083101515610bd05780518252602082019150602081019050602083039250610bab565b6001836020036101000a0380198251168184511680821785525050505050509050019150509081526020016040518091039020549050600073ffffffffffffffffffffffffffffffffffffffff166003600083815260200190815260200160002060009054906101000a900473ffffffffffffffffffffffffffffffffffffffff1673ffffffffffffffffffffffffffffffffffffffff1614151515610c7557600080fd5b6003600082815260200190815260200160002060009054906101000a900473ffffffffffffffffffffffffffffffffffffffff16915050919050565b610cf0336040805190810160405280600981526020017f7375706572757365720000000000000000000000000000000000000000000000815250610902565b600073ffffffffffffffffffffffffffffffffffffffff168173ffffffffffffffffffffffffffffffffffffffff1614151515610d2c57600080fd5b610d6b336040805190810160405280600981526020017f73757065727573657200000000000000000000000000000000000000000000008152506114e3565b610daa816040805190810160405280600981526020017f73757065727573657200000000000000000000000000000000000000000000008152506113af565b50565b6000610dee826040805190810160405280600981526020017f646576656c6f7065720000000000000000000000000000000000000000000000815250610983565b9050919050565b60055481565b60025481565b60608160008151111515610e1457600080fd5b6000600160003373ffffffffffffffffffffffffffffffffffffffff1673ffffffffffffffffffffffffffffffffffffffff1681526020019081526020016000206000018054600181600116156101000203166002900490501415610ecb5782600160003373ffffffffffffffffffffffffffffffffffffffff1673ffffffffffffffffffffffffffffffffffffffff1681526020019081526020016000206000019080519060200190610ec99291906116d3565b505b610ed43361111f565b158015610ee75750610ee533610b3d565b155b15610ef557610ef4610a0a565b5b600160003373ffffffffffffffffffffffffffffffffffffffff1673ffffffffffffffffffffffffffffffffffffffff1681526020019081526020016000206000018054600181600116156101000203166002900480601f016020809104026020016040519081016040528092919081815260200182805460018160011615610100020316600290048015610fcb5780601f10610fa057610100808354040283529160200191610fcb565b820191906000526020600020905b815481529060010190602001808311610fae57829003601f168201915b5050505050915050919050565b60606000600160003373ffffffffffffffffffffffffffffffffffffffff1673ffffffffffffffffffffffffffffffffffffffff16815260200190815260200160002060000180546001816001161561010002031660029004905011151561103f57600080fd5b600160003373ffffffffffffffffffffffffffffffffffffffff1673ffffffffffffffffffffffffffffffffffffffff1681526020019081526020016000206000018054600181600116156101000203166002900480601f0160208091040260200160405190810160405280929190818152602001828054600181600116156101000203166002900480156111155780601f106110ea57610100808354040283529160200191611115565b820191906000526020600020905b8154815290600101906020018083116110f857829003601f168201915b5050505050905090565b6000611160826040805190810160405280600981526020017f7375706572757365720000000000000000000000000000000000000000000000815250610983565b9050919050565b6111a6336040805190810160405280600981526020017f7375706572757365720000000000000000000000000000000000000000000000815250610902565b60055481141515156111b757600080fd5b8060058190555050565b6040805190810160405280600981526020017f646576656c6f706572000000000000000000000000000000000000000000000081525081565b611239336040805190810160405280600981526020017f7375706572757365720000000000000000000000000000000000000000000000815250610902565b600073ffffffffffffffffffffffffffffffffffffffff168173ffffffffffffffffffffffffffffffffffffffff161415151561127557600080fd5b6112b4816040805190810160405280600781526020017f61756469746f72000000000000000000000000000000000000000000000000008152506113af565b50565b6040805190810160405280600981526020017f737570657275736572000000000000000000000000000000000000000000000081525081565b60006002548210151561130257600080fd5b6003600083815260200190815260200160002060009054906101000a900473ffffffffffffffffffffffffffffffffffffffff169050919050565b6113478282611356565b151561135257600080fd5b5050565b60008260000160008373ffffffffffffffffffffffffffffffffffffffff1673ffffffffffffffffffffffffffffffffffffffff16815260200190815260200160002060009054906101000a900460ff16905092915050565b61142c826000836040518082805190602001908083835b6020831015156113eb57805182526020820191506020810190506020830392506113c6565b6001836020036101000a038019825116818451168082178552505050505050905001915050908152602001604051809103902061161790919063ffffffff16565b8173ffffffffffffffffffffffffffffffffffffffff167fbfec83d64eaa953f2708271a023ab9ee82057f8f3578d548c1a4ba0b5b700489826040518080602001828103825283818151815260200191508051906020019080838360005b838110156114a557808201518184015260208101905061148a565b50505050905090810190601f1680156114d25780820380516001836020036101000a031916815260200191505b509250505060405180910390a25050565b611560826000836040518082805190602001908083835b60208310151561151f57805182526020820191506020810190506020830392506114fa565b6001836020036101000a038019825116818451168082178552505050505050905001915050908152602001604051809103902061167590919063ffffffff16565b8173ffffffffffffffffffffffffffffffffffffffff167fd211483f91fc6eff862467f8de606587a30c8fc9981056f051b897a418df803a826040518080602001828103825283818151815260200191508051906020019080838360005b838110156115d95780820151818401526020810190506115be565b50505050905090810190601f1680156116065780820380516001836020036101000a031916815260200191505b509250505060405180910390a25050565b60018260000160008373ffffffffffffffffffffffffffffffffffffffff1673ffffffffffffffffffffffffffffffffffffffff16815260200190815260200160002060006101000a81548160ff0219169083151502179055505050565b60008260000160008373ffffffffffffffffffffffffffffffffffffffff1673ffffffffffffffffffffffffffffffffffffffff16815260200190815260200160002060006101000a81548160ff0219169083151502179055505050565b828054600181600116156101000203166002900490600052602060002090601f016020900481019282601f1061171457805160ff1916838001178555611742565b82800160010185558215611742579182015b82811115611741578251825591602001919060010190611726565b5b50905061174f9190611753565b5090565b61177591905b80821115611771576000816000905550600101611759565b5090565b905600a165627a7a72305820681ca64687392eb8620ecb5dc5ce17a8d2fcf5f0d165ba6f59763a53a6bc72970029",
  "source": "pragma solidity ^0.4.24;\r\n\r\nimport \"./BREMToken.sol\";\r\nimport \"./BREMICO.sol\";\r\n\r\ncontract BREMFactory is Userable{\r\n    \r\n    uint256 public projectsAmount;\r\n    \r\n    mapping(uint256 => address) projects;\r\n    \r\n    function getProject(uint256 _index) \r\n        public \r\n        view \r\n        returns(address)\r\n    {\r\n        require(_index < projectsAmount);\r\n        return projects[_index];\r\n    }\r\n    \r\n    mapping(string => uint256) indexes;\r\n    \r\n    function getProjectByName(string _projectName)\r\n        public\r\n        view\r\n        returns(address) \r\n    {\r\n        require(bytes(_projectName).length > 0);\r\n        uint256 index = indexes[_projectName];\r\n        require(projects[index] != address(0));\r\n        \r\n        return projects[index];    \r\n    }\r\n    \r\n    event BREMICOCreated(\r\n        address indexed creator,\r\n        address indexed icoAddress,\r\n        address indexed tokenAddress,\r\n        string name\r\n    );\r\n    \r\n    uint256 public icoCreationPrice;\r\n\r\n    function setIcoCreationPrice(uint256 _icoCreationPrice)\r\n        public \r\n        onlySuperuser\r\n    {\r\n        require(_icoCreationPrice != icoCreationPrice);\r\n        icoCreationPrice = _icoCreationPrice;\r\n    }\r\n\r\n    uint256 public withdrawFeePercent;\r\n\r\n    function setWithdrawFeePercent(uint256 _withdrawFeePercent)\r\n        public\r\n        onlySuperuser\r\n    {\r\n        require(_withdrawFeePercent != withdrawFeePercent);\r\n        require(_withdrawFeePercent >= 0 && _withdrawFeePercent <=100);\r\n\r\n        withdrawFeePercent = _withdrawFeePercent;\r\n    }\r\n}",
  "sourcePath": "C:\\Users\\Solidity\\Documents\\HashLab\\GENERAL\\Brem\\contracts\\BREMFactory.sol",
  "compiler": {
    "name": "solc",
    "version": "0.4.24+commit.e67f0147.Emscripten.clang"
  },
  "schemaVersion": "2.0.1",
  "updatedAt": "2018-08-09T14:40:38.307Z"
}