{
  "contractName": "BREMICO",
  "abi": [
    {
      "constant": true,
      "inputs": [],
      "name": "name",
      "outputs": [
        {
          "name": "",
          "type": "string"
        }
      ],
      "payable": false,
      "stateMutability": "view",
      "type": "function"
    },
    {
      "constant": true,
      "inputs": [
        {
          "name": "",
          "type": "address"
        }
      ],
      "name": "balances",
      "outputs": [
        {
          "name": "",
          "type": "uint256"
        }
      ],
      "payable": false,
      "stateMutability": "view",
      "type": "function"
    },
    {
      "constant": true,
      "inputs": [],
      "name": "rate",
      "outputs": [
        {
          "name": "",
          "type": "uint256"
        }
      ],
      "payable": false,
      "stateMutability": "view",
      "type": "function"
    },
    {
      "constant": true,
      "inputs": [],
      "name": "request",
      "outputs": [
        {
          "name": "value",
          "type": "uint256"
        },
        {
          "name": "confirmAmount",
          "type": "uint256"
        }
      ],
      "payable": false,
      "stateMutability": "view",
      "type": "function"
    },
    {
      "constant": true,
      "inputs": [],
      "name": "cap",
      "outputs": [
        {
          "name": "",
          "type": "uint256"
        }
      ],
      "payable": false,
      "stateMutability": "view",
      "type": "function"
    },
    {
      "constant": true,
      "inputs": [],
      "name": "docHash",
      "outputs": [
        {
          "name": "",
          "type": "string"
        }
      ],
      "payable": false,
      "stateMutability": "view",
      "type": "function"
    },
    {
      "constant": true,
      "inputs": [],
      "name": "weiRaised",
      "outputs": [
        {
          "name": "",
          "type": "uint256"
        }
      ],
      "payable": false,
      "stateMutability": "view",
      "type": "function"
    },
    {
      "constant": true,
      "inputs": [
        {
          "name": "",
          "type": "address"
        }
      ],
      "name": "balancesInToken",
      "outputs": [
        {
          "name": "",
          "type": "uint256"
        }
      ],
      "payable": false,
      "stateMutability": "view",
      "type": "function"
    },
    {
      "constant": true,
      "inputs": [],
      "name": "withdrawFeePercent",
      "outputs": [
        {
          "name": "",
          "type": "uint256"
        }
      ],
      "payable": false,
      "stateMutability": "view",
      "type": "function"
    },
    {
      "constant": true,
      "inputs": [],
      "name": "closingTime",
      "outputs": [
        {
          "name": "",
          "type": "uint256"
        }
      ],
      "payable": false,
      "stateMutability": "view",
      "type": "function"
    },
    {
      "constant": true,
      "inputs": [],
      "name": "wallet",
      "outputs": [
        {
          "name": "",
          "type": "address"
        }
      ],
      "payable": false,
      "stateMutability": "view",
      "type": "function"
    },
    {
      "constant": true,
      "inputs": [],
      "name": "description",
      "outputs": [
        {
          "name": "",
          "type": "string"
        }
      ],
      "payable": false,
      "stateMutability": "view",
      "type": "function"
    },
    {
      "constant": true,
      "inputs": [],
      "name": "auditorsAmount",
      "outputs": [
        {
          "name": "",
          "type": "uint256"
        }
      ],
      "payable": false,
      "stateMutability": "view",
      "type": "function"
    },
    {
      "constant": true,
      "inputs": [],
      "name": "auditSelected",
      "outputs": [
        {
          "name": "",
          "type": "bool"
        }
      ],
      "payable": false,
      "stateMutability": "view",
      "type": "function"
    },
    {
      "constant": true,
      "inputs": [],
      "name": "brem",
      "outputs": [
        {
          "name": "",
          "type": "address"
        }
      ],
      "payable": false,
      "stateMutability": "view",
      "type": "function"
    },
    {
      "constant": true,
      "inputs": [],
      "name": "token",
      "outputs": [
        {
          "name": "",
          "type": "address"
        }
      ],
      "payable": false,
      "stateMutability": "view",
      "type": "function"
    },
    {
      "inputs": [
        {
          "name": "_brem",
          "type": "address"
        },
        {
          "name": "_name",
          "type": "string"
        },
        {
          "name": "_cap",
          "type": "uint256"
        },
        {
          "name": "_rate",
          "type": "uint256"
        },
        {
          "name": "_wallet",
          "type": "address"
        },
        {
          "name": "_token",
          "type": "address"
        },
        {
          "name": "_closingTime",
          "type": "uint256"
        },
        {
          "name": "_description",
          "type": "string"
        },
        {
          "name": "_docHash",
          "type": "string"
        },
        {
          "name": "_auditAddress",
          "type": "address"
        },
        {
          "name": "_withdrawFeePercent",
          "type": "uint256"
        }
      ],
      "payable": false,
      "stateMutability": "nonpayable",
      "type": "constructor"
    },
    {
      "payable": true,
      "stateMutability": "payable",
      "type": "fallback"
    },
    {
      "anonymous": false,
      "inputs": [
        {
          "indexed": true,
          "name": "purchaser",
          "type": "address"
        },
        {
          "indexed": true,
          "name": "beneficiary",
          "type": "address"
        },
        {
          "indexed": false,
          "name": "value",
          "type": "uint256"
        },
        {
          "indexed": false,
          "name": "amount",
          "type": "uint256"
        }
      ],
      "name": "TokenPurchase",
      "type": "event"
    },
    {
      "constant": false,
      "inputs": [
        {
          "name": "_beneficiary",
          "type": "address"
        }
      ],
      "name": "buyTokens",
      "outputs": [],
      "payable": true,
      "stateMutability": "payable",
      "type": "function"
    },
    {
      "constant": false,
      "inputs": [
        {
          "name": "_auditor",
          "type": "address"
        }
      ],
      "name": "addAuditor",
      "outputs": [],
      "payable": false,
      "stateMutability": "nonpayable",
      "type": "function"
    },
    {
      "constant": false,
      "inputs": [],
      "name": "finishAuditorSelection",
      "outputs": [],
      "payable": false,
      "stateMutability": "nonpayable",
      "type": "function"
    },
    {
      "constant": false,
      "inputs": [
        {
          "name": "_value",
          "type": "uint256"
        }
      ],
      "name": "withdraw",
      "outputs": [],
      "payable": true,
      "stateMutability": "payable",
      "type": "function"
    },
    {
      "constant": false,
      "inputs": [],
      "name": "confirmWithdraw",
      "outputs": [],
      "payable": false,
      "stateMutability": "nonpayable",
      "type": "function"
    },
    {
      "constant": false,
      "inputs": [],
      "name": "refund",
      "outputs": [],
      "payable": false,
      "stateMutability": "nonpayable",
      "type": "function"
    },
    {
      "constant": true,
      "inputs": [],
      "name": "hasClosed",
      "outputs": [
        {
          "name": "",
          "type": "bool"
        }
      ],
      "payable": false,
      "stateMutability": "view",
      "type": "function"
    },
    {
      "constant": true,
      "inputs": [],
      "name": "capReached",
      "outputs": [
        {
          "name": "",
          "type": "bool"
        }
      ],
      "payable": false,
      "stateMutability": "view",
      "type": "function"
    },
    {
      "constant": true,
      "inputs": [
        {
          "name": "_auditor",
          "type": "address"
        }
      ],
      "name": "isAuditor",
      "outputs": [
        {
          "name": "",
          "type": "bool"
        }
      ],
      "payable": false,
      "stateMutability": "view",
      "type": "function"
    },
    {
      "constant": true,
      "inputs": [],
      "name": "isRequested",
      "outputs": [
        {
          "name": "",
          "type": "bool"
        }
      ],
      "payable": false,
      "stateMutability": "view",
      "type": "function"
    },
    {
      "constant": true,
      "inputs": [],
      "name": "isWithdrawn",
      "outputs": [
        {
          "name": "",
          "type": "bool"
        }
      ],
      "payable": false,
      "stateMutability": "view",
      "type": "function"
    }
  ],
  "bytecode": "0x60806040523480156200001157600080fd5b5060405162001f9238038062001f928339810180604052810190808051906020019092919080518201929190602001805190602001909291908051906020019092919080519060200190929190805190602001909291908051906020019092919080518201929190602001805182019291906020018051906020019092919080519060200190929190505050600073ffffffffffffffffffffffffffffffffffffffff168b73ffffffffffffffffffffffffffffffffffffffff1614151515620000da57600080fd5b60008a51111515620000eb57600080fd5b600089111515620000fb57600080fd5b6000881115156200010b57600080fd5b600073ffffffffffffffffffffffffffffffffffffffff168773ffffffffffffffffffffffffffffffffffffffff16141515156200014857600080fd5b600073ffffffffffffffffffffffffffffffffffffffff168673ffffffffffffffffffffffffffffffffffffffff16141515156200018557600080fd5b600073ffffffffffffffffffffffffffffffffffffffff168273ffffffffffffffffffffffffffffffffffffffff1614151515620001c257600080fd5b428510151515620001d257600080fd5b60008110158015620001e5575060648111155b1515620001f157600080fd5b8960019080519060200190620002099291906200036c565b508a601360006101000a81548173ffffffffffffffffffffffffffffffffffffffff021916908373ffffffffffffffffffffffffffffffffffffffff160217905550886005819055508760038190555086600260006101000a81548173ffffffffffffffffffffffffffffffffffffffff021916908373ffffffffffffffffffffffffffffffffffffffff160217905550856000806101000a81548173ffffffffffffffffffffffffffffffffffffffff021916908373ffffffffffffffffffffffffffffffffffffffff16021790555084600f819055508360069080519060200190620002f99291906200036c565b508260079080519060200190620003129291906200036c565b5081600860006101000a81548173ffffffffffffffffffffffffffffffffffffffff021916908373ffffffffffffffffffffffffffffffffffffffff1602179055508060128190555050505050505050505050506200041b565b828054600181600116156101000203166002900490600052602060002090601f016020900481019282601f10620003af57805160ff1916838001178555620003e0565b82800160010185558215620003e0579182015b82811115620003df578251825591602001919060010190620003c2565b5b509050620003ef9190620003f3565b5090565b6200041891905b8082111562000414576000816000905550600101620003fa565b5090565b90565b611b67806200042b6000396000f30060806040526004361061015f576000357c0100000000000000000000000000000000000000000000000000000000900463ffffffff16806306fdde031461016a5780631515bc2b146101fa57806327e235e3146102295780632c4e722e146102805780632e1a7d4d146102ab578063338cdca1146102cb578063355274ea146102fd5780633d6df0d5146103285780634042b66f146103b857806344aa5700146103e357806345e4f34a14610412578063495ef7051461046957806349b90557146104945780634b6753bc146104ef5780634f9359451461051a578063521eb27314610549578063590e1ae3146105a057806368124f9a146105b75780637284e416146105ce57806397781f021461065e578063c8e7f5951461068d578063e429cef1146106b8578063e44e76a0146106fb578063ea78d1ab1461072a578063ec8ac4d814610741578063fad5e0c414610777578063fc0c546a146107ce575b61016833610825565b005b34801561017657600080fd5b5061017f61090a565b6040518080602001828103825283818151815260200191508051906020019080838360005b838110156101bf5780820151818401526020810190506101a4565b50505050905090810190601f1680156101ec5780820380516001836020036101000a031916815260200191505b509250505060405180910390f35b34801561020657600080fd5b5061020f6109a8565b604051808215151515815260200191505060405180910390f35b34801561023557600080fd5b5061026a600480360381019080803573ffffffffffffffffffffffffffffffffffffffff1690602001909291905050506109b4565b6040518082815260200191505060405180910390f35b34801561028c57600080fd5b506102956109cc565b6040518082815260200191505060405180910390f35b6102c9600480360381019080803590602001909291905050506109d2565b005b3480156102d757600080fd5b506102e0610ae5565b604051808381526020018281526020019250505060405180910390f35b34801561030957600080fd5b50610312610af7565b6040518082815260200191505060405180910390f35b34801561033457600080fd5b5061033d610afd565b6040518080602001828103825283818151815260200191508051906020019080838360005b8381101561037d578082015181840152602081019050610362565b50505050905090810190601f1680156103aa5780820380516001836020036101000a031916815260200191505b509250505060405180910390f35b3480156103c457600080fd5b506103cd610b9b565b6040518082815260200191505060405180910390f35b3480156103ef57600080fd5b506103f8610ba1565b604051808215151515815260200191505060405180910390f35b34801561041e57600080fd5b50610453600480360381019080803573ffffffffffffffffffffffffffffffffffffffff169060200190929190505050610be3565b6040518082815260200191505060405180910390f35b34801561047557600080fd5b5061047e610bfb565b6040518082815260200191505060405180910390f35b3480156104a057600080fd5b506104d5600480360381019080803573ffffffffffffffffffffffffffffffffffffffff169060200190929190505050610c01565b604051808215151515815260200191505060405180910390f35b3480156104fb57600080fd5b50610504610c57565b6040518082815260200191505060405180910390f35b34801561052657600080fd5b5061052f610c5d565b604051808215151515815260200191505060405180910390f35b34801561055557600080fd5b5061055e610c6c565b604051808273ffffffffffffffffffffffffffffffffffffffff1673ffffffffffffffffffffffffffffffffffffffff16815260200191505060405180910390f35b3480156105ac57600080fd5b506105b5610c92565b005b3480156105c357600080fd5b506105cc610f12565b005b3480156105da57600080fd5b506105e36112ee565b6040518080602001828103825283818151815260200191508051906020019080838360005b83811015610623578082015181840152602081019050610608565b50505050905090810190601f1680156106505780820380516001836020036101000a031916815260200191505b509250505060405180910390f35b34801561066a57600080fd5b5061067361138c565b604051808215151515815260200191505060405180910390f35b34801561069957600080fd5b506106a26113cd565b6040518082815260200191505060405180910390f35b3480156106c457600080fd5b506106f9600480360381019080803573ffffffffffffffffffffffffffffffffffffffff1690602001909291905050506113d3565b005b34801561070757600080fd5b506107106116cc565b604051808215151515815260200191505060405180910390f35b34801561073657600080fd5b5061073f6116df565b005b610775600480360381019080803573ffffffffffffffffffffffffffffffffffffffff169060200190929190505050610825565b005b34801561078357600080fd5b5061078c61183d565b604051808273ffffffffffffffffffffffffffffffffffffffff1673ffffffffffffffffffffffffffffffffffffffff16815260200191505060405180910390f35b3480156107da57600080fd5b506107e3611863565b604051808273ffffffffffffffffffffffffffffffffffffffff1673ffffffffffffffffffffffffffffffffffffffff16815260200191505060405180910390f35b600080600b60009054906101000a900460ff1680156108465750600f544211155b151561085157600080fd5b34915061085e8383611888565b610867826118d8565b905061087e826004546118f690919063ffffffff16565b60048190555061088e8382611914565b8273ffffffffffffffffffffffffffffffffffffffff163373ffffffffffffffffffffffffffffffffffffffff167f623b3804fa71d67900d064613da8f94b9617215ee90799290593e1745087ad188484604051808381526020018281526020019250505060405180910390a36109058383611922565b505050565b60018054600181600116156101000203166002900480601f0160208091040260200160405190810160405280929190818152602001828054600181600116156101000203166002900480156109a05780601f10610975576101008083540402835291602001916109a0565b820191906000526020600020905b81548152906001019060200180831161098357829003601f168201915b505050505081565b6000600f544211905090565b60106020528060005260406000206000915090505481565b60035481565b600260009054906101000a900473ffffffffffffffffffffffffffffffffffffffff1673ffffffffffffffffffffffffffffffffffffffff163373ffffffffffffffffffffffffffffffffffffffff16141515610a2e57600080fd5b600b60009054906101000a900460ff161515610a4957600080fd5b610a51610c5d565b8015610a615750610a606109a8565b5b1515610a6c57600080fd5b60648110158015610a9457503073ffffffffffffffffffffffffffffffffffffffff16318111155b1515610a9f57600080fd5b6000600c60000154141515610ab357600080fd5b60408051908101604052808281526020016000815250600c600082015181600001556020820151816001015590505050565b600c8060000154908060010154905082565b60055481565b60078054600181600116156101000203166002900480601f016020809104026020016040519081016040528092919081815260200182805460018160011615610100020316600290048015610b935780601f10610b6857610100808354040283529160200191610b93565b820191906000526020600020905b815481529060010190602001808311610b7657829003601f168201915b505050505081565b60045481565b6000610bab6109a8565b8015610bbb5750610bba610c5d565b5b8015610bde575060643073ffffffffffffffffffffffffffffffffffffffff1631105b905090565b60116020528060005260406000206000915090505481565b60125481565b6000600960008373ffffffffffffffffffffffffffffffffffffffff1673ffffffffffffffffffffffffffffffffffffffff16815260200190815260200160002060009054906101000a900460ff169050919050565b600f5481565b60006005546004541015905090565b600260009054906101000a900473ffffffffffffffffffffffffffffffffffffffff1681565b600080610c9d6109a8565b8015610cae5750610cac610c5d565b155b1515610cb957600080fd5b6000601060003373ffffffffffffffffffffffffffffffffffffffff1673ffffffffffffffffffffffffffffffffffffffff16815260200190815260200160002054111515610d0757600080fd5b601060003373ffffffffffffffffffffffffffffffffffffffff1673ffffffffffffffffffffffffffffffffffffffff168152602001908152602001600020549150601160003373ffffffffffffffffffffffffffffffffffffffff1673ffffffffffffffffffffffffffffffffffffffff1681526020019081526020016000205490506000601060003373ffffffffffffffffffffffffffffffffffffffff1673ffffffffffffffffffffffffffffffffffffffff168152602001908152602001600020819055506000809054906101000a900473ffffffffffffffffffffffffffffffffffffffff1673ffffffffffffffffffffffffffffffffffffffff1663d0482d0433836040518363ffffffff167c0100000000000000000000000000000000000000000000000000000000028152600401808373ffffffffffffffffffffffffffffffffffffffff1673ffffffffffffffffffffffffffffffffffffffff16815260200182815260200192505050600060405180830381600087803b158015610e9457600080fd5b505af1158015610ea8573d6000803e3d6000fd5b50505050610ec1826004546119c890919063ffffffff16565b6004819055503373ffffffffffffffffffffffffffffffffffffffff166108fc839081150290604051600060405180830381858888f19350505050158015610f0d573d6000803e3d6000fd5b505050565b6000806000600860009054906101000a900473ffffffffffffffffffffffffffffffffffffffff1673ffffffffffffffffffffffffffffffffffffffff166349b90557336040518263ffffffff167c0100000000000000000000000000000000000000000000000000000000028152600401808273ffffffffffffffffffffffffffffffffffffffff1673ffffffffffffffffffffffffffffffffffffffff168152602001915050602060405180830381600087803b158015610fd457600080fd5b505af1158015610fe8573d6000803e3d6000fd5b505050506040513d6020811015610ffe57600080fd5b8101908080519060200190929190505050151561101a57600080fd5b6000600c6000015411151561102e57600080fd5b600c60020160003373ffffffffffffffffffffffffffffffffffffffff1673ffffffffffffffffffffffffffffffffffffffff16815260200190815260200160002060009054906101000a900460ff1615151561108a57600080fd5b600b60009054906101000a900460ff1615156110a557600080fd5b6110ad610c5d565b80156110bd57506110bc6109a8565b5b15156110c857600080fd5b600960003373ffffffffffffffffffffffffffffffffffffffff1673ffffffffffffffffffffffffffffffffffffffff16815260200190815260200160002060009054906101000a900460ff16151561112057600080fd5b6001600c60020160003373ffffffffffffffffffffffffffffffffffffffff1673ffffffffffffffffffffffffffffffffffffffff16815260200190815260200160002060006101000a81548160ff021916908315150217905550600c60010160008154809291906001019190505550600a54600c6001015414156112e957600c6000015492506040805190810160405280600081526020016000815250600c60008201518160000155602082015181600101559050506111ff6012546111f16064866119e190919063ffffffff16565b6119fc90919063ffffffff16565b915061121482846119c890919063ffffffff16565b9050601360009054906101000a900473ffffffffffffffffffffffffffffffffffffffff1673ffffffffffffffffffffffffffffffffffffffff166108fc839081150290604051600060405180830381858888f1935050505015801561127e573d6000803e3d6000fd5b50600260009054906101000a900473ffffffffffffffffffffffffffffffffffffffff1673ffffffffffffffffffffffffffffffffffffffff166108fc829081150290604051600060405180830381858888f193505050501580156112e7573d6000803e3d6000fd5b505b505050565b60068054600181600116156101000203166002900480601f0160208091040260200160405190810160405280929190818152602001828054600181600116156101000203166002900480156113845780601f1061135957610100808354040283529160200191611384565b820191906000526020600020905b81548152906001019060200180831161136757829003601f168201915b505050505081565b6000611396610c5d565b80156113a657506113a56109a8565b5b80156113b757506000600c60000154115b80156113c857506113c6610ba1565b155b905090565b600a5481565b600f5442111515156113e457600080fd5b600b60009054906101000a900460ff1615151561140057600080fd5b600860009054906101000a900473ffffffffffffffffffffffffffffffffffffffff1673ffffffffffffffffffffffffffffffffffffffff1663bceee05e336040518263ffffffff167c0100000000000000000000000000000000000000000000000000000000028152600401808273ffffffffffffffffffffffffffffffffffffffff1673ffffffffffffffffffffffffffffffffffffffff168152602001915050602060405180830381600087803b1580156114bd57600080fd5b505af11580156114d1573d6000803e3d6000fd5b505050506040513d60208110156114e757600080fd5b8101908080519060200190929190505050151561150357600080fd5b600860009054906101000a900473ffffffffffffffffffffffffffffffffffffffff1673ffffffffffffffffffffffffffffffffffffffff166349b90557826040518263ffffffff167c0100000000000000000000000000000000000000000000000000000000028152600401808273ffffffffffffffffffffffffffffffffffffffff1673ffffffffffffffffffffffffffffffffffffffff168152602001915050602060405180830381600087803b1580156115c057600080fd5b505af11580156115d4573d6000803e3d6000fd5b505050506040513d60208110156115ea57600080fd5b8101908080519060200190929190505050151561160657600080fd5b600960008273ffffffffffffffffffffffffffffffffffffffff1673ffffffffffffffffffffffffffffffffffffffff16815260200190815260200160002060009054906101000a900460ff1615151561165f57600080fd5b6001600960008373ffffffffffffffffffffffffffffffffffffffff1673ffffffffffffffffffffffffffffffffffffffff16815260200190815260200160002060006101000a81548160ff021916908315150217905550600a6000815480929190600101919050555050565b600b60009054906101000a900460ff1681565b600f5442111515156116f057600080fd5b600b60009054906101000a900460ff1615151561170c57600080fd5b600860009054906101000a900473ffffffffffffffffffffffffffffffffffffffff1673ffffffffffffffffffffffffffffffffffffffff1663bceee05e336040518263ffffffff167c0100000000000000000000000000000000000000000000000000000000028152600401808273ffffffffffffffffffffffffffffffffffffffff1673ffffffffffffffffffffffffffffffffffffffff168152602001915050602060405180830381600087803b1580156117c957600080fd5b505af11580156117dd573d6000803e3d6000fd5b505050506040513d60208110156117f357600080fd5b8101908080519060200190929190505050151561180f57600080fd5b6000600a5411151561182057600080fd5b6001600b60006101000a81548160ff021916908315150217905550565b601360009054906101000a900473ffffffffffffffffffffffffffffffffffffffff1681565b6000809054906101000a900473ffffffffffffffffffffffffffffffffffffffff1681565b600073ffffffffffffffffffffffffffffffffffffffff168273ffffffffffffffffffffffffffffffffffffffff16141515156118c457600080fd5b600081141515156118d457600080fd5b5050565b60006118ef600354836119fc90919063ffffffff16565b9050919050565b600080828401905083811015151561190a57fe5b8091505092915050565b61191e8282611a37565b5050565b80601060008473ffffffffffffffffffffffffffffffffffffffff1673ffffffffffffffffffffffffffffffffffffffff16815260200190815260200160002060008282540192505081905550611978816118d8565b601160008473ffffffffffffffffffffffffffffffffffffffff1673ffffffffffffffffffffffffffffffffffffffff168152602001908152602001600020600082825401925050819055505050565b60008282111515156119d657fe5b818303905092915050565b60008082848115156119ef57fe5b0490508091505092915050565b6000806000841415611a115760009150611a30565b8284029050828482811515611a2257fe5b04141515611a2c57fe5b8091505b5092915050565b6000809054906101000a900473ffffffffffffffffffffffffffffffffffffffff1673ffffffffffffffffffffffffffffffffffffffff166340c10f1983836040518363ffffffff167c0100000000000000000000000000000000000000000000000000000000028152600401808373ffffffffffffffffffffffffffffffffffffffff1673ffffffffffffffffffffffffffffffffffffffff16815260200182815260200192505050602060405180830381600087803b158015611afb57600080fd5b505af1158015611b0f573d6000803e3d6000fd5b505050506040513d6020811015611b2557600080fd5b81019080805190602001909291905050505050505600a165627a7a72305820d6ebbe9172bf9cd8e1cbbd3d515b21ab54aa029ef4c9e7cbbac8962e219411950029",
  "source": "pragma solidity ^0.4.24;\n\nimport \"./BREMToken.sol\";\nimport \"./Userable.sol\";\n\n/**\n * @title SafeERC20\n * @dev Wrappers around ERC20 operations that throw on failure.\n * To use this library you can add a `using SafeERC20 for ERC20;` statement to your contract,\n * which allows you to call the safe operations as `token.safeTransfer(...)`, etc.\n */\nlibrary SafeERC20 {\n    function safeTransfer(ERC20Basic token, address to, uint256 value) internal {\n        require(token.transfer(to, value));\n    }\n    \n    function safeTransferFrom(\n        ERC20 token,\n        address from,\n        address to,\n        uint256 value\n    )\n    internal\n    {\n        require(token.transferFrom(from, to, value));\n    }\n    \n    function safeApprove(ERC20 token, address spender, uint256 value) internal {\n        require(token.approve(spender, value));\n    }\n}\n\ncontract BREMICO {\n    using SafeMath for uint256;\n    using SafeERC20 for BREMToken;\n\n    // The token being sold\n    BREMToken public token;\n    \n    // ICO name (equals to token's name)\n    string public name;\n\n    // Address where funds are collected\n    address public wallet;\n\n    // How many token units a buyer gets per wei.\n    // The rate is the conversion between wei and the smallest and indivisible token unit.\n    // So, if you are using a rate of 1 with a DetailedERC20 token with 3 decimals called TOK\n    // 1 wei will give you 1 unit, or 0.001 TOK.\n    uint256 public rate;\n\n    // Amount of wei raised\n    uint256 public weiRaised;\n    \n    // Value in wei that need owner\n    uint256  public cap;\n    \n    // ICO description\n    string public description;\n    \n    // ICO documentation hashes\n    string public docHash;\n    \n    // Auditors contract instance\n    Auditable audit;\n    \n    // Current ICO auditors\n    mapping(address => bool) auditors;\n    \n    // Current ICO auditors amount\n    uint256 public auditorsAmount;\n    \n    // Is superuser selected all current ICO auditors\n    bool public auditSelected;\n    \n    // Developer's withdraw request\n    struct WithdrawRequst {\n        uint256 value;\n        uint256 confirmAmount;\n        mapping(address => bool) confirmed;\n    }\n    \n    WithdrawRequst public request;\n    \n    // ICO closing time\n    uint256 public closingTime;\n    \n    // Token sale payment registry\n    mapping(address => uint256) public balances; // TODO: Check tokens\n    mapping(address => uint256) public balancesInToken;\n    \n    // Withdraw fee percent\n    uint256 public withdrawFeePercent;\n\n    // Brem contract address\n    address public brem;\n    \n    modifier onlyWhileOpen {\n        // solium-disable-next-line security/no-block-members\n        require(auditSelected && block.timestamp <= closingTime);\n        _;\n    }\n\n    /**\n    * Event for token purchase logging\n    * @param purchaser who paid for the tokens\n    * @param beneficiary who got the tokens\n    * @param value weis paid for purchase\n    * @param amount amount of tokens purchased\n    */\n    event TokenPurchase(\n        address indexed purchaser,\n        address indexed beneficiary,\n        uint256 value,\n        uint256 amount\n    );\n\n    /**\n    * @param _rate Number of token units a buyer gets per wei\n    * @param _wallet Address where collected funds will be forwarded to\n    * @param _token Address of the token being sold\n    */\n    constructor(\n        address _brem,\n        string _name,\n        uint256 _cap,\n        uint256 _rate, \n        address _wallet, \n        BREMToken _token,\n        uint256 _closingTime,\n        string _description, \n        string _docHash,\n        Auditable _auditAddress,\n        uint256 _withdrawFeePercent\n    ) \n        public \n    {\n        require(_brem != address(0));\n        require(bytes(_name).length > 0);\n        require(_cap > 0);\n        require(_rate > 0);\n        require(_wallet != address(0));\n        require(_token != address(0));\n        require(_auditAddress != address(0));\n        require(_closingTime >= block.timestamp);\n        require(_withdrawFeePercent >= 0 && _withdrawFeePercent <= 100);\n        \n        name = _name;\n        brem = _brem;\n        cap = _cap;\n        rate = _rate;\n        wallet = _wallet;\n        token = _token;\n        closingTime = _closingTime;\n        description = _description;\n        docHash = _docHash;\n        audit = Auditable(_auditAddress);\n        withdrawFeePercent = _withdrawFeePercent;\n    }\n\n    // -----------------------------------------\n    // Crowdsale external interface\n    // -----------------------------------------\n    \n    /**\n    * @dev fallback function ***DO NOT OVERRIDE***\n    */\n    function () external payable {\n        buyTokens(msg.sender);\n    }\n\n    /**\n    * @dev low level token purchase ***DO NOT OVERRIDE***\n    * @param _beneficiary Address performing the token purchase\n    */\n    function buyTokens(address _beneficiary) \n        public \n        payable \n        onlyWhileOpen\n    {\n    \n        uint256 weiAmount = msg.value;\n        _preValidatePurchase(_beneficiary, weiAmount);\n    \n        // calculate token amount to be created\n        uint256 tokens = _getTokenAmount(weiAmount);\n    \n        // update state\n        weiRaised = weiRaised.add(weiAmount);\n    \n        _processPurchase(_beneficiary, tokens);\n        emit TokenPurchase(\n            msg.sender,\n            _beneficiary,\n            weiAmount,\n            tokens\n        );\n    \n        _updatePurchasingState(_beneficiary, weiAmount);\n    \n        // _postValidatePurchase();\n    }\n    \n    function addAuditor(address _auditor) public {\n        require(block.timestamp <= closingTime);\n        require(!auditSelected);\n        require(audit.isSuperuser(msg.sender));\n        require(audit.isAuditor(_auditor));\n        require(!auditors[_auditor]);\n        \n        auditors[_auditor] = true;\n        auditorsAmount++;\n    }\n    \n    function finishAuditorSelection() public {\n        require(block.timestamp <= closingTime);\n        require(!auditSelected);\n        require(audit.isSuperuser(msg.sender));\n        require(auditorsAmount > 0);\n        \n        auditSelected = true;\n    }\n    \n    function withdraw(uint256 _value) public payable {\n        require(msg.sender == wallet);\n        require(auditSelected);\n        require(capReached() && hasClosed());\n        require(_value >= 100 && _value <= address(this).balance);\n        require(request.value == 0);\n        \n        request = WithdrawRequst(_value, 0);\n    }\n    \n    // Auditors confirm withdraw\n    function confirmWithdraw() public {\n        require(audit.isAuditor(msg.sender));\n        require(request.value > 0);\n        require(!request.confirmed[msg.sender]);\n        require(auditSelected);\n        require(capReached() && hasClosed());\n        require(auditors[msg.sender]);\n        \n        request.confirmed[msg.sender] = true;\n        request.confirmAmount++;\n        \n        if (request.confirmAmount == auditorsAmount) {\n            uint256 _value = request.value;\n            request = WithdrawRequst(0, 0);\n            uint256 _feeValue = _value.div(100).mul(withdrawFeePercent);\n            uint256 _trasferValue = _value.sub(_feeValue);\n            brem.transfer(_feeValue);\n            wallet.transfer(_trasferValue);\n        }\n    }\n    \n    function refund() public {\n        require(hasClosed() && !capReached());\n        require(balances[msg.sender] > 0);\n        \n        uint256 _value = balances[msg.sender];\n        uint256 _tokenAmount = balancesInToken[msg.sender];\n        balances[msg.sender] = 0;\n        token.burnForRefund(msg.sender, _tokenAmount);\n        weiRaised = weiRaised.sub(_value);\n        msg.sender.transfer(_value);\n    }\n    \n    /**\n    * @dev Checks whether the period in which the crowdsale is open has already elapsed.\n    * @return Whether crowdsale period has elapsed\n    */\n    function hasClosed() public view returns (bool) {\n        // solium-disable-next-line security/no-block-members\n        return block.timestamp > closingTime;\n    }\n    \n    /**\n    * @dev Checks whether the cap has been reached.\n    * @return Whether the cap was reached\n    */\n    function capReached() public view returns (bool) {\n        return weiRaised >= cap;\n    }\n\n    function isAuditor(address _auditor) public view returns (bool) {\n        return auditors[_auditor];\n    }\n    \n    function isRequested() public view returns (bool) {\n        return capReached() && hasClosed() && \n            request.value > 0 && !isWithdrawn();\n    }\n    \n    function isWithdrawn() public view returns (bool) {\n        return hasClosed() && capReached() && address(this).balance < 100;\n    }\n    \n  // -----------------------------------------\n  // Internal interface (extensible)\n  // -----------------------------------------\n\n    /**\n    * @dev Validation of an incoming purchase. Use require statements to revert state when conditions are not met. Use super to concatenate validations.\n    * @param _beneficiary Address performing the token purchase\n    * @param _weiAmount Value in wei involved in the purchase\n    */\n    function _preValidatePurchase(\n        address _beneficiary,\n        uint256 _weiAmount\n    )\n        internal pure\n    {\n        require(_beneficiary != address(0));\n        require(_weiAmount != 0);\n    }\n\n    // /**\n    // * @dev Validation of an executed purchase. Observe state and use revert statements to undo rollback when valid conditions are not met.\n    // */\n    // function _postValidatePurchase(\n    // )\n    //     internal\n    //     onlyWhileOpen\n    // {\n    // }\n\n    /**\n    * @dev Source of tokens. Override this method to modify the way in which the crowdsale ultimately gets and sends its tokens.\n    * @param _beneficiary Address performing the token purchase\n    * @param _tokenAmount Number of tokens to be emitted\n    */\n    function _deliverTokens(\n        address _beneficiary,\n        uint256 _tokenAmount\n    )\n        internal\n    {\n        token.mint(_beneficiary, _tokenAmount);\n    }\n\n    /**\n    * @dev Executed when a purchase has been validated and is ready to be executed. Not necessarily emits/sends tokens.\n    * @param _beneficiary Address receiving the tokens\n    * @param _tokenAmount Number of tokens to be purchased\n    */\n    function _processPurchase(\n        address _beneficiary,\n        uint256 _tokenAmount\n    )\n        internal\n    {\n        _deliverTokens(_beneficiary, _tokenAmount);\n    }\n\n    /**\n    * @dev Override for extensions that require an internal state to check for validity (current user contributions, etc.)\n    * @param _beneficiary Address receiving the tokens\n    * @param _weiAmount Value in wei involved in the purchase\n    */\n    function _updatePurchasingState(\n        address _beneficiary,\n        uint256 _weiAmount\n    )\n        internal\n    {\n        balances[_beneficiary] += _weiAmount;\n        balancesInToken[_beneficiary] += _getTokenAmount(_weiAmount);\n    }\n\n    /**\n    * @dev Override to extend the way in which ether is converted to tokens.\n    * @param _weiAmount Value in wei to be converted into tokens\n    * @return Number of tokens that can be purchased with the specified _weiAmount\n    */\n    function _getTokenAmount(uint256 _weiAmount)\n        internal view returns (uint256)\n    {\n        return _weiAmount.mul(rate);\n    }\n}",
  "sourcePath": "/Users/artur/Development/Brem/contracts/BREMICO.sol",
  "compiler": {
    "name": "solc",
    "version": "0.4.24+commit.e67f0147.Emscripten.clang"
  },
  "schemaVersion": "2.0.1",
  "updatedAt": "2018-08-05T12:19:55.962Z"
}