{
  "contractName": "BREMICO",
  "abi": [
    {
      "constant": true,
      "inputs": [],
      "name": "name",
      "outputs": [
        {
          "name": "",
          "type": "string"
        }
      ],
      "payable": false,
      "stateMutability": "view",
      "type": "function"
    },
    {
      "constant": true,
      "inputs": [
        {
          "name": "",
          "type": "address"
        }
      ],
      "name": "balances",
      "outputs": [
        {
          "name": "",
          "type": "uint256"
        }
      ],
      "payable": false,
      "stateMutability": "view",
      "type": "function"
    },
    {
      "constant": true,
      "inputs": [],
      "name": "rate",
      "outputs": [
        {
          "name": "",
          "type": "uint256"
        }
      ],
      "payable": false,
      "stateMutability": "view",
      "type": "function"
    },
    {
      "constant": true,
      "inputs": [],
      "name": "request",
      "outputs": [
        {
          "name": "value",
          "type": "uint256"
        },
        {
          "name": "confirmAmount",
          "type": "uint256"
        }
      ],
      "payable": false,
      "stateMutability": "view",
      "type": "function"
    },
    {
      "constant": true,
      "inputs": [],
      "name": "cap",
      "outputs": [
        {
          "name": "",
          "type": "uint256"
        }
      ],
      "payable": false,
      "stateMutability": "view",
      "type": "function"
    },
    {
      "constant": true,
      "inputs": [],
      "name": "docHash",
      "outputs": [
        {
          "name": "",
          "type": "string"
        }
      ],
      "payable": false,
      "stateMutability": "view",
      "type": "function"
    },
    {
      "constant": true,
      "inputs": [],
      "name": "weiRaised",
      "outputs": [
        {
          "name": "",
          "type": "uint256"
        }
      ],
      "payable": false,
      "stateMutability": "view",
      "type": "function"
    },
    {
      "constant": true,
      "inputs": [
        {
          "name": "",
          "type": "address"
        }
      ],
      "name": "balancesInToken",
      "outputs": [
        {
          "name": "",
          "type": "uint256"
        }
      ],
      "payable": false,
      "stateMutability": "view",
      "type": "function"
    },
    {
      "constant": true,
      "inputs": [],
      "name": "withdrawFeePercent",
      "outputs": [
        {
          "name": "",
          "type": "uint256"
        }
      ],
      "payable": false,
      "stateMutability": "view",
      "type": "function"
    },
    {
      "constant": true,
      "inputs": [],
      "name": "closingTime",
      "outputs": [
        {
          "name": "",
          "type": "uint256"
        }
      ],
      "payable": false,
      "stateMutability": "view",
      "type": "function"
    },
    {
      "constant": true,
      "inputs": [],
      "name": "wallet",
      "outputs": [
        {
          "name": "",
          "type": "address"
        }
      ],
      "payable": false,
      "stateMutability": "view",
      "type": "function"
    },
    {
      "constant": true,
      "inputs": [],
      "name": "description",
      "outputs": [
        {
          "name": "",
          "type": "string"
        }
      ],
      "payable": false,
      "stateMutability": "view",
      "type": "function"
    },
    {
      "constant": true,
      "inputs": [],
      "name": "auditorsAmount",
      "outputs": [
        {
          "name": "",
          "type": "uint256"
        }
      ],
      "payable": false,
      "stateMutability": "view",
      "type": "function"
    },
    {
      "constant": true,
      "inputs": [],
      "name": "auditSelected",
      "outputs": [
        {
          "name": "",
          "type": "bool"
        }
      ],
      "payable": false,
      "stateMutability": "view",
      "type": "function"
    },
    {
      "constant": true,
      "inputs": [],
      "name": "brem",
      "outputs": [
        {
          "name": "",
          "type": "address"
        }
      ],
      "payable": false,
      "stateMutability": "view",
      "type": "function"
    },
    {
      "constant": true,
      "inputs": [],
      "name": "token",
      "outputs": [
        {
          "name": "",
          "type": "address"
        }
      ],
      "payable": false,
      "stateMutability": "view",
      "type": "function"
    },
    {
      "inputs": [
        {
          "name": "_brem",
          "type": "address"
        },
        {
          "name": "_name",
          "type": "string"
        },
        {
          "name": "_cap",
          "type": "uint256"
        },
        {
          "name": "_rate",
          "type": "uint256"
        },
        {
          "name": "_wallet",
          "type": "address"
        },
        {
          "name": "_token",
          "type": "address"
        },
        {
          "name": "_closingTime",
          "type": "uint256"
        },
        {
          "name": "_description",
          "type": "string"
        },
        {
          "name": "_docHash",
          "type": "string"
        },
        {
          "name": "_auditAddress",
          "type": "address"
        },
        {
          "name": "_withdrawFeePercent",
          "type": "uint256"
        }
      ],
      "payable": false,
      "stateMutability": "nonpayable",
      "type": "constructor"
    },
    {
      "payable": true,
      "stateMutability": "payable",
      "type": "fallback"
    },
    {
      "anonymous": false,
      "inputs": [
        {
          "indexed": true,
          "name": "purchaser",
          "type": "address"
        },
        {
          "indexed": true,
          "name": "beneficiary",
          "type": "address"
        },
        {
          "indexed": false,
          "name": "value",
          "type": "uint256"
        },
        {
          "indexed": false,
          "name": "amount",
          "type": "uint256"
        }
      ],
      "name": "TokenPurchase",
      "type": "event"
    },
    {
      "constant": false,
      "inputs": [
        {
          "name": "_beneficiary",
          "type": "address"
        }
      ],
      "name": "buyTokens",
      "outputs": [],
      "payable": true,
      "stateMutability": "payable",
      "type": "function"
    },
    {
      "constant": false,
      "inputs": [
        {
          "name": "_auditor",
          "type": "address"
        }
      ],
      "name": "addAuditor",
      "outputs": [],
      "payable": false,
      "stateMutability": "nonpayable",
      "type": "function"
    },
    {
      "constant": false,
      "inputs": [],
      "name": "finishAuditorSelection",
      "outputs": [],
      "payable": false,
      "stateMutability": "nonpayable",
      "type": "function"
    },
    {
      "constant": false,
      "inputs": [
        {
          "name": "_value",
          "type": "uint256"
        }
      ],
      "name": "withdraw",
      "outputs": [],
      "payable": true,
      "stateMutability": "payable",
      "type": "function"
    },
    {
      "constant": false,
      "inputs": [],
      "name": "confirmWithdraw",
      "outputs": [],
      "payable": false,
      "stateMutability": "nonpayable",
      "type": "function"
    },
    {
      "constant": false,
      "inputs": [],
      "name": "refund",
      "outputs": [],
      "payable": false,
      "stateMutability": "nonpayable",
      "type": "function"
    },
    {
      "constant": true,
      "inputs": [],
      "name": "hasClosed",
      "outputs": [
        {
          "name": "",
          "type": "bool"
        }
      ],
      "payable": false,
      "stateMutability": "view",
      "type": "function"
    },
    {
      "constant": true,
      "inputs": [],
      "name": "capReached",
      "outputs": [
        {
          "name": "",
          "type": "bool"
        }
      ],
      "payable": false,
      "stateMutability": "view",
      "type": "function"
    },
    {
      "constant": true,
      "inputs": [
        {
          "name": "_auditor",
          "type": "address"
        }
      ],
      "name": "isAuditor",
      "outputs": [
        {
          "name": "",
          "type": "bool"
        }
      ],
      "payable": false,
      "stateMutability": "view",
      "type": "function"
    },
    {
      "constant": true,
      "inputs": [
        {
          "name": "_auditor",
          "type": "address"
        }
      ],
      "name": "isComfirmed",
      "outputs": [
        {
          "name": "",
          "type": "bool"
        }
      ],
      "payable": false,
      "stateMutability": "view",
      "type": "function"
    }
  ],
  "bytecode": "0x60806040523480156200001157600080fd5b5060405162001fb138038062001fb18339810180604052810190808051906020019092919080518201929190602001805190602001909291908051906020019092919080519060200190929190805190602001909291908051906020019092919080518201929190602001805182019291906020018051906020019092919080519060200190929190505050600073ffffffffffffffffffffffffffffffffffffffff168b73ffffffffffffffffffffffffffffffffffffffff1614151515620000da57600080fd5b60008a51111515620000eb57600080fd5b600089111515620000fb57600080fd5b6000881115156200010b57600080fd5b600073ffffffffffffffffffffffffffffffffffffffff168773ffffffffffffffffffffffffffffffffffffffff16141515156200014857600080fd5b600073ffffffffffffffffffffffffffffffffffffffff168673ffffffffffffffffffffffffffffffffffffffff16141515156200018557600080fd5b600073ffffffffffffffffffffffffffffffffffffffff168273ffffffffffffffffffffffffffffffffffffffff1614151515620001c257600080fd5b428510151515620001d257600080fd5b60008110158015620001e5575060648111155b1515620001f157600080fd5b8960019080519060200190620002099291906200036c565b508a601360006101000a81548173ffffffffffffffffffffffffffffffffffffffff021916908373ffffffffffffffffffffffffffffffffffffffff160217905550886005819055508760038190555086600260006101000a81548173ffffffffffffffffffffffffffffffffffffffff021916908373ffffffffffffffffffffffffffffffffffffffff160217905550856000806101000a81548173ffffffffffffffffffffffffffffffffffffffff021916908373ffffffffffffffffffffffffffffffffffffffff16021790555084600f819055508360069080519060200190620002f99291906200036c565b508260079080519060200190620003129291906200036c565b5081600860006101000a81548173ffffffffffffffffffffffffffffffffffffffff021916908373ffffffffffffffffffffffffffffffffffffffff1602179055508060128190555050505050505050505050506200041b565b828054600181600116156101000203166002900490600052602060002090601f016020900481019282601f10620003af57805160ff1916838001178555620003e0565b82800160010185558215620003e0579182015b82811115620003df578251825591602001919060010190620003c2565b5b509050620003ef9190620003f3565b5090565b6200041891905b8082111562000414576000816000905550600101620003fa565b5090565b90565b611b86806200042b6000396000f300608060405260043610610154576000357c0100000000000000000000000000000000000000000000000000000000900463ffffffff16806306fdde031461015f5780631515bc2b146101ef57806327e235e31461021e5780632c4e722e146102755780632e1a7d4d146102a0578063338cdca1146102c0578063355274ea146102f25780633d6df0d51461031d5780634042b66f146103ad57806345e4f34a146103d8578063495ef7051461042f57806349b905571461045a5780634b6753bc146104b55780634f935945146104e0578063521eb2731461050f578063590e1ae31461056657806368124f9a1461057d5780637284e416146105945780637eee498814610624578063c8e7f5951461067f578063e429cef1146106aa578063e44e76a0146106ed578063ea78d1ab1461071c578063ec8ac4d814610733578063fad5e0c414610769578063fc0c546a146107c0575b61015d33610817565b005b34801561016b57600080fd5b506101746108fc565b6040518080602001828103825283818151815260200191508051906020019080838360005b838110156101b4578082015181840152602081019050610199565b50505050905090810190601f1680156101e15780820380516001836020036101000a031916815260200191505b509250505060405180910390f35b3480156101fb57600080fd5b5061020461099a565b604051808215151515815260200191505060405180910390f35b34801561022a57600080fd5b5061025f600480360381019080803573ffffffffffffffffffffffffffffffffffffffff1690602001909291905050506109a6565b6040518082815260200191505060405180910390f35b34801561028157600080fd5b5061028a6109be565b6040518082815260200191505060405180910390f35b6102be600480360381019080803590602001909291905050506109c4565b005b3480156102cc57600080fd5b506102d5610ad6565b604051808381526020018281526020019250505060405180910390f35b3480156102fe57600080fd5b50610307610ae8565b6040518082815260200191505060405180910390f35b34801561032957600080fd5b50610332610aee565b6040518080602001828103825283818151815260200191508051906020019080838360005b83811015610372578082015181840152602081019050610357565b50505050905090810190601f16801561039f5780820380516001836020036101000a031916815260200191505b509250505060405180910390f35b3480156103b957600080fd5b506103c2610b8c565b6040518082815260200191505060405180910390f35b3480156103e457600080fd5b50610419600480360381019080803573ffffffffffffffffffffffffffffffffffffffff169060200190929190505050610b92565b6040518082815260200191505060405180910390f35b34801561043b57600080fd5b50610444610baa565b6040518082815260200191505060405180910390f35b34801561046657600080fd5b5061049b600480360381019080803573ffffffffffffffffffffffffffffffffffffffff169060200190929190505050610bb0565b604051808215151515815260200191505060405180910390f35b3480156104c157600080fd5b506104ca610c06565b6040518082815260200191505060405180910390f35b3480156104ec57600080fd5b506104f5610c0c565b604051808215151515815260200191505060405180910390f35b34801561051b57600080fd5b50610524610c1b565b604051808273ffffffffffffffffffffffffffffffffffffffff1673ffffffffffffffffffffffffffffffffffffffff16815260200191505060405180910390f35b34801561057257600080fd5b5061057b610c41565b005b34801561058957600080fd5b50610592610ec1565b005b3480156105a057600080fd5b506105a961129d565b6040518080602001828103825283818151815260200191508051906020019080838360005b838110156105e95780820151818401526020810190506105ce565b50505050905090810190601f1680156106165780820380516001836020036101000a031916815260200191505b509250505060405180910390f35b34801561063057600080fd5b50610665600480360381019080803573ffffffffffffffffffffffffffffffffffffffff16906020019092919050505061133b565b604051808215151515815260200191505060405180910390f35b34801561068b57600080fd5b506106946113ec565b6040518082815260200191505060405180910390f35b3480156106b657600080fd5b506106eb600480360381019080803573ffffffffffffffffffffffffffffffffffffffff1690602001909291905050506113f2565b005b3480156106f957600080fd5b506107026116eb565b604051808215151515815260200191505060405180910390f35b34801561072857600080fd5b506107316116fe565b005b610767600480360381019080803573ffffffffffffffffffffffffffffffffffffffff169060200190929190505050610817565b005b34801561077557600080fd5b5061077e61185c565b604051808273ffffffffffffffffffffffffffffffffffffffff1673ffffffffffffffffffffffffffffffffffffffff16815260200191505060405180910390f35b3480156107cc57600080fd5b506107d5611882565b604051808273ffffffffffffffffffffffffffffffffffffffff1673ffffffffffffffffffffffffffffffffffffffff16815260200191505060405180910390f35b600080600b60009054906101000a900460ff1680156108385750600f544211155b151561084357600080fd5b34915061085083836118a7565b610859826118f7565b90506108708260045461191590919063ffffffff16565b6004819055506108808382611933565b8273ffffffffffffffffffffffffffffffffffffffff163373ffffffffffffffffffffffffffffffffffffffff167f623b3804fa71d67900d064613da8f94b9617215ee90799290593e1745087ad188484604051808381526020018281526020019250505060405180910390a36108f78383611941565b505050565b60018054600181600116156101000203166002900480601f0160208091040260200160405190810160405280929190818152602001828054600181600116156101000203166002900480156109925780601f1061096757610100808354040283529160200191610992565b820191906000526020600020905b81548152906001019060200180831161097557829003601f168201915b505050505081565b6000600f544211905090565b60106020528060005260406000206000915090505481565b60035481565b600260009054906101000a900473ffffffffffffffffffffffffffffffffffffffff1673ffffffffffffffffffffffffffffffffffffffff163373ffffffffffffffffffffffffffffffffffffffff16141515610a2057600080fd5b600b60009054906101000a900460ff161515610a3b57600080fd5b610a43610c0c565b8015610a535750610a5261099a565b5b1515610a5e57600080fd5b600081118015610a8557503073ffffffffffffffffffffffffffffffffffffffff16318111155b1515610a9057600080fd5b6000600c60000154141515610aa457600080fd5b60408051908101604052808281526020016000815250600c600082015181600001556020820151816001015590505050565b600c8060000154908060010154905082565b60055481565b60078054600181600116156101000203166002900480601f016020809104026020016040519081016040528092919081815260200182805460018160011615610100020316600290048015610b845780601f10610b5957610100808354040283529160200191610b84565b820191906000526020600020905b815481529060010190602001808311610b6757829003601f168201915b505050505081565b60045481565b60116020528060005260406000206000915090505481565b60125481565b6000600960008373ffffffffffffffffffffffffffffffffffffffff1673ffffffffffffffffffffffffffffffffffffffff16815260200190815260200160002060009054906101000a900460ff169050919050565b600f5481565b60006005546004541015905090565b600260009054906101000a900473ffffffffffffffffffffffffffffffffffffffff1681565b600080610c4c61099a565b8015610c5d5750610c5b610c0c565b155b1515610c6857600080fd5b6000601060003373ffffffffffffffffffffffffffffffffffffffff1673ffffffffffffffffffffffffffffffffffffffff16815260200190815260200160002054111515610cb657600080fd5b601060003373ffffffffffffffffffffffffffffffffffffffff1673ffffffffffffffffffffffffffffffffffffffff168152602001908152602001600020549150601160003373ffffffffffffffffffffffffffffffffffffffff1673ffffffffffffffffffffffffffffffffffffffff1681526020019081526020016000205490506000601060003373ffffffffffffffffffffffffffffffffffffffff1673ffffffffffffffffffffffffffffffffffffffff168152602001908152602001600020819055506000809054906101000a900473ffffffffffffffffffffffffffffffffffffffff1673ffffffffffffffffffffffffffffffffffffffff1663d0482d0433836040518363ffffffff167c0100000000000000000000000000000000000000000000000000000000028152600401808373ffffffffffffffffffffffffffffffffffffffff1673ffffffffffffffffffffffffffffffffffffffff16815260200182815260200192505050600060405180830381600087803b158015610e4357600080fd5b505af1158015610e57573d6000803e3d6000fd5b50505050610e70826004546119e790919063ffffffff16565b6004819055503373ffffffffffffffffffffffffffffffffffffffff166108fc839081150290604051600060405180830381858888f19350505050158015610ebc573d6000803e3d6000fd5b505050565b6000806000600860009054906101000a900473ffffffffffffffffffffffffffffffffffffffff1673ffffffffffffffffffffffffffffffffffffffff166349b90557336040518263ffffffff167c0100000000000000000000000000000000000000000000000000000000028152600401808273ffffffffffffffffffffffffffffffffffffffff1673ffffffffffffffffffffffffffffffffffffffff168152602001915050602060405180830381600087803b158015610f8357600080fd5b505af1158015610f97573d6000803e3d6000fd5b505050506040513d6020811015610fad57600080fd5b81019080805190602001909291905050501515610fc957600080fd5b6000600c60000154111515610fdd57600080fd5b600c60020160003373ffffffffffffffffffffffffffffffffffffffff1673ffffffffffffffffffffffffffffffffffffffff16815260200190815260200160002060009054906101000a900460ff1615151561103957600080fd5b600b60009054906101000a900460ff16151561105457600080fd5b61105c610c0c565b801561106c575061106b61099a565b5b151561107757600080fd5b600960003373ffffffffffffffffffffffffffffffffffffffff1673ffffffffffffffffffffffffffffffffffffffff16815260200190815260200160002060009054906101000a900460ff1615156110cf57600080fd5b6001600c60020160003373ffffffffffffffffffffffffffffffffffffffff1673ffffffffffffffffffffffffffffffffffffffff16815260200190815260200160002060006101000a81548160ff021916908315150217905550600c60010160008154809291906001019190505550600a54600c60010154141561129857600c6000015492506040805190810160405280600081526020016000815250600c60008201518160000155602082015181600101559050506111ae6012546111a0606486611a0090919063ffffffff16565b611a1b90919063ffffffff16565b91506111c382846119e790919063ffffffff16565b9050601360009054906101000a900473ffffffffffffffffffffffffffffffffffffffff1673ffffffffffffffffffffffffffffffffffffffff166108fc839081150290604051600060405180830381858888f1935050505015801561122d573d6000803e3d6000fd5b50600260009054906101000a900473ffffffffffffffffffffffffffffffffffffffff1673ffffffffffffffffffffffffffffffffffffffff166108fc829081150290604051600060405180830381858888f19350505050158015611296573d6000803e3d6000fd5b505b505050565b60068054600181600116156101000203166002900480601f0160208091040260200160405190810160405280929190818152602001828054600181600116156101000203166002900480156113335780601f1061130857610100808354040283529160200191611333565b820191906000526020600020905b81548152906001019060200180831161131657829003601f168201915b505050505081565b6000600960008373ffffffffffffffffffffffffffffffffffffffff1673ffffffffffffffffffffffffffffffffffffffff16815260200190815260200160002060009054906101000a900460ff16151561139557600080fd5b600c60020160008373ffffffffffffffffffffffffffffffffffffffff1673ffffffffffffffffffffffffffffffffffffffff16815260200190815260200160002060009054906101000a900460ff169050919050565b600a5481565b600f54421115151561140357600080fd5b600b60009054906101000a900460ff1615151561141f57600080fd5b600860009054906101000a900473ffffffffffffffffffffffffffffffffffffffff1673ffffffffffffffffffffffffffffffffffffffff1663bceee05e336040518263ffffffff167c0100000000000000000000000000000000000000000000000000000000028152600401808273ffffffffffffffffffffffffffffffffffffffff1673ffffffffffffffffffffffffffffffffffffffff168152602001915050602060405180830381600087803b1580156114dc57600080fd5b505af11580156114f0573d6000803e3d6000fd5b505050506040513d602081101561150657600080fd5b8101908080519060200190929190505050151561152257600080fd5b600860009054906101000a900473ffffffffffffffffffffffffffffffffffffffff1673ffffffffffffffffffffffffffffffffffffffff166349b90557826040518263ffffffff167c0100000000000000000000000000000000000000000000000000000000028152600401808273ffffffffffffffffffffffffffffffffffffffff1673ffffffffffffffffffffffffffffffffffffffff168152602001915050602060405180830381600087803b1580156115df57600080fd5b505af11580156115f3573d6000803e3d6000fd5b505050506040513d602081101561160957600080fd5b8101908080519060200190929190505050151561162557600080fd5b600960008273ffffffffffffffffffffffffffffffffffffffff1673ffffffffffffffffffffffffffffffffffffffff16815260200190815260200160002060009054906101000a900460ff1615151561167e57600080fd5b6001600960008373ffffffffffffffffffffffffffffffffffffffff1673ffffffffffffffffffffffffffffffffffffffff16815260200190815260200160002060006101000a81548160ff021916908315150217905550600a6000815480929190600101919050555050565b600b60009054906101000a900460ff1681565b600f54421115151561170f57600080fd5b600b60009054906101000a900460ff1615151561172b57600080fd5b600860009054906101000a900473ffffffffffffffffffffffffffffffffffffffff1673ffffffffffffffffffffffffffffffffffffffff1663bceee05e336040518263ffffffff167c0100000000000000000000000000000000000000000000000000000000028152600401808273ffffffffffffffffffffffffffffffffffffffff1673ffffffffffffffffffffffffffffffffffffffff168152602001915050602060405180830381600087803b1580156117e857600080fd5b505af11580156117fc573d6000803e3d6000fd5b505050506040513d602081101561181257600080fd5b8101908080519060200190929190505050151561182e57600080fd5b6000600a5411151561183f57600080fd5b6001600b60006101000a81548160ff021916908315150217905550565b601360009054906101000a900473ffffffffffffffffffffffffffffffffffffffff1681565b6000809054906101000a900473ffffffffffffffffffffffffffffffffffffffff1681565b600073ffffffffffffffffffffffffffffffffffffffff168273ffffffffffffffffffffffffffffffffffffffff16141515156118e357600080fd5b600081141515156118f357600080fd5b5050565b600061190e60035483611a1b90919063ffffffff16565b9050919050565b600080828401905083811015151561192957fe5b8091505092915050565b61193d8282611a56565b5050565b80601060008473ffffffffffffffffffffffffffffffffffffffff1673ffffffffffffffffffffffffffffffffffffffff16815260200190815260200160002060008282540192505081905550611997816118f7565b601160008473ffffffffffffffffffffffffffffffffffffffff1673ffffffffffffffffffffffffffffffffffffffff168152602001908152602001600020600082825401925050819055505050565b60008282111515156119f557fe5b818303905092915050565b6000808284811515611a0e57fe5b0490508091505092915050565b6000806000841415611a305760009150611a4f565b8284029050828482811515611a4157fe5b04141515611a4b57fe5b8091505b5092915050565b6000809054906101000a900473ffffffffffffffffffffffffffffffffffffffff1673ffffffffffffffffffffffffffffffffffffffff166340c10f1983836040518363ffffffff167c0100000000000000000000000000000000000000000000000000000000028152600401808373ffffffffffffffffffffffffffffffffffffffff1673ffffffffffffffffffffffffffffffffffffffff16815260200182815260200192505050602060405180830381600087803b158015611b1a57600080fd5b505af1158015611b2e573d6000803e3d6000fd5b505050506040513d6020811015611b4457600080fd5b81019080805190602001909291905050505050505600a165627a7a72305820067974a9af12d4bff3c9b027050dd1683f3c58f6089b00df2f0c156cf3c17e520029",
  "source": "pragma solidity ^0.4.24;\n\nimport \"./BREMToken.sol\";\nimport \"./Userable.sol\";\n\n/**\n * @title SafeERC20\n * @dev Wrappers around ERC20 operations that throw on failure.\n * To use this library you can add a `using SafeERC20 for ERC20;` statement to your contract,\n * which allows you to call the safe operations as `token.safeTransfer(...)`, etc.\n */\nlibrary SafeERC20 {\n    function safeTransfer(ERC20Basic token, address to, uint256 value) internal {\n        require(token.transfer(to, value));\n    }\n    \n    function safeTransferFrom(\n        ERC20 token,\n        address from,\n        address to,\n        uint256 value\n    )\n    internal\n    {\n        require(token.transferFrom(from, to, value));\n    }\n    \n    function safeApprove(ERC20 token, address spender, uint256 value) internal {\n        require(token.approve(spender, value));\n    }\n}\n\ncontract BREMICO {\n    using SafeMath for uint256;\n    using SafeERC20 for BREMToken;\n\n    // The token being sold\n    BREMToken public token;\n    \n    // ICO name (equals to token's name)\n    string public name;\n\n    // Address where funds are collected\n    address public wallet;\n\n    // How many token units a buyer gets per wei.\n    // The rate is the conversion between wei and the smallest and indivisible token unit.\n    // So, if you are using a rate of 1 with a DetailedERC20 token with 3 decimals called TOK\n    // 1 wei will give you 1 unit, or 0.001 TOK.\n    uint256 public rate;\n\n    // Amount of wei raised\n    uint256 public weiRaised;\n    \n    // Value in wei that need owner\n    uint256  public cap;\n    \n    // ICO description\n    string public description;\n    \n    // ICO documentation hashes\n    string public docHash;\n    \n    // Auditors contract instance\n    Auditable audit;\n    \n    // Current ICO auditors\n    mapping(address => bool) auditors;\n    \n    // Current ICO auditors amount\n    uint256 public auditorsAmount;\n    \n    // Is superuser selected all current ICO auditors\n    bool public auditSelected;\n    \n    // Developer's withdraw request\n    struct WithdrawRequst {\n        uint256 value;\n        uint256 confirmAmount;\n        mapping(address => bool) confirmed;\n    }\n    \n    WithdrawRequst public request;\n    \n    // ICO closing time\n    uint256 public closingTime;\n    \n    // Token sale payment registry\n    mapping(address => uint256) public balances; // TODO: Check tokens\n    mapping(address => uint256) public balancesInToken;\n    \n    // Withdraw fee percent\n    uint256 public withdrawFeePercent;\n\n    // Brem contract address\n    address public brem;\n    \n    modifier onlyWhileOpen {\n        // solium-disable-next-line security/no-block-members\n        require(auditSelected && block.timestamp <= closingTime);\n        _;\n    }\n\n    /**\n    * Event for token purchase logging\n    * @param purchaser who paid for the tokens\n    * @param beneficiary who got the tokens\n    * @param value weis paid for purchase\n    * @param amount amount of tokens purchased\n    */\n    event TokenPurchase(\n        address indexed purchaser,\n        address indexed beneficiary,\n        uint256 value,\n        uint256 amount\n    );\n\n    /**\n    * @param _rate Number of token units a buyer gets per wei\n    * @param _wallet Address where collected funds will be forwarded to\n    * @param _token Address of the token being sold\n    */\n    constructor(\n        address _brem,\n        string _name,\n        uint256 _cap,\n        uint256 _rate, \n        address _wallet, \n        BREMToken _token,\n        uint256 _closingTime,\n        string _description, \n        string _docHash,\n        Auditable _auditAddress,\n        uint256 _withdrawFeePercent\n    ) \n        public \n    {\n        require(_brem != address(0));\n        require(bytes(_name).length > 0);\n        require(_cap > 0);\n        require(_rate > 0);\n        require(_wallet != address(0));\n        require(_token != address(0));\n        require(_auditAddress != address(0));\n        require(_closingTime >= block.timestamp);\n        require(_withdrawFeePercent >= 0 && _withdrawFeePercent <= 100);\n        \n        name = _name;\n        brem = _brem;\n        cap = _cap;\n        rate = _rate;\n        wallet = _wallet;\n        token = _token;\n        closingTime = _closingTime;\n        description = _description;\n        docHash = _docHash;\n        audit = Auditable(_auditAddress);\n        withdrawFeePercent = _withdrawFeePercent;\n    }\n\n    // -----------------------------------------\n    // Crowdsale external interface\n    // -----------------------------------------\n    \n    /**\n    * @dev fallback function ***DO NOT OVERRIDE***\n    */\n    function () external payable {\n        buyTokens(msg.sender);\n    }\n\n    /**\n    * @dev low level token purchase ***DO NOT OVERRIDE***\n    * @param _beneficiary Address performing the token purchase\n    */\n    function buyTokens(address _beneficiary) \n        public \n        payable \n        onlyWhileOpen\n    {\n    \n        uint256 weiAmount = msg.value;\n        _preValidatePurchase(_beneficiary, weiAmount);\n    \n        // calculate token amount to be created\n        uint256 tokens = _getTokenAmount(weiAmount);\n    \n        // update state\n        weiRaised = weiRaised.add(weiAmount);\n    \n        _processPurchase(_beneficiary, tokens);\n        emit TokenPurchase(\n            msg.sender,\n            _beneficiary,\n            weiAmount,\n            tokens\n        );\n    \n        _updatePurchasingState(_beneficiary, weiAmount);\n    \n        // _postValidatePurchase();\n    }\n    \n    function addAuditor(address _auditor) public {\n        require(block.timestamp <= closingTime);\n        require(!auditSelected);\n        require(audit.isSuperuser(msg.sender));\n        require(audit.isAuditor(_auditor));\n        require(!auditors[_auditor]);\n        \n        auditors[_auditor] = true;\n        auditorsAmount++;\n    }\n    \n    function finishAuditorSelection() public {\n        require(block.timestamp <= closingTime);\n        require(!auditSelected);\n        require(audit.isSuperuser(msg.sender));\n        require(auditorsAmount > 0);\n        \n        auditSelected = true;\n    }\n    \n    function withdraw(uint256 _value) public payable {\n        require(msg.sender == wallet);\n        require(auditSelected);\n        require(capReached() && hasClosed());\n        require(_value > 0 && _value <= address(this).balance);\n        require(request.value == 0);\n        \n        request = WithdrawRequst(_value, 0);\n    }\n    \n    // Auditors confirm withdraw\n    function confirmWithdraw() public {\n        require(audit.isAuditor(msg.sender));\n        require(request.value > 0);\n        require(!request.confirmed[msg.sender]);\n        require(auditSelected);\n        require(capReached() && hasClosed());\n        require(auditors[msg.sender]);\n        \n        request.confirmed[msg.sender] = true;\n        request.confirmAmount++;\n        \n        if (request.confirmAmount == auditorsAmount) {\n            uint256 _value = request.value;\n            request = WithdrawRequst(0, 0);\n            uint256 _feeValue = _value.div(100).mul(withdrawFeePercent);\n            uint256 _trasferValue = _value.sub(_feeValue);\n            brem.transfer(_feeValue);\n            wallet.transfer(_trasferValue);\n        }\n    }\n    \n    function refund() public {\n        require(hasClosed() && !capReached());\n        require(balances[msg.sender] > 0);\n        \n        uint256 _value = balances[msg.sender];\n        uint256 _tokenAmount = balancesInToken[msg.sender];\n        balances[msg.sender] = 0;\n        token.burnForRefund(msg.sender, _tokenAmount);\n        weiRaised = weiRaised.sub(_value);\n        msg.sender.transfer(_value);\n    }\n    \n    /**\n    * @dev Checks whether the period in which the crowdsale is open has already elapsed.\n    * @return Whether crowdsale period has elapsed\n    */\n    function hasClosed() public view returns (bool) {\n        // solium-disable-next-line security/no-block-members\n        return block.timestamp > closingTime;\n    }\n    \n    /**\n    * @dev Checks whether the cap has been reached.\n    * @return Whether the cap was reached\n    */\n    function capReached() public view returns (bool) {\n        return weiRaised >= cap;\n    }\n\n    function isAuditor(address _auditor) public view returns (bool) {\n        return auditors[_auditor];\n    }\n    \n    function isComfirmed(address _auditor) public view returns (bool) {\n        require(auditors[_auditor]);\n        return request.confirmed[_auditor];\n    }\n    \n  // -----------------------------------------\n  // Internal interface (extensible)\n  // -----------------------------------------\n\n    /**\n    * @dev Validation of an incoming purchase. Use require statements to revert state when conditions are not met. Use super to concatenate validations.\n    * @param _beneficiary Address performing the token purchase\n    * @param _weiAmount Value in wei involved in the purchase\n    */\n    function _preValidatePurchase(\n        address _beneficiary,\n        uint256 _weiAmount\n    )\n        internal pure\n    {\n        require(_beneficiary != address(0));\n        require(_weiAmount != 0);\n    }\n\n    // /**\n    // * @dev Validation of an executed purchase. Observe state and use revert statements to undo rollback when valid conditions are not met.\n    // */\n    // function _postValidatePurchase(\n    // )\n    //     internal\n    //     onlyWhileOpen\n    // {\n    // }\n\n    /**\n    * @dev Source of tokens. Override this method to modify the way in which the crowdsale ultimately gets and sends its tokens.\n    * @param _beneficiary Address performing the token purchase\n    * @param _tokenAmount Number of tokens to be emitted\n    */\n    function _deliverTokens(\n        address _beneficiary,\n        uint256 _tokenAmount\n    )\n        internal\n    {\n        token.mint(_beneficiary, _tokenAmount);\n    }\n\n    /**\n    * @dev Executed when a purchase has been validated and is ready to be executed. Not necessarily emits/sends tokens.\n    * @param _beneficiary Address receiving the tokens\n    * @param _tokenAmount Number of tokens to be purchased\n    */\n    function _processPurchase(\n        address _beneficiary,\n        uint256 _tokenAmount\n    )\n        internal\n    {\n        _deliverTokens(_beneficiary, _tokenAmount);\n    }\n\n    /**\n    * @dev Override for extensions that require an internal state to check for validity (current user contributions, etc.)\n    * @param _beneficiary Address receiving the tokens\n    * @param _weiAmount Value in wei involved in the purchase\n    */\n    function _updatePurchasingState(\n        address _beneficiary,\n        uint256 _weiAmount\n    )\n        internal\n    {\n        balances[_beneficiary] += _weiAmount;\n        balancesInToken[_beneficiary] += _getTokenAmount(_weiAmount);\n    }\n\n    /**\n    * @dev Override to extend the way in which ether is converted to tokens.\n    * @param _weiAmount Value in wei to be converted into tokens\n    * @return Number of tokens that can be purchased with the specified _weiAmount\n    */\n    function _getTokenAmount(uint256 _weiAmount)\n        internal view returns (uint256)\n    {\n        return _weiAmount.mul(rate);\n    }\n}",
  "sourcePath": "/Users/artur/Development/Brem/contracts/BREMICO.sol",
  "compiler": {
    "name": "solc",
    "version": "0.4.24+commit.e67f0147.Emscripten.clang"
  },
  "schemaVersion": "2.0.1",
  "updatedAt": "2018-08-04T17:48:51.455Z"
}