{
  "contractName": "BREMICO",
  "abi": [
    {
      "constant": true,
      "inputs": [
        {
          "name": "",
          "type": "address"
        }
      ],
      "name": "balances",
      "outputs": [
        {
          "name": "",
          "type": "uint256"
        }
      ],
      "payable": false,
      "stateMutability": "view",
      "type": "function"
    },
    {
      "constant": true,
      "inputs": [],
      "name": "rate",
      "outputs": [
        {
          "name": "",
          "type": "uint256"
        }
      ],
      "payable": false,
      "stateMutability": "view",
      "type": "function"
    },
    {
      "constant": true,
      "inputs": [],
      "name": "request",
      "outputs": [
        {
          "name": "value",
          "type": "uint256"
        },
        {
          "name": "confirmAmount",
          "type": "uint256"
        }
      ],
      "payable": false,
      "stateMutability": "view",
      "type": "function"
    },
    {
      "constant": true,
      "inputs": [],
      "name": "cap",
      "outputs": [
        {
          "name": "",
          "type": "uint256"
        }
      ],
      "payable": false,
      "stateMutability": "view",
      "type": "function"
    },
    {
      "constant": true,
      "inputs": [],
      "name": "docHash",
      "outputs": [
        {
          "name": "",
          "type": "string"
        }
      ],
      "payable": false,
      "stateMutability": "view",
      "type": "function"
    },
    {
      "constant": true,
      "inputs": [],
      "name": "weiRaised",
      "outputs": [
        {
          "name": "",
          "type": "uint256"
        }
      ],
      "payable": false,
      "stateMutability": "view",
      "type": "function"
    },
    {
      "constant": true,
      "inputs": [],
      "name": "withdrawFeePercent",
      "outputs": [
        {
          "name": "",
          "type": "uint256"
        }
      ],
      "payable": false,
      "stateMutability": "view",
      "type": "function"
    },
    {
      "constant": true,
      "inputs": [],
      "name": "closingTime",
      "outputs": [
        {
          "name": "",
          "type": "uint256"
        }
      ],
      "payable": false,
      "stateMutability": "view",
      "type": "function"
    },
    {
      "constant": true,
      "inputs": [],
      "name": "wallet",
      "outputs": [
        {
          "name": "",
          "type": "address"
        }
      ],
      "payable": false,
      "stateMutability": "view",
      "type": "function"
    },
    {
      "constant": true,
      "inputs": [],
      "name": "auditorsAmount",
      "outputs": [
        {
          "name": "",
          "type": "uint256"
        }
      ],
      "payable": false,
      "stateMutability": "view",
      "type": "function"
    },
    {
      "constant": true,
      "inputs": [],
      "name": "auditSelected",
      "outputs": [
        {
          "name": "",
          "type": "bool"
        }
      ],
      "payable": false,
      "stateMutability": "view",
      "type": "function"
    },
    {
      "constant": true,
      "inputs": [],
      "name": "brem",
      "outputs": [
        {
          "name": "",
          "type": "address"
        }
      ],
      "payable": false,
      "stateMutability": "view",
      "type": "function"
    },
    {
      "constant": true,
      "inputs": [],
      "name": "token",
      "outputs": [
        {
          "name": "",
          "type": "address"
        }
      ],
      "payable": false,
      "stateMutability": "view",
      "type": "function"
    },
    {
      "inputs": [
        {
          "name": "_brem",
          "type": "address"
        },
        {
          "name": "_name",
          "type": "string"
        },
        {
          "name": "_symbol",
          "type": "string"
        },
        {
          "name": "_cap",
          "type": "uint256"
        },
        {
          "name": "_rate",
          "type": "uint256"
        },
        {
          "name": "_wallet",
          "type": "address"
        },
        {
          "name": "_closingTime",
          "type": "uint256"
        },
        {
          "name": "_docHash",
          "type": "string"
        },
        {
          "name": "_withdrawFeePercent",
          "type": "uint256"
        }
      ],
      "payable": false,
      "stateMutability": "nonpayable",
      "type": "constructor"
    },
    {
      "payable": true,
      "stateMutability": "payable",
      "type": "fallback"
    },
    {
      "anonymous": false,
      "inputs": [
        {
          "indexed": true,
          "name": "purchaser",
          "type": "address"
        },
        {
          "indexed": true,
          "name": "beneficiary",
          "type": "address"
        },
        {
          "indexed": false,
          "name": "value",
          "type": "uint256"
        },
        {
          "indexed": false,
          "name": "amount",
          "type": "uint256"
        }
      ],
      "name": "TokenPurchase",
      "type": "event"
    },
    {
      "constant": false,
      "inputs": [
        {
          "name": "_beneficiary",
          "type": "address"
        }
      ],
      "name": "buyTokens",
      "outputs": [],
      "payable": true,
      "stateMutability": "payable",
      "type": "function"
    },
    {
      "constant": false,
      "inputs": [
        {
          "name": "_auditor",
          "type": "address"
        }
      ],
      "name": "addAuditor",
      "outputs": [],
      "payable": false,
      "stateMutability": "nonpayable",
      "type": "function"
    },
    {
      "constant": false,
      "inputs": [],
      "name": "finishAuditorSelection",
      "outputs": [],
      "payable": false,
      "stateMutability": "nonpayable",
      "type": "function"
    },
    {
      "constant": false,
      "inputs": [
        {
          "name": "_value",
          "type": "uint256"
        }
      ],
      "name": "withdraw",
      "outputs": [],
      "payable": true,
      "stateMutability": "payable",
      "type": "function"
    },
    {
      "constant": false,
      "inputs": [],
      "name": "confirmWithdraw",
      "outputs": [],
      "payable": false,
      "stateMutability": "nonpayable",
      "type": "function"
    },
    {
      "constant": false,
      "inputs": [],
      "name": "refund",
      "outputs": [],
      "payable": false,
      "stateMutability": "nonpayable",
      "type": "function"
    },
    {
      "constant": true,
      "inputs": [],
      "name": "hasClosed",
      "outputs": [
        {
          "name": "",
          "type": "bool"
        }
      ],
      "payable": false,
      "stateMutability": "view",
      "type": "function"
    },
    {
      "constant": true,
      "inputs": [],
      "name": "capReached",
      "outputs": [
        {
          "name": "",
          "type": "bool"
        }
      ],
      "payable": false,
      "stateMutability": "view",
      "type": "function"
    },
    {
      "constant": true,
      "inputs": [
        {
          "name": "_index",
          "type": "uint256"
        }
      ],
      "name": "getAuditor",
      "outputs": [
        {
          "name": "",
          "type": "address"
        }
      ],
      "payable": false,
      "stateMutability": "view",
      "type": "function"
    },
    {
      "constant": true,
      "inputs": [
        {
          "name": "_auditor",
          "type": "address"
        }
      ],
      "name": "isAuditor",
      "outputs": [
        {
          "name": "",
          "type": "bool"
        }
      ],
      "payable": false,
      "stateMutability": "view",
      "type": "function"
    },
    {
      "constant": true,
      "inputs": [],
      "name": "isRequested",
      "outputs": [
        {
          "name": "",
          "type": "bool"
        }
      ],
      "payable": false,
      "stateMutability": "view",
      "type": "function"
    },
    {
      "constant": true,
      "inputs": [
        {
          "name": "_auditor",
          "type": "address"
        }
      ],
      "name": "isConfirmed",
      "outputs": [
        {
          "name": "",
          "type": "bool"
        }
      ],
      "payable": false,
      "stateMutability": "view",
      "type": "function"
    },
    {
      "constant": true,
      "inputs": [],
      "name": "isWithdrawn",
      "outputs": [
        {
          "name": "",
          "type": "bool"
        }
      ],
      "payable": false,
      "stateMutability": "view",
      "type": "function"
    },
    {
      "constant": true,
      "inputs": [],
      "name": "isOverdue",
      "outputs": [
        {
          "name": "",
          "type": "bool"
        }
      ],
      "payable": false,
      "stateMutability": "view",
      "type": "function"
    },
    {
      "constant": true,
      "inputs": [],
      "name": "getBalance",
      "outputs": [
        {
          "name": "",
          "type": "uint256"
        }
      ],
      "payable": false,
      "stateMutability": "view",
      "type": "function"
    }
  ],
  "bytecode": "0x60806040523480156200001157600080fd5b50604051620027433803806200274383398101604090815281516020830151918301516060840151608085015160a086015160c087015160e08801516101008901519698978801979586019694959394929391929101906000600160a060020a038a1615156200008057600080fd5b88516000106200008f57600080fd5b60648710156200009e57600080fd5b60008611620000ac57600080fd5b600160a060020a0385161515620000c257600080fd5b42841015620000d057600080fd5b60008210158015620000e3575060648211155b1515620000ef57600080fd5b60118054600160a060020a03808d16600160a060020a031992831617909255600489905560028890556001805492881692909116919091179055600e849055825162000143906005906020860190620002ac565b5060115460068054600160a060020a031916600160a060020a0390921691909117905560108290558888306200017862000331565b600160a060020a0382166040820152606080825284519082015283518190602080830191608084019188019080838360005b83811015620001c4578181015183820152602001620001aa565b50505050905090810190601f168015620001f25780820380516001836020036101000a031916815260200191505b50838103825285518152855160209182019187019080838360005b83811015620002275781810151838201526020016200020d565b50505050905090810190601f168015620002555780820380516001836020036101000a031916815260200191505b5095505050505050604051809103906000f0801580156200027a573d6000803e3d6000fd5b5060008054600160a060020a031916600160a060020a0392909216919091179055506200036298505050505050505050565b828054600181600116156101000203166002900490600052602060002090601f016020900481019282601f10620002ef57805160ff19168380011785556200031f565b828001600101855582156200031f579182015b828111156200031f57825182559160200191906001019062000302565b506200032d92915062000342565b5090565b60405161139780620013ac83390190565b6200035f91905b808211156200032d576000815560010162000349565b90565b61103a80620003726000396000f3006080604052600436106101695763ffffffff7c010000000000000000000000000000000000000000000000000000000060003504166312065fe081146101745780631515bc2b1461019b57806318e4ac35146101c457806327e235e3146101e55780632c4e722e146102065780632e1a7d4d1461021b578063338cdca114610226578063355274ea146102545780633b957317146102695780633d6df0d51461027e5780634042b66f1461030857806344aa57001461031d578063495ef7051461033257806349b90557146103475780634b6753bc146103685780634f9359451461037d578063521eb27314610392578063590e1ae3146103c357806368124f9a146103d857806393f80ff4146103ed57806397781f0214610405578063c8e7f5951461041a578063e429cef11461042f578063e44e76a014610450578063ea78d1ab14610465578063ec8ac4d81461047a578063fad5e0c41461048e578063fc0c546a146104a3575b610172336104b8565b005b34801561018057600080fd5b5061018961056c565b60408051918252519081900360200190f35b3480156101a757600080fd5b506101b061057f565b604080519115158252519081900360200190f35b3480156101d057600080fd5b506101b0600160a060020a0360043516610587565b3480156101f157600080fd5b50610189600160a060020a03600435166105a5565b34801561021257600080fd5b506101896105b7565b6101726004356105bd565b34801561023257600080fd5b5061023b610685565b6040805192835260208301919091528051918290030190f35b34801561026057600080fd5b5061018961068e565b34801561027557600080fd5b506101b0610694565b34801561028a57600080fd5b506102936106b2565b6040805160208082528351818301528351919283929083019185019080838360005b838110156102cd5781810151838201526020016102b5565b50505050905090810190601f1680156102fa5780820380516001836020036101000a031916815260200191505b509250505060405180910390f35b34801561031457600080fd5b50610189610740565b34801561032957600080fd5b506101b0610746565b34801561033e57600080fd5b5061018961076f565b34801561035357600080fd5b506101b0600160a060020a0360043516610775565b34801561037457600080fd5b50610189610793565b34801561038957600080fd5b506101b0610799565b34801561039e57600080fd5b506103a76107a4565b60408051600160a060020a039092168252519081900360200190f35b3480156103cf57600080fd5b506101726107b3565b3480156103e457600080fd5b506101726108dc565b3480156103f957600080fd5b506103a7600435610b4a565b34801561041157600080fd5b506101b0610b77565b34801561042657600080fd5b50610189610bb3565b34801561043b57600080fd5b50610172600160a060020a0360043516610bb9565b34801561045c57600080fd5b506101b0610d95565b34801561047157600080fd5b50610172610d9e565b610172600160a060020a03600435166104b8565b34801561049a57600080fd5b506103a7610e78565b3480156104af57600080fd5b506103a7610e87565b600a54600090819060ff1680156104d15750600e544211155b15156104dc57600080fd5b3491506104e98383610e96565b6104f282610ebb565b600354909150610508908363ffffffff610ed816565b6003556105158382610ef2565b60408051838152602081018390528151600160a060020a0386169233927f623b3804fa71d67900d064613da8f94b9617215ee90799290593e1745087ad18929081900390910190a36105678383610efc565b505050565b336000908152600f602052604090205490565b600e54421190565b600160a060020a03166000908152600d602052604090205460ff1690565b600f6020526000908152604090205481565b60025481565b600154600160a060020a031633146105d457600080fd5b600a5460ff1615156105e557600080fd5b6105ed610799565b80156105fc57506105fc61057f565b151561060757600080fd5b60648110158015610619575030318111155b151561062457600080fd5b600b541561063157600080fd5b6064303182900310156106625760408051808201909152303180825260006020909201829052600b55600c55610682565b6040805180820190915281815260006020909101819052600b829055600c555b50565b600b54600c5482565b60045481565b600061069e61057f565b80156106ad5750600a5460ff16155b905090565b6005805460408051602060026001851615610100026000190190941693909304601f810184900484028201840190925281815292918301828280156107385780601f1061070d57610100808354040283529160200191610738565b820191906000526020600020905b81548152906001019060200180831161071b57829003601f168201915b505050505081565b60035481565b600061075061057f565b801561075f575061075f610799565b80156106ad575050606430311090565b60105481565b600160a060020a031660009081526007602052604090205460ff1690565b600e5481565b600454600354101590565b600154600160a060020a031681565b6000806107be61057f565b80156107cf57506107cd610799565b155b15156107da57600080fd5b336000908152600f6020526040812054116107f457600080fd5b336000908152600f602052604081208054919055915061081382610ebb565b60008054604080517fd0482d04000000000000000000000000000000000000000000000000000000008152336004820152602481018590529051939450600160a060020a039091169263d0482d049260448084019391929182900301818387803b15801561088057600080fd5b505af1158015610894573d6000803e3d6000fd5b50506003546108ac925090508363ffffffff610f1e16565b600355604051339083156108fc029084906000818181858888f19350505050158015610567573d6000803e3d6000fd5b600654604080517f49b905570000000000000000000000000000000000000000000000000000000081523360048201529051600092839283928392600160a060020a0316916349b9055791602480830192602092919082900301818787803b15801561094757600080fd5b505af115801561095b573d6000803e3d6000fd5b505050506040513d602081101561097157600080fd5b5051151561097e57600080fd5b600b5460001061098d57600080fd5b336000908152600d602052604090205460ff16156109aa57600080fd5b600a5460ff1615156109bb57600080fd5b6109c3610799565b80156109d257506109d261057f565b15156109dd57600080fd5b3360009081526007602052604090205460ff1615156109fb57600080fd5b336000908152600d60205260409020805460ff19166001908117909155600c8054909101908190556009541415610b4457600b8054604080518082019091526000808252602090910181905291829055600c829055945092505b600954831015610a9657600083815260086020908152604080832054600160a060020a03168352600d9091529020805460ff19169055600190920191610a55565b601054610aba90610aae86606463ffffffff610f3016565b9063ffffffff610f4716565b9150610acc848363ffffffff610f1e16565b601154604051919250600160a060020a03169083156108fc029084906000818181858888f19350505050158015610b07573d6000803e3d6000fd5b50600154604051600160a060020a039091169082156108fc029083906000818181858888f19350505050158015610b42573d6000803e3d6000fd5b505b50505050565b6009546000908210610b5b57600080fd5b50600090815260086020526040902054600160a060020a031690565b6000610b81610799565b8015610b905750610b9061057f565b8015610b9e5750600b546000105b80156106ad5750610bad610746565b15905090565b60095481565b600e54421115610bc857600080fd5b600a5460ff1615610bd857600080fd5b600654604080517fbceee05e0000000000000000000000000000000000000000000000000000000081523360048201529051600160a060020a039092169163bceee05e916024808201926020929091908290030181600087803b158015610c3e57600080fd5b505af1158015610c52573d6000803e3d6000fd5b505050506040513d6020811015610c6857600080fd5b50511515610c7557600080fd5b600654604080517f49b90557000000000000000000000000000000000000000000000000000000008152600160a060020a038481166004830152915191909216916349b905579160248083019260209291908290030181600087803b158015610cdd57600080fd5b505af1158015610cf1573d6000803e3d6000fd5b505050506040513d6020811015610d0757600080fd5b50511515610d1457600080fd5b600160a060020a03811660009081526007602052604090205460ff1615610d3a57600080fd5b600160a060020a03166000818152600760209081526040808320805460ff1916600190811790915560098054855260089093529220805473ffffffffffffffffffffffffffffffffffffffff19169093179092558154019055565b600a5460ff1681565b600e54421115610dad57600080fd5b600a5460ff1615610dbd57600080fd5b600654604080517fbceee05e0000000000000000000000000000000000000000000000000000000081523360048201529051600160a060020a039092169163bceee05e916024808201926020929091908290030181600087803b158015610e2357600080fd5b505af1158015610e37573d6000803e3d6000fd5b505050506040513d6020811015610e4d57600080fd5b50511515610e5a57600080fd5b600954600010610e6957600080fd5b600a805460ff19166001179055565b601154600160a060020a031681565b600054600160a060020a031681565b600160a060020a0382161515610eab57600080fd5b801515610eb757600080fd5b5050565b6000610ed260025483610f4790919063ffffffff16565b92915050565b600082820183811015610ee757fe5b8091505b5092915050565b610eb78282610f72565b600160a060020a039091166000908152600f6020526040902080549091019055565b600082821115610f2a57fe5b50900390565b6000808284811515610f3e57fe5b04949350505050565b600080831515610f5a5760009150610eeb565b50828202828482811515610f6a57fe5b0414610ee757fe5b60008054604080517f40c10f19000000000000000000000000000000000000000000000000000000008152600160a060020a03868116600483015260248201869052915191909216926340c10f1992604480820193602093909283900390910190829087803b158015610fe457600080fd5b505af1158015610ff8573d6000803e3d6000fd5b505050506040513d6020811015610b4457600080fd00a165627a7a72305820c84b0c6071da8037c0f18dd366b578013dfb25e87ca7a20bcf42379e0d3352a2002960806040526003805460a060020a60ff02191690553480156200002157600080fd5b50604051620013973803806200139783398101604090815281516020808401519284015160038054600160a060020a03191633179055918401805190949390930192620000759160049190860190620000b5565b5081516200008b906005906020850190620000b5565b5060068054600160a060020a031916600160a060020a0392909216919091179055506200015a9050565b828054600181600116156101000203166002900490600052602060002090601f016020900481019282601f10620000f857805160ff191683800117855562000128565b8280016001018555821562000128579182015b82811115620001285782518255916020019190600101906200010b565b50620001369291506200013a565b5090565b6200015791905b8082111562000136576000815560010162000141565b90565b61122d806200016a6000396000f3006080604052600436106100d75763ffffffff60e060020a60003504166305d2035b81146100dc57806306fdde0314610105578063095ea7b31461018f57806318160ddd146101b357806323b872dd146101da578063313ce5671461020457806340c10f191461022f578063661884631461025357806370a08231146102775780637d64bcb4146102985780638da5cb5b146102ad57806395d89b41146102de578063a9059cbb146102f3578063d0482d0414610317578063d73dd6231461033d578063dd62ed3e14610361578063f2fde38b14610388575b600080fd5b3480156100e857600080fd5b506100f16103a9565b604080519115158252519081900360200190f35b34801561011157600080fd5b5061011a6103ca565b6040805160208082528351818301528351919283929083019185019080838360005b8381101561015457818101518382015260200161013c565b50505050905090810190601f1680156101815780820380516001836020036101000a031916815260200191505b509250505060405180910390f35b34801561019b57600080fd5b506100f1600160a060020a0360043516602435610458565b3480156101bf57600080fd5b506101c8610570565b60408051918252519081900360200190f35b3480156101e657600080fd5b506100f1600160a060020a0360043581169060243516604435610576565b34801561021057600080fd5b50610219610690565b6040805160ff9092168252519081900360200190f35b34801561023b57600080fd5b506100f1600160a060020a0360043516602435610695565b34801561025f57600080fd5b506100f1600160a060020a036004351660243561079f565b34801561028357600080fd5b506101c8600160a060020a03600435166108b0565b3480156102a457600080fd5b506100f16108cb565b3480156102b957600080fd5b506102c2610971565b60408051600160a060020a039092168252519081900360200190f35b3480156102ea57600080fd5b5061011a610980565b3480156102ff57600080fd5b506100f1600160a060020a03600435166024356109db565b34801561032357600080fd5b5061033b600160a060020a0360043516602435610aec565b005b34801561034957600080fd5b506100f1600160a060020a0360043516602435610bc8565b34801561036d57600080fd5b506101c8600160a060020a0360043581169060243516610cd9565b34801561039457600080fd5b5061033b600160a060020a0360043516610d04565b60035474010000000000000000000000000000000000000000900460ff1681565b6004805460408051602060026001851615610100026000190190941693909304601f810184900484028201840190925281815292918301828280156104505780601f1061042557610100808354040283529160200191610450565b820191906000526020600020905b81548152906001019060200180831161043357829003601f168201915b505050505081565b6006546040805160e060020a631515bc2b0281529051600092600160a060020a031691631515bc2b91600480830192602092919082900301818787803b1580156104a157600080fd5b505af11580156104b5573d6000803e3d6000fd5b505050506040513d60208110156104cb57600080fd5b505180156105545750600660009054906101000a9004600160a060020a0316600160a060020a0316634f9359456040518163ffffffff1660e060020a028152600401602060405180830381600087803b15801561052757600080fd5b505af115801561053b573d6000803e3d6000fd5b505050506040513d602081101561055157600080fd5b50515b151561055f57600080fd5b6105698383610d99565b9392505050565b60005481565b6006546040805160e060020a631515bc2b0281529051600092600160a060020a031691631515bc2b91600480830192602092919082900301818787803b1580156105bf57600080fd5b505af11580156105d3573d6000803e3d6000fd5b505050506040513d60208110156105e957600080fd5b505180156106725750600660009054906101000a9004600160a060020a0316600160a060020a0316634f9359456040518163ffffffff1660e060020a028152600401602060405180830381600087803b15801561064557600080fd5b505af1158015610659573d6000803e3d6000fd5b505050506040513d602081101561066f57600080fd5b50515b151561067d57600080fd5b610688848484610dff565b949350505050565b601281565b600354600090600160a060020a031633146106af57600080fd5b60035474010000000000000000000000000000000000000000900460ff16156106d757600080fd5b6000546106ea908363ffffffff610f6616565b6000908155600160a060020a038416815260016020526040902054610715908363ffffffff610f6616565b600160a060020a038416600081815260016020908152604091829020939093558051858152905191927f0f6798a560793a54c3bcfe86a93cde1e73087d944c0ea20544137d412139688592918290030190a2604080518381529051600160a060020a038516916000916000805160206111e28339815191529181900360200190a350600192915050565b6006546040805160e060020a631515bc2b0281529051600092600160a060020a031691631515bc2b91600480830192602092919082900301818787803b1580156107e857600080fd5b505af11580156107fc573d6000803e3d6000fd5b505050506040513d602081101561081257600080fd5b5051801561089b5750600660009054906101000a9004600160a060020a0316600160a060020a0316634f9359456040518163ffffffff1660e060020a028152600401602060405180830381600087803b15801561086e57600080fd5b505af1158015610882573d6000803e3d6000fd5b505050506040513d602081101561089857600080fd5b50515b15156108a657600080fd5b6105698383610f75565b600160a060020a031660009081526001602052604090205490565b600354600090600160a060020a031633146108e557600080fd5b60035474010000000000000000000000000000000000000000900460ff161561090d57600080fd5b6003805474ff00000000000000000000000000000000000000001916740100000000000000000000000000000000000000001790556040517fae5184fba832cb2b1f702aca6117b8d265eaf03ad33eb133f19dde0f5920fa0890600090a150600190565b600354600160a060020a031681565b6005805460408051602060026001851615610100026000190190941693909304601f810184900484028201840190925281815292918301828280156104505780601f1061042557610100808354040283529160200191610450565b6006546040805160e060020a631515bc2b0281529051600092600160a060020a031691631515bc2b91600480830192602092919082900301818787803b158015610a2457600080fd5b505af1158015610a38573d6000803e3d6000fd5b505050506040513d6020811015610a4e57600080fd5b50518015610ad75750600660009054906101000a9004600160a060020a0316600160a060020a0316634f9359456040518163ffffffff1660e060020a028152600401602060405180830381600087803b158015610aaa57600080fd5b505af1158015610abe573d6000803e3d6000fd5b505050506040513d6020811015610ad457600080fd5b50515b1515610ae257600080fd5b6105698383611065565b600354600160a060020a03163314610b0357600080fd5b600160a060020a0382166000908152600160205260409020548114610b2757600080fd5b600160a060020a038216600090815260016020526040812081905554610b53908263ffffffff61113616565b600055604080518281529051600160a060020a038416917fcc16f5dbb4873280815c1ee09dbd06736cffcc184412cf7a71a0fdb75d397ca5919081900360200190a2604080518281529051600091600160a060020a038516916000805160206111e28339815191529181900360200190a35050565b6006546040805160e060020a631515bc2b0281529051600092600160a060020a031691631515bc2b91600480830192602092919082900301818787803b158015610c1157600080fd5b505af1158015610c25573d6000803e3d6000fd5b505050506040513d6020811015610c3b57600080fd5b50518015610cc45750600660009054906101000a9004600160a060020a0316600160a060020a0316634f9359456040518163ffffffff1660e060020a028152600401602060405180830381600087803b158015610c9757600080fd5b505af1158015610cab573d6000803e3d6000fd5b505050506040513d6020811015610cc157600080fd5b50515b1515610ccf57600080fd5b6105698383611148565b600160a060020a03918216600090815260026020908152604080832093909416825291909152205490565b600354600160a060020a03163314610d1b57600080fd5b600160a060020a0381161515610d3057600080fd5b600354604051600160a060020a038084169216907f8be0079c531659141344cd1fd0a4f28419497f9722a3daafe3b4186f6b6457e090600090a36003805473ffffffffffffffffffffffffffffffffffffffff1916600160a060020a0392909216919091179055565b336000818152600260209081526040808320600160a060020a038716808552908352818420869055815186815291519394909390927f8c5be1e5ebec7d5bd14f71427d1e84f3dd0314c0f7b2291e5b200ac8c7c3b925928290030190a350600192915050565b6000600160a060020a0383161515610e1657600080fd5b600160a060020a038416600090815260016020526040902054821115610e3b57600080fd5b600160a060020a0384166000908152600260209081526040808320338452909152902054821115610e6b57600080fd5b600160a060020a038416600090815260016020526040902054610e94908363ffffffff61113616565b600160a060020a038086166000908152600160205260408082209390935590851681522054610ec9908363ffffffff610f6616565b600160a060020a038085166000908152600160209081526040808320949094559187168152600282528281203382529091522054610f0d908363ffffffff61113616565b600160a060020a03808616600081815260026020908152604080832033845282529182902094909455805186815290519287169391926000805160206111e2833981519152929181900390910190a35060019392505050565b60008282018381101561056957fe5b336000908152600260209081526040808320600160a060020a038616845290915281205480831115610fca57336000908152600260209081526040808320600160a060020a0388168452909152812055610fff565b610fda818463ffffffff61113616565b336000908152600260209081526040808320600160a060020a03891684529091529020555b336000818152600260209081526040808320600160a060020a0389168085529083529281902054815190815290519293927f8c5be1e5ebec7d5bd14f71427d1e84f3dd0314c0f7b2291e5b200ac8c7c3b925929181900390910190a35060019392505050565b6000600160a060020a038316151561107c57600080fd5b3360009081526001602052604090205482111561109857600080fd5b336000908152600160205260409020546110b8908363ffffffff61113616565b3360009081526001602052604080822092909255600160a060020a038516815220546110ea908363ffffffff610f6616565b600160a060020a0384166000818152600160209081526040918290209390935580518581529051919233926000805160206111e28339815191529281900390910190a350600192915050565b60008282111561114257fe5b50900390565b336000908152600260209081526040808320600160a060020a038616845290915281205461117c908363ffffffff610f6616565b336000818152600260209081526040808320600160a060020a0389168085529083529281902085905580519485525191937f8c5be1e5ebec7d5bd14f71427d1e84f3dd0314c0f7b2291e5b200ac8c7c3b925929081900390910190a3506001929150505600ddf252ad1be2c89b69c2b068fc378daa952ba7f163c4a11628f55a4df523b3efa165627a7a7230582023131645a429ac7fb1354021389af2e157ac690f699ffe12ebc7b0770e4827400029",
  "source": "pragma solidity ^0.4.24;\n\nimport \"./BREMToken.sol\";\nimport \"./Userable.sol\";\n\n/**\n * @title SafeERC20\n * @dev Wrappers around ERC20 operations that throw on failure.\n * To use this library you can add a `using SafeERC20 for ERC20;` statement to your contract,\n * which allows you to call the safe operations as `token.safeTransfer(...)`, etc.\n */\nlibrary SafeERC20 {\n    function safeTransfer(ERC20Basic token, address to, uint256 value) internal {\n        require(token.transfer(to, value));\n    }\n    \n    function safeTransferFrom(\n        ERC20 token,\n        address from,\n        address to,\n        uint256 value\n    )\n    internal\n    {\n        require(token.transferFrom(from, to, value));\n    }\n    \n    function safeApprove(ERC20 token, address spender, uint256 value) internal {\n        require(token.approve(spender, value));\n    }\n}\n\ncontract BREMICO {\n    using SafeMath for uint256;\n    using SafeERC20 for BREMToken;\n\n    // The token being sold\n    BREMToken public token;\n\n    // Address where funds are collected\n    address public wallet;\n\n    // How many token units a buyer gets per wei.\n    // The rate is the conversion between wei and the smallest and indivisible token unit.\n    // So, if you are using a rate of 1 with a DetailedERC20 token with 3 decimals called TOK\n    // 1 wei will give you 1 unit, or 0.001 TOK.\n    uint256 public rate;\n\n    // Amount of wei raised\n    uint256 public weiRaised;\n    \n    // Value in wei that need owner\n    uint256  public cap;\n    \n    // ICO documentation hashes\n    string public docHash;\n    \n    // Auditors contract instance\n    Auditable audit;\n    \n    // Current ICO auditors\n    mapping(address => bool) auditors;\n    \n    mapping(uint256 => address) auditorsList;\n    \n    // Current ICO auditors amount\n    uint256 public auditorsAmount;\n    \n    // Is superuser selected all current ICO auditors\n    bool public auditSelected;\n    \n    // Developer's withdraw request\n    struct WithdrawRequst {\n        uint256 value;\n        uint256 confirmAmount;\n        mapping(address => bool) confirmed;\n    }\n    \n    WithdrawRequst public request;\n    \n    // ICO closing time\n    uint256 public closingTime;\n    \n    // Token sale payment registry\n    mapping(address => uint256) public balances;\n    \n    // Withdraw fee percent\n    uint256 public withdrawFeePercent;\n\n    // Brem contract address\n    address public brem;\n    \n    modifier onlyWhileOpen {\n        // solium-disable-next-line security/no-block-members\n        require(auditSelected && block.timestamp <= closingTime);\n        _;\n    }\n\n    /**\n    * Event for token purchase logging\n    * @param purchaser who paid for the tokens\n    * @param beneficiary who got the tokens\n    * @param value weis paid for purchase\n    * @param amount amount of tokens purchased\n    */\n    event TokenPurchase(\n        address indexed purchaser,\n        address indexed beneficiary,\n        uint256 value,\n        uint256 amount\n    );\n\n    /**\n    * @param _rate Number of token units a buyer gets per wei\n    * @param _wallet Address where collected funds will be forwarded to\n    */\n    constructor(\n        address _brem,\n        string _name,\n        string _symbol,\n        uint256 _cap,\n        uint256 _rate, \n        address _wallet, \n        uint256 _closingTime,\n        string _docHash,\n        uint256 _withdrawFeePercent\n    ) \n        public \n    {\n        require(_brem != address(0));\n        require(bytes(_name).length > 0);\n        require(_cap >= 100);\n        require(_rate > 0);\n        require(_wallet != address(0));\n        require(_closingTime >= block.timestamp);\n        require(_withdrawFeePercent >= 0 && _withdrawFeePercent <= 100);\n        \n        brem = _brem;\n        cap = _cap;\n        rate = _rate;\n        wallet = _wallet;\n        closingTime = _closingTime;\n        docHash = _docHash;\n        audit = Auditable(brem);\n        withdrawFeePercent = _withdrawFeePercent;\n        \n        BREMToken _token = new BREMToken(_name, _symbol, address(this));\n        token = _token;\n    }\n\n    // -----------------------------------------\n    // Crowdsale external interface\n    // -----------------------------------------\n    \n    /**\n    * @dev fallback function ***DO NOT OVERRIDE***\n    */\n    function () external payable {\n        buyTokens(msg.sender);\n    }\n\n    /**\n    * @dev low level token purchase ***DO NOT OVERRIDE***\n    * @param _beneficiary Address performing the token purchase\n    */\n    function buyTokens(address _beneficiary) \n        public \n        payable \n        onlyWhileOpen\n    {\n    \n        uint256 weiAmount = msg.value;\n        _preValidatePurchase(_beneficiary, weiAmount);\n    \n        // calculate token amount to be created\n        uint256 tokens = _getTokenAmount(weiAmount);\n    \n        // update state\n        weiRaised = weiRaised.add(weiAmount);\n    \n        _processPurchase(_beneficiary, tokens);\n        emit TokenPurchase(\n            msg.sender,\n            _beneficiary,\n            weiAmount,\n            tokens\n        );\n    \n        _updatePurchasingState(_beneficiary, weiAmount);\n    \n        // _postValidatePurchase();\n    }\n    \n    function addAuditor(address _auditor) public {\n        require(block.timestamp <= closingTime);\n        require(!auditSelected);\n        require(audit.isSuperuser(msg.sender));\n        require(audit.isAuditor(_auditor));\n        require(!auditors[_auditor]);\n        \n        auditors[_auditor] = true;\n        auditorsList[auditorsAmount] = _auditor;\n        auditorsAmount++;\n    }\n    \n    function finishAuditorSelection() public {\n        require(block.timestamp <= closingTime);\n        require(!auditSelected);\n        require(audit.isSuperuser(msg.sender));\n        require(auditorsAmount > 0);\n        \n        auditSelected = true;\n    }\n    \n    function withdraw(uint256 _value) public payable {\n        require(msg.sender == wallet);\n        require(auditSelected);\n        require(capReached() && hasClosed());\n        require(_value >= 100 && _value <= address(this).balance);\n        require(request.value == 0);\n        \n        if (address(this).balance - _value < 100) {\n            request = WithdrawRequst(address(this).balance, 0);\n        } else {\n            request = WithdrawRequst(_value, 0);\n        }\n    }\n    \n    // Auditors confirm withdraw\n    function confirmWithdraw() public {\n        require(audit.isAuditor(msg.sender));\n        require(request.value > 0);\n        require(!request.confirmed[msg.sender]);\n        require(auditSelected);\n        require(capReached() && hasClosed());\n        require(auditors[msg.sender]);\n        \n        request.confirmed[msg.sender] = true;\n        request.confirmAmount++;\n        \n        if (request.confirmAmount == auditorsAmount) {\n            uint256 _value = request.value;\n            request = WithdrawRequst(0, 0);\n            for (uint256 i = 0; i < auditorsAmount; i++) {\n                request.confirmed[auditorsList[i]] = false;\n            }\n            uint256 _feeValue = _value.div(100).mul(withdrawFeePercent);\n            uint256 _trasferValue = _value.sub(_feeValue);\n            brem.transfer(_feeValue);\n            wallet.transfer(_trasferValue);\n        }\n    }\n    \n    function refund() public {\n        require(hasClosed() && !capReached());\n        require(balances[msg.sender] > 0);\n        \n        uint256 _value = balances[msg.sender];\n        balances[msg.sender] = 0;\n        uint256 _tokenAmount = _getTokenAmount(_value);\n        token.burnForRefund(msg.sender, _tokenAmount);\n        weiRaised = weiRaised.sub(_value);\n        msg.sender.transfer(_value);\n    }\n    \n    /**\n    * @dev Checks whether the period in which the crowdsale is open has already elapsed.\n    * @return Whether crowdsale period has elapsed\n    */\n    function hasClosed() public view returns (bool) {\n        // solium-disable-next-line security/no-block-members\n        return block.timestamp > closingTime;\n    }\n    \n    /**\n    * @dev Checks whether the cap has been reached.\n    * @return Whether the cap was reached\n    */\n    function capReached() public view returns (bool) {\n        return weiRaised >= cap;\n    }\n    \n    function getAuditor(uint256 _index) public view returns (address) {\n        require(_index < auditorsAmount);\n        return auditorsList[_index];\n    }\n\n    function isAuditor(address _auditor) public view returns (bool) {\n        return auditors[_auditor];\n    }\n    \n    function isRequested() public view returns (bool) {\n        return capReached() && hasClosed() && \n            request.value > 0 && !isWithdrawn();\n    }\n    \n    function isConfirmed(address _auditor) public view returns (bool) {\n        return request.confirmed[_auditor];\n    }\n    \n    function isWithdrawn() public view returns (bool) {\n        return hasClosed() && capReached() && address(this).balance < 100;\n    }\n    \n    function isOverdue() public view returns (bool) {\n        return hasClosed() && !auditSelected;\n    }\n\n    function getBalance() public view returns (uint256){\n        return balances[msg.sender];\n    }\n    \n  // -----------------------------------------\n  // Internal interface (extensible)\n  // -----------------------------------------\n\n    /**\n    * @dev Validation of an incoming purchase. Use require statements to revert state when conditions are not met. Use super to concatenate validations.\n    * @param _beneficiary Address performing the token purchase\n    * @param _weiAmount Value in wei involved in the purchase\n    */\n    function _preValidatePurchase(\n        address _beneficiary,\n        uint256 _weiAmount\n    )\n        internal pure\n    {\n        require(_beneficiary != address(0));\n        require(_weiAmount != 0);\n    }\n\n    /**\n    * @dev Source of tokens. Override this method to modify the way in which the crowdsale ultimately gets and sends its tokens.\n    * @param _beneficiary Address performing the token purchase\n    * @param _tokenAmount Number of tokens to be emitted\n    */\n    function _deliverTokens(\n        address _beneficiary,\n        uint256 _tokenAmount\n    )\n        internal\n    {\n        token.mint(_beneficiary, _tokenAmount);\n    }\n\n    /**\n    * @dev Executed when a purchase has been validated and is ready to be executed. Not necessarily emits/sends tokens.\n    * @param _beneficiary Address receiving the tokens\n    * @param _tokenAmount Number of tokens to be purchased\n    */\n    function _processPurchase(\n        address _beneficiary,\n        uint256 _tokenAmount\n    )\n        internal\n    {\n        _deliverTokens(_beneficiary, _tokenAmount);\n    }\n\n    /**\n    * @dev Override for extensions that require an internal state to check for validity (current user contributions, etc.)\n    * @param _beneficiary Address receiving the tokens\n    * @param _weiAmount Value in wei involved in the purchase\n    */\n    function _updatePurchasingState(\n        address _beneficiary,\n        uint256 _weiAmount\n    )\n        internal\n    {\n        balances[_beneficiary] += _weiAmount;\n    }\n\n    /**\n    * @dev Override to extend the way in which ether is converted to tokens.\n    * @param _weiAmount Value in wei to be converted into tokens\n    * @return Number of tokens that can be purchased with the specified _weiAmount\n    */\n    function _getTokenAmount(uint256 _weiAmount)\n        internal view returns (uint256)\n    {\n        return _weiAmount.mul(rate);\n    }\n}",
  "sourcePath": "/Users/artur/Development/Brem/contracts/BREMICO.sol",
  "compiler": {
    "name": "solc",
    "version": "0.4.24+commit.e67f0147.Emscripten.clang"
  },
  "schemaVersion": "2.0.1",
  "updatedAt": "2018-08-18T15:38:10.397Z"
}