{
  "contractName": "BREMICO",
  "abi": [
    {
      "constant": true,
      "inputs": [
        {
          "name": "",
          "type": "address"
        }
      ],
      "name": "balances",
      "outputs": [
        {
          "name": "",
          "type": "uint256"
        }
      ],
      "payable": false,
      "stateMutability": "view",
      "type": "function"
    },
    {
      "constant": true,
      "inputs": [],
      "name": "rate",
      "outputs": [
        {
          "name": "",
          "type": "uint256"
        }
      ],
      "payable": false,
      "stateMutability": "view",
      "type": "function"
    },
    {
      "constant": true,
      "inputs": [],
      "name": "request",
      "outputs": [
        {
          "name": "value",
          "type": "uint256"
        },
        {
          "name": "confirmAmount",
          "type": "uint256"
        }
      ],
      "payable": false,
      "stateMutability": "view",
      "type": "function"
    },
    {
      "constant": true,
      "inputs": [],
      "name": "cap",
      "outputs": [
        {
          "name": "",
          "type": "uint256"
        }
      ],
      "payable": false,
      "stateMutability": "view",
      "type": "function"
    },
    {
      "constant": true,
      "inputs": [],
      "name": "docHash",
      "outputs": [
        {
          "name": "",
          "type": "string"
        }
      ],
      "payable": false,
      "stateMutability": "view",
      "type": "function"
    },
    {
      "constant": true,
      "inputs": [],
      "name": "weiRaised",
      "outputs": [
        {
          "name": "",
          "type": "uint256"
        }
      ],
      "payable": false,
      "stateMutability": "view",
      "type": "function"
    },
    {
      "constant": true,
      "inputs": [],
      "name": "withdrawFeePercent",
      "outputs": [
        {
          "name": "",
          "type": "uint256"
        }
      ],
      "payable": false,
      "stateMutability": "view",
      "type": "function"
    },
    {
      "constant": true,
      "inputs": [],
      "name": "closingTime",
      "outputs": [
        {
          "name": "",
          "type": "uint256"
        }
      ],
      "payable": false,
      "stateMutability": "view",
      "type": "function"
    },
    {
      "constant": true,
      "inputs": [],
      "name": "wallet",
      "outputs": [
        {
          "name": "",
          "type": "address"
        }
      ],
      "payable": false,
      "stateMutability": "view",
      "type": "function"
    },
    {
      "constant": true,
      "inputs": [],
      "name": "auditorsAmount",
      "outputs": [
        {
          "name": "",
          "type": "uint256"
        }
      ],
      "payable": false,
      "stateMutability": "view",
      "type": "function"
    },
    {
      "constant": true,
      "inputs": [],
      "name": "auditSelected",
      "outputs": [
        {
          "name": "",
          "type": "bool"
        }
      ],
      "payable": false,
      "stateMutability": "view",
      "type": "function"
    },
    {
      "constant": true,
      "inputs": [],
      "name": "brem",
      "outputs": [
        {
          "name": "",
          "type": "address"
        }
      ],
      "payable": false,
      "stateMutability": "view",
      "type": "function"
    },
    {
      "constant": true,
      "inputs": [],
      "name": "token",
      "outputs": [
        {
          "name": "",
          "type": "address"
        }
      ],
      "payable": false,
      "stateMutability": "view",
      "type": "function"
    },
    {
      "inputs": [
        {
          "name": "_brem",
          "type": "address"
        },
        {
          "name": "_name",
          "type": "string"
        },
        {
          "name": "_symbol",
          "type": "string"
        },
        {
          "name": "_cap",
          "type": "uint256"
        },
        {
          "name": "_rate",
          "type": "uint256"
        },
        {
          "name": "_wallet",
          "type": "address"
        },
        {
          "name": "_closingTime",
          "type": "uint256"
        },
        {
          "name": "_docHash",
          "type": "string"
        },
        {
          "name": "_withdrawFeePercent",
          "type": "uint256"
        }
      ],
      "payable": false,
      "stateMutability": "nonpayable",
      "type": "constructor"
    },
    {
      "payable": true,
      "stateMutability": "payable",
      "type": "fallback"
    },
    {
      "anonymous": false,
      "inputs": [
        {
          "indexed": true,
          "name": "purchaser",
          "type": "address"
        },
        {
          "indexed": true,
          "name": "beneficiary",
          "type": "address"
        },
        {
          "indexed": false,
          "name": "value",
          "type": "uint256"
        },
        {
          "indexed": false,
          "name": "amount",
          "type": "uint256"
        }
      ],
      "name": "TokenPurchase",
      "type": "event"
    },
    {
      "constant": false,
      "inputs": [
        {
          "name": "_beneficiary",
          "type": "address"
        }
      ],
      "name": "buyTokens",
      "outputs": [],
      "payable": true,
      "stateMutability": "payable",
      "type": "function"
    },
    {
      "constant": false,
      "inputs": [
        {
          "name": "_auditor",
          "type": "address"
        }
      ],
      "name": "addAuditor",
      "outputs": [],
      "payable": false,
      "stateMutability": "nonpayable",
      "type": "function"
    },
    {
      "constant": false,
      "inputs": [],
      "name": "finishAuditorSelection",
      "outputs": [],
      "payable": false,
      "stateMutability": "nonpayable",
      "type": "function"
    },
    {
      "constant": false,
      "inputs": [
        {
          "name": "_value",
          "type": "uint256"
        }
      ],
      "name": "withdraw",
      "outputs": [],
      "payable": true,
      "stateMutability": "payable",
      "type": "function"
    },
    {
      "constant": false,
      "inputs": [],
      "name": "confirmWithdraw",
      "outputs": [],
      "payable": false,
      "stateMutability": "nonpayable",
      "type": "function"
    },
    {
      "constant": false,
      "inputs": [],
      "name": "refund",
      "outputs": [],
      "payable": false,
      "stateMutability": "nonpayable",
      "type": "function"
    },
    {
      "constant": true,
      "inputs": [],
      "name": "hasClosed",
      "outputs": [
        {
          "name": "",
          "type": "bool"
        }
      ],
      "payable": false,
      "stateMutability": "view",
      "type": "function"
    },
    {
      "constant": true,
      "inputs": [],
      "name": "capReached",
      "outputs": [
        {
          "name": "",
          "type": "bool"
        }
      ],
      "payable": false,
      "stateMutability": "view",
      "type": "function"
    },
    {
      "constant": true,
      "inputs": [
        {
          "name": "_index",
          "type": "uint256"
        }
      ],
      "name": "getAuditor",
      "outputs": [
        {
          "name": "",
          "type": "address"
        }
      ],
      "payable": false,
      "stateMutability": "view",
      "type": "function"
    },
    {
      "constant": true,
      "inputs": [
        {
          "name": "_auditor",
          "type": "address"
        }
      ],
      "name": "isAuditor",
      "outputs": [
        {
          "name": "",
          "type": "bool"
        }
      ],
      "payable": false,
      "stateMutability": "view",
      "type": "function"
    },
    {
      "constant": true,
      "inputs": [],
      "name": "isRequested",
      "outputs": [
        {
          "name": "",
          "type": "bool"
        }
      ],
      "payable": false,
      "stateMutability": "view",
      "type": "function"
    },
    {
      "constant": true,
      "inputs": [
        {
          "name": "_auditor",
          "type": "address"
        }
      ],
      "name": "isConfirmed",
      "outputs": [
        {
          "name": "",
          "type": "bool"
        }
      ],
      "payable": false,
      "stateMutability": "view",
      "type": "function"
    },
    {
      "constant": true,
      "inputs": [],
      "name": "isWithdrawn",
      "outputs": [
        {
          "name": "",
          "type": "bool"
        }
      ],
      "payable": false,
      "stateMutability": "view",
      "type": "function"
    },
    {
      "constant": true,
      "inputs": [],
      "name": "isOverdue",
      "outputs": [
        {
          "name": "",
          "type": "bool"
        }
      ],
      "payable": false,
      "stateMutability": "view",
      "type": "function"
    }
  ],
  "bytecode": "0x60806040523480156200001157600080fd5b50604051620045373803806200453783398101806040528101908080519060200190929190805182019291906020018051820192919060200180519060200190929190805190602001909291908051906020019092919080519060200190929190805182019291906020018051906020019092919050505060008073ffffffffffffffffffffffffffffffffffffffff168a73ffffffffffffffffffffffffffffffffffffffff1614151515620000c757600080fd5b60008951111515620000d857600080fd5b60648710151515620000e957600080fd5b600086111515620000f957600080fd5b600073ffffffffffffffffffffffffffffffffffffffff168573ffffffffffffffffffffffffffffffffffffffff16141515156200013657600080fd5b4284101515156200014657600080fd5b6000821015801562000159575060648211155b15156200016557600080fd5b89601160006101000a81548173ffffffffffffffffffffffffffffffffffffffff021916908373ffffffffffffffffffffffffffffffffffffffff160217905550866004819055508560028190555084600160006101000a81548173ffffffffffffffffffffffffffffffffffffffff021916908373ffffffffffffffffffffffffffffffffffffffff16021790555083600e8190555082600590805190602001906200021492919062000410565b50601160009054906101000a900473ffffffffffffffffffffffffffffffffffffffff16600660006101000a81548173ffffffffffffffffffffffffffffffffffffffff021916908373ffffffffffffffffffffffffffffffffffffffff160217905550816010819055508888306200028c62000497565b8080602001806020018473ffffffffffffffffffffffffffffffffffffffff1673ffffffffffffffffffffffffffffffffffffffff168152602001838103835286818151815260200191508051906020019080838360005b8381101562000301578082015181840152602081019050620002e4565b50505050905090810190601f1680156200032f5780820380516001836020036101000a031916815260200191505b50838103825285818151815260200191508051906020019080838360005b838110156200036a5780820151818401526020810190506200034d565b50505050905090810190601f168015620003985780820380516001836020036101000a031916815260200191505b5095505050505050604051809103906000f080158015620003bd573d6000803e3d6000fd5b509050806000806101000a81548173ffffffffffffffffffffffffffffffffffffffff021916908373ffffffffffffffffffffffffffffffffffffffff16021790555050505050505050505050620004d0565b828054600181600116156101000203166002900490600052602060002090601f016020900481019282601f106200045357805160ff191683800117855562000484565b8280016001018555821562000484579182015b828111156200048357825182559160200191906001019062000466565b5b509050620004939190620004a8565b5090565b604051612514806200202383390190565b620004cd91905b80821115620004c9576000816000905550600101620004af565b5090565b90565b611b4380620004e06000396000f30060806040526004361061015f576000357c0100000000000000000000000000000000000000000000000000000000900463ffffffff1680631515bc2b1461016a57806318e4ac351461019957806327e235e3146101f45780632c4e722e1461024b5780632e1a7d4d14610276578063338cdca114610296578063355274ea146102c85780633b957317146102f35780633d6df0d5146103225780634042b66f146103b257806344aa5700146103dd578063495ef7051461040c57806349b90557146104375780634b6753bc146104925780634f935945146104bd578063521eb273146104ec578063590e1ae31461054357806368124f9a1461055a57806393f80ff41461057157806397781f02146105de578063c8e7f5951461060d578063e429cef114610638578063e44e76a01461067b578063ea78d1ab146106aa578063ec8ac4d8146106c1578063fad5e0c4146106f7578063fc0c546a1461074e575b610168336107a5565b005b34801561017657600080fd5b5061017f61088a565b604051808215151515815260200191505060405180910390f35b3480156101a557600080fd5b506101da600480360381019080803573ffffffffffffffffffffffffffffffffffffffff169060200190929190505050610896565b604051808215151515815260200191505060405180910390f35b34801561020057600080fd5b50610235600480360381019080803573ffffffffffffffffffffffffffffffffffffffff1690602001909291905050506108ef565b6040518082815260200191505060405180910390f35b34801561025757600080fd5b50610260610907565b6040518082815260200191505060405180910390f35b6102946004803603810190808035906020019092919050505061090d565b005b3480156102a257600080fd5b506102ab610a8e565b604051808381526020018281526020019250505060405180910390f35b3480156102d457600080fd5b506102dd610aa0565b6040518082815260200191505060405180910390f35b3480156102ff57600080fd5b50610308610aa6565b604051808215151515815260200191505060405180910390f35b34801561032e57600080fd5b50610337610ace565b6040518080602001828103825283818151815260200191508051906020019080838360005b8381101561037757808201518184015260208101905061035c565b50505050905090810190601f1680156103a45780820380516001836020036101000a031916815260200191505b509250505060405180910390f35b3480156103be57600080fd5b506103c7610b6c565b6040518082815260200191505060405180910390f35b3480156103e957600080fd5b506103f2610b72565b604051808215151515815260200191505060405180910390f35b34801561041857600080fd5b50610421610bb4565b6040518082815260200191505060405180910390f35b34801561044357600080fd5b50610478600480360381019080803573ffffffffffffffffffffffffffffffffffffffff169060200190929190505050610bba565b604051808215151515815260200191505060405180910390f35b34801561049e57600080fd5b506104a7610c10565b6040518082815260200191505060405180910390f35b3480156104c957600080fd5b506104d2610c16565b604051808215151515815260200191505060405180910390f35b3480156104f857600080fd5b50610501610c25565b604051808273ffffffffffffffffffffffffffffffffffffffff1673ffffffffffffffffffffffffffffffffffffffff16815260200191505060405180910390f35b34801561054f57600080fd5b50610558610c4b565b005b34801561056657600080fd5b5061056f610e94565b005b34801561057d57600080fd5b5061059c6004803603810190808035906020019092919050505061131c565b604051808273ffffffffffffffffffffffffffffffffffffffff1673ffffffffffffffffffffffffffffffffffffffff16815260200191505060405180910390f35b3480156105ea57600080fd5b506105f3611369565b604051808215151515815260200191505060405180910390f35b34801561061957600080fd5b506106226113aa565b6040518082815260200191505060405180910390f35b34801561064457600080fd5b50610679600480360381019080803573ffffffffffffffffffffffffffffffffffffffff1690602001909291905050506113b0565b005b34801561068757600080fd5b506106906116fd565b604051808215151515815260200191505060405180910390f35b3480156106b657600080fd5b506106bf611710565b005b6106f5600480360381019080803573ffffffffffffffffffffffffffffffffffffffff1690602001909291905050506107a5565b005b34801561070357600080fd5b5061070c61186e565b604051808273ffffffffffffffffffffffffffffffffffffffff1673ffffffffffffffffffffffffffffffffffffffff16815260200191505060405180910390f35b34801561075a57600080fd5b50610763611894565b604051808273ffffffffffffffffffffffffffffffffffffffff1673ffffffffffffffffffffffffffffffffffffffff16815260200191505060405180910390f35b600080600a60009054906101000a900460ff1680156107c65750600e544211155b15156107d157600080fd5b3491506107de83836118b9565b6107e782611909565b90506107fe8260035461192790919063ffffffff16565b60038190555061080e8382611945565b8273ffffffffffffffffffffffffffffffffffffffff163373ffffffffffffffffffffffffffffffffffffffff167f623b3804fa71d67900d064613da8f94b9617215ee90799290593e1745087ad188484604051808381526020018281526020019250505060405180910390a36108858383611953565b505050565b6000600e544211905090565b6000600b60020160008373ffffffffffffffffffffffffffffffffffffffff1673ffffffffffffffffffffffffffffffffffffffff16815260200190815260200160002060009054906101000a900460ff169050919050565b600f6020528060005260406000206000915090505481565b60025481565b600160009054906101000a900473ffffffffffffffffffffffffffffffffffffffff1673ffffffffffffffffffffffffffffffffffffffff163373ffffffffffffffffffffffffffffffffffffffff1614151561096957600080fd5b600a60009054906101000a900460ff16151561098457600080fd5b61098c610c16565b801561099c575061099b61088a565b5b15156109a757600080fd5b606481101580156109cf57503073ffffffffffffffffffffffffffffffffffffffff16318111155b15156109da57600080fd5b6000600b600001541415156109ee57600080fd5b6064813073ffffffffffffffffffffffffffffffffffffffff1631031015610a5b5760408051908101604052803073ffffffffffffffffffffffffffffffffffffffff163181526020016000815250600b6000820151816000015560208201518160010155905050610a8b565b60408051908101604052808281526020016000815250600b60008201518160000155602082015181600101559050505b50565b600b8060000154908060010154905082565b60045481565b6000610ab061088a565b8015610ac95750600a60009054906101000a900460ff16155b905090565b60058054600181600116156101000203166002900480601f016020809104026020016040519081016040528092919081815260200182805460018160011615610100020316600290048015610b645780601f10610b3957610100808354040283529160200191610b64565b820191906000526020600020905b815481529060010190602001808311610b4757829003601f168201915b505050505081565b60035481565b6000610b7c61088a565b8015610b8c5750610b8b610c16565b5b8015610baf575060643073ffffffffffffffffffffffffffffffffffffffff1631105b905090565b60105481565b6000600760008373ffffffffffffffffffffffffffffffffffffffff1673ffffffffffffffffffffffffffffffffffffffff16815260200190815260200160002060009054906101000a900460ff169050919050565b600e5481565b60006004546003541015905090565b600160009054906101000a900473ffffffffffffffffffffffffffffffffffffffff1681565b600080610c5661088a565b8015610c675750610c65610c16565b155b1515610c7257600080fd5b6000600f60003373ffffffffffffffffffffffffffffffffffffffff1673ffffffffffffffffffffffffffffffffffffffff16815260200190815260200160002054111515610cc057600080fd5b600f60003373ffffffffffffffffffffffffffffffffffffffff1673ffffffffffffffffffffffffffffffffffffffff1681526020019081526020016000205491506000600f60003373ffffffffffffffffffffffffffffffffffffffff1673ffffffffffffffffffffffffffffffffffffffff16815260200190815260200160002081905550610d5082611909565b90506000809054906101000a900473ffffffffffffffffffffffffffffffffffffffff1673ffffffffffffffffffffffffffffffffffffffff1663d0482d0433836040518363ffffffff167c0100000000000000000000000000000000000000000000000000000000028152600401808373ffffffffffffffffffffffffffffffffffffffff1673ffffffffffffffffffffffffffffffffffffffff16815260200182815260200192505050600060405180830381600087803b158015610e1657600080fd5b505af1158015610e2a573d6000803e3d6000fd5b50505050610e43826003546119a490919063ffffffff16565b6003819055503373ffffffffffffffffffffffffffffffffffffffff166108fc839081150290604051600060405180830381858888f19350505050158015610e8f573d6000803e3d6000fd5b505050565b600080600080600660009054906101000a900473ffffffffffffffffffffffffffffffffffffffff1673ffffffffffffffffffffffffffffffffffffffff166349b90557336040518263ffffffff167c0100000000000000000000000000000000000000000000000000000000028152600401808273ffffffffffffffffffffffffffffffffffffffff1673ffffffffffffffffffffffffffffffffffffffff168152602001915050602060405180830381600087803b158015610f5757600080fd5b505af1158015610f6b573d6000803e3d6000fd5b505050506040513d6020811015610f8157600080fd5b81019080805190602001909291905050501515610f9d57600080fd5b6000600b60000154111515610fb157600080fd5b600b60020160003373ffffffffffffffffffffffffffffffffffffffff1673ffffffffffffffffffffffffffffffffffffffff16815260200190815260200160002060009054906101000a900460ff1615151561100d57600080fd5b600a60009054906101000a900460ff16151561102857600080fd5b611030610c16565b8015611040575061103f61088a565b5b151561104b57600080fd5b600760003373ffffffffffffffffffffffffffffffffffffffff1673ffffffffffffffffffffffffffffffffffffffff16815260200190815260200160002060009054906101000a900460ff1615156110a357600080fd5b6001600b60020160003373ffffffffffffffffffffffffffffffffffffffff1673ffffffffffffffffffffffffffffffffffffffff16815260200190815260200160002060006101000a81548160ff021916908315150217905550600b60010160008154809291906001019190505550600954600b60010154141561131657600b6000015493506040805190810160405280600081526020016000815250600b6000820151816000015560208201518160010155905050600092505b600954831015611204576000600b60020160006008600087815260200190815260200160002060009054906101000a900473ffffffffffffffffffffffffffffffffffffffff1673ffffffffffffffffffffffffffffffffffffffff1673ffffffffffffffffffffffffffffffffffffffff16815260200190815260200160002060006101000a81548160ff021916908315150217905550828060010193505061115f565b61122c60105461121e6064876119bd90919063ffffffff16565b6119d890919063ffffffff16565b915061124182856119a490919063ffffffff16565b9050601160009054906101000a900473ffffffffffffffffffffffffffffffffffffffff1673ffffffffffffffffffffffffffffffffffffffff166108fc839081150290604051600060405180830381858888f193505050501580156112ab573d6000803e3d6000fd5b50600160009054906101000a900473ffffffffffffffffffffffffffffffffffffffff1673ffffffffffffffffffffffffffffffffffffffff166108fc829081150290604051600060405180830381858888f19350505050158015611314573d6000803e3d6000fd5b505b50505050565b60006009548210151561132e57600080fd5b6008600083815260200190815260200160002060009054906101000a900473ffffffffffffffffffffffffffffffffffffffff169050919050565b6000611373610c16565b8015611383575061138261088a565b5b801561139457506000600b60000154115b80156113a557506113a3610b72565b155b905090565b60095481565b600e5442111515156113c157600080fd5b600a60009054906101000a900460ff161515156113dd57600080fd5b600660009054906101000a900473ffffffffffffffffffffffffffffffffffffffff1673ffffffffffffffffffffffffffffffffffffffff1663bceee05e336040518263ffffffff167c0100000000000000000000000000000000000000000000000000000000028152600401808273ffffffffffffffffffffffffffffffffffffffff1673ffffffffffffffffffffffffffffffffffffffff168152602001915050602060405180830381600087803b15801561149a57600080fd5b505af11580156114ae573d6000803e3d6000fd5b505050506040513d60208110156114c457600080fd5b810190808051906020019092919050505015156114e057600080fd5b600660009054906101000a900473ffffffffffffffffffffffffffffffffffffffff1673ffffffffffffffffffffffffffffffffffffffff166349b90557826040518263ffffffff167c0100000000000000000000000000000000000000000000000000000000028152600401808273ffffffffffffffffffffffffffffffffffffffff1673ffffffffffffffffffffffffffffffffffffffff168152602001915050602060405180830381600087803b15801561159d57600080fd5b505af11580156115b1573d6000803e3d6000fd5b505050506040513d60208110156115c757600080fd5b810190808051906020019092919050505015156115e357600080fd5b600760008273ffffffffffffffffffffffffffffffffffffffff1673ffffffffffffffffffffffffffffffffffffffff16815260200190815260200160002060009054906101000a900460ff1615151561163c57600080fd5b6001600760008373ffffffffffffffffffffffffffffffffffffffff1673ffffffffffffffffffffffffffffffffffffffff16815260200190815260200160002060006101000a81548160ff0219169083151502179055508060086000600954815260200190815260200160002060006101000a81548173ffffffffffffffffffffffffffffffffffffffff021916908373ffffffffffffffffffffffffffffffffffffffff16021790555060096000815480929190600101919050555050565b600a60009054906101000a900460ff1681565b600e54421115151561172157600080fd5b600a60009054906101000a900460ff1615151561173d57600080fd5b600660009054906101000a900473ffffffffffffffffffffffffffffffffffffffff1673ffffffffffffffffffffffffffffffffffffffff1663bceee05e336040518263ffffffff167c0100000000000000000000000000000000000000000000000000000000028152600401808273ffffffffffffffffffffffffffffffffffffffff1673ffffffffffffffffffffffffffffffffffffffff168152602001915050602060405180830381600087803b1580156117fa57600080fd5b505af115801561180e573d6000803e3d6000fd5b505050506040513d602081101561182457600080fd5b8101908080519060200190929190505050151561184057600080fd5b600060095411151561185157600080fd5b6001600a60006101000a81548160ff021916908315150217905550565b601160009054906101000a900473ffffffffffffffffffffffffffffffffffffffff1681565b6000809054906101000a900473ffffffffffffffffffffffffffffffffffffffff1681565b600073ffffffffffffffffffffffffffffffffffffffff168273ffffffffffffffffffffffffffffffffffffffff16141515156118f557600080fd5b6000811415151561190557600080fd5b5050565b6000611920600254836119d890919063ffffffff16565b9050919050565b600080828401905083811015151561193b57fe5b8091505092915050565b61194f8282611a13565b5050565b80600f60008473ffffffffffffffffffffffffffffffffffffffff1673ffffffffffffffffffffffffffffffffffffffff168152602001908152602001600020600082825401925050819055505050565b60008282111515156119b257fe5b818303905092915050565b60008082848115156119cb57fe5b0490508091505092915050565b60008060008414156119ed5760009150611a0c565b82840290508284828115156119fe57fe5b04141515611a0857fe5b8091505b5092915050565b6000809054906101000a900473ffffffffffffffffffffffffffffffffffffffff1673ffffffffffffffffffffffffffffffffffffffff166340c10f1983836040518363ffffffff167c0100000000000000000000000000000000000000000000000000000000028152600401808373ffffffffffffffffffffffffffffffffffffffff1673ffffffffffffffffffffffffffffffffffffffff16815260200182815260200192505050602060405180830381600087803b158015611ad757600080fd5b505af1158015611aeb573d6000803e3d6000fd5b505050506040513d6020811015611b0157600080fd5b81019080805190602001909291905050505050505600a165627a7a723058201c8f717cc056ad392ed2ac6e227138bcb2ec64470e9cf920167681cb75202837002960806040526000600360146101000a81548160ff0219169083151502179055503480156200002c57600080fd5b50604051620025143803806200251483398101806040528101908080518201929190602001805182019291906020018051906020019092919050505033600360006101000a81548173ffffffffffffffffffffffffffffffffffffffff021916908373ffffffffffffffffffffffffffffffffffffffff1602179055508260049080519060200190620000c192919062000125565b508160059080519060200190620000da92919062000125565b5080600660006101000a81548173ffffffffffffffffffffffffffffffffffffffff021916908373ffffffffffffffffffffffffffffffffffffffff160217905550505050620001d4565b828054600181600116156101000203166002900490600052602060002090601f016020900481019282601f106200016857805160ff191683800117855562000199565b8280016001018555821562000199579182015b82811115620001985782518255916020019190600101906200017b565b5b509050620001a89190620001ac565b5090565b620001d191905b80821115620001cd576000816000905550600101620001b3565b5090565b90565b61233080620001e46000396000f3006080604052600436106100f1576000357c0100000000000000000000000000000000000000000000000000000000900463ffffffff16806305d2035b146100f657806306fdde0314610125578063095ea7b3146101b557806318160ddd1461021a57806323b872dd14610245578063313ce567146102ca57806340c10f19146102fb578063661884631461036057806370a08231146103c55780637d64bcb41461041c5780638da5cb5b1461044b57806395d89b41146104a2578063a9059cbb14610532578063d0482d0414610597578063d73dd623146105e4578063dd62ed3e14610649578063f2fde38b146106c0575b600080fd5b34801561010257600080fd5b5061010b610703565b604051808215151515815260200191505060405180910390f35b34801561013157600080fd5b5061013a610716565b6040518080602001828103825283818151815260200191508051906020019080838360005b8381101561017a57808201518184015260208101905061015f565b50505050905090810190601f1680156101a75780820380516001836020036101000a031916815260200191505b509250505060405180910390f35b3480156101c157600080fd5b50610200600480360381019080803573ffffffffffffffffffffffffffffffffffffffff169060200190929190803590602001909291905050506107b4565b604051808215151515815260200191505060405180910390f35b34801561022657600080fd5b5061022f61095d565b6040518082815260200191505060405180910390f35b34801561025157600080fd5b506102b0600480360381019080803573ffffffffffffffffffffffffffffffffffffffff169060200190929190803573ffffffffffffffffffffffffffffffffffffffff16906020019092919080359060200190929190505050610963565b604051808215151515815260200191505060405180910390f35b3480156102d657600080fd5b506102df610b0e565b604051808260ff1660ff16815260200191505060405180910390f35b34801561030757600080fd5b50610346600480360381019080803573ffffffffffffffffffffffffffffffffffffffff16906020019092919080359060200190929190505050610b13565b604051808215151515815260200191505060405180910390f35b34801561036c57600080fd5b506103ab600480360381019080803573ffffffffffffffffffffffffffffffffffffffff16906020019092919080359060200190929190505050610cfb565b604051808215151515815260200191505060405180910390f35b3480156103d157600080fd5b50610406600480360381019080803573ffffffffffffffffffffffffffffffffffffffff169060200190929190505050610ea4565b6040518082815260200191505060405180910390f35b34801561042857600080fd5b50610431610eed565b604051808215151515815260200191505060405180910390f35b34801561045757600080fd5b50610460610fb5565b604051808273ffffffffffffffffffffffffffffffffffffffff1673ffffffffffffffffffffffffffffffffffffffff16815260200191505060405180910390f35b3480156104ae57600080fd5b506104b7610fdb565b6040518080602001828103825283818151815260200191508051906020019080838360005b838110156104f75780820151818401526020810190506104dc565b50505050905090810190601f1680156105245780820380516001836020036101000a031916815260200191505b509250505060405180910390f35b34801561053e57600080fd5b5061057d600480360381019080803573ffffffffffffffffffffffffffffffffffffffff16906020019092919080359060200190929190505050611079565b604051808215151515815260200191505060405180910390f35b3480156105a357600080fd5b506105e2600480360381019080803573ffffffffffffffffffffffffffffffffffffffff16906020019092919080359060200190929190505050611222565b005b3480156105f057600080fd5b5061062f600480360381019080803573ffffffffffffffffffffffffffffffffffffffff169060200190929190803590602001909291905050506113e3565b604051808215151515815260200191505060405180910390f35b34801561065557600080fd5b506106aa600480360381019080803573ffffffffffffffffffffffffffffffffffffffff169060200190929190803573ffffffffffffffffffffffffffffffffffffffff16906020019092919050505061158c565b6040518082815260200191505060405180910390f35b3480156106cc57600080fd5b50610701600480360381019080803573ffffffffffffffffffffffffffffffffffffffff169060200190929190505050611613565b005b600360149054906101000a900460ff1681565b60048054600181600116156101000203166002900480601f0160208091040260200160405190810160405280929190818152602001828054600181600116156101000203166002900480156107ac5780601f10610781576101008083540402835291602001916107ac565b820191906000526020600020905b81548152906001019060200180831161078f57829003601f168201915b505050505081565b6000600660009054906101000a900473ffffffffffffffffffffffffffffffffffffffff1673ffffffffffffffffffffffffffffffffffffffff16631515bc2b6040518163ffffffff167c0100000000000000000000000000000000000000000000000000000000028152600401602060405180830381600087803b15801561083c57600080fd5b505af1158015610850573d6000803e3d6000fd5b505050506040513d602081101561086657600080fd5b810190808051906020019092919050505080156109405750600660009054906101000a900473ffffffffffffffffffffffffffffffffffffffff1673ffffffffffffffffffffffffffffffffffffffff16634f9359456040518163ffffffff167c0100000000000000000000000000000000000000000000000000000000028152600401602060405180830381600087803b15801561090457600080fd5b505af1158015610918573d6000803e3d6000fd5b505050506040513d602081101561092e57600080fd5b81019080805190602001909291905050505b151561094b57600080fd5b610955838361176b565b905092915050565b60005481565b6000600660009054906101000a900473ffffffffffffffffffffffffffffffffffffffff1673ffffffffffffffffffffffffffffffffffffffff16631515bc2b6040518163ffffffff167c0100000000000000000000000000000000000000000000000000000000028152600401602060405180830381600087803b1580156109eb57600080fd5b505af11580156109ff573d6000803e3d6000fd5b505050506040513d6020811015610a1557600080fd5b81019080805190602001909291905050508015610aef5750600660009054906101000a900473ffffffffffffffffffffffffffffffffffffffff1673ffffffffffffffffffffffffffffffffffffffff16634f9359456040518163ffffffff167c0100000000000000000000000000000000000000000000000000000000028152600401602060405180830381600087803b158015610ab357600080fd5b505af1158015610ac7573d6000803e3d6000fd5b505050506040513d6020811015610add57600080fd5b81019080805190602001909291905050505b1515610afa57600080fd5b610b0584848461185d565b90509392505050565b601281565b6000600360009054906101000a900473ffffffffffffffffffffffffffffffffffffffff1673ffffffffffffffffffffffffffffffffffffffff163373ffffffffffffffffffffffffffffffffffffffff16141515610b7157600080fd5b600360149054906101000a900460ff16151515610b8d57600080fd5b610ba282600054611c1c90919063ffffffff16565b600081905550610bfa82600160008673ffffffffffffffffffffffffffffffffffffffff1673ffffffffffffffffffffffffffffffffffffffff16815260200190815260200160002054611c1c90919063ffffffff16565b600160008573ffffffffffffffffffffffffffffffffffffffff1673ffffffffffffffffffffffffffffffffffffffff168152602001908152602001600020819055508273ffffffffffffffffffffffffffffffffffffffff167f0f6798a560793a54c3bcfe86a93cde1e73087d944c0ea20544137d4121396885836040518082815260200191505060405180910390a28273ffffffffffffffffffffffffffffffffffffffff16600073ffffffffffffffffffffffffffffffffffffffff167fddf252ad1be2c89b69c2b068fc378daa952ba7f163c4a11628f55a4df523b3ef846040518082815260200191505060405180910390a36001905092915050565b6000600660009054906101000a900473ffffffffffffffffffffffffffffffffffffffff1673ffffffffffffffffffffffffffffffffffffffff16631515bc2b6040518163ffffffff167c0100000000000000000000000000000000000000000000000000000000028152600401602060405180830381600087803b158015610d8357600080fd5b505af1158015610d97573d6000803e3d6000fd5b505050506040513d6020811015610dad57600080fd5b81019080805190602001909291905050508015610e875750600660009054906101000a900473ffffffffffffffffffffffffffffffffffffffff1673ffffffffffffffffffffffffffffffffffffffff16634f9359456040518163ffffffff167c0100000000000000000000000000000000000000000000000000000000028152600401602060405180830381600087803b158015610e4b57600080fd5b505af1158015610e5f573d6000803e3d6000fd5b505050506040513d6020811015610e7557600080fd5b81019080805190602001909291905050505b1515610e9257600080fd5b610e9c8383611c3a565b905092915050565b6000600160008373ffffffffffffffffffffffffffffffffffffffff1673ffffffffffffffffffffffffffffffffffffffff168152602001908152602001600020549050919050565b6000600360009054906101000a900473ffffffffffffffffffffffffffffffffffffffff1673ffffffffffffffffffffffffffffffffffffffff163373ffffffffffffffffffffffffffffffffffffffff16141515610f4b57600080fd5b600360149054906101000a900460ff16151515610f6757600080fd5b6001600360146101000a81548160ff0219169083151502179055507fae5184fba832cb2b1f702aca6117b8d265eaf03ad33eb133f19dde0f5920fa0860405160405180910390a16001905090565b600360009054906101000a900473ffffffffffffffffffffffffffffffffffffffff1681565b60058054600181600116156101000203166002900480601f0160208091040260200160405190810160405280929190818152602001828054600181600116156101000203166002900480156110715780601f1061104657610100808354040283529160200191611071565b820191906000526020600020905b81548152906001019060200180831161105457829003601f168201915b505050505081565b6000600660009054906101000a900473ffffffffffffffffffffffffffffffffffffffff1673ffffffffffffffffffffffffffffffffffffffff16631515bc2b6040518163ffffffff167c0100000000000000000000000000000000000000000000000000000000028152600401602060405180830381600087803b15801561110157600080fd5b505af1158015611115573d6000803e3d6000fd5b505050506040513d602081101561112b57600080fd5b810190808051906020019092919050505080156112055750600660009054906101000a900473ffffffffffffffffffffffffffffffffffffffff1673ffffffffffffffffffffffffffffffffffffffff16634f9359456040518163ffffffff167c0100000000000000000000000000000000000000000000000000000000028152600401602060405180830381600087803b1580156111c957600080fd5b505af11580156111dd573d6000803e3d6000fd5b505050506040513d60208110156111f357600080fd5b81019080805190602001909291905050505b151561121057600080fd5b61121a8383611ecb565b905092915050565b600360009054906101000a900473ffffffffffffffffffffffffffffffffffffffff1673ffffffffffffffffffffffffffffffffffffffff163373ffffffffffffffffffffffffffffffffffffffff1614151561127e57600080fd5b80600160008473ffffffffffffffffffffffffffffffffffffffff1673ffffffffffffffffffffffffffffffffffffffff168152602001908152602001600020541415156112cb57600080fd5b6000600160008473ffffffffffffffffffffffffffffffffffffffff1673ffffffffffffffffffffffffffffffffffffffff16815260200190815260200160002081905550611325816000546120ef90919063ffffffff16565b6000819055508173ffffffffffffffffffffffffffffffffffffffff167fcc16f5dbb4873280815c1ee09dbd06736cffcc184412cf7a71a0fdb75d397ca5826040518082815260200191505060405180910390a2600073ffffffffffffffffffffffffffffffffffffffff168273ffffffffffffffffffffffffffffffffffffffff167fddf252ad1be2c89b69c2b068fc378daa952ba7f163c4a11628f55a4df523b3ef836040518082815260200191505060405180910390a35050565b6000600660009054906101000a900473ffffffffffffffffffffffffffffffffffffffff1673ffffffffffffffffffffffffffffffffffffffff16631515bc2b6040518163ffffffff167c0100000000000000000000000000000000000000000000000000000000028152600401602060405180830381600087803b15801561146b57600080fd5b505af115801561147f573d6000803e3d6000fd5b505050506040513d602081101561149557600080fd5b8101908080519060200190929190505050801561156f5750600660009054906101000a900473ffffffffffffffffffffffffffffffffffffffff1673ffffffffffffffffffffffffffffffffffffffff16634f9359456040518163ffffffff167c0100000000000000000000000000000000000000000000000000000000028152600401602060405180830381600087803b15801561153357600080fd5b505af1158015611547573d6000803e3d6000fd5b505050506040513d602081101561155d57600080fd5b81019080805190602001909291905050505b151561157a57600080fd5b6115848383612108565b905092915050565b6000600260008473ffffffffffffffffffffffffffffffffffffffff1673ffffffffffffffffffffffffffffffffffffffff16815260200190815260200160002060008373ffffffffffffffffffffffffffffffffffffffff1673ffffffffffffffffffffffffffffffffffffffff16815260200190815260200160002054905092915050565b600360009054906101000a900473ffffffffffffffffffffffffffffffffffffffff1673ffffffffffffffffffffffffffffffffffffffff163373ffffffffffffffffffffffffffffffffffffffff1614151561166f57600080fd5b600073ffffffffffffffffffffffffffffffffffffffff168173ffffffffffffffffffffffffffffffffffffffff16141515156116ab57600080fd5b8073ffffffffffffffffffffffffffffffffffffffff16600360009054906101000a900473ffffffffffffffffffffffffffffffffffffffff1673ffffffffffffffffffffffffffffffffffffffff167f8be0079c531659141344cd1fd0a4f28419497f9722a3daafe3b4186f6b6457e060405160405180910390a380600360006101000a81548173ffffffffffffffffffffffffffffffffffffffff021916908373ffffffffffffffffffffffffffffffffffffffff16021790555050565b600081600260003373ffffffffffffffffffffffffffffffffffffffff1673ffffffffffffffffffffffffffffffffffffffff16815260200190815260200160002060008573ffffffffffffffffffffffffffffffffffffffff1673ffffffffffffffffffffffffffffffffffffffff168152602001908152602001600020819055508273ffffffffffffffffffffffffffffffffffffffff163373ffffffffffffffffffffffffffffffffffffffff167f8c5be1e5ebec7d5bd14f71427d1e84f3dd0314c0f7b2291e5b200ac8c7c3b925846040518082815260200191505060405180910390a36001905092915050565b60008073ffffffffffffffffffffffffffffffffffffffff168373ffffffffffffffffffffffffffffffffffffffff161415151561189a57600080fd5b600160008573ffffffffffffffffffffffffffffffffffffffff1673ffffffffffffffffffffffffffffffffffffffff1681526020019081526020016000205482111515156118e857600080fd5b600260008573ffffffffffffffffffffffffffffffffffffffff1673ffffffffffffffffffffffffffffffffffffffff16815260200190815260200160002060003373ffffffffffffffffffffffffffffffffffffffff1673ffffffffffffffffffffffffffffffffffffffff16815260200190815260200160002054821115151561197357600080fd5b6119c582600160008773ffffffffffffffffffffffffffffffffffffffff1673ffffffffffffffffffffffffffffffffffffffff168152602001908152602001600020546120ef90919063ffffffff16565b600160008673ffffffffffffffffffffffffffffffffffffffff1673ffffffffffffffffffffffffffffffffffffffff16815260200190815260200160002081905550611a5a82600160008673ffffffffffffffffffffffffffffffffffffffff1673ffffffffffffffffffffffffffffffffffffffff16815260200190815260200160002054611c1c90919063ffffffff16565b600160008573ffffffffffffffffffffffffffffffffffffffff1673ffffffffffffffffffffffffffffffffffffffff16815260200190815260200160002081905550611b2c82600260008773ffffffffffffffffffffffffffffffffffffffff1673ffffffffffffffffffffffffffffffffffffffff16815260200190815260200160002060003373ffffffffffffffffffffffffffffffffffffffff1673ffffffffffffffffffffffffffffffffffffffff168152602001908152602001600020546120ef90919063ffffffff16565b600260008673ffffffffffffffffffffffffffffffffffffffff1673ffffffffffffffffffffffffffffffffffffffff16815260200190815260200160002060003373ffffffffffffffffffffffffffffffffffffffff1673ffffffffffffffffffffffffffffffffffffffff168152602001908152602001600020819055508273ffffffffffffffffffffffffffffffffffffffff168473ffffffffffffffffffffffffffffffffffffffff167fddf252ad1be2c89b69c2b068fc378daa952ba7f163c4a11628f55a4df523b3ef846040518082815260200191505060405180910390a3600190509392505050565b6000808284019050838110151515611c3057fe5b8091505092915050565b600080600260003373ffffffffffffffffffffffffffffffffffffffff1673ffffffffffffffffffffffffffffffffffffffff16815260200190815260200160002060008573ffffffffffffffffffffffffffffffffffffffff1673ffffffffffffffffffffffffffffffffffffffff16815260200190815260200160002054905080831115611d4b576000600260003373ffffffffffffffffffffffffffffffffffffffff1673ffffffffffffffffffffffffffffffffffffffff16815260200190815260200160002060008673ffffffffffffffffffffffffffffffffffffffff1673ffffffffffffffffffffffffffffffffffffffff16815260200190815260200160002081905550611ddf565b611d5e83826120ef90919063ffffffff16565b600260003373ffffffffffffffffffffffffffffffffffffffff1673ffffffffffffffffffffffffffffffffffffffff16815260200190815260200160002060008673ffffffffffffffffffffffffffffffffffffffff1673ffffffffffffffffffffffffffffffffffffffff168152602001908152602001600020819055505b8373ffffffffffffffffffffffffffffffffffffffff163373ffffffffffffffffffffffffffffffffffffffff167f8c5be1e5ebec7d5bd14f71427d1e84f3dd0314c0f7b2291e5b200ac8c7c3b925600260003373ffffffffffffffffffffffffffffffffffffffff1673ffffffffffffffffffffffffffffffffffffffff16815260200190815260200160002060008873ffffffffffffffffffffffffffffffffffffffff1673ffffffffffffffffffffffffffffffffffffffff168152602001908152602001600020546040518082815260200191505060405180910390a3600191505092915050565b60008073ffffffffffffffffffffffffffffffffffffffff168373ffffffffffffffffffffffffffffffffffffffff1614151515611f0857600080fd5b600160003373ffffffffffffffffffffffffffffffffffffffff1673ffffffffffffffffffffffffffffffffffffffff168152602001908152602001600020548211151515611f5657600080fd5b611fa882600160003373ffffffffffffffffffffffffffffffffffffffff1673ffffffffffffffffffffffffffffffffffffffff168152602001908152602001600020546120ef90919063ffffffff16565b600160003373ffffffffffffffffffffffffffffffffffffffff1673ffffffffffffffffffffffffffffffffffffffff1681526020019081526020016000208190555061203d82600160008673ffffffffffffffffffffffffffffffffffffffff1673ffffffffffffffffffffffffffffffffffffffff16815260200190815260200160002054611c1c90919063ffffffff16565b600160008573ffffffffffffffffffffffffffffffffffffffff1673ffffffffffffffffffffffffffffffffffffffff168152602001908152602001600020819055508273ffffffffffffffffffffffffffffffffffffffff163373ffffffffffffffffffffffffffffffffffffffff167fddf252ad1be2c89b69c2b068fc378daa952ba7f163c4a11628f55a4df523b3ef846040518082815260200191505060405180910390a36001905092915050565b60008282111515156120fd57fe5b818303905092915050565b600061219982600260003373ffffffffffffffffffffffffffffffffffffffff1673ffffffffffffffffffffffffffffffffffffffff16815260200190815260200160002060008673ffffffffffffffffffffffffffffffffffffffff1673ffffffffffffffffffffffffffffffffffffffff16815260200190815260200160002054611c1c90919063ffffffff16565b600260003373ffffffffffffffffffffffffffffffffffffffff1673ffffffffffffffffffffffffffffffffffffffff16815260200190815260200160002060008573ffffffffffffffffffffffffffffffffffffffff1673ffffffffffffffffffffffffffffffffffffffff168152602001908152602001600020819055508273ffffffffffffffffffffffffffffffffffffffff163373ffffffffffffffffffffffffffffffffffffffff167f8c5be1e5ebec7d5bd14f71427d1e84f3dd0314c0f7b2291e5b200ac8c7c3b925600260003373ffffffffffffffffffffffffffffffffffffffff1673ffffffffffffffffffffffffffffffffffffffff16815260200190815260200160002060008773ffffffffffffffffffffffffffffffffffffffff1673ffffffffffffffffffffffffffffffffffffffff168152602001908152602001600020546040518082815260200191505060405180910390a360019050929150505600a165627a7a723058204a58d515a7a7e40933b059e9aadd75f7347c6a5ba4a2e3e866ebd3f2205d5e0f0029",
  "source": "pragma solidity ^0.4.24;\r\n\r\nimport \"./BREMToken.sol\";\r\nimport \"./Userable.sol\";\r\n\r\n/**\r\n * @title SafeERC20\r\n * @dev Wrappers around ERC20 operations that throw on failure.\r\n * To use this library you can add a `using SafeERC20 for ERC20;` statement to your contract,\r\n * which allows you to call the safe operations as `token.safeTransfer(...)`, etc.\r\n */\r\nlibrary SafeERC20 {\r\n    function safeTransfer(ERC20Basic token, address to, uint256 value) internal {\r\n        require(token.transfer(to, value));\r\n    }\r\n    \r\n    function safeTransferFrom(\r\n        ERC20 token,\r\n        address from,\r\n        address to,\r\n        uint256 value\r\n    )\r\n    internal\r\n    {\r\n        require(token.transferFrom(from, to, value));\r\n    }\r\n    \r\n    function safeApprove(ERC20 token, address spender, uint256 value) internal {\r\n        require(token.approve(spender, value));\r\n    }\r\n}\r\n\r\ncontract BREMICO {\r\n    using SafeMath for uint256;\r\n    using SafeERC20 for BREMToken;\r\n\r\n    // The token being sold\r\n    BREMToken public token;\r\n\r\n    // Address where funds are collected\r\n    address public wallet;\r\n\r\n    // How many token units a buyer gets per wei.\r\n    // The rate is the conversion between wei and the smallest and indivisible token unit.\r\n    // So, if you are using a rate of 1 with a DetailedERC20 token with 3 decimals called TOK\r\n    // 1 wei will give you 1 unit, or 0.001 TOK.\r\n    uint256 public rate;\r\n\r\n    // Amount of wei raised\r\n    uint256 public weiRaised;\r\n    \r\n    // Value in wei that need owner\r\n    uint256  public cap;\r\n    \r\n    // ICO documentation hashes\r\n    string public docHash;\r\n    \r\n    // Auditors contract instance\r\n    Auditable audit;\r\n    \r\n    // Current ICO auditors\r\n    mapping(address => bool) auditors;\r\n    \r\n    mapping(uint256 => address) auditorsList;\r\n    \r\n    // Current ICO auditors amount\r\n    uint256 public auditorsAmount;\r\n    \r\n    // Is superuser selected all current ICO auditors\r\n    bool public auditSelected;\r\n    \r\n    // Developer's withdraw request\r\n    struct WithdrawRequst {\r\n        uint256 value;\r\n        uint256 confirmAmount;\r\n        mapping(address => bool) confirmed;\r\n    }\r\n    \r\n    WithdrawRequst public request;\r\n    \r\n    // ICO closing time\r\n    uint256 public closingTime;\r\n    \r\n    // Token sale payment registry\r\n    mapping(address => uint256) public balances;\r\n    \r\n    // Withdraw fee percent\r\n    uint256 public withdrawFeePercent;\r\n\r\n    // Brem contract address\r\n    address public brem;\r\n    \r\n    modifier onlyWhileOpen {\r\n        // solium-disable-next-line security/no-block-members\r\n        require(auditSelected && block.timestamp <= closingTime);\r\n        _;\r\n    }\r\n\r\n    /**\r\n    * Event for token purchase logging\r\n    * @param purchaser who paid for the tokens\r\n    * @param beneficiary who got the tokens\r\n    * @param value weis paid for purchase\r\n    * @param amount amount of tokens purchased\r\n    */\r\n    event TokenPurchase(\r\n        address indexed purchaser,\r\n        address indexed beneficiary,\r\n        uint256 value,\r\n        uint256 amount\r\n    );\r\n\r\n    /**\r\n    * @param _rate Number of token units a buyer gets per wei\r\n    * @param _wallet Address where collected funds will be forwarded to\r\n    */\r\n    constructor(\r\n        address _brem,\r\n        string _name,\r\n        string _symbol,\r\n        uint256 _cap,\r\n        uint256 _rate, \r\n        address _wallet, \r\n        uint256 _closingTime,\r\n        string _docHash,\r\n        uint256 _withdrawFeePercent\r\n    ) \r\n        public \r\n    {\r\n        require(_brem != address(0));\r\n        require(bytes(_name).length > 0);\r\n        require(_cap >= 100);\r\n        require(_rate > 0);\r\n        require(_wallet != address(0));\r\n        require(_closingTime >= block.timestamp);\r\n        require(_withdrawFeePercent >= 0 && _withdrawFeePercent <= 100);\r\n        \r\n        brem = _brem;\r\n        cap = _cap;\r\n        rate = _rate;\r\n        wallet = _wallet;\r\n        closingTime = _closingTime;\r\n        docHash = _docHash;\r\n        audit = Auditable(brem);\r\n        withdrawFeePercent = _withdrawFeePercent;\r\n        \r\n        BREMToken _token = new BREMToken(_name, _symbol, address(this));\r\n        token = _token;\r\n    }\r\n\r\n    // -----------------------------------------\r\n    // Crowdsale external interface\r\n    // -----------------------------------------\r\n    \r\n    /**\r\n    * @dev fallback function ***DO NOT OVERRIDE***\r\n    */\r\n    function () external payable {\r\n        buyTokens(msg.sender);\r\n    }\r\n\r\n    /**\r\n    * @dev low level token purchase ***DO NOT OVERRIDE***\r\n    * @param _beneficiary Address performing the token purchase\r\n    */\r\n    function buyTokens(address _beneficiary) \r\n        public \r\n        payable \r\n        onlyWhileOpen\r\n    {\r\n    \r\n        uint256 weiAmount = msg.value;\r\n        _preValidatePurchase(_beneficiary, weiAmount);\r\n    \r\n        // calculate token amount to be created\r\n        uint256 tokens = _getTokenAmount(weiAmount);\r\n    \r\n        // update state\r\n        weiRaised = weiRaised.add(weiAmount);\r\n    \r\n        _processPurchase(_beneficiary, tokens);\r\n        emit TokenPurchase(\r\n            msg.sender,\r\n            _beneficiary,\r\n            weiAmount,\r\n            tokens\r\n        );\r\n    \r\n        _updatePurchasingState(_beneficiary, weiAmount);\r\n    \r\n        // _postValidatePurchase();\r\n    }\r\n    \r\n    function addAuditor(address _auditor) public {\r\n        require(block.timestamp <= closingTime);\r\n        require(!auditSelected);\r\n        require(audit.isSuperuser(msg.sender));\r\n        require(audit.isAuditor(_auditor));\r\n        require(!auditors[_auditor]);\r\n        \r\n        auditors[_auditor] = true;\r\n        auditorsList[auditorsAmount] = _auditor;\r\n        auditorsAmount++;\r\n    }\r\n    \r\n    function finishAuditorSelection() public {\r\n        require(block.timestamp <= closingTime);\r\n        require(!auditSelected);\r\n        require(audit.isSuperuser(msg.sender));\r\n        require(auditorsAmount > 0);\r\n        \r\n        auditSelected = true;\r\n    }\r\n    \r\n    function withdraw(uint256 _value) public payable {\r\n        require(msg.sender == wallet);\r\n        require(auditSelected);\r\n        require(capReached() && hasClosed());\r\n        require(_value >= 100 && _value <= address(this).balance);\r\n        require(request.value == 0);\r\n        \r\n        if (address(this).balance - _value < 100) {\r\n            request = WithdrawRequst(address(this).balance, 0);\r\n        } else {\r\n            request = WithdrawRequst(_value, 0);\r\n        }\r\n    }\r\n    \r\n    // Auditors confirm withdraw\r\n    function confirmWithdraw() public {\r\n        require(audit.isAuditor(msg.sender));\r\n        require(request.value > 0);\r\n        require(!request.confirmed[msg.sender]);\r\n        require(auditSelected);\r\n        require(capReached() && hasClosed());\r\n        require(auditors[msg.sender]);\r\n        \r\n        request.confirmed[msg.sender] = true;\r\n        request.confirmAmount++;\r\n        \r\n        if (request.confirmAmount == auditorsAmount) {\r\n            uint256 _value = request.value;\r\n            request = WithdrawRequst(0, 0);\r\n            for (uint256 i = 0; i < auditorsAmount; i++) {\r\n                request.confirmed[auditorsList[i]] = false;\r\n            }\r\n            uint256 _feeValue = _value.div(100).mul(withdrawFeePercent);\r\n            uint256 _trasferValue = _value.sub(_feeValue);\r\n            brem.transfer(_feeValue);\r\n            wallet.transfer(_trasferValue);\r\n        }\r\n    }\r\n    \r\n    function refund() public {\r\n        require(hasClosed() && !capReached());\r\n        require(balances[msg.sender] > 0);\r\n        \r\n        uint256 _value = balances[msg.sender];\r\n        balances[msg.sender] = 0;\r\n        uint256 _tokenAmount = _getTokenAmount(_value);\r\n        token.burnForRefund(msg.sender, _tokenAmount);\r\n        weiRaised = weiRaised.sub(_value);\r\n        msg.sender.transfer(_value);\r\n    }\r\n    \r\n    /**\r\n    * @dev Checks whether the period in which the crowdsale is open has already elapsed.\r\n    * @return Whether crowdsale period has elapsed\r\n    */\r\n    function hasClosed() public view returns (bool) {\r\n        // solium-disable-next-line security/no-block-members\r\n        return block.timestamp > closingTime;\r\n    }\r\n    \r\n    /**\r\n    * @dev Checks whether the cap has been reached.\r\n    * @return Whether the cap was reached\r\n    */\r\n    function capReached() public view returns (bool) {\r\n        return weiRaised >= cap;\r\n    }\r\n    \r\n    function getAuditor(uint256 _index) public view returns (address) {\r\n        require(_index < auditorsAmount);\r\n        return auditorsList[_index];\r\n    }\r\n\r\n    function isAuditor(address _auditor) public view returns (bool) {\r\n        return auditors[_auditor];\r\n    }\r\n    \r\n    function isRequested() public view returns (bool) {\r\n        return capReached() && hasClosed() && \r\n            request.value > 0 && !isWithdrawn();\r\n    }\r\n    \r\n    function isConfirmed(address _auditor) public view returns (bool) {\r\n        return request.confirmed[_auditor];\r\n    }\r\n    \r\n    function isWithdrawn() public view returns (bool) {\r\n        return hasClosed() && capReached() && address(this).balance < 100;\r\n    }\r\n    \r\n    function isOverdue() public view returns (bool) {\r\n        return hasClosed() && !auditSelected;\r\n    }\r\n    \r\n  // -----------------------------------------\r\n  // Internal interface (extensible)\r\n  // -----------------------------------------\r\n\r\n    /**\r\n    * @dev Validation of an incoming purchase. Use require statements to revert state when conditions are not met. Use super to concatenate validations.\r\n    * @param _beneficiary Address performing the token purchase\r\n    * @param _weiAmount Value in wei involved in the purchase\r\n    */\r\n    function _preValidatePurchase(\r\n        address _beneficiary,\r\n        uint256 _weiAmount\r\n    )\r\n        internal pure\r\n    {\r\n        require(_beneficiary != address(0));\r\n        require(_weiAmount != 0);\r\n    }\r\n\r\n    /**\r\n    * @dev Source of tokens. Override this method to modify the way in which the crowdsale ultimately gets and sends its tokens.\r\n    * @param _beneficiary Address performing the token purchase\r\n    * @param _tokenAmount Number of tokens to be emitted\r\n    */\r\n    function _deliverTokens(\r\n        address _beneficiary,\r\n        uint256 _tokenAmount\r\n    )\r\n        internal\r\n    {\r\n        token.mint(_beneficiary, _tokenAmount);\r\n    }\r\n\r\n    /**\r\n    * @dev Executed when a purchase has been validated and is ready to be executed. Not necessarily emits/sends tokens.\r\n    * @param _beneficiary Address receiving the tokens\r\n    * @param _tokenAmount Number of tokens to be purchased\r\n    */\r\n    function _processPurchase(\r\n        address _beneficiary,\r\n        uint256 _tokenAmount\r\n    )\r\n        internal\r\n    {\r\n        _deliverTokens(_beneficiary, _tokenAmount);\r\n    }\r\n\r\n    /**\r\n    * @dev Override for extensions that require an internal state to check for validity (current user contributions, etc.)\r\n    * @param _beneficiary Address receiving the tokens\r\n    * @param _weiAmount Value in wei involved in the purchase\r\n    */\r\n    function _updatePurchasingState(\r\n        address _beneficiary,\r\n        uint256 _weiAmount\r\n    )\r\n        internal\r\n    {\r\n        balances[_beneficiary] += _weiAmount;\r\n    }\r\n\r\n    /**\r\n    * @dev Override to extend the way in which ether is converted to tokens.\r\n    * @param _weiAmount Value in wei to be converted into tokens\r\n    * @return Number of tokens that can be purchased with the specified _weiAmount\r\n    */\r\n    function _getTokenAmount(uint256 _weiAmount)\r\n        internal view returns (uint256)\r\n    {\r\n        return _weiAmount.mul(rate);\r\n    }\r\n}",
  "sourcePath": "C:\\Users\\Solidity\\Documents\\HashLab\\GENERAL_DEV\\Brem\\contracts\\BREMICO.sol",
  "compiler": {
    "name": "solc",
    "version": "0.4.24+commit.e67f0147.Emscripten.clang"
  },
  "schemaVersion": "2.0.1",
  "updatedAt": "2018-08-15T10:51:58.294Z"
}