{
  "contractName": "BREMFactory",
  "abi": [
    {
      "constant": true,
      "inputs": [
        {
          "name": "_operator",
          "type": "address"
        },
        {
          "name": "_role",
          "type": "string"
        }
      ],
      "name": "checkRole",
      "outputs": [],
      "payable": false,
      "stateMutability": "view",
      "type": "function"
    },
    {
      "constant": true,
      "inputs": [
        {
          "name": "_operator",
          "type": "address"
        },
        {
          "name": "_role",
          "type": "string"
        }
      ],
      "name": "hasRole",
      "outputs": [
        {
          "name": "",
          "type": "bool"
        }
      ],
      "payable": false,
      "stateMutability": "view",
      "type": "function"
    },
    {
      "constant": false,
      "inputs": [],
      "name": "addDeveloper",
      "outputs": [],
      "payable": false,
      "stateMutability": "nonpayable",
      "type": "function"
    },
    {
      "constant": true,
      "inputs": [],
      "name": "ROLE_AUDITOR",
      "outputs": [
        {
          "name": "",
          "type": "string"
        }
      ],
      "payable": false,
      "stateMutability": "view",
      "type": "function"
    },
    {
      "constant": true,
      "inputs": [],
      "name": "withdrawFeePercent",
      "outputs": [
        {
          "name": "",
          "type": "uint256"
        }
      ],
      "payable": false,
      "stateMutability": "view",
      "type": "function"
    },
    {
      "constant": true,
      "inputs": [
        {
          "name": "_addr",
          "type": "address"
        }
      ],
      "name": "isAuditor",
      "outputs": [
        {
          "name": "",
          "type": "bool"
        }
      ],
      "payable": false,
      "stateMutability": "view",
      "type": "function"
    },
    {
      "constant": false,
      "inputs": [
        {
          "name": "_newSuperuser",
          "type": "address"
        }
      ],
      "name": "transferSuperuser",
      "outputs": [],
      "payable": false,
      "stateMutability": "nonpayable",
      "type": "function"
    },
    {
      "constant": true,
      "inputs": [
        {
          "name": "_addr",
          "type": "address"
        }
      ],
      "name": "isDeveloper",
      "outputs": [
        {
          "name": "",
          "type": "bool"
        }
      ],
      "payable": false,
      "stateMutability": "view",
      "type": "function"
    },
    {
      "constant": true,
      "inputs": [],
      "name": "icoCreationPrice",
      "outputs": [
        {
          "name": "",
          "type": "uint256"
        }
      ],
      "payable": false,
      "stateMutability": "view",
      "type": "function"
    },
    {
      "constant": true,
      "inputs": [],
      "name": "projectsAmount",
      "outputs": [
        {
          "name": "",
          "type": "uint256"
        }
      ],
      "payable": false,
      "stateMutability": "view",
      "type": "function"
    },
    {
      "constant": false,
      "inputs": [
        {
          "name": "_name",
          "type": "string"
        }
      ],
      "name": "signUp",
      "outputs": [
        {
          "name": "",
          "type": "string"
        }
      ],
      "payable": false,
      "stateMutability": "nonpayable",
      "type": "function"
    },
    {
      "constant": true,
      "inputs": [],
      "name": "login",
      "outputs": [
        {
          "name": "",
          "type": "string"
        }
      ],
      "payable": false,
      "stateMutability": "view",
      "type": "function"
    },
    {
      "constant": true,
      "inputs": [
        {
          "name": "_addr",
          "type": "address"
        }
      ],
      "name": "isSuperuser",
      "outputs": [
        {
          "name": "",
          "type": "bool"
        }
      ],
      "payable": false,
      "stateMutability": "view",
      "type": "function"
    },
    {
      "constant": true,
      "inputs": [],
      "name": "ROLE_DEVELOPER",
      "outputs": [
        {
          "name": "",
          "type": "string"
        }
      ],
      "payable": false,
      "stateMutability": "view",
      "type": "function"
    },
    {
      "constant": false,
      "inputs": [
        {
          "name": "_newAuditor",
          "type": "address"
        }
      ],
      "name": "addAuditor",
      "outputs": [],
      "payable": false,
      "stateMutability": "nonpayable",
      "type": "function"
    },
    {
      "constant": false,
      "inputs": [
        {
          "name": "_auditor",
          "type": "address"
        }
      ],
      "name": "removeAuditor",
      "outputs": [],
      "payable": false,
      "stateMutability": "nonpayable",
      "type": "function"
    },
    {
      "constant": true,
      "inputs": [],
      "name": "ROLE_SUPERUSER",
      "outputs": [
        {
          "name": "",
          "type": "string"
        }
      ],
      "payable": false,
      "stateMutability": "view",
      "type": "function"
    },
    {
      "anonymous": false,
      "inputs": [
        {
          "indexed": true,
          "name": "creator",
          "type": "address"
        },
        {
          "indexed": true,
          "name": "icoAddress",
          "type": "address"
        },
        {
          "indexed": true,
          "name": "tokenAddress",
          "type": "address"
        },
        {
          "indexed": false,
          "name": "name",
          "type": "string"
        }
      ],
      "name": "BREMICOCreated",
      "type": "event"
    },
    {
      "anonymous": false,
      "inputs": [
        {
          "indexed": true,
          "name": "operator",
          "type": "address"
        },
        {
          "indexed": false,
          "name": "role",
          "type": "string"
        }
      ],
      "name": "RoleAdded",
      "type": "event"
    },
    {
      "anonymous": false,
      "inputs": [
        {
          "indexed": true,
          "name": "operator",
          "type": "address"
        },
        {
          "indexed": false,
          "name": "role",
          "type": "string"
        }
      ],
      "name": "RoleRemoved",
      "type": "event"
    },
    {
      "constant": true,
      "inputs": [
        {
          "name": "_index",
          "type": "uint256"
        }
      ],
      "name": "getProject",
      "outputs": [
        {
          "name": "",
          "type": "address"
        }
      ],
      "payable": false,
      "stateMutability": "view",
      "type": "function"
    },
    {
      "constant": true,
      "inputs": [
        {
          "name": "_projectName",
          "type": "string"
        }
      ],
      "name": "getProjectByName",
      "outputs": [
        {
          "name": "",
          "type": "address"
        }
      ],
      "payable": false,
      "stateMutability": "view",
      "type": "function"
    },
    {
      "constant": false,
      "inputs": [
        {
          "name": "_icoCreationPrice",
          "type": "uint256"
        }
      ],
      "name": "setIcoCreationPrice",
      "outputs": [],
      "payable": false,
      "stateMutability": "nonpayable",
      "type": "function"
    },
    {
      "constant": false,
      "inputs": [
        {
          "name": "_withdrawFeePercent",
          "type": "uint256"
        }
      ],
      "name": "setWithdrawFeePercent",
      "outputs": [],
      "payable": false,
      "stateMutability": "nonpayable",
      "type": "function"
    }
  ],
  "bytecode": "0x608060405262000054336040805190810160405280600981526020017f73757065727573657200000000000000000000000000000000000000000000008152506200005a640100000000026401000000009004565b62000201565b620000e9826000836040518082805190602001908083835b60208310151562000099578051825260208201915060208101905060208303925062000072565b6001836020036101000a0380198251168184511680821785525050505050509050019150509081526020016040518091039020620001a364010000000002620016e6179091906401000000009004565b8173ffffffffffffffffffffffffffffffffffffffff167fbfec83d64eaa953f2708271a023ab9ee82057f8f3578d548c1a4ba0b5b700489826040518080602001828103825283818151815260200191508051906020019080838360005b838110156200016457808201518184015260208101905062000147565b50505050905090810190601f168015620001925780820380516001836020036101000a031916815260200191505b509250505060405180910390a25050565b60018260000160008373ffffffffffffffffffffffffffffffffffffffff1673ffffffffffffffffffffffffffffffffffffffff16815260200190815260200160002060006101000a81548160ff0219169083151502179055505050565b61187380620002116000396000f30060806040526004361061011d576000357c0100000000000000000000000000000000000000000000000000000000900463ffffffff1680630988ca8c14610122578063217fe6c6146101ab5780632b7d74891461024c5780633f029aaf14610263578063447cb896146102f3578063495ef7051461032057806349b905571461034b5780634b77f269146103a657806357c393fa1461044f5780635eca4a701461049257806380d2370f146104ed5780639cdd991314610518578063adcfb4fc14610543578063b34e97e814610625578063bceee05e146106b5578063c4f9181014610710578063e31cd22e1461073d578063e429cef1146107cd578063e6116cfd14610810578063ebb4f48414610853578063f0f3f2c8146108e3575b600080fd5b34801561012e57600080fd5b506101a9600480360381019080803573ffffffffffffffffffffffffffffffffffffffff169060200190929190803590602001908201803590602001908080601f0160208091040260200160405190810160405280939291908181526020018383808284378201915050505050509192919290505050610950565b005b3480156101b757600080fd5b50610232600480360381019080803573ffffffffffffffffffffffffffffffffffffffff169060200190929190803590602001908201803590602001908080601f01602080910402602001604051908101604052809392919081815260200183838082843782019150505050505091929192905050506109d1565b604051808215151515815260200191505060405180910390f35b34801561025857600080fd5b50610261610a58565b005b34801561026f57600080fd5b50610278610ad5565b6040518080602001828103825283818151815260200191508051906020019080838360005b838110156102b857808201518184015260208101905061029d565b50505050905090810190601f1680156102e55780820380516001836020036101000a031916815260200191505b509250505060405180910390f35b3480156102ff57600080fd5b5061031e60048036038101908080359060200190929190505050610b0e565b005b34801561032c57600080fd5b50610335610b85565b6040518082815260200191505060405180910390f35b34801561035757600080fd5b5061038c600480360381019080803573ffffffffffffffffffffffffffffffffffffffff169060200190929190505050610b8b565b604051808215151515815260200191505060405180910390f35b3480156103b257600080fd5b5061040d600480360381019080803590602001908201803590602001908080601f0160208091040260200160405190810160405280939291908181526020018383808284378201915050505050509192919290505050610bd3565b604051808273ffffffffffffffffffffffffffffffffffffffff1673ffffffffffffffffffffffffffffffffffffffff16815260200191505060405180910390f35b34801561045b57600080fd5b50610490600480360381019080803573ffffffffffffffffffffffffffffffffffffffff169060200190929190505050610cff565b005b34801561049e57600080fd5b506104d3600480360381019080803573ffffffffffffffffffffffffffffffffffffffff169060200190929190505050610dfb565b604051808215151515815260200191505060405180910390f35b3480156104f957600080fd5b50610502610e43565b6040518082815260200191505060405180910390f35b34801561052457600080fd5b5061052d610e49565b6040518082815260200191505060405180910390f35b34801561054f57600080fd5b506105aa600480360381019080803590602001908201803590602001908080601f0160208091040260200160405190810160405280939291908181526020018383808284378201915050505050509192919290505050610e4f565b6040518080602001828103825283818151815260200191508051906020019080838360005b838110156105ea5780820151818401526020810190506105cf565b50505050905090810190601f1680156106175780820380516001836020036101000a031916815260200191505b509250505060405180910390f35b34801561063157600080fd5b5061063a611026565b6040518080602001828103825283818151815260200191508051906020019080838360005b8381101561067a57808201518184015260208101905061065f565b50505050905090810190601f1680156106a75780820380516001836020036101000a031916815260200191505b509250505060405180910390f35b3480156106c157600080fd5b506106f6600480360381019080803573ffffffffffffffffffffffffffffffffffffffff16906020019092919050505061116d565b604051808215151515815260200191505060405180910390f35b34801561071c57600080fd5b5061073b600480360381019080803590602001909291905050506111b5565b005b34801561074957600080fd5b5061075261120f565b6040518080602001828103825283818151815260200191508051906020019080838360005b83811015610792578082015181840152602081019050610777565b50505050905090810190601f1680156107bf5780820380516001836020036101000a031916815260200191505b509250505060405180910390f35b3480156107d957600080fd5b5061080e600480360381019080803573ffffffffffffffffffffffffffffffffffffffff169060200190929190505050611248565b005b34801561081c57600080fd5b50610851600480360381019080803573ffffffffffffffffffffffffffffffffffffffff169060200190929190505050611305565b005b34801561085f57600080fd5b50610868611386565b6040518080602001828103825283818151815260200191508051906020019080838360005b838110156108a857808201518184015260208101905061088d565b50505050905090810190601f1680156108d55780820380516001836020036101000a031916815260200191505b509250505060405180910390f35b3480156108ef57600080fd5b5061090e600480360381019080803590602001909291905050506113bf565b604051808273ffffffffffffffffffffffffffffffffffffffff1673ffffffffffffffffffffffffffffffffffffffff16815260200191505060405180910390f35b6109cd826000836040518082805190602001908083835b60208310151561098c5780518252602082019150602081019050602083039250610967565b6001836020036101000a038019825116818451168082178552505050505050905001915050908152602001604051809103902061140c90919063ffffffff16565b5050565b6000610a50836000846040518082805190602001908083835b602083101515610a0f57805182526020820191506020810190506020830392506109ea565b6001836020036101000a038019825116818451168082178552505050505050905001915050908152602001604051809103902061142590919063ffffffff16565b905092915050565b600073ffffffffffffffffffffffffffffffffffffffff163373ffffffffffffffffffffffffffffffffffffffff1614151515610a9457600080fd5b610ad3336040805190810160405280600981526020017f646576656c6f706572000000000000000000000000000000000000000000000081525061147e565b565b6040805190810160405280600781526020017f61756469746f720000000000000000000000000000000000000000000000000081525081565b610b4d336040805190810160405280600981526020017f7375706572757365720000000000000000000000000000000000000000000000815250610950565b6006548114151515610b5e57600080fd5b60008110158015610b70575060648111155b1515610b7b57600080fd5b8060068190555050565b60065481565b6000610bcc826040805190810160405280600781526020017f61756469746f72000000000000000000000000000000000000000000000000008152506109d1565b9050919050565b60008060008351111515610be657600080fd5b6004836040518082805190602001908083835b602083101515610c1e5780518252602082019150602081019050602083039250610bf9565b6001836020036101000a0380198251168184511680821785525050505050509050019150509081526020016040518091039020549050600073ffffffffffffffffffffffffffffffffffffffff166003600083815260200190815260200160002060009054906101000a900473ffffffffffffffffffffffffffffffffffffffff1673ffffffffffffffffffffffffffffffffffffffff1614151515610cc357600080fd5b6003600082815260200190815260200160002060009054906101000a900473ffffffffffffffffffffffffffffffffffffffff16915050919050565b610d3e336040805190810160405280600981526020017f7375706572757365720000000000000000000000000000000000000000000000815250610950565b600073ffffffffffffffffffffffffffffffffffffffff168173ffffffffffffffffffffffffffffffffffffffff1614151515610d7a57600080fd5b610db9336040805190810160405280600981526020017f73757065727573657200000000000000000000000000000000000000000000008152506115b2565b610df8816040805190810160405280600981526020017f737570657275736572000000000000000000000000000000000000000000000081525061147e565b50565b6000610e3c826040805190810160405280600981526020017f646576656c6f70657200000000000000000000000000000000000000000000008152506109d1565b9050919050565b60055481565b60025481565b60608160008151111515610e6257600080fd5b6000600160003373ffffffffffffffffffffffffffffffffffffffff1673ffffffffffffffffffffffffffffffffffffffff1681526020019081526020016000206000018054600181600116156101000203166002900490501415610f195782600160003373ffffffffffffffffffffffffffffffffffffffff1673ffffffffffffffffffffffffffffffffffffffff1681526020019081526020016000206000019080519060200190610f179291906117a2565b505b610f223361116d565b158015610f355750610f3333610b8b565b155b15610f4357610f42610a58565b5b600160003373ffffffffffffffffffffffffffffffffffffffff1673ffffffffffffffffffffffffffffffffffffffff1681526020019081526020016000206000018054600181600116156101000203166002900480601f0160208091040260200160405190810160405280929190818152602001828054600181600116156101000203166002900480156110195780601f10610fee57610100808354040283529160200191611019565b820191906000526020600020905b815481529060010190602001808311610ffc57829003601f168201915b5050505050915050919050565b60606000600160003373ffffffffffffffffffffffffffffffffffffffff1673ffffffffffffffffffffffffffffffffffffffff16815260200190815260200160002060000180546001816001161561010002031660029004905011151561108d57600080fd5b600160003373ffffffffffffffffffffffffffffffffffffffff1673ffffffffffffffffffffffffffffffffffffffff1681526020019081526020016000206000018054600181600116156101000203166002900480601f0160208091040260200160405190810160405280929190818152602001828054600181600116156101000203166002900480156111635780601f1061113857610100808354040283529160200191611163565b820191906000526020600020905b81548152906001019060200180831161114657829003601f168201915b5050505050905090565b60006111ae826040805190810160405280600981526020017f73757065727573657200000000000000000000000000000000000000000000008152506109d1565b9050919050565b6111f4336040805190810160405280600981526020017f7375706572757365720000000000000000000000000000000000000000000000815250610950565b600554811415151561120557600080fd5b8060058190555050565b6040805190810160405280600981526020017f646576656c6f706572000000000000000000000000000000000000000000000081525081565b611287336040805190810160405280600981526020017f7375706572757365720000000000000000000000000000000000000000000000815250610950565b600073ffffffffffffffffffffffffffffffffffffffff168173ffffffffffffffffffffffffffffffffffffffff16141515156112c357600080fd5b611302816040805190810160405280600781526020017f61756469746f720000000000000000000000000000000000000000000000000081525061147e565b50565b611344336040805190810160405280600981526020017f7375706572757365720000000000000000000000000000000000000000000000815250610950565b611383816040805190810160405280600781526020017f61756469746f72000000000000000000000000000000000000000000000000008152506115b2565b50565b6040805190810160405280600981526020017f737570657275736572000000000000000000000000000000000000000000000081525081565b6000600254821015156113d157600080fd5b6003600083815260200190815260200160002060009054906101000a900473ffffffffffffffffffffffffffffffffffffffff169050919050565b6114168282611425565b151561142157600080fd5b5050565b60008260000160008373ffffffffffffffffffffffffffffffffffffffff1673ffffffffffffffffffffffffffffffffffffffff16815260200190815260200160002060009054906101000a900460ff16905092915050565b6114fb826000836040518082805190602001908083835b6020831015156114ba5780518252602082019150602081019050602083039250611495565b6001836020036101000a03801982511681845116808217855250505050505090500191505090815260200160405180910390206116e690919063ffffffff16565b8173ffffffffffffffffffffffffffffffffffffffff167fbfec83d64eaa953f2708271a023ab9ee82057f8f3578d548c1a4ba0b5b700489826040518080602001828103825283818151815260200191508051906020019080838360005b83811015611574578082015181840152602081019050611559565b50505050905090810190601f1680156115a15780820380516001836020036101000a031916815260200191505b509250505060405180910390a25050565b61162f826000836040518082805190602001908083835b6020831015156115ee57805182526020820191506020810190506020830392506115c9565b6001836020036101000a038019825116818451168082178552505050505050905001915050908152602001604051809103902061174490919063ffffffff16565b8173ffffffffffffffffffffffffffffffffffffffff167fd211483f91fc6eff862467f8de606587a30c8fc9981056f051b897a418df803a826040518080602001828103825283818151815260200191508051906020019080838360005b838110156116a857808201518184015260208101905061168d565b50505050905090810190601f1680156116d55780820380516001836020036101000a031916815260200191505b509250505060405180910390a25050565b60018260000160008373ffffffffffffffffffffffffffffffffffffffff1673ffffffffffffffffffffffffffffffffffffffff16815260200190815260200160002060006101000a81548160ff0219169083151502179055505050565b60008260000160008373ffffffffffffffffffffffffffffffffffffffff1673ffffffffffffffffffffffffffffffffffffffff16815260200190815260200160002060006101000a81548160ff0219169083151502179055505050565b828054600181600116156101000203166002900490600052602060002090601f016020900481019282601f106117e357805160ff1916838001178555611811565b82800160010185558215611811579182015b828111156118105782518255916020019190600101906117f5565b5b50905061181e9190611822565b5090565b61184491905b80821115611840576000816000905550600101611828565b5090565b905600a165627a7a723058200114e7d744a8d6eec10c9ae50635e27f30d7a5ad07c8143d5b381a9c701f9a560029",
  "source": "pragma solidity ^0.4.24;\r\n\r\nimport \"./BREMToken.sol\";\r\nimport \"./BREMICO.sol\";\r\n\r\ncontract BREMFactory is Userable{\r\n    \r\n    uint256 public projectsAmount;\r\n    \r\n    mapping(uint256 => address) projects;\r\n    \r\n    function getProject(uint256 _index) \r\n        public \r\n        view \r\n        returns(address)\r\n    {\r\n        require(_index < projectsAmount);\r\n        return projects[_index];\r\n    }\r\n    \r\n    mapping(string => uint256) indexes;\r\n    \r\n    function getProjectByName(string _projectName)\r\n        public\r\n        view\r\n        returns(address) \r\n    {\r\n        require(bytes(_projectName).length > 0);\r\n        uint256 index = indexes[_projectName];\r\n        require(projects[index] != address(0));\r\n        \r\n        return projects[index];    \r\n    }\r\n    \r\n    event BREMICOCreated(\r\n        address indexed creator,\r\n        address indexed icoAddress,\r\n        address indexed tokenAddress,\r\n        string name\r\n    );\r\n    \r\n    uint256 public icoCreationPrice;\r\n\r\n    function setIcoCreationPrice(uint256 _icoCreationPrice)\r\n        public \r\n        onlySuperuser\r\n    {\r\n        require(_icoCreationPrice != icoCreationPrice);\r\n        icoCreationPrice = _icoCreationPrice;\r\n    }\r\n\r\n    uint256 public withdrawFeePercent;\r\n\r\n    function setWithdrawFeePercent(uint256 _withdrawFeePercent)\r\n        public\r\n        onlySuperuser\r\n    {\r\n        require(_withdrawFeePercent != withdrawFeePercent);\r\n        require(_withdrawFeePercent >= 0 && _withdrawFeePercent <=100);\r\n\r\n        withdrawFeePercent = _withdrawFeePercent;\r\n    }\r\n}",
  "sourcePath": "C:\\Users\\Solidity\\Documents\\HashLab\\GENERAL\\Brem\\contracts\\BREMFactory.sol",
  "compiler": {
    "name": "solc",
    "version": "0.4.24+commit.e67f0147.Emscripten.clang"
  },
  "schemaVersion": "2.0.1",
  "updatedAt": "2018-07-30T06:02:34.544Z"
}