{
  "contractName": "BREM",
  "abi": [
    {
      "constant": true,
      "inputs": [
        {
          "name": "_operator",
          "type": "address"
        },
        {
          "name": "_role",
          "type": "string"
        }
      ],
      "name": "checkRole",
      "outputs": [],
      "payable": false,
      "stateMutability": "view",
      "type": "function"
    },
    {
      "constant": true,
      "inputs": [
        {
          "name": "_operator",
          "type": "address"
        },
        {
          "name": "_role",
          "type": "string"
        }
      ],
      "name": "hasRole",
      "outputs": [
        {
          "name": "",
          "type": "bool"
        }
      ],
      "payable": false,
      "stateMutability": "view",
      "type": "function"
    },
    {
      "constant": false,
      "inputs": [],
      "name": "addDeveloper",
      "outputs": [],
      "payable": false,
      "stateMutability": "nonpayable",
      "type": "function"
    },
    {
      "constant": true,
      "inputs": [],
      "name": "ROLE_AUDITOR",
      "outputs": [
        {
          "name": "",
          "type": "string"
        }
      ],
      "payable": false,
      "stateMutability": "view",
      "type": "function"
    },
    {
      "constant": false,
      "inputs": [
        {
          "name": "_withdrawFeePercent",
          "type": "uint256"
        }
      ],
      "name": "setWithdrawFeePercent",
      "outputs": [],
      "payable": false,
      "stateMutability": "nonpayable",
      "type": "function"
    },
    {
      "constant": true,
      "inputs": [],
      "name": "withdrawFeePercent",
      "outputs": [
        {
          "name": "",
          "type": "uint256"
        }
      ],
      "payable": false,
      "stateMutability": "view",
      "type": "function"
    },
    {
      "constant": true,
      "inputs": [
        {
          "name": "_addr",
          "type": "address"
        }
      ],
      "name": "isAuditor",
      "outputs": [
        {
          "name": "",
          "type": "bool"
        }
      ],
      "payable": false,
      "stateMutability": "view",
      "type": "function"
    },
    {
      "constant": true,
      "inputs": [
        {
          "name": "_projectName",
          "type": "string"
        }
      ],
      "name": "getProjectByName",
      "outputs": [
        {
          "name": "",
          "type": "address"
        }
      ],
      "payable": false,
      "stateMutability": "view",
      "type": "function"
    },
    {
      "constant": false,
      "inputs": [
        {
          "name": "_newSuperuser",
          "type": "address"
        }
      ],
      "name": "transferSuperuser",
      "outputs": [],
      "payable": false,
      "stateMutability": "nonpayable",
      "type": "function"
    },
    {
      "constant": true,
      "inputs": [
        {
          "name": "_addr",
          "type": "address"
        }
      ],
      "name": "isDeveloper",
      "outputs": [
        {
          "name": "",
          "type": "bool"
        }
      ],
      "payable": false,
      "stateMutability": "view",
      "type": "function"
    },
    {
      "constant": true,
      "inputs": [],
      "name": "icoCreationPrice",
      "outputs": [
        {
          "name": "",
          "type": "uint256"
        }
      ],
      "payable": false,
      "stateMutability": "view",
      "type": "function"
    },
    {
      "constant": true,
      "inputs": [],
      "name": "projectsAmount",
      "outputs": [
        {
          "name": "",
          "type": "uint256"
        }
      ],
      "payable": false,
      "stateMutability": "view",
      "type": "function"
    },
    {
      "constant": false,
      "inputs": [
        {
          "name": "_name",
          "type": "string"
        }
      ],
      "name": "signUp",
      "outputs": [
        {
          "name": "",
          "type": "string"
        }
      ],
      "payable": false,
      "stateMutability": "nonpayable",
      "type": "function"
    },
    {
      "constant": true,
      "inputs": [],
      "name": "login",
      "outputs": [
        {
          "name": "",
          "type": "string"
        }
      ],
      "payable": false,
      "stateMutability": "view",
      "type": "function"
    },
    {
      "constant": true,
      "inputs": [
        {
          "name": "_addr",
          "type": "address"
        }
      ],
      "name": "isSuperuser",
      "outputs": [
        {
          "name": "",
          "type": "bool"
        }
      ],
      "payable": false,
      "stateMutability": "view",
      "type": "function"
    },
    {
      "constant": true,
      "inputs": [],
      "name": "BRM",
      "outputs": [
        {
          "name": "",
          "type": "address"
        }
      ],
      "payable": false,
      "stateMutability": "view",
      "type": "function"
    },
    {
      "constant": false,
      "inputs": [
        {
          "name": "_icoCreationPrice",
          "type": "uint256"
        }
      ],
      "name": "setIcoCreationPrice",
      "outputs": [],
      "payable": false,
      "stateMutability": "nonpayable",
      "type": "function"
    },
    {
      "constant": true,
      "inputs": [],
      "name": "ROLE_DEVELOPER",
      "outputs": [
        {
          "name": "",
          "type": "string"
        }
      ],
      "payable": false,
      "stateMutability": "view",
      "type": "function"
    },
    {
      "constant": false,
      "inputs": [
        {
          "name": "_newAuditor",
          "type": "address"
        }
      ],
      "name": "addAuditor",
      "outputs": [],
      "payable": false,
      "stateMutability": "nonpayable",
      "type": "function"
    },
    {
      "constant": true,
      "inputs": [],
      "name": "ROLE_SUPERUSER",
      "outputs": [
        {
          "name": "",
          "type": "string"
        }
      ],
      "payable": false,
      "stateMutability": "view",
      "type": "function"
    },
    {
      "constant": true,
      "inputs": [
        {
          "name": "_index",
          "type": "uint256"
        }
      ],
      "name": "getProject",
      "outputs": [
        {
          "name": "",
          "type": "address"
        }
      ],
      "payable": false,
      "stateMutability": "view",
      "type": "function"
    },
    {
      "inputs": [
        {
          "name": "_brmAddress",
          "type": "address"
        },
        {
          "name": "_icoCreationPrice",
          "type": "uint256"
        },
        {
          "name": "_withdrawFeePercent",
          "type": "uint256"
        }
      ],
      "payable": false,
      "stateMutability": "nonpayable",
      "type": "constructor"
    },
    {
      "payable": true,
      "stateMutability": "payable",
      "type": "fallback"
    },
    {
      "anonymous": false,
      "inputs": [
        {
          "indexed": true,
          "name": "creator",
          "type": "address"
        },
        {
          "indexed": true,
          "name": "icoAddress",
          "type": "address"
        },
        {
          "indexed": true,
          "name": "tokenAddress",
          "type": "address"
        },
        {
          "indexed": false,
          "name": "name",
          "type": "string"
        }
      ],
      "name": "BREMICOCreated",
      "type": "event"
    },
    {
      "anonymous": false,
      "inputs": [
        {
          "indexed": true,
          "name": "operator",
          "type": "address"
        },
        {
          "indexed": false,
          "name": "role",
          "type": "string"
        }
      ],
      "name": "RoleAdded",
      "type": "event"
    },
    {
      "anonymous": false,
      "inputs": [
        {
          "indexed": true,
          "name": "operator",
          "type": "address"
        },
        {
          "indexed": false,
          "name": "role",
          "type": "string"
        }
      ],
      "name": "RoleRemoved",
      "type": "event"
    },
    {
      "constant": false,
      "inputs": [
        {
          "name": "_name",
          "type": "string"
        },
        {
          "name": "_symbol",
          "type": "string"
        },
        {
          "name": "_rate",
          "type": "uint256"
        },
        {
          "name": "_cap",
          "type": "uint256"
        },
        {
          "name": "_closingTime",
          "type": "uint256"
        },
        {
          "name": "_description",
          "type": "string"
        },
        {
          "name": "_docHash",
          "type": "string"
        }
      ],
      "name": "createBREMICO",
      "outputs": [
        {
          "name": "tokenAddress",
          "type": "address"
        },
        {
          "name": "icoAddress",
          "type": "address"
        }
      ],
      "payable": false,
      "stateMutability": "nonpayable",
      "type": "function"
    },
    {
      "constant": false,
      "inputs": [
        {
          "name": "_value",
          "type": "uint256"
        }
      ],
      "name": "withdrawFees",
      "outputs": [],
      "payable": false,
      "stateMutability": "nonpayable",
      "type": "function"
    }
  ],
  "bytecode": "0x60806040523480156200001157600080fd5b506040516060806200644883398101806040528101908080519060200190929190805190602001909291908051906020019092919050505062000099336040805190810160405280600981526020017f737570657275736572000000000000000000000000000000000000000000000081525062000110640100000000026401000000009004565b60008110158015620000ac575060648111155b1515620000b857600080fd5b82600760006101000a81548173ffffffffffffffffffffffffffffffffffffffff021916908373ffffffffffffffffffffffffffffffffffffffff1602179055508160058190555080600681905550505050620002b7565b6200019f826000836040518082805190602001908083835b6020831015156200014f578051825260208201915060208101905060208303925062000128565b6001836020036101000a038019825116818451168082178552505050505050905001915050908152602001604051809103902062000259640100000000026200236f179091906401000000009004565b8173ffffffffffffffffffffffffffffffffffffffff167fbfec83d64eaa953f2708271a023ab9ee82057f8f3578d548c1a4ba0b5b700489826040518080602001828103825283818151815260200191508051906020019080838360005b838110156200021a578082015181840152602081019050620001fd565b50505050905090810190601f168015620002485780820380516001836020036101000a031916815260200191505b509250505060405180910390a25050565b60018260000160008373ffffffffffffffffffffffffffffffffffffffff1673ffffffffffffffffffffffffffffffffffffffff16815260200190815260200160002060006101000a81548160ff0219169083151502179055505050565b61618180620002c76000396000f3006080604052600436106200014b576000357c0100000000000000000000000000000000000000000000000000000000900463ffffffff1680630988ca8c146200014d578063217fe6c614620001d95780632b7d7489146200027d5780633f029aaf1462000297578063447cb896146200032d578063495ef705146200035d57806349b90557146200038b5780634b77f26914620003e957806357c393fa14620004955780635e318e0714620004db5780635eca4a70146200050b57806380d2370f14620005695780639cdd99131462000597578063adcfb4fc14620005c5578063b34e97e814620006ad578063bceee05e1462000743578063bfb7703014620007a1578063c4f9181014620007fb578063e31cd22e146200082b578063e429cef114620008c1578063ebb4f4841462000907578063ecdf8ac0146200099d578063f0f3f2c81462000b6c575b005b3480156200015a57600080fd5b50620001d7600480360381019080803573ffffffffffffffffffffffffffffffffffffffff169060200190929190803590602001908201803590602001908080601f016020809104026020016040519081016040528093929190818152602001838380828437820191505050505050919291929050505062000bdc565b005b348015620001e657600080fd5b5062000263600480360381019080803573ffffffffffffffffffffffffffffffffffffffff169060200190929190803590602001908201803590602001908080601f016020809104026020016040519081016040528093929190818152602001838380828437820191505050505050919291929050505062000c61565b604051808215151515815260200191505060405180910390f35b3480156200028a57600080fd5b506200029562000cec565b005b348015620002a457600080fd5b50620002af62000d6c565b6040518080602001828103825283818151815260200191508051906020019080838360005b83811015620002f1578082015181840152602081019050620002d4565b50505050905090810190601f1680156200031f5780820380516001836020036101000a031916815260200191505b509250505060405180910390f35b3480156200033a57600080fd5b506200035b6004803603810190808035906020019092919050505062000da5565b005b3480156200036a57600080fd5b506200037562000e21565b6040518082815260200191505060405180910390f35b3480156200039857600080fd5b50620003cf600480360381019080803573ffffffffffffffffffffffffffffffffffffffff16906020019092919050505062000e27565b604051808215151515815260200191505060405180910390f35b348015620003f657600080fd5b5062000453600480360381019080803590602001908201803590602001908080601f016020809104026020016040519081016040528093929190818152602001838380828437820191505050505050919291929050505062000e71565b604051808273ffffffffffffffffffffffffffffffffffffffff1673ffffffffffffffffffffffffffffffffffffffff16815260200191505060405180910390f35b348015620004a257600080fd5b50620004d9600480360381019080803573ffffffffffffffffffffffffffffffffffffffff16906020019092919050505062000fa1565b005b348015620004e857600080fd5b506200050960048036038101908080359060200190929190505050620010a4565b005b3480156200051857600080fd5b506200054f600480360381019080803573ffffffffffffffffffffffffffffffffffffffff16906020019092919050505062001164565b604051808215151515815260200191505060405180910390f35b3480156200057657600080fd5b5062000581620011ae565b6040518082815260200191505060405180910390f35b348015620005a457600080fd5b50620005af620011b4565b6040518082815260200191505060405180910390f35b348015620005d257600080fd5b506200062f600480360381019080803590602001908201803590602001908080601f0160208091040260200160405190810160405280939291908181526020018383808284378201915050505050509192919290505050620011ba565b6040518080602001828103825283818151815260200191508051906020019080838360005b838110156200067157808201518184015260208101905062000654565b50505050905090810190601f1680156200069f5780820380516001836020036101000a031916815260200191505b509250505060405180910390f35b348015620006ba57600080fd5b50620006c5620013a1565b6040518080602001828103825283818151815260200191508051906020019080838360005b8381101562000707578082015181840152602081019050620006ea565b50505050905090810190601f168015620007355780820380516001836020036101000a031916815260200191505b509250505060405180910390f35b3480156200075057600080fd5b5062000787600480360381019080803573ffffffffffffffffffffffffffffffffffffffff169060200190929190505050620014ed565b604051808215151515815260200191505060405180910390f35b348015620007ae57600080fd5b50620007b962001537565b604051808273ffffffffffffffffffffffffffffffffffffffff1673ffffffffffffffffffffffffffffffffffffffff16815260200191505060405180910390f35b3480156200080857600080fd5b5062000829600480360381019080803590602001909291905050506200155d565b005b3480156200083857600080fd5b5062000843620015ba565b6040518080602001828103825283818151815260200191508051906020019080838360005b838110156200088557808201518184015260208101905062000868565b50505050905090810190601f168015620008b35780820380516001836020036101000a031916815260200191505b509250505060405180910390f35b348015620008ce57600080fd5b5062000905600480360381019080803573ffffffffffffffffffffffffffffffffffffffff169060200190929190505050620015f3565b005b3480156200091457600080fd5b506200091f620016b5565b6040518080602001828103825283818151815260200191508051906020019080838360005b838110156200096157808201518184015260208101905062000944565b50505050905090810190601f1680156200098f5780820380516001836020036101000a031916815260200191505b509250505060405180910390f35b348015620009aa57600080fd5b5062000af7600480360381019080803590602001908201803590602001908080601f0160208091040260200160405190810160405280939291908181526020018383808284378201915050505050509192919290803590602001908201803590602001908080601f0160208091040260200160405190810160405280939291908181526020018383808284378201915050505050509192919290803590602001909291908035906020019092919080359060200190929190803590602001908201803590602001908080601f0160208091040260200160405190810160405280939291908181526020018383808284378201915050505050509192919290803590602001908201803590602001908080601f0160208091040260200160405190810160405280939291908181526020018383808284378201915050505050509192919290505050620016ee565b604051808373ffffffffffffffffffffffffffffffffffffffff1673ffffffffffffffffffffffffffffffffffffffff1681526020018273ffffffffffffffffffffffffffffffffffffffff1673ffffffffffffffffffffffffffffffffffffffff1681526020019250505060405180910390f35b34801562000b7957600080fd5b5062000b9a6004803603810190808035906020019092919050505062002036565b604051808273ffffffffffffffffffffffffffffffffffffffff1673ffffffffffffffffffffffffffffffffffffffff16815260200191505060405180910390f35b62000c5d826000836040518082805190602001908083835b60208310151562000c1b578051825260208201915060208101905060208303925062000bf4565b6001836020036101000a03801982511681845116808217855250505050505090500191505090815260200160405180910390206200208490919063ffffffff16565b5050565b600062000ce4836000846040518082805190602001908083835b60208310151562000ca2578051825260208201915060208101905060208303925062000c7b565b6001836020036101000a0380198251168184511680821785525050505050509050019150509081526020016040518091039020620020a090919063ffffffff16565b905092915050565b600073ffffffffffffffffffffffffffffffffffffffff163373ffffffffffffffffffffffffffffffffffffffff161415151562000d2957600080fd5b62000d6a336040805190810160405280600981526020017f646576656c6f7065720000000000000000000000000000000000000000000000815250620020f9565b565b6040805190810160405280600781526020017f61756469746f720000000000000000000000000000000000000000000000000081525081565b62000de6336040805190810160405280600981526020017f737570657275736572000000000000000000000000000000000000000000000081525062000bdc565b600654811415151562000df857600080fd5b6000811015801562000e0b575060648111155b151562000e1757600080fd5b8060068190555050565b60065481565b600062000e6a826040805190810160405280600781526020017f61756469746f720000000000000000000000000000000000000000000000000081525062000c61565b9050919050565b6000806000835111151562000e8557600080fd5b6004836040518082805190602001908083835b60208310151562000ebf578051825260208201915060208101905060208303925062000e98565b6001836020036101000a0380198251168184511680821785525050505050509050019150509081526020016040518091039020549050600073ffffffffffffffffffffffffffffffffffffffff166003600083815260200190815260200160002060009054906101000a900473ffffffffffffffffffffffffffffffffffffffff1673ffffffffffffffffffffffffffffffffffffffff161415151562000f6557600080fd5b6003600082815260200190815260200160002060009054906101000a900473ffffffffffffffffffffffffffffffffffffffff16915050919050565b62000fe2336040805190810160405280600981526020017f737570657275736572000000000000000000000000000000000000000000000081525062000bdc565b600073ffffffffffffffffffffffffffffffffffffffff168173ffffffffffffffffffffffffffffffffffffffff16141515156200101f57600080fd5b62001060336040805190810160405280600981526020017f737570657275736572000000000000000000000000000000000000000000000081525062002234565b620010a1816040805190810160405280600981526020017f7375706572757365720000000000000000000000000000000000000000000000815250620020f9565b50565b620010e5336040805190810160405280600981526020017f737570657275736572000000000000000000000000000000000000000000000081525062000bdc565b803073ffffffffffffffffffffffffffffffffffffffff1631101580156200110d5750600081115b15156200111957600080fd5b3373ffffffffffffffffffffffffffffffffffffffff166108fc829081150290604051600060405180830381858888f1935050505015801562001160573d6000803e3d6000fd5b5050565b6000620011a7826040805190810160405280600981526020017f646576656c6f706572000000000000000000000000000000000000000000000081525062000c61565b9050919050565b60055481565b60025481565b60608160008151111515620011ce57600080fd5b6000600160003373ffffffffffffffffffffffffffffffffffffffff1673ffffffffffffffffffffffffffffffffffffffff1681526020019081526020016000206000018054600181600116156101000203166002900490501415620012885782600160003373ffffffffffffffffffffffffffffffffffffffff1673ffffffffffffffffffffffffffffffffffffffff1681526020019081526020016000206000019080519060200190620012869291906200242b565b505b6200129333620014ed565b158015620012a95750620012a73362000e27565b155b15620012ba57620012b962000cec565b5b600160003373ffffffffffffffffffffffffffffffffffffffff1673ffffffffffffffffffffffffffffffffffffffff1681526020019081526020016000206000018054600181600116156101000203166002900480601f016020809104026020016040519081016040528092919081815260200182805460018160011615610100020316600290048015620013945780601f10620013685761010080835404028352916020019162001394565b820191906000526020600020905b8154815290600101906020018083116200137657829003601f168201915b5050505050915050919050565b60606000600160003373ffffffffffffffffffffffffffffffffffffffff1673ffffffffffffffffffffffffffffffffffffffff1681526020019081526020016000206000018054600181600116156101000203166002900490501115156200140957600080fd5b600160003373ffffffffffffffffffffffffffffffffffffffff1673ffffffffffffffffffffffffffffffffffffffff1681526020019081526020016000206000018054600181600116156101000203166002900480601f016020809104026020016040519081016040528092919081815260200182805460018160011615610100020316600290048015620014e35780601f10620014b757610100808354040283529160200191620014e3565b820191906000526020600020905b815481529060010190602001808311620014c557829003601f168201915b5050505050905090565b600062001530826040805190810160405280600981526020017f737570657275736572000000000000000000000000000000000000000000000081525062000c61565b9050919050565b600760009054906101000a900473ffffffffffffffffffffffffffffffffffffffff1681565b6200159e336040805190810160405280600981526020017f737570657275736572000000000000000000000000000000000000000000000081525062000bdc565b6005548114151515620015b057600080fd5b8060058190555050565b6040805190810160405280600981526020017f646576656c6f706572000000000000000000000000000000000000000000000081525081565b62001634336040805190810160405280600981526020017f737570657275736572000000000000000000000000000000000000000000000081525062000bdc565b600073ffffffffffffffffffffffffffffffffffffffff168173ffffffffffffffffffffffffffffffffffffffff16141515156200167157600080fd5b620016b2816040805190810160405280600781526020017f61756469746f7200000000000000000000000000000000000000000000000000815250620020f9565b50565b6040805190810160405280600981526020017f737570657275736572000000000000000000000000000000000000000000000081525081565b60008060008062001735336040805190810160405280600981526020017f646576656c6f706572000000000000000000000000000000000000000000000081525062000bdc565b600554600760009054906101000a900473ffffffffffffffffffffffffffffffffffffffff1673ffffffffffffffffffffffffffffffffffffffff166370a08231336040518263ffffffff167c0100000000000000000000000000000000000000000000000000000000028152600401808273ffffffffffffffffffffffffffffffffffffffff1673ffffffffffffffffffffffffffffffffffffffff168152602001915050602060405180830381600087803b158015620017f657600080fd5b505af11580156200180b573d6000803e3d6000fd5b505050506040513d60208110156200182257600080fd5b8101908080519060200190929190505050101515156200184157600080fd5b60008b5111801562001854575060008a51115b15156200186057600080fd5b600060048c6040518082805190602001908083835b6020831015156200189c578051825260208201915060208101905060208303925062001875565b6001836020036101000a038019825116818451168082178552505050505050905001915050908152602001604051809103902054141515620018dd57600080fd5b60648810151515620018ee57600080fd5b600760009054906101000a900473ffffffffffffffffffffffffffffffffffffffff1673ffffffffffffffffffffffffffffffffffffffff166323b872dd33306005546040518463ffffffff167c0100000000000000000000000000000000000000000000000000000000028152600401808473ffffffffffffffffffffffffffffffffffffffff1673ffffffffffffffffffffffffffffffffffffffff1681526020018373ffffffffffffffffffffffffffffffffffffffff1673ffffffffffffffffffffffffffffffffffffffff1681526020018281526020019350505050602060405180830381600087803b158015620019ea57600080fd5b505af1158015620019ff573d6000803e3d6000fd5b505050506040513d602081101562001a1657600080fd5b8101908080519060200190929190505050151562001a3357600080fd5b8a8a62001a3f620024b2565b808060200180602001838103835285818151815260200191508051906020019080838360005b8381101562001a8257808201518184015260208101905062001a65565b50505050905090810190601f16801562001ab05780820380516001836020036101000a031916815260200191505b50838103825284818151815260200191508051906020019080838360005b8381101562001aeb57808201518184015260208101905062001ace565b50505050905090810190601f16801562001b195780820380516001836020036101000a031916815260200191505b50945050505050604051809103906000f08015801562001b3d573d6000803e3d6000fd5b509150819350308b898b33868c8c8c3060065462001b5a620024c3565b808c73ffffffffffffffffffffffffffffffffffffffff1673ffffffffffffffffffffffffffffffffffffffff168152602001806020018b81526020018a81526020018973ffffffffffffffffffffffffffffffffffffffff1673ffffffffffffffffffffffffffffffffffffffff1681526020018873ffffffffffffffffffffffffffffffffffffffff1673ffffffffffffffffffffffffffffffffffffffff16815260200187815260200180602001806020018673ffffffffffffffffffffffffffffffffffffffff1673ffffffffffffffffffffffffffffffffffffffff16815260200185815260200184810384528e818151815260200191508051906020019080838360005b8381101562001c8157808201518184015260208101905062001c64565b50505050905090810190601f16801562001caf5780820380516001836020036101000a031916815260200191505b50848103835288818151815260200191508051906020019080838360005b8381101562001cea57808201518184015260208101905062001ccd565b50505050905090810190601f16801562001d185780820380516001836020036101000a031916815260200191505b50848103825287818151815260200191508051906020019080838360005b8381101562001d5357808201518184015260208101905062001d36565b50505050905090810190601f16801562001d815780820380516001836020036101000a031916815260200191505b509e505050505050505050505050505050604051809103906000f08015801562001daf573d6000803e3d6000fd5b5090508092508173ffffffffffffffffffffffffffffffffffffffff1663f2fde38b846040518263ffffffff167c0100000000000000000000000000000000000000000000000000000000028152600401808273ffffffffffffffffffffffffffffffffffffffff1673ffffffffffffffffffffffffffffffffffffffff168152602001915050600060405180830381600087803b15801562001e5157600080fd5b505af115801562001e66573d6000803e3d6000fd5b505050508260036000600254815260200190815260200160002060006101000a81548173ffffffffffffffffffffffffffffffffffffffff021916908373ffffffffffffffffffffffffffffffffffffffff16021790555060025460048c6040518082805190602001908083835b60208310151562001efb578051825260208201915060208101905060208303925062001ed4565b6001836020036101000a0380198251168184511680821785525050505050509050019150509081526020016040518091039020819055506002600081548092919060010191905055508373ffffffffffffffffffffffffffffffffffffffff168373ffffffffffffffffffffffffffffffffffffffff163373ffffffffffffffffffffffffffffffffffffffff167fcbef3bd4943085dfb59f0609e5f754aec11e22a5838e77e0d0c0bff98a0dcdae8e6040518080602001828103825283818151815260200191508051906020019080838360005b8381101562001fed57808201518184015260208101905062001fd0565b50505050905090810190601f1680156200201b5780820380516001836020036101000a031916815260200191505b509250505060405180910390a4505097509795505050505050565b6000600254821015156200204957600080fd5b6003600083815260200190815260200160002060009054906101000a900473ffffffffffffffffffffffffffffffffffffffff169050919050565b620020908282620020a0565b15156200209c57600080fd5b5050565b60008260000160008373ffffffffffffffffffffffffffffffffffffffff1673ffffffffffffffffffffffffffffffffffffffff16815260200190815260200160002060009054906101000a900460ff16905092915050565b6200217a826000836040518082805190602001908083835b60208310151562002138578051825260208201915060208101905060208303925062002111565b6001836020036101000a03801982511681845116808217855250505050505090500191505090815260200160405180910390206200236f90919063ffffffff16565b8173ffffffffffffffffffffffffffffffffffffffff167fbfec83d64eaa953f2708271a023ab9ee82057f8f3578d548c1a4ba0b5b700489826040518080602001828103825283818151815260200191508051906020019080838360005b83811015620021f5578082015181840152602081019050620021d8565b50505050905090810190601f168015620022235780820380516001836020036101000a031916815260200191505b509250505060405180910390a25050565b620022b5826000836040518082805190602001908083835b6020831015156200227357805182526020820191506020810190506020830392506200224c565b6001836020036101000a0380198251168184511680821785525050505050509050019150509081526020016040518091039020620023cd90919063ffffffff16565b8173ffffffffffffffffffffffffffffffffffffffff167fd211483f91fc6eff862467f8de606587a30c8fc9981056f051b897a418df803a826040518080602001828103825283818151815260200191508051906020019080838360005b838110156200233057808201518184015260208101905062002313565b50505050905090810190601f1680156200235e5780820380516001836020036101000a031916815260200191505b509250505060405180910390a25050565b60018260000160008373ffffffffffffffffffffffffffffffffffffffff1673ffffffffffffffffffffffffffffffffffffffff16815260200190815260200160002060006101000a81548160ff0219169083151502179055505050565b60008260000160008373ffffffffffffffffffffffffffffffffffffffff1673ffffffffffffffffffffffffffffffffffffffff16815260200190815260200160002060006101000a81548160ff0219169083151502179055505050565b828054600181600116156101000203166002900490600052602060002090601f016020900481019282601f106200246e57805160ff19168380011785556200249f565b828001600101855582156200249f579182015b828111156200249e57825182559160200191906001019062002481565b5b509050620024ae9190620024d4565b5090565b604051611cc780620024fd83390190565b604051611f9280620041c483390190565b620024f991905b80821115620024f5576000816000905550600101620024db565b5090565b90560060806040526000600360146101000a81548160ff0219169083151502179055503480156200002c57600080fd5b5060405162001cc738038062001cc7833981018060405281019080805182019291906020018051820192919050505033600360006101000a81548173ffffffffffffffffffffffffffffffffffffffff021916908373ffffffffffffffffffffffffffffffffffffffff1602179055508160049080519060200190620000b4929190620000d6565b508060059080519060200190620000cd929190620000d6565b50505062000185565b828054600181600116156101000203166002900490600052602060002090601f016020900481019282601f106200011957805160ff19168380011785556200014a565b828001600101855582156200014a579182015b82811115620001495782518255916020019190600101906200012c565b5b5090506200015991906200015d565b5090565b6200018291905b808211156200017e57600081600090555060010162000164565b5090565b90565b611b3280620001956000396000f3006080604052600436106100f1576000357c0100000000000000000000000000000000000000000000000000000000900463ffffffff16806305d2035b146100f657806306fdde0314610125578063095ea7b3146101b557806318160ddd1461021a57806323b872dd14610245578063313ce567146102ca57806340c10f19146102fb578063661884631461036057806370a08231146103c55780637d64bcb41461041c5780638da5cb5b1461044b57806395d89b41146104a2578063a9059cbb14610532578063d0482d0414610597578063d73dd623146105e4578063dd62ed3e14610649578063f2fde38b146106c0575b600080fd5b34801561010257600080fd5b5061010b610703565b604051808215151515815260200191505060405180910390f35b34801561013157600080fd5b5061013a610716565b6040518080602001828103825283818151815260200191508051906020019080838360005b8381101561017a57808201518184015260208101905061015f565b50505050905090810190601f1680156101a75780820380516001836020036101000a031916815260200191505b509250505060405180910390f35b3480156101c157600080fd5b50610200600480360381019080803573ffffffffffffffffffffffffffffffffffffffff169060200190929190803590602001909291905050506107b4565b604051808215151515815260200191505060405180910390f35b34801561022657600080fd5b5061022f6108a6565b6040518082815260200191505060405180910390f35b34801561025157600080fd5b506102b0600480360381019080803573ffffffffffffffffffffffffffffffffffffffff169060200190929190803573ffffffffffffffffffffffffffffffffffffffff169060200190929190803590602001909291905050506108ac565b604051808215151515815260200191505060405180910390f35b3480156102d657600080fd5b506102df610c6b565b604051808260ff1660ff16815260200191505060405180910390f35b34801561030757600080fd5b50610346600480360381019080803573ffffffffffffffffffffffffffffffffffffffff16906020019092919080359060200190929190505050610c70565b604051808215151515815260200191505060405180910390f35b34801561036c57600080fd5b506103ab600480360381019080803573ffffffffffffffffffffffffffffffffffffffff16906020019092919080359060200190929190505050610e58565b604051808215151515815260200191505060405180910390f35b3480156103d157600080fd5b50610406600480360381019080803573ffffffffffffffffffffffffffffffffffffffff1690602001909291905050506110e9565b6040518082815260200191505060405180910390f35b34801561042857600080fd5b50610431611132565b604051808215151515815260200191505060405180910390f35b34801561045757600080fd5b506104606111fa565b604051808273ffffffffffffffffffffffffffffffffffffffff1673ffffffffffffffffffffffffffffffffffffffff16815260200191505060405180910390f35b3480156104ae57600080fd5b506104b7611220565b6040518080602001828103825283818151815260200191508051906020019080838360005b838110156104f75780820151818401526020810190506104dc565b50505050905090810190601f1680156105245780820380516001836020036101000a031916815260200191505b509250505060405180910390f35b34801561053e57600080fd5b5061057d600480360381019080803573ffffffffffffffffffffffffffffffffffffffff169060200190929190803590602001909291905050506112be565b604051808215151515815260200191505060405180910390f35b3480156105a357600080fd5b506105e2600480360381019080803573ffffffffffffffffffffffffffffffffffffffff169060200190929190803590602001909291905050506114e2565b005b3480156105f057600080fd5b5061062f600480360381019080803573ffffffffffffffffffffffffffffffffffffffff169060200190929190803590602001909291905050506116f4565b604051808215151515815260200191505060405180910390f35b34801561065557600080fd5b506106aa600480360381019080803573ffffffffffffffffffffffffffffffffffffffff169060200190929190803573ffffffffffffffffffffffffffffffffffffffff1690602001909291905050506118f0565b6040518082815260200191505060405180910390f35b3480156106cc57600080fd5b50610701600480360381019080803573ffffffffffffffffffffffffffffffffffffffff169060200190929190505050611977565b005b600360149054906101000a900460ff1681565b60048054600181600116156101000203166002900480601f0160208091040260200160405190810160405280929190818152602001828054600181600116156101000203166002900480156107ac5780601f10610781576101008083540402835291602001916107ac565b820191906000526020600020905b81548152906001019060200180831161078f57829003601f168201915b505050505081565b600081600260003373ffffffffffffffffffffffffffffffffffffffff1673ffffffffffffffffffffffffffffffffffffffff16815260200190815260200160002060008573ffffffffffffffffffffffffffffffffffffffff1673ffffffffffffffffffffffffffffffffffffffff168152602001908152602001600020819055508273ffffffffffffffffffffffffffffffffffffffff163373ffffffffffffffffffffffffffffffffffffffff167f8c5be1e5ebec7d5bd14f71427d1e84f3dd0314c0f7b2291e5b200ac8c7c3b925846040518082815260200191505060405180910390a36001905092915050565b60005481565b60008073ffffffffffffffffffffffffffffffffffffffff168373ffffffffffffffffffffffffffffffffffffffff16141515156108e957600080fd5b600160008573ffffffffffffffffffffffffffffffffffffffff1673ffffffffffffffffffffffffffffffffffffffff16815260200190815260200160002054821115151561093757600080fd5b600260008573ffffffffffffffffffffffffffffffffffffffff1673ffffffffffffffffffffffffffffffffffffffff16815260200190815260200160002060003373ffffffffffffffffffffffffffffffffffffffff1673ffffffffffffffffffffffffffffffffffffffff1681526020019081526020016000205482111515156109c257600080fd5b610a1482600160008773ffffffffffffffffffffffffffffffffffffffff1673ffffffffffffffffffffffffffffffffffffffff16815260200190815260200160002054611acf90919063ffffffff16565b600160008673ffffffffffffffffffffffffffffffffffffffff1673ffffffffffffffffffffffffffffffffffffffff16815260200190815260200160002081905550610aa982600160008673ffffffffffffffffffffffffffffffffffffffff1673ffffffffffffffffffffffffffffffffffffffff16815260200190815260200160002054611ae890919063ffffffff16565b600160008573ffffffffffffffffffffffffffffffffffffffff1673ffffffffffffffffffffffffffffffffffffffff16815260200190815260200160002081905550610b7b82600260008773ffffffffffffffffffffffffffffffffffffffff1673ffffffffffffffffffffffffffffffffffffffff16815260200190815260200160002060003373ffffffffffffffffffffffffffffffffffffffff1673ffffffffffffffffffffffffffffffffffffffff16815260200190815260200160002054611acf90919063ffffffff16565b600260008673ffffffffffffffffffffffffffffffffffffffff1673ffffffffffffffffffffffffffffffffffffffff16815260200190815260200160002060003373ffffffffffffffffffffffffffffffffffffffff1673ffffffffffffffffffffffffffffffffffffffff168152602001908152602001600020819055508273ffffffffffffffffffffffffffffffffffffffff168473ffffffffffffffffffffffffffffffffffffffff167fddf252ad1be2c89b69c2b068fc378daa952ba7f163c4a11628f55a4df523b3ef846040518082815260200191505060405180910390a3600190509392505050565b601281565b6000600360009054906101000a900473ffffffffffffffffffffffffffffffffffffffff1673ffffffffffffffffffffffffffffffffffffffff163373ffffffffffffffffffffffffffffffffffffffff16141515610cce57600080fd5b600360149054906101000a900460ff16151515610cea57600080fd5b610cff82600054611ae890919063ffffffff16565b600081905550610d5782600160008673ffffffffffffffffffffffffffffffffffffffff1673ffffffffffffffffffffffffffffffffffffffff16815260200190815260200160002054611ae890919063ffffffff16565b600160008573ffffffffffffffffffffffffffffffffffffffff1673ffffffffffffffffffffffffffffffffffffffff168152602001908152602001600020819055508273ffffffffffffffffffffffffffffffffffffffff167f0f6798a560793a54c3bcfe86a93cde1e73087d944c0ea20544137d4121396885836040518082815260200191505060405180910390a28273ffffffffffffffffffffffffffffffffffffffff16600073ffffffffffffffffffffffffffffffffffffffff167fddf252ad1be2c89b69c2b068fc378daa952ba7f163c4a11628f55a4df523b3ef846040518082815260200191505060405180910390a36001905092915050565b600080600260003373ffffffffffffffffffffffffffffffffffffffff1673ffffffffffffffffffffffffffffffffffffffff16815260200190815260200160002060008573ffffffffffffffffffffffffffffffffffffffff1673ffffffffffffffffffffffffffffffffffffffff16815260200190815260200160002054905080831115610f69576000600260003373ffffffffffffffffffffffffffffffffffffffff1673ffffffffffffffffffffffffffffffffffffffff16815260200190815260200160002060008673ffffffffffffffffffffffffffffffffffffffff1673ffffffffffffffffffffffffffffffffffffffff16815260200190815260200160002081905550610ffd565b610f7c8382611acf90919063ffffffff16565b600260003373ffffffffffffffffffffffffffffffffffffffff1673ffffffffffffffffffffffffffffffffffffffff16815260200190815260200160002060008673ffffffffffffffffffffffffffffffffffffffff1673ffffffffffffffffffffffffffffffffffffffff168152602001908152602001600020819055505b8373ffffffffffffffffffffffffffffffffffffffff163373ffffffffffffffffffffffffffffffffffffffff167f8c5be1e5ebec7d5bd14f71427d1e84f3dd0314c0f7b2291e5b200ac8c7c3b925600260003373ffffffffffffffffffffffffffffffffffffffff1673ffffffffffffffffffffffffffffffffffffffff16815260200190815260200160002060008873ffffffffffffffffffffffffffffffffffffffff1673ffffffffffffffffffffffffffffffffffffffff168152602001908152602001600020546040518082815260200191505060405180910390a3600191505092915050565b6000600160008373ffffffffffffffffffffffffffffffffffffffff1673ffffffffffffffffffffffffffffffffffffffff168152602001908152602001600020549050919050565b6000600360009054906101000a900473ffffffffffffffffffffffffffffffffffffffff1673ffffffffffffffffffffffffffffffffffffffff163373ffffffffffffffffffffffffffffffffffffffff1614151561119057600080fd5b600360149054906101000a900460ff161515156111ac57600080fd5b6001600360146101000a81548160ff0219169083151502179055507fae5184fba832cb2b1f702aca6117b8d265eaf03ad33eb133f19dde0f5920fa0860405160405180910390a16001905090565b600360009054906101000a900473ffffffffffffffffffffffffffffffffffffffff1681565b60058054600181600116156101000203166002900480601f0160208091040260200160405190810160405280929190818152602001828054600181600116156101000203166002900480156112b65780601f1061128b576101008083540402835291602001916112b6565b820191906000526020600020905b81548152906001019060200180831161129957829003601f168201915b505050505081565b60008073ffffffffffffffffffffffffffffffffffffffff168373ffffffffffffffffffffffffffffffffffffffff16141515156112fb57600080fd5b600160003373ffffffffffffffffffffffffffffffffffffffff1673ffffffffffffffffffffffffffffffffffffffff16815260200190815260200160002054821115151561134957600080fd5b61139b82600160003373ffffffffffffffffffffffffffffffffffffffff1673ffffffffffffffffffffffffffffffffffffffff16815260200190815260200160002054611acf90919063ffffffff16565b600160003373ffffffffffffffffffffffffffffffffffffffff1673ffffffffffffffffffffffffffffffffffffffff1681526020019081526020016000208190555061143082600160008673ffffffffffffffffffffffffffffffffffffffff1673ffffffffffffffffffffffffffffffffffffffff16815260200190815260200160002054611ae890919063ffffffff16565b600160008573ffffffffffffffffffffffffffffffffffffffff1673ffffffffffffffffffffffffffffffffffffffff168152602001908152602001600020819055508273ffffffffffffffffffffffffffffffffffffffff163373ffffffffffffffffffffffffffffffffffffffff167fddf252ad1be2c89b69c2b068fc378daa952ba7f163c4a11628f55a4df523b3ef846040518082815260200191505060405180910390a36001905092915050565b600360009054906101000a900473ffffffffffffffffffffffffffffffffffffffff1673ffffffffffffffffffffffffffffffffffffffff163373ffffffffffffffffffffffffffffffffffffffff1614151561153e57600080fd5b600160008373ffffffffffffffffffffffffffffffffffffffff1673ffffffffffffffffffffffffffffffffffffffff16815260200190815260200160002054811115151561158c57600080fd5b6115de81600160008573ffffffffffffffffffffffffffffffffffffffff1673ffffffffffffffffffffffffffffffffffffffff16815260200190815260200160002054611acf90919063ffffffff16565b600160008473ffffffffffffffffffffffffffffffffffffffff1673ffffffffffffffffffffffffffffffffffffffff1681526020019081526020016000208190555061163681600054611acf90919063ffffffff16565b6000819055508173ffffffffffffffffffffffffffffffffffffffff167fcc16f5dbb4873280815c1ee09dbd06736cffcc184412cf7a71a0fdb75d397ca5826040518082815260200191505060405180910390a2600073ffffffffffffffffffffffffffffffffffffffff168273ffffffffffffffffffffffffffffffffffffffff167fddf252ad1be2c89b69c2b068fc378daa952ba7f163c4a11628f55a4df523b3ef836040518082815260200191505060405180910390a35050565b600061178582600260003373ffffffffffffffffffffffffffffffffffffffff1673ffffffffffffffffffffffffffffffffffffffff16815260200190815260200160002060008673ffffffffffffffffffffffffffffffffffffffff1673ffffffffffffffffffffffffffffffffffffffff16815260200190815260200160002054611ae890919063ffffffff16565b600260003373ffffffffffffffffffffffffffffffffffffffff1673ffffffffffffffffffffffffffffffffffffffff16815260200190815260200160002060008573ffffffffffffffffffffffffffffffffffffffff1673ffffffffffffffffffffffffffffffffffffffff168152602001908152602001600020819055508273ffffffffffffffffffffffffffffffffffffffff163373ffffffffffffffffffffffffffffffffffffffff167f8c5be1e5ebec7d5bd14f71427d1e84f3dd0314c0f7b2291e5b200ac8c7c3b925600260003373ffffffffffffffffffffffffffffffffffffffff1673ffffffffffffffffffffffffffffffffffffffff16815260200190815260200160002060008773ffffffffffffffffffffffffffffffffffffffff1673ffffffffffffffffffffffffffffffffffffffff168152602001908152602001600020546040518082815260200191505060405180910390a36001905092915050565b6000600260008473ffffffffffffffffffffffffffffffffffffffff1673ffffffffffffffffffffffffffffffffffffffff16815260200190815260200160002060008373ffffffffffffffffffffffffffffffffffffffff1673ffffffffffffffffffffffffffffffffffffffff16815260200190815260200160002054905092915050565b600360009054906101000a900473ffffffffffffffffffffffffffffffffffffffff1673ffffffffffffffffffffffffffffffffffffffff163373ffffffffffffffffffffffffffffffffffffffff161415156119d357600080fd5b600073ffffffffffffffffffffffffffffffffffffffff168173ffffffffffffffffffffffffffffffffffffffff1614151515611a0f57600080fd5b8073ffffffffffffffffffffffffffffffffffffffff16600360009054906101000a900473ffffffffffffffffffffffffffffffffffffffff1673ffffffffffffffffffffffffffffffffffffffff167f8be0079c531659141344cd1fd0a4f28419497f9722a3daafe3b4186f6b6457e060405160405180910390a380600360006101000a81548173ffffffffffffffffffffffffffffffffffffffff021916908373ffffffffffffffffffffffffffffffffffffffff16021790555050565b6000828211151515611add57fe5b818303905092915050565b6000808284019050838110151515611afc57fe5b80915050929150505600a165627a7a723058200e3fc72af64d04830cad8fa160befed5c2bf3d4ea38fdbcdecde5d2c791faf28002960806040523480156200001157600080fd5b5060405162001f9238038062001f928339810180604052810190808051906020019092919080518201929190602001805190602001909291908051906020019092919080519060200190929190805190602001909291908051906020019092919080518201929190602001805182019291906020018051906020019092919080519060200190929190505050600073ffffffffffffffffffffffffffffffffffffffff168b73ffffffffffffffffffffffffffffffffffffffff1614151515620000da57600080fd5b60008a51111515620000eb57600080fd5b600089111515620000fb57600080fd5b6000881115156200010b57600080fd5b600073ffffffffffffffffffffffffffffffffffffffff168773ffffffffffffffffffffffffffffffffffffffff16141515156200014857600080fd5b600073ffffffffffffffffffffffffffffffffffffffff168673ffffffffffffffffffffffffffffffffffffffff16141515156200018557600080fd5b600073ffffffffffffffffffffffffffffffffffffffff168273ffffffffffffffffffffffffffffffffffffffff1614151515620001c257600080fd5b428510151515620001d257600080fd5b60008110158015620001e5575060648111155b1515620001f157600080fd5b8960019080519060200190620002099291906200036c565b508a601360006101000a81548173ffffffffffffffffffffffffffffffffffffffff021916908373ffffffffffffffffffffffffffffffffffffffff160217905550886005819055508760038190555086600260006101000a81548173ffffffffffffffffffffffffffffffffffffffff021916908373ffffffffffffffffffffffffffffffffffffffff160217905550856000806101000a81548173ffffffffffffffffffffffffffffffffffffffff021916908373ffffffffffffffffffffffffffffffffffffffff16021790555084600f819055508360069080519060200190620002f99291906200036c565b508260079080519060200190620003129291906200036c565b5081600860006101000a81548173ffffffffffffffffffffffffffffffffffffffff021916908373ffffffffffffffffffffffffffffffffffffffff1602179055508060128190555050505050505050505050506200041b565b828054600181600116156101000203166002900490600052602060002090601f016020900481019282601f10620003af57805160ff1916838001178555620003e0565b82800160010185558215620003e0579182015b82811115620003df578251825591602001919060010190620003c2565b5b509050620003ef9190620003f3565b5090565b6200041891905b8082111562000414576000816000905550600101620003fa565b5090565b90565b611b67806200042b6000396000f30060806040526004361061015f576000357c0100000000000000000000000000000000000000000000000000000000900463ffffffff16806306fdde031461016a5780631515bc2b146101fa57806327e235e3146102295780632c4e722e146102805780632e1a7d4d146102ab578063338cdca1146102cb578063355274ea146102fd5780633d6df0d5146103285780634042b66f146103b857806344aa5700146103e357806345e4f34a14610412578063495ef7051461046957806349b90557146104945780634b6753bc146104ef5780634f9359451461051a578063521eb27314610549578063590e1ae3146105a057806368124f9a146105b75780637284e416146105ce57806397781f021461065e578063c8e7f5951461068d578063e429cef1146106b8578063e44e76a0146106fb578063ea78d1ab1461072a578063ec8ac4d814610741578063fad5e0c414610777578063fc0c546a146107ce575b61016833610825565b005b34801561017657600080fd5b5061017f61090a565b6040518080602001828103825283818151815260200191508051906020019080838360005b838110156101bf5780820151818401526020810190506101a4565b50505050905090810190601f1680156101ec5780820380516001836020036101000a031916815260200191505b509250505060405180910390f35b34801561020657600080fd5b5061020f6109a8565b604051808215151515815260200191505060405180910390f35b34801561023557600080fd5b5061026a600480360381019080803573ffffffffffffffffffffffffffffffffffffffff1690602001909291905050506109b4565b6040518082815260200191505060405180910390f35b34801561028c57600080fd5b506102956109cc565b6040518082815260200191505060405180910390f35b6102c9600480360381019080803590602001909291905050506109d2565b005b3480156102d757600080fd5b506102e0610ae5565b604051808381526020018281526020019250505060405180910390f35b34801561030957600080fd5b50610312610af7565b6040518082815260200191505060405180910390f35b34801561033457600080fd5b5061033d610afd565b6040518080602001828103825283818151815260200191508051906020019080838360005b8381101561037d578082015181840152602081019050610362565b50505050905090810190601f1680156103aa5780820380516001836020036101000a031916815260200191505b509250505060405180910390f35b3480156103c457600080fd5b506103cd610b9b565b6040518082815260200191505060405180910390f35b3480156103ef57600080fd5b506103f8610ba1565b604051808215151515815260200191505060405180910390f35b34801561041e57600080fd5b50610453600480360381019080803573ffffffffffffffffffffffffffffffffffffffff169060200190929190505050610be3565b6040518082815260200191505060405180910390f35b34801561047557600080fd5b5061047e610bfb565b6040518082815260200191505060405180910390f35b3480156104a057600080fd5b506104d5600480360381019080803573ffffffffffffffffffffffffffffffffffffffff169060200190929190505050610c01565b604051808215151515815260200191505060405180910390f35b3480156104fb57600080fd5b50610504610c57565b6040518082815260200191505060405180910390f35b34801561052657600080fd5b5061052f610c5d565b604051808215151515815260200191505060405180910390f35b34801561055557600080fd5b5061055e610c6c565b604051808273ffffffffffffffffffffffffffffffffffffffff1673ffffffffffffffffffffffffffffffffffffffff16815260200191505060405180910390f35b3480156105ac57600080fd5b506105b5610c92565b005b3480156105c357600080fd5b506105cc610f12565b005b3480156105da57600080fd5b506105e36112ee565b6040518080602001828103825283818151815260200191508051906020019080838360005b83811015610623578082015181840152602081019050610608565b50505050905090810190601f1680156106505780820380516001836020036101000a031916815260200191505b509250505060405180910390f35b34801561066a57600080fd5b5061067361138c565b604051808215151515815260200191505060405180910390f35b34801561069957600080fd5b506106a26113cd565b6040518082815260200191505060405180910390f35b3480156106c457600080fd5b506106f9600480360381019080803573ffffffffffffffffffffffffffffffffffffffff1690602001909291905050506113d3565b005b34801561070757600080fd5b506107106116cc565b604051808215151515815260200191505060405180910390f35b34801561073657600080fd5b5061073f6116df565b005b610775600480360381019080803573ffffffffffffffffffffffffffffffffffffffff169060200190929190505050610825565b005b34801561078357600080fd5b5061078c61183d565b604051808273ffffffffffffffffffffffffffffffffffffffff1673ffffffffffffffffffffffffffffffffffffffff16815260200191505060405180910390f35b3480156107da57600080fd5b506107e3611863565b604051808273ffffffffffffffffffffffffffffffffffffffff1673ffffffffffffffffffffffffffffffffffffffff16815260200191505060405180910390f35b600080600b60009054906101000a900460ff1680156108465750600f544211155b151561085157600080fd5b34915061085e8383611888565b610867826118d8565b905061087e826004546118f690919063ffffffff16565b60048190555061088e8382611914565b8273ffffffffffffffffffffffffffffffffffffffff163373ffffffffffffffffffffffffffffffffffffffff167f623b3804fa71d67900d064613da8f94b9617215ee90799290593e1745087ad188484604051808381526020018281526020019250505060405180910390a36109058383611922565b505050565b60018054600181600116156101000203166002900480601f0160208091040260200160405190810160405280929190818152602001828054600181600116156101000203166002900480156109a05780601f10610975576101008083540402835291602001916109a0565b820191906000526020600020905b81548152906001019060200180831161098357829003601f168201915b505050505081565b6000600f544211905090565b60106020528060005260406000206000915090505481565b60035481565b600260009054906101000a900473ffffffffffffffffffffffffffffffffffffffff1673ffffffffffffffffffffffffffffffffffffffff163373ffffffffffffffffffffffffffffffffffffffff16141515610a2e57600080fd5b600b60009054906101000a900460ff161515610a4957600080fd5b610a51610c5d565b8015610a615750610a606109a8565b5b1515610a6c57600080fd5b60648110158015610a9457503073ffffffffffffffffffffffffffffffffffffffff16318111155b1515610a9f57600080fd5b6000600c60000154141515610ab357600080fd5b60408051908101604052808281526020016000815250600c600082015181600001556020820151816001015590505050565b600c8060000154908060010154905082565b60055481565b60078054600181600116156101000203166002900480601f016020809104026020016040519081016040528092919081815260200182805460018160011615610100020316600290048015610b935780601f10610b6857610100808354040283529160200191610b93565b820191906000526020600020905b815481529060010190602001808311610b7657829003601f168201915b505050505081565b60045481565b6000610bab6109a8565b8015610bbb5750610bba610c5d565b5b8015610bde575060643073ffffffffffffffffffffffffffffffffffffffff1631105b905090565b60116020528060005260406000206000915090505481565b60125481565b6000600960008373ffffffffffffffffffffffffffffffffffffffff1673ffffffffffffffffffffffffffffffffffffffff16815260200190815260200160002060009054906101000a900460ff169050919050565b600f5481565b60006005546004541015905090565b600260009054906101000a900473ffffffffffffffffffffffffffffffffffffffff1681565b600080610c9d6109a8565b8015610cae5750610cac610c5d565b155b1515610cb957600080fd5b6000601060003373ffffffffffffffffffffffffffffffffffffffff1673ffffffffffffffffffffffffffffffffffffffff16815260200190815260200160002054111515610d0757600080fd5b601060003373ffffffffffffffffffffffffffffffffffffffff1673ffffffffffffffffffffffffffffffffffffffff168152602001908152602001600020549150601160003373ffffffffffffffffffffffffffffffffffffffff1673ffffffffffffffffffffffffffffffffffffffff1681526020019081526020016000205490506000601060003373ffffffffffffffffffffffffffffffffffffffff1673ffffffffffffffffffffffffffffffffffffffff168152602001908152602001600020819055506000809054906101000a900473ffffffffffffffffffffffffffffffffffffffff1673ffffffffffffffffffffffffffffffffffffffff1663d0482d0433836040518363ffffffff167c0100000000000000000000000000000000000000000000000000000000028152600401808373ffffffffffffffffffffffffffffffffffffffff1673ffffffffffffffffffffffffffffffffffffffff16815260200182815260200192505050600060405180830381600087803b158015610e9457600080fd5b505af1158015610ea8573d6000803e3d6000fd5b50505050610ec1826004546119c890919063ffffffff16565b6004819055503373ffffffffffffffffffffffffffffffffffffffff166108fc839081150290604051600060405180830381858888f19350505050158015610f0d573d6000803e3d6000fd5b505050565b6000806000600860009054906101000a900473ffffffffffffffffffffffffffffffffffffffff1673ffffffffffffffffffffffffffffffffffffffff166349b90557336040518263ffffffff167c0100000000000000000000000000000000000000000000000000000000028152600401808273ffffffffffffffffffffffffffffffffffffffff1673ffffffffffffffffffffffffffffffffffffffff168152602001915050602060405180830381600087803b158015610fd457600080fd5b505af1158015610fe8573d6000803e3d6000fd5b505050506040513d6020811015610ffe57600080fd5b8101908080519060200190929190505050151561101a57600080fd5b6000600c6000015411151561102e57600080fd5b600c60020160003373ffffffffffffffffffffffffffffffffffffffff1673ffffffffffffffffffffffffffffffffffffffff16815260200190815260200160002060009054906101000a900460ff1615151561108a57600080fd5b600b60009054906101000a900460ff1615156110a557600080fd5b6110ad610c5d565b80156110bd57506110bc6109a8565b5b15156110c857600080fd5b600960003373ffffffffffffffffffffffffffffffffffffffff1673ffffffffffffffffffffffffffffffffffffffff16815260200190815260200160002060009054906101000a900460ff16151561112057600080fd5b6001600c60020160003373ffffffffffffffffffffffffffffffffffffffff1673ffffffffffffffffffffffffffffffffffffffff16815260200190815260200160002060006101000a81548160ff021916908315150217905550600c60010160008154809291906001019190505550600a54600c6001015414156112e957600c6000015492506040805190810160405280600081526020016000815250600c60008201518160000155602082015181600101559050506111ff6012546111f16064866119e190919063ffffffff16565b6119fc90919063ffffffff16565b915061121482846119c890919063ffffffff16565b9050601360009054906101000a900473ffffffffffffffffffffffffffffffffffffffff1673ffffffffffffffffffffffffffffffffffffffff166108fc839081150290604051600060405180830381858888f1935050505015801561127e573d6000803e3d6000fd5b50600260009054906101000a900473ffffffffffffffffffffffffffffffffffffffff1673ffffffffffffffffffffffffffffffffffffffff166108fc829081150290604051600060405180830381858888f193505050501580156112e7573d6000803e3d6000fd5b505b505050565b60068054600181600116156101000203166002900480601f0160208091040260200160405190810160405280929190818152602001828054600181600116156101000203166002900480156113845780601f1061135957610100808354040283529160200191611384565b820191906000526020600020905b81548152906001019060200180831161136757829003601f168201915b505050505081565b6000611396610c5d565b80156113a657506113a56109a8565b5b80156113b757506000600c60000154115b80156113c857506113c6610ba1565b155b905090565b600a5481565b600f5442111515156113e457600080fd5b600b60009054906101000a900460ff1615151561140057600080fd5b600860009054906101000a900473ffffffffffffffffffffffffffffffffffffffff1673ffffffffffffffffffffffffffffffffffffffff1663bceee05e336040518263ffffffff167c0100000000000000000000000000000000000000000000000000000000028152600401808273ffffffffffffffffffffffffffffffffffffffff1673ffffffffffffffffffffffffffffffffffffffff168152602001915050602060405180830381600087803b1580156114bd57600080fd5b505af11580156114d1573d6000803e3d6000fd5b505050506040513d60208110156114e757600080fd5b8101908080519060200190929190505050151561150357600080fd5b600860009054906101000a900473ffffffffffffffffffffffffffffffffffffffff1673ffffffffffffffffffffffffffffffffffffffff166349b90557826040518263ffffffff167c0100000000000000000000000000000000000000000000000000000000028152600401808273ffffffffffffffffffffffffffffffffffffffff1673ffffffffffffffffffffffffffffffffffffffff168152602001915050602060405180830381600087803b1580156115c057600080fd5b505af11580156115d4573d6000803e3d6000fd5b505050506040513d60208110156115ea57600080fd5b8101908080519060200190929190505050151561160657600080fd5b600960008273ffffffffffffffffffffffffffffffffffffffff1673ffffffffffffffffffffffffffffffffffffffff16815260200190815260200160002060009054906101000a900460ff1615151561165f57600080fd5b6001600960008373ffffffffffffffffffffffffffffffffffffffff1673ffffffffffffffffffffffffffffffffffffffff16815260200190815260200160002060006101000a81548160ff021916908315150217905550600a6000815480929190600101919050555050565b600b60009054906101000a900460ff1681565b600f5442111515156116f057600080fd5b600b60009054906101000a900460ff1615151561170c57600080fd5b600860009054906101000a900473ffffffffffffffffffffffffffffffffffffffff1673ffffffffffffffffffffffffffffffffffffffff1663bceee05e336040518263ffffffff167c0100000000000000000000000000000000000000000000000000000000028152600401808273ffffffffffffffffffffffffffffffffffffffff1673ffffffffffffffffffffffffffffffffffffffff168152602001915050602060405180830381600087803b1580156117c957600080fd5b505af11580156117dd573d6000803e3d6000fd5b505050506040513d60208110156117f357600080fd5b8101908080519060200190929190505050151561180f57600080fd5b6000600a5411151561182057600080fd5b6001600b60006101000a81548160ff021916908315150217905550565b601360009054906101000a900473ffffffffffffffffffffffffffffffffffffffff1681565b6000809054906101000a900473ffffffffffffffffffffffffffffffffffffffff1681565b600073ffffffffffffffffffffffffffffffffffffffff168273ffffffffffffffffffffffffffffffffffffffff16141515156118c457600080fd5b600081141515156118d457600080fd5b5050565b60006118ef600354836119fc90919063ffffffff16565b9050919050565b600080828401905083811015151561190a57fe5b8091505092915050565b61191e8282611a37565b5050565b80601060008473ffffffffffffffffffffffffffffffffffffffff1673ffffffffffffffffffffffffffffffffffffffff16815260200190815260200160002060008282540192505081905550611978816118d8565b601160008473ffffffffffffffffffffffffffffffffffffffff1673ffffffffffffffffffffffffffffffffffffffff168152602001908152602001600020600082825401925050819055505050565b60008282111515156119d657fe5b818303905092915050565b60008082848115156119ef57fe5b0490508091505092915050565b6000806000841415611a115760009150611a30565b8284029050828482811515611a2257fe5b04141515611a2c57fe5b8091505b5092915050565b6000809054906101000a900473ffffffffffffffffffffffffffffffffffffffff1673ffffffffffffffffffffffffffffffffffffffff166340c10f1983836040518363ffffffff167c0100000000000000000000000000000000000000000000000000000000028152600401808373ffffffffffffffffffffffffffffffffffffffff1673ffffffffffffffffffffffffffffffffffffffff16815260200182815260200192505050602060405180830381600087803b158015611afb57600080fd5b505af1158015611b0f573d6000803e3d6000fd5b505050506040513d6020811015611b2557600080fd5b81019080805190602001909291905050505050505600a165627a7a72305820d6ebbe9172bf9cd8e1cbbd3d515b21ab54aa029ef4c9e7cbbac8962e219411950029a165627a7a723058207ffbfc4c37fef3b09610d3e7009dc8a33fa2564cedd938fb99a0476ddbd2a6960029",
  "source": "pragma solidity ^0.4.24;\n\nimport \"./BREMFactory.sol\";\nimport \"./Userable.sol\";\nimport \"./BRMToken.sol\";\n\ncontract BREM is BREMFactory {\n\n    BRMToken public BRM;\n\n    constructor(\n        address _brmAddress,\n        uint256 _icoCreationPrice,\n        uint256 _withdrawFeePercent\n    ) \n    public \n    {\n        require(_withdrawFeePercent >= 0 && _withdrawFeePercent <=100);\n        BRM = BRMToken(_brmAddress);\n        icoCreationPrice = _icoCreationPrice;\n        withdrawFeePercent = _withdrawFeePercent;\n    }    \n    \n    function createBREMICO( \n        string _name, \n        string _symbol,\n        uint256 _rate,\n        uint256 _cap,\n        uint256 _closingTime,\n        string _description,\n        string _docHash\n    ) \n    public\n    onlyDeveloper\n    returns (address tokenAddress, address icoAddress)\n    {\n        require(BRM.balanceOf(msg.sender) >= icoCreationPrice);\n        require(bytes(_name).length > 0 && bytes(_symbol).length > 0);\n        require(indexes[_name] == 0);\n        require(_cap >= 100);\n        \n        require(BRM.transferFrom(msg.sender, address(this), icoCreationPrice));\n        \n        \n        BREMToken token = new BREMToken(_name, _symbol);\n        tokenAddress = address(token);\n        \n        BREMICO ico = new BREMICO(\n            address(this),\n            _name,\n            _cap, \n            _rate,\n            msg.sender,\n            token,\n            _closingTime,\n            _description, \n            _docHash, \n            this,\n            withdrawFeePercent\n        );\n        icoAddress = address(ico);\n        token.transferOwnership(icoAddress);\n\n        projects[projectsAmount] = icoAddress;\n        indexes[_name] = projectsAmount;\n        projectsAmount++;\n        emit BREMICOCreated(msg.sender, icoAddress, tokenAddress, _name);\n    }\n    \n    // Withdraw collected fies\n    function withdrawFees(uint256 _value) \n        public \n        onlySuperuser\n     {\n        require(address(this).balance >= _value && _value > 0);\n        msg.sender.transfer(_value);\n    } \n\n    function () external payable {}    \n}",
  "sourcePath": "/Users/artur/Development/Brem/contracts/BREM.sol",
  "compiler": {
    "name": "solc",
    "version": "0.4.24+commit.e67f0147.Emscripten.clang"
  },
  "schemaVersion": "2.0.1",
  "updatedAt": "2018-08-05T22:12:46.249Z"
}