{
  "contractName": "BREMFactory",
  "abi": [
    {
      "constant": true,
      "inputs": [
        {
          "name": "_operator",
          "type": "address"
        },
        {
          "name": "_role",
          "type": "string"
        }
      ],
      "name": "checkRole",
      "outputs": [],
      "payable": false,
      "stateMutability": "view",
      "type": "function"
    },
    {
      "constant": true,
      "inputs": [
        {
          "name": "_operator",
          "type": "address"
        },
        {
          "name": "_role",
          "type": "string"
        }
      ],
      "name": "hasRole",
      "outputs": [
        {
          "name": "",
          "type": "bool"
        }
      ],
      "payable": false,
      "stateMutability": "view",
      "type": "function"
    },
    {
      "constant": true,
      "inputs": [
        {
          "name": "_name",
          "type": "string"
        }
      ],
      "name": "isValidUsername",
      "outputs": [
        {
          "name": "",
          "type": "bool"
        }
      ],
      "payable": false,
      "stateMutability": "view",
      "type": "function"
    },
    {
      "constant": true,
      "inputs": [],
      "name": "ROLE_AUDITOR",
      "outputs": [
        {
          "name": "",
          "type": "string"
        }
      ],
      "payable": false,
      "stateMutability": "view",
      "type": "function"
    },
    {
      "constant": true,
      "inputs": [],
      "name": "withdrawFeePercent",
      "outputs": [
        {
          "name": "",
          "type": "uint256"
        }
      ],
      "payable": false,
      "stateMutability": "view",
      "type": "function"
    },
    {
      "constant": true,
      "inputs": [
        {
          "name": "_addr",
          "type": "address"
        }
      ],
      "name": "isAuditor",
      "outputs": [
        {
          "name": "",
          "type": "bool"
        }
      ],
      "payable": false,
      "stateMutability": "view",
      "type": "function"
    },
    {
      "constant": true,
      "inputs": [],
      "name": "isSignUp",
      "outputs": [
        {
          "name": "",
          "type": "bool"
        }
      ],
      "payable": false,
      "stateMutability": "view",
      "type": "function"
    },
    {
      "constant": false,
      "inputs": [
        {
          "name": "_newSuperuser",
          "type": "address"
        }
      ],
      "name": "transferSuperuser",
      "outputs": [],
      "payable": false,
      "stateMutability": "nonpayable",
      "type": "function"
    },
    {
      "constant": true,
      "inputs": [],
      "name": "projectsAmount",
      "outputs": [
        {
          "name": "",
          "type": "uint256"
        }
      ],
      "payable": false,
      "stateMutability": "view",
      "type": "function"
    },
    {
      "constant": false,
      "inputs": [
        {
          "name": "_name",
          "type": "string"
        }
      ],
      "name": "signUp",
      "outputs": [
        {
          "name": "",
          "type": "string"
        }
      ],
      "payable": false,
      "stateMutability": "nonpayable",
      "type": "function"
    },
    {
      "constant": true,
      "inputs": [],
      "name": "login",
      "outputs": [
        {
          "name": "",
          "type": "string"
        }
      ],
      "payable": false,
      "stateMutability": "view",
      "type": "function"
    },
    {
      "constant": true,
      "inputs": [
        {
          "name": "_addr",
          "type": "address"
        }
      ],
      "name": "isSuperuser",
      "outputs": [
        {
          "name": "",
          "type": "bool"
        }
      ],
      "payable": false,
      "stateMutability": "view",
      "type": "function"
    },
    {
      "constant": false,
      "inputs": [
        {
          "name": "_newAuditor",
          "type": "address"
        }
      ],
      "name": "addAuditor",
      "outputs": [],
      "payable": false,
      "stateMutability": "nonpayable",
      "type": "function"
    },
    {
      "constant": true,
      "inputs": [],
      "name": "ROLE_SUPERUSER",
      "outputs": [
        {
          "name": "",
          "type": "string"
        }
      ],
      "payable": false,
      "stateMutability": "view",
      "type": "function"
    },
    {
      "anonymous": false,
      "inputs": [
        {
          "indexed": true,
          "name": "creator",
          "type": "address"
        },
        {
          "indexed": true,
          "name": "icoAddress",
          "type": "address"
        },
        {
          "indexed": true,
          "name": "tokenAddress",
          "type": "address"
        },
        {
          "indexed": false,
          "name": "name",
          "type": "string"
        }
      ],
      "name": "BREMICOCreated",
      "type": "event"
    },
    {
      "anonymous": false,
      "inputs": [
        {
          "indexed": true,
          "name": "operator",
          "type": "address"
        },
        {
          "indexed": false,
          "name": "role",
          "type": "string"
        }
      ],
      "name": "RoleAdded",
      "type": "event"
    },
    {
      "anonymous": false,
      "inputs": [
        {
          "indexed": true,
          "name": "operator",
          "type": "address"
        },
        {
          "indexed": false,
          "name": "role",
          "type": "string"
        }
      ],
      "name": "RoleRemoved",
      "type": "event"
    },
    {
      "constant": true,
      "inputs": [
        {
          "name": "_index",
          "type": "uint256"
        }
      ],
      "name": "getProject",
      "outputs": [
        {
          "name": "",
          "type": "address"
        }
      ],
      "payable": false,
      "stateMutability": "view",
      "type": "function"
    },
    {
      "constant": true,
      "inputs": [
        {
          "name": "_projectName",
          "type": "string"
        }
      ],
      "name": "getProjectByName",
      "outputs": [
        {
          "name": "",
          "type": "address"
        }
      ],
      "payable": false,
      "stateMutability": "view",
      "type": "function"
    },
    {
      "constant": true,
      "inputs": [
        {
          "name": "_name",
          "type": "string"
        }
      ],
      "name": "isValidName",
      "outputs": [
        {
          "name": "",
          "type": "bool"
        }
      ],
      "payable": false,
      "stateMutability": "view",
      "type": "function"
    },
    {
      "constant": false,
      "inputs": [
        {
          "name": "_withdrawFeePercent",
          "type": "uint256"
        }
      ],
      "name": "setWithdrawFeePercent",
      "outputs": [],
      "payable": false,
      "stateMutability": "nonpayable",
      "type": "function"
    }
  ],
  "bytecode": "0x60c0604052600960809081527f737570657275736572000000000000000000000000000000000000000000000060a052610043903390640100000000610048810204565b61018b565b6100bf826000836040518082805190602001908083835b6020831061007e5780518252601f19909201916020918201910161005f565b51815160209384036101000a60001901801990921691161790529201948552506040519384900301909220929150506401000000006101668102610f8c1704565b81600160a060020a03167fbfec83d64eaa953f2708271a023ab9ee82057f8f3578d548c1a4ba0b5b700489826040518080602001828103825283818151815260200191508051906020019080838360005b83811015610128578181015183820152602001610110565b50505050905090810190601f1680156101555780820380516001836020036101000a031916815260200191505b509250505060405180910390a25050565b600160a060020a0316600090815260209190915260409020805460ff19166001179055565b6110958061019a6000396000f3006080604052600436106100fb5763ffffffff7c01000000000000000000000000000000000000000000000000000000006000350416630988ca8c81146101005780631e30397f14610169578063217fe6c6146101d65780633b0320051461023d5780633f029aaf14610296578063447cb89614610320578063495ef7051461033857806349b905571461035f5780634b77f269146103805780634fb19457146103f557806357c393fa1461040a5780639cdd99131461042b578063adcfb4fc14610440578063b34e97e814610499578063bceee05e146104ae578063e429cef1146104cf578063ebb4f484146104f0578063f0f3f2c814610505575b600080fd5b34801561010c57600080fd5b5060408051602060046024803582810135601f8101859004850286018501909652858552610167958335600160a060020a031695369560449491939091019190819084018382808284375094975061051d9650505050505050565b005b34801561017557600080fd5b506040805160206004803580820135601f81018490048402850184019095528484526101c294369492936024939284019190819084018382808284375094975061058b9650505050505050565b604080519115158252519081900360200190f35b3480156101e257600080fd5b5060408051602060046024803582810135601f81018590048502860185019096528585526101c2958335600160a060020a031695369560449491939091019190819084018382808284375094975061067c9650505050505050565b34801561024957600080fd5b506040805160206004803580820135601f81018490048402850184019095528484526101c29436949293602493928401919081908401838280828437509497506106ef9650505050505050565b3480156102a257600080fd5b506102ab61077c565b6040805160208082528351818301528351919283929083019185019080838360005b838110156102e55781810151838201526020016102cd565b50505050905090810190601f1680156103125780820380516001836020036101000a031916815260200191505b509250505060405180910390f35b34801561032c57600080fd5b506101676004356107b3565b34801561034457600080fd5b5061034d610811565b60408051918252519081900360200190f35b34801561036b57600080fd5b506101c2600160a060020a0360043516610817565b34801561038c57600080fd5b506040805160206004803580820135601f81018490048402850184019095528484526103d99436949293602493928401919081908401838280828437509497506108589650505050505050565b60408051600160a060020a039092168252519081900360200190f35b34801561040157600080fd5b506101c2610910565b34801561041657600080fd5b50610167600160a060020a0360043516610937565b34801561043757600080fd5b5061034d6109d6565b34801561044c57600080fd5b506040805160206004803580820135601f81018490048402850184019095528484526102ab9436949293602493928401919081908401838280828437509497506109dc9650505050505050565b3480156104a557600080fd5b506102ab610b80565b3480156104ba57600080fd5b506101c2600160a060020a0360043516610c51565b3480156104db57600080fd5b50610167600160a060020a0360043516610c80565b3480156104fc57600080fd5b506102ab610d01565b34801561051157600080fd5b506103d9600435610d26565b610587826000836040518082805190602001908083835b602083106105535780518252601f199092019160209182019101610534565b51815160209384036101000a6000190180199092169116179052920194855250604051938490030190922092915050610d53565b5050565b6000806000835111151561059e57600080fd5b826040518082805190602001908083835b602083106105ce5780518252601f1990920191602091820191016105af565b5181516020939093036101000a6000190180199091169216919091179052604051920182900390912060055490945084141592506106129150505760009150610676565b6006836040518082805190602001908083835b602083106106445780518252601f199092019160209182019101610625565b51815160209384036101000a600019018019909216911617905292019485525060405193849003019092205415935050505b50919050565b60006106e8836000846040518082805190602001908083835b602083106106b45780518252601f199092019160209182019101610695565b51815160209384036101000a6000190180199092169116179052920194855250604051938490030190922092915050610d68565b9392505050565b600080825111801561077657506000600160a060020a03166002836040518082805190602001908083835b602083106107395780518252601f19909201916020918201910161071a565b51815160209384036101000a6000190180199092169116179052920194855250604051938490030190922054600160a060020a0316929092149150505b92915050565b60408051808201909152600781527f61756469746f7200000000000000000000000000000000000000000000000000602082015281565b6107e03360408051908101604052806009815260200160008051602061104a83398151915281525061051d565b6007548114156107ef57600080fd5b60008110158015610801575060648111155b151561080c57600080fd5b600755565b60075481565b6000610776826040805190810160405280600781526020017f61756469746f720000000000000000000000000000000000000000000000000081525061067c565b6000806000835111151561086b57600080fd5b6006836040518082805190602001908083835b6020831061089d5780518252601f19909201916020918201910161087e565b51815160209384036101000a6000190180199092169116179052920194855250604080519485900382019094205460008181526004909252939020549293505050600160a060020a031615156108f257600080fd5b600090815260046020526040902054600160a060020a031692915050565b33600090815260016020819052604082205460029181161561010002600019011604115b90565b6109643360408051908101604052806009815260200160008051602061104a83398151915281525061051d565b600160a060020a038116151561097957600080fd5b6109a63360408051908101604052806009815260200160008051602061104a833981519152815250610d87565b6109d38160408051908101604052806009815260200160008051602061104a833981519152815250610e98565b50565b60035481565b606081600081511115156109ef57600080fd5b6000600160a060020a03166002826040518082805190602001908083835b60208310610a2c5780518252601f199092019160209182019101610a0d565b51815160209384036101000a6000190180199092169116179052920194855250604051938490030190922054600160a060020a0316929092149150610a72905057600080fd5b610a7b33610c51565b80610a8a5750610a8a33610817565b1515610a9557600080fd5b33600090815260016020819052604090912054600291811615610100026000190116041515610ae0573360009081526001602090815260409091208451610ade92860190610fb1565b505b3360009081526001602081815260409283902080548451600294821615610100026000190190911693909304601f8101839004830284018301909452838352919290830182828015610b735780601f10610b4857610100808354040283529160200191610b73565b820191906000526020600020905b815481529060010190602001808311610b5657829003601f168201915b5050505050915050919050565b33600090815260016020819052604082205460609260029282161561010002600019019091169190910411610bb457600080fd5b3360009081526001602081815260409283902080548451600294821615610100026000190190911693909304601f8101839004830284018301909452838352919290830182828015610c475780601f10610c1c57610100808354040283529160200191610c47565b820191906000526020600020905b815481529060010190602001808311610c2a57829003601f168201915b5050505050905090565b60006107768260408051908101604052806009815260200160008051602061104a83398151915281525061067c565b610cad3360408051908101604052806009815260200160008051602061104a83398151915281525061051d565b600160a060020a0381161515610cc257600080fd5b6109d3816040805190810160405280600781526020017f61756469746f7200000000000000000000000000000000000000000000000000815250610e98565b604080518082019091526009815260008051602061104a833981519152602082015281565b6003546000908210610d3757600080fd5b50600090815260046020526040902054600160a060020a031690565b610d5d8282610d68565b151561058757600080fd5b600160a060020a03166000908152602091909152604090205460ff1690565b610df1826000836040518082805190602001908083835b60208310610dbd5780518252601f199092019160209182019101610d9e565b51815160209384036101000a6000190180199092169116179052920194855250604051938490030190922092915050610f6a565b81600160a060020a03167fd211483f91fc6eff862467f8de606587a30c8fc9981056f051b897a418df803a826040518080602001828103825283818151815260200191508051906020019080838360005b83811015610e5a578181015183820152602001610e42565b50505050905090810190601f168015610e875780820380516001836020036101000a031916815260200191505b509250505060405180910390a25050565b610f02826000836040518082805190602001908083835b60208310610ece5780518252601f199092019160209182019101610eaf565b51815160209384036101000a6000190180199092169116179052920194855250604051938490030190922092915050610f8c565b81600160a060020a03167fbfec83d64eaa953f2708271a023ab9ee82057f8f3578d548c1a4ba0b5b7004898260405180806020018281038252838181518152602001915080519060200190808383600083811015610e5a578181015183820152602001610e42565b600160a060020a0316600090815260209190915260409020805460ff19169055565b600160a060020a0316600090815260209190915260409020805460ff19166001179055565b828054600181600116156101000203166002900490600052602060002090601f016020900481019282601f10610ff257805160ff191683800117855561101f565b8280016001018555821561101f579182015b8281111561101f578251825591602001919060010190611004565b5061102b92915061102f565b5090565b61093491905b8082111561102b576000815560010161103556007375706572757365720000000000000000000000000000000000000000000000a165627a7a723058206b6d323ae27cf678948bc6b15ab621c36d893c856d090f4c66394802e8aefac20029",
  "source": "pragma solidity ^0.4.24;\n\nimport \"./BREMToken.sol\";\nimport \"./BREMICO.sol\";\n\ncontract BREMFactory is Userable{\n    \n    uint256 public projectsAmount;\n    \n    mapping(uint256 => address) projects;\n    \n    function getProject(uint256 _index) \n        public \n        view \n        returns(address)\n    {\n        require(_index < projectsAmount);\n        return projects[_index];\n    }\n    \n    bytes32 internal firtProjectNameHash;\n    \n    mapping(string => uint256) indexes;\n    \n    function getProjectByName(string _projectName)\n        public\n        view\n        returns(address) \n    {\n        require(bytes(_projectName).length > 0);\n        uint256 index = indexes[_projectName];\n        require(projects[index] != address(0));\n        \n        return projects[index];    \n    }\n    \n    function isValidName(string _name) public view returns(bool) {\n        require(bytes(_name).length > 0);\n        bytes32 nameHash = keccak256(bytes(_name));\n        if (nameHash == firtProjectNameHash) {\n            return false;\n        }\n\n        return indexes[_name] == 0;\n    }\n\n    event BREMICOCreated(\n        address indexed creator,\n        address indexed icoAddress,\n        address indexed tokenAddress,\n        string name\n    );\n    \n    // uint256 public icoCreationPrice;\n\n    // function setIcoCreationPrice(uint256 _icoCreationPrice)\n    //     public \n    //     onlySuperuser\n    // {\n    //     require(_icoCreationPrice != icoCreationPrice);\n    //     icoCreationPrice = _icoCreationPrice;\n    // }\n\n    uint256 public withdrawFeePercent;\n\n    function setWithdrawFeePercent(uint256 _withdrawFeePercent)\n        public\n        onlySuperuser\n    {\n        require(_withdrawFeePercent != withdrawFeePercent);\n        require(_withdrawFeePercent >= 0 && _withdrawFeePercent <=100);\n\n        withdrawFeePercent = _withdrawFeePercent;\n    }\n}",
  "sourcePath": "/Users/artur/Development/Brem/contracts/BREMFactory.sol",
  "compiler": {
    "name": "solc",
    "version": "0.4.24+commit.e67f0147.Emscripten.clang"
  },
  "schemaVersion": "2.0.1",
  "updatedAt": "2018-08-18T17:44:03.323Z"
}