{
  "contractName": "BREMICO",
  "abi": [
    {
      "constant": true,
      "inputs": [],
      "name": "name",
      "outputs": [
        {
          "name": "",
          "type": "string"
        }
      ],
      "payable": false,
      "stateMutability": "view",
      "type": "function"
    },
    {
      "constant": true,
      "inputs": [
        {
          "name": "",
          "type": "address"
        }
      ],
      "name": "balances",
      "outputs": [
        {
          "name": "",
          "type": "uint256"
        }
      ],
      "payable": false,
      "stateMutability": "view",
      "type": "function"
    },
    {
      "constant": true,
      "inputs": [],
      "name": "rate",
      "outputs": [
        {
          "name": "",
          "type": "uint256"
        }
      ],
      "payable": false,
      "stateMutability": "view",
      "type": "function"
    },
    {
      "constant": true,
      "inputs": [],
      "name": "request",
      "outputs": [
        {
          "name": "value",
          "type": "uint256"
        },
        {
          "name": "confirmAmount",
          "type": "uint256"
        }
      ],
      "payable": false,
      "stateMutability": "view",
      "type": "function"
    },
    {
      "constant": true,
      "inputs": [],
      "name": "cap",
      "outputs": [
        {
          "name": "",
          "type": "uint256"
        }
      ],
      "payable": false,
      "stateMutability": "view",
      "type": "function"
    },
    {
      "constant": true,
      "inputs": [],
      "name": "docHash",
      "outputs": [
        {
          "name": "",
          "type": "string"
        }
      ],
      "payable": false,
      "stateMutability": "view",
      "type": "function"
    },
    {
      "constant": true,
      "inputs": [],
      "name": "weiRaised",
      "outputs": [
        {
          "name": "",
          "type": "uint256"
        }
      ],
      "payable": false,
      "stateMutability": "view",
      "type": "function"
    },
    {
      "constant": true,
      "inputs": [
        {
          "name": "",
          "type": "address"
        }
      ],
      "name": "balancesInToken",
      "outputs": [
        {
          "name": "",
          "type": "uint256"
        }
      ],
      "payable": false,
      "stateMutability": "view",
      "type": "function"
    },
    {
      "constant": true,
      "inputs": [],
      "name": "withdrawFeePercent",
      "outputs": [
        {
          "name": "",
          "type": "uint256"
        }
      ],
      "payable": false,
      "stateMutability": "view",
      "type": "function"
    },
    {
      "constant": true,
      "inputs": [],
      "name": "closingTime",
      "outputs": [
        {
          "name": "",
          "type": "uint256"
        }
      ],
      "payable": false,
      "stateMutability": "view",
      "type": "function"
    },
    {
      "constant": true,
      "inputs": [],
      "name": "wallet",
      "outputs": [
        {
          "name": "",
          "type": "address"
        }
      ],
      "payable": false,
      "stateMutability": "view",
      "type": "function"
    },
    {
      "constant": true,
      "inputs": [],
      "name": "description",
      "outputs": [
        {
          "name": "",
          "type": "string"
        }
      ],
      "payable": false,
      "stateMutability": "view",
      "type": "function"
    },
    {
      "constant": true,
      "inputs": [],
      "name": "auditorsAmount",
      "outputs": [
        {
          "name": "",
          "type": "uint256"
        }
      ],
      "payable": false,
      "stateMutability": "view",
      "type": "function"
    },
    {
      "constant": true,
      "inputs": [],
      "name": "auditSelected",
      "outputs": [
        {
          "name": "",
          "type": "bool"
        }
      ],
      "payable": false,
      "stateMutability": "view",
      "type": "function"
    },
    {
      "constant": true,
      "inputs": [],
      "name": "brem",
      "outputs": [
        {
          "name": "",
          "type": "address"
        }
      ],
      "payable": false,
      "stateMutability": "view",
      "type": "function"
    },
    {
      "constant": true,
      "inputs": [],
      "name": "token",
      "outputs": [
        {
          "name": "",
          "type": "address"
        }
      ],
      "payable": false,
      "stateMutability": "view",
      "type": "function"
    },
    {
      "inputs": [
        {
          "name": "_brem",
          "type": "address"
        },
        {
          "name": "_name",
          "type": "string"
        },
        {
          "name": "_cap",
          "type": "uint256"
        },
        {
          "name": "_rate",
          "type": "uint256"
        },
        {
          "name": "_wallet",
          "type": "address"
        },
        {
          "name": "_token",
          "type": "address"
        },
        {
          "name": "_closingTime",
          "type": "uint256"
        },
        {
          "name": "_description",
          "type": "string"
        },
        {
          "name": "_docHash",
          "type": "string"
        },
        {
          "name": "_auditAddress",
          "type": "address"
        },
        {
          "name": "_withdrawFeePercent",
          "type": "uint256"
        }
      ],
      "payable": false,
      "stateMutability": "nonpayable",
      "type": "constructor"
    },
    {
      "payable": true,
      "stateMutability": "payable",
      "type": "fallback"
    },
    {
      "anonymous": false,
      "inputs": [
        {
          "indexed": true,
          "name": "purchaser",
          "type": "address"
        },
        {
          "indexed": true,
          "name": "beneficiary",
          "type": "address"
        },
        {
          "indexed": false,
          "name": "value",
          "type": "uint256"
        },
        {
          "indexed": false,
          "name": "amount",
          "type": "uint256"
        }
      ],
      "name": "TokenPurchase",
      "type": "event"
    },
    {
      "constant": false,
      "inputs": [
        {
          "name": "_beneficiary",
          "type": "address"
        }
      ],
      "name": "buyTokens",
      "outputs": [],
      "payable": true,
      "stateMutability": "payable",
      "type": "function"
    },
    {
      "constant": false,
      "inputs": [
        {
          "name": "_auditor",
          "type": "address"
        }
      ],
      "name": "addAuditor",
      "outputs": [],
      "payable": false,
      "stateMutability": "nonpayable",
      "type": "function"
    },
    {
      "constant": false,
      "inputs": [],
      "name": "finishAuditorSelection",
      "outputs": [],
      "payable": false,
      "stateMutability": "nonpayable",
      "type": "function"
    },
    {
      "constant": false,
      "inputs": [
        {
          "name": "_value",
          "type": "uint256"
        }
      ],
      "name": "withdraw",
      "outputs": [],
      "payable": true,
      "stateMutability": "payable",
      "type": "function"
    },
    {
      "constant": false,
      "inputs": [],
      "name": "confirmWithdraw",
      "outputs": [],
      "payable": false,
      "stateMutability": "nonpayable",
      "type": "function"
    },
    {
      "constant": false,
      "inputs": [],
      "name": "refund",
      "outputs": [],
      "payable": false,
      "stateMutability": "nonpayable",
      "type": "function"
    },
    {
      "constant": true,
      "inputs": [],
      "name": "hasClosed",
      "outputs": [
        {
          "name": "",
          "type": "bool"
        }
      ],
      "payable": false,
      "stateMutability": "view",
      "type": "function"
    },
    {
      "constant": true,
      "inputs": [],
      "name": "capReached",
      "outputs": [
        {
          "name": "",
          "type": "bool"
        }
      ],
      "payable": false,
      "stateMutability": "view",
      "type": "function"
    },
    {
      "constant": true,
      "inputs": [
        {
          "name": "_index",
          "type": "uint256"
        }
      ],
      "name": "getAuditor",
      "outputs": [
        {
          "name": "",
          "type": "address"
        }
      ],
      "payable": false,
      "stateMutability": "view",
      "type": "function"
    },
    {
      "constant": true,
      "inputs": [
        {
          "name": "_auditor",
          "type": "address"
        }
      ],
      "name": "isAuditor",
      "outputs": [
        {
          "name": "",
          "type": "bool"
        }
      ],
      "payable": false,
      "stateMutability": "view",
      "type": "function"
    },
    {
      "constant": true,
      "inputs": [],
      "name": "isRequested",
      "outputs": [
        {
          "name": "",
          "type": "bool"
        }
      ],
      "payable": false,
      "stateMutability": "view",
      "type": "function"
    },
    {
      "constant": true,
      "inputs": [
        {
          "name": "_auditor",
          "type": "address"
        }
      ],
      "name": "isConfirmed",
      "outputs": [
        {
          "name": "",
          "type": "bool"
        }
      ],
      "payable": false,
      "stateMutability": "view",
      "type": "function"
    },
    {
      "constant": true,
      "inputs": [],
      "name": "isWithdrawn",
      "outputs": [
        {
          "name": "",
          "type": "bool"
        }
      ],
      "payable": false,
      "stateMutability": "view",
      "type": "function"
    }
  ],
  "bytecode": "0x60806040523480156200001157600080fd5b50604051620022c9380380620022c98339810180604052810190808051906020019092919080518201929190602001805190602001909291908051906020019092919080519060200190929190805190602001909291908051906020019092919080518201929190602001805182019291906020018051906020019092919080519060200190929190505050600073ffffffffffffffffffffffffffffffffffffffff168b73ffffffffffffffffffffffffffffffffffffffff1614151515620000da57600080fd5b60008a51111515620000eb57600080fd5b600089111515620000fb57600080fd5b6000881115156200010b57600080fd5b600073ffffffffffffffffffffffffffffffffffffffff168773ffffffffffffffffffffffffffffffffffffffff16141515156200014857600080fd5b600073ffffffffffffffffffffffffffffffffffffffff168673ffffffffffffffffffffffffffffffffffffffff16141515156200018557600080fd5b600073ffffffffffffffffffffffffffffffffffffffff168273ffffffffffffffffffffffffffffffffffffffff1614151515620001c257600080fd5b428510151515620001d257600080fd5b60008110158015620001e5575060648111155b1515620001f157600080fd5b8960019080519060200190620002099291906200036c565b508a601460006101000a81548173ffffffffffffffffffffffffffffffffffffffff021916908373ffffffffffffffffffffffffffffffffffffffff160217905550886005819055508760038190555086600260006101000a81548173ffffffffffffffffffffffffffffffffffffffff021916908373ffffffffffffffffffffffffffffffffffffffff160217905550856000806101000a81548173ffffffffffffffffffffffffffffffffffffffff021916908373ffffffffffffffffffffffffffffffffffffffff160217905550846010819055508360069080519060200190620002f99291906200036c565b508260079080519060200190620003129291906200036c565b5081600860006101000a81548173ffffffffffffffffffffffffffffffffffffffff021916908373ffffffffffffffffffffffffffffffffffffffff1602179055508060138190555050505050505050505050506200041b565b828054600181600116156101000203166002900490600052602060002090601f016020900481019282601f10620003af57805160ff1916838001178555620003e0565b82800160010185558215620003e0579182015b82811115620003df578251825591602001919060010190620003c2565b5b509050620003ef9190620003f3565b5090565b6200041891905b8082111562000414576000816000905550600101620003fa565b5090565b90565b611e9e806200042b6000396000f300608060405260043610610175576000357c0100000000000000000000000000000000000000000000000000000000900463ffffffff16806306fdde03146101805780631515bc2b1461021057806318e4ac351461023f57806327e235e31461029a5780632c4e722e146102f15780632e1a7d4d1461031c578063338cdca11461033c578063355274ea1461036e5780633d6df0d5146103995780634042b66f1461042957806344aa57001461045457806345e4f34a14610483578063495ef705146104da57806349b90557146105055780634b6753bc146105605780634f9359451461058b578063521eb273146105ba578063590e1ae31461061157806368124f9a146106285780637284e4161461063f57806393f80ff4146106cf57806397781f021461073c578063c8e7f5951461076b578063e429cef114610796578063e44e76a0146107d9578063ea78d1ab14610808578063ec8ac4d81461081f578063fad5e0c414610855578063fc0c546a146108ac575b61017e33610903565b005b34801561018c57600080fd5b506101956109e8565b6040518080602001828103825283818151815260200191508051906020019080838360005b838110156101d55780820151818401526020810190506101ba565b50505050905090810190601f1680156102025780820380516001836020036101000a031916815260200191505b509250505060405180910390f35b34801561021c57600080fd5b50610225610a86565b604051808215151515815260200191505060405180910390f35b34801561024b57600080fd5b50610280600480360381019080803573ffffffffffffffffffffffffffffffffffffffff169060200190929190505050610a92565b604051808215151515815260200191505060405180910390f35b3480156102a657600080fd5b506102db600480360381019080803573ffffffffffffffffffffffffffffffffffffffff169060200190929190505050610aeb565b6040518082815260200191505060405180910390f35b3480156102fd57600080fd5b50610306610b03565b6040518082815260200191505060405180910390f35b61033a60048036038101908080359060200190929190505050610b09565b005b34801561034857600080fd5b50610351610c8a565b604051808381526020018281526020019250505060405180910390f35b34801561037a57600080fd5b50610383610c9c565b6040518082815260200191505060405180910390f35b3480156103a557600080fd5b506103ae610ca2565b6040518080602001828103825283818151815260200191508051906020019080838360005b838110156103ee5780820151818401526020810190506103d3565b50505050905090810190601f16801561041b5780820380516001836020036101000a031916815260200191505b509250505060405180910390f35b34801561043557600080fd5b5061043e610d40565b6040518082815260200191505060405180910390f35b34801561046057600080fd5b50610469610d46565b604051808215151515815260200191505060405180910390f35b34801561048f57600080fd5b506104c4600480360381019080803573ffffffffffffffffffffffffffffffffffffffff169060200190929190505050610d88565b6040518082815260200191505060405180910390f35b3480156104e657600080fd5b506104ef610da0565b6040518082815260200191505060405180910390f35b34801561051157600080fd5b50610546600480360381019080803573ffffffffffffffffffffffffffffffffffffffff169060200190929190505050610da6565b604051808215151515815260200191505060405180910390f35b34801561056c57600080fd5b50610575610dfc565b6040518082815260200191505060405180910390f35b34801561059757600080fd5b506105a0610e02565b604051808215151515815260200191505060405180910390f35b3480156105c657600080fd5b506105cf610e11565b604051808273ffffffffffffffffffffffffffffffffffffffff1673ffffffffffffffffffffffffffffffffffffffff16815260200191505060405180910390f35b34801561061d57600080fd5b50610626610e37565b005b34801561063457600080fd5b5061063d6110fc565b005b34801561064b57600080fd5b50610654611584565b6040518080602001828103825283818151815260200191508051906020019080838360005b83811015610694578082015181840152602081019050610679565b50505050905090810190601f1680156106c15780820380516001836020036101000a031916815260200191505b509250505060405180910390f35b3480156106db57600080fd5b506106fa60048036038101908080359060200190929190505050611622565b604051808273ffffffffffffffffffffffffffffffffffffffff1673ffffffffffffffffffffffffffffffffffffffff16815260200191505060405180910390f35b34801561074857600080fd5b5061075161166f565b604051808215151515815260200191505060405180910390f35b34801561077757600080fd5b506107806116b0565b6040518082815260200191505060405180910390f35b3480156107a257600080fd5b506107d7600480360381019080803573ffffffffffffffffffffffffffffffffffffffff1690602001909291905050506116b6565b005b3480156107e557600080fd5b506107ee611a03565b604051808215151515815260200191505060405180910390f35b34801561081457600080fd5b5061081d611a16565b005b610853600480360381019080803573ffffffffffffffffffffffffffffffffffffffff169060200190929190505050610903565b005b34801561086157600080fd5b5061086a611b74565b604051808273ffffffffffffffffffffffffffffffffffffffff1673ffffffffffffffffffffffffffffffffffffffff16815260200191505060405180910390f35b3480156108b857600080fd5b506108c1611b9a565b604051808273ffffffffffffffffffffffffffffffffffffffff1673ffffffffffffffffffffffffffffffffffffffff16815260200191505060405180910390f35b600080600c60009054906101000a900460ff16801561092457506010544211155b151561092f57600080fd5b34915061093c8383611bbf565b61094582611c0f565b905061095c82600454611c2d90919063ffffffff16565b60048190555061096c8382611c4b565b8273ffffffffffffffffffffffffffffffffffffffff163373ffffffffffffffffffffffffffffffffffffffff167f623b3804fa71d67900d064613da8f94b9617215ee90799290593e1745087ad188484604051808381526020018281526020019250505060405180910390a36109e38383611c59565b505050565b60018054600181600116156101000203166002900480601f016020809104026020016040519081016040528092919081815260200182805460018160011615610100020316600290048015610a7e5780601f10610a5357610100808354040283529160200191610a7e565b820191906000526020600020905b815481529060010190602001808311610a6157829003601f168201915b505050505081565b60006010544211905090565b6000600d60020160008373ffffffffffffffffffffffffffffffffffffffff1673ffffffffffffffffffffffffffffffffffffffff16815260200190815260200160002060009054906101000a900460ff169050919050565b60116020528060005260406000206000915090505481565b60035481565b600260009054906101000a900473ffffffffffffffffffffffffffffffffffffffff1673ffffffffffffffffffffffffffffffffffffffff163373ffffffffffffffffffffffffffffffffffffffff16141515610b6557600080fd5b600c60009054906101000a900460ff161515610b8057600080fd5b610b88610e02565b8015610b985750610b97610a86565b5b1515610ba357600080fd5b60648110158015610bcb57503073ffffffffffffffffffffffffffffffffffffffff16318111155b1515610bd657600080fd5b6000600d60000154141515610bea57600080fd5b6064813073ffffffffffffffffffffffffffffffffffffffff1631031015610c575760408051908101604052803073ffffffffffffffffffffffffffffffffffffffff163181526020016000815250600d6000820151816000015560208201518160010155905050610c87565b60408051908101604052808281526020016000815250600d60008201518160000155602082015181600101559050505b50565b600d8060000154908060010154905082565b60055481565b60078054600181600116156101000203166002900480601f016020809104026020016040519081016040528092919081815260200182805460018160011615610100020316600290048015610d385780601f10610d0d57610100808354040283529160200191610d38565b820191906000526020600020905b815481529060010190602001808311610d1b57829003601f168201915b505050505081565b60045481565b6000610d50610a86565b8015610d605750610d5f610e02565b5b8015610d83575060643073ffffffffffffffffffffffffffffffffffffffff1631105b905090565b60126020528060005260406000206000915090505481565b60135481565b6000600960008373ffffffffffffffffffffffffffffffffffffffff1673ffffffffffffffffffffffffffffffffffffffff16815260200190815260200160002060009054906101000a900460ff169050919050565b60105481565b60006005546004541015905090565b600260009054906101000a900473ffffffffffffffffffffffffffffffffffffffff1681565b600080610e42610a86565b8015610e535750610e51610e02565b155b1515610e5e57600080fd5b6000601160003373ffffffffffffffffffffffffffffffffffffffff1673ffffffffffffffffffffffffffffffffffffffff16815260200190815260200160002054111515610eac57600080fd5b601160003373ffffffffffffffffffffffffffffffffffffffff1673ffffffffffffffffffffffffffffffffffffffff168152602001908152602001600020549150601260003373ffffffffffffffffffffffffffffffffffffffff1673ffffffffffffffffffffffffffffffffffffffff1681526020019081526020016000205490506000601160003373ffffffffffffffffffffffffffffffffffffffff1673ffffffffffffffffffffffffffffffffffffffff168152602001908152602001600020819055506000601260003373ffffffffffffffffffffffffffffffffffffffff1673ffffffffffffffffffffffffffffffffffffffff168152602001908152602001600020819055506000809054906101000a900473ffffffffffffffffffffffffffffffffffffffff1673ffffffffffffffffffffffffffffffffffffffff1663d0482d0433836040518363ffffffff167c0100000000000000000000000000000000000000000000000000000000028152600401808373ffffffffffffffffffffffffffffffffffffffff1673ffffffffffffffffffffffffffffffffffffffff16815260200182815260200192505050600060405180830381600087803b15801561107e57600080fd5b505af1158015611092573d6000803e3d6000fd5b505050506110ab82600454611cff90919063ffffffff16565b6004819055503373ffffffffffffffffffffffffffffffffffffffff166108fc839081150290604051600060405180830381858888f193505050501580156110f7573d6000803e3d6000fd5b505050565b600080600080600860009054906101000a900473ffffffffffffffffffffffffffffffffffffffff1673ffffffffffffffffffffffffffffffffffffffff166349b90557336040518263ffffffff167c0100000000000000000000000000000000000000000000000000000000028152600401808273ffffffffffffffffffffffffffffffffffffffff1673ffffffffffffffffffffffffffffffffffffffff168152602001915050602060405180830381600087803b1580156111bf57600080fd5b505af11580156111d3573d6000803e3d6000fd5b505050506040513d60208110156111e957600080fd5b8101908080519060200190929190505050151561120557600080fd5b6000600d6000015411151561121957600080fd5b600d60020160003373ffffffffffffffffffffffffffffffffffffffff1673ffffffffffffffffffffffffffffffffffffffff16815260200190815260200160002060009054906101000a900460ff1615151561127557600080fd5b600c60009054906101000a900460ff16151561129057600080fd5b611298610e02565b80156112a857506112a7610a86565b5b15156112b357600080fd5b600960003373ffffffffffffffffffffffffffffffffffffffff1673ffffffffffffffffffffffffffffffffffffffff16815260200190815260200160002060009054906101000a900460ff16151561130b57600080fd5b6001600d60020160003373ffffffffffffffffffffffffffffffffffffffff1673ffffffffffffffffffffffffffffffffffffffff16815260200190815260200160002060006101000a81548160ff021916908315150217905550600d60010160008154809291906001019190505550600b54600d60010154141561157e57600d6000015493506040805190810160405280600081526020016000815250600d6000820151816000015560208201518160010155905050600092505b600b5483101561146c576000600d6002016000600a600087815260200190815260200160002060009054906101000a900473ffffffffffffffffffffffffffffffffffffffff1673ffffffffffffffffffffffffffffffffffffffff1673ffffffffffffffffffffffffffffffffffffffff16815260200190815260200160002060006101000a81548160ff02191690831515021790555082806001019350506113c7565b611494601354611486606487611d1890919063ffffffff16565b611d3390919063ffffffff16565b91506114a98285611cff90919063ffffffff16565b9050601460009054906101000a900473ffffffffffffffffffffffffffffffffffffffff1673ffffffffffffffffffffffffffffffffffffffff166108fc839081150290604051600060405180830381858888f19350505050158015611513573d6000803e3d6000fd5b50600260009054906101000a900473ffffffffffffffffffffffffffffffffffffffff1673ffffffffffffffffffffffffffffffffffffffff166108fc829081150290604051600060405180830381858888f1935050505015801561157c573d6000803e3d6000fd5b505b50505050565b60068054600181600116156101000203166002900480601f01602080910402602001604051908101604052809291908181526020018280546001816001161561010002031660029004801561161a5780601f106115ef5761010080835404028352916020019161161a565b820191906000526020600020905b8154815290600101906020018083116115fd57829003601f168201915b505050505081565b6000600b548210151561163457600080fd5b600a600083815260200190815260200160002060009054906101000a900473ffffffffffffffffffffffffffffffffffffffff169050919050565b6000611679610e02565b80156116895750611688610a86565b5b801561169a57506000600d60000154115b80156116ab57506116a9610d46565b155b905090565b600b5481565b60105442111515156116c757600080fd5b600c60009054906101000a900460ff161515156116e357600080fd5b600860009054906101000a900473ffffffffffffffffffffffffffffffffffffffff1673ffffffffffffffffffffffffffffffffffffffff1663bceee05e336040518263ffffffff167c0100000000000000000000000000000000000000000000000000000000028152600401808273ffffffffffffffffffffffffffffffffffffffff1673ffffffffffffffffffffffffffffffffffffffff168152602001915050602060405180830381600087803b1580156117a057600080fd5b505af11580156117b4573d6000803e3d6000fd5b505050506040513d60208110156117ca57600080fd5b810190808051906020019092919050505015156117e657600080fd5b600860009054906101000a900473ffffffffffffffffffffffffffffffffffffffff1673ffffffffffffffffffffffffffffffffffffffff166349b90557826040518263ffffffff167c0100000000000000000000000000000000000000000000000000000000028152600401808273ffffffffffffffffffffffffffffffffffffffff1673ffffffffffffffffffffffffffffffffffffffff168152602001915050602060405180830381600087803b1580156118a357600080fd5b505af11580156118b7573d6000803e3d6000fd5b505050506040513d60208110156118cd57600080fd5b810190808051906020019092919050505015156118e957600080fd5b600960008273ffffffffffffffffffffffffffffffffffffffff1673ffffffffffffffffffffffffffffffffffffffff16815260200190815260200160002060009054906101000a900460ff1615151561194257600080fd5b6001600960008373ffffffffffffffffffffffffffffffffffffffff1673ffffffffffffffffffffffffffffffffffffffff16815260200190815260200160002060006101000a81548160ff02191690831515021790555080600a6000600b54815260200190815260200160002060006101000a81548173ffffffffffffffffffffffffffffffffffffffff021916908373ffffffffffffffffffffffffffffffffffffffff160217905550600b6000815480929190600101919050555050565b600c60009054906101000a900460ff1681565b6010544211151515611a2757600080fd5b600c60009054906101000a900460ff16151515611a4357600080fd5b600860009054906101000a900473ffffffffffffffffffffffffffffffffffffffff1673ffffffffffffffffffffffffffffffffffffffff1663bceee05e336040518263ffffffff167c0100000000000000000000000000000000000000000000000000000000028152600401808273ffffffffffffffffffffffffffffffffffffffff1673ffffffffffffffffffffffffffffffffffffffff168152602001915050602060405180830381600087803b158015611b0057600080fd5b505af1158015611b14573d6000803e3d6000fd5b505050506040513d6020811015611b2a57600080fd5b81019080805190602001909291905050501515611b4657600080fd5b6000600b54111515611b5757600080fd5b6001600c60006101000a81548160ff021916908315150217905550565b601460009054906101000a900473ffffffffffffffffffffffffffffffffffffffff1681565b6000809054906101000a900473ffffffffffffffffffffffffffffffffffffffff1681565b600073ffffffffffffffffffffffffffffffffffffffff168273ffffffffffffffffffffffffffffffffffffffff1614151515611bfb57600080fd5b60008114151515611c0b57600080fd5b5050565b6000611c2660035483611d3390919063ffffffff16565b9050919050565b6000808284019050838110151515611c4157fe5b8091505092915050565b611c558282611d6e565b5050565b80601160008473ffffffffffffffffffffffffffffffffffffffff1673ffffffffffffffffffffffffffffffffffffffff16815260200190815260200160002060008282540192505081905550611caf81611c0f565b601260008473ffffffffffffffffffffffffffffffffffffffff1673ffffffffffffffffffffffffffffffffffffffff168152602001908152602001600020600082825401925050819055505050565b6000828211151515611d0d57fe5b818303905092915050565b6000808284811515611d2657fe5b0490508091505092915050565b6000806000841415611d485760009150611d67565b8284029050828482811515611d5957fe5b04141515611d6357fe5b8091505b5092915050565b6000809054906101000a900473ffffffffffffffffffffffffffffffffffffffff1673ffffffffffffffffffffffffffffffffffffffff166340c10f1983836040518363ffffffff167c0100000000000000000000000000000000000000000000000000000000028152600401808373ffffffffffffffffffffffffffffffffffffffff1673ffffffffffffffffffffffffffffffffffffffff16815260200182815260200192505050602060405180830381600087803b158015611e3257600080fd5b505af1158015611e46573d6000803e3d6000fd5b505050506040513d6020811015611e5c57600080fd5b81019080805190602001909291905050505050505600a165627a7a72305820df734aa7e03e4f3165fe9cc5ff92d84fb93e515fa190ddd397e63d98ff8ee6100029",
  "source": "pragma solidity ^0.4.24;\n\nimport \"./BREMToken.sol\";\nimport \"./Userable.sol\";\n\n/**\n * @title SafeERC20\n * @dev Wrappers around ERC20 operations that throw on failure.\n * To use this library you can add a `using SafeERC20 for ERC20;` statement to your contract,\n * which allows you to call the safe operations as `token.safeTransfer(...)`, etc.\n */\nlibrary SafeERC20 {\n    function safeTransfer(ERC20Basic token, address to, uint256 value) internal {\n        require(token.transfer(to, value));\n    }\n    \n    function safeTransferFrom(\n        ERC20 token,\n        address from,\n        address to,\n        uint256 value\n    )\n    internal\n    {\n        require(token.transferFrom(from, to, value));\n    }\n    \n    function safeApprove(ERC20 token, address spender, uint256 value) internal {\n        require(token.approve(spender, value));\n    }\n}\n\ncontract BREMICO {\n    using SafeMath for uint256;\n    using SafeERC20 for BREMToken;\n\n    // The token being sold\n    BREMToken public token;\n    \n    // ICO name (equals to token's name)\n    string public name;\n\n    // Address where funds are collected\n    address public wallet;\n\n    // How many token units a buyer gets per wei.\n    // The rate is the conversion between wei and the smallest and indivisible token unit.\n    // So, if you are using a rate of 1 with a DetailedERC20 token with 3 decimals called TOK\n    // 1 wei will give you 1 unit, or 0.001 TOK.\n    uint256 public rate;\n\n    // Amount of wei raised\n    uint256 public weiRaised;\n    \n    // Value in wei that need owner\n    uint256  public cap;\n    \n    // ICO description\n    string public description;\n    \n    // ICO documentation hashes\n    string public docHash;\n    \n    // Auditors contract instance\n    Auditable audit;\n    \n    // Current ICO auditors\n    mapping(address => bool) auditors;\n    \n    mapping(uint256 => address) auditorsList;\n    \n    // Current ICO auditors amount\n    uint256 public auditorsAmount;\n    \n    // Is superuser selected all current ICO auditors\n    bool public auditSelected;\n    \n    // Developer's withdraw request\n    struct WithdrawRequst {\n        uint256 value;\n        uint256 confirmAmount;\n        mapping(address => bool) confirmed;\n    }\n    \n    WithdrawRequst public request;\n    \n    // ICO closing time\n    uint256 public closingTime;\n    \n    // Token sale payment registry\n    mapping(address => uint256) public balances;\n    mapping(address => uint256) public balancesInToken;\n    \n    // Withdraw fee percent\n    uint256 public withdrawFeePercent;\n\n    // Brem contract address\n    address public brem;\n    \n    modifier onlyWhileOpen {\n        // solium-disable-next-line security/no-block-members\n        require(auditSelected && block.timestamp <= closingTime);\n        _;\n    }\n\n    /**\n    * Event for token purchase logging\n    * @param purchaser who paid for the tokens\n    * @param beneficiary who got the tokens\n    * @param value weis paid for purchase\n    * @param amount amount of tokens purchased\n    */\n    event TokenPurchase(\n        address indexed purchaser,\n        address indexed beneficiary,\n        uint256 value,\n        uint256 amount\n    );\n\n    /**\n    * @param _rate Number of token units a buyer gets per wei\n    * @param _wallet Address where collected funds will be forwarded to\n    * @param _token Address of the token being sold\n    */\n    constructor(\n        address _brem,\n        string _name,\n        uint256 _cap,\n        uint256 _rate, \n        address _wallet, \n        BREMToken _token,\n        uint256 _closingTime,\n        string _description, \n        string _docHash,\n        Auditable _auditAddress,\n        uint256 _withdrawFeePercent\n    ) \n        public \n    {\n        require(_brem != address(0));\n        require(bytes(_name).length > 0);\n        require(_cap > 0);\n        require(_rate > 0);\n        require(_wallet != address(0));\n        require(_token != address(0));\n        require(_auditAddress != address(0));\n        require(_closingTime >= block.timestamp);\n        require(_withdrawFeePercent >= 0 && _withdrawFeePercent <= 100);\n        \n        name = _name;\n        brem = _brem;\n        cap = _cap;\n        rate = _rate;\n        wallet = _wallet;\n        token = _token;\n        closingTime = _closingTime;\n        description = _description;\n        docHash = _docHash;\n        audit = Auditable(_auditAddress);\n        withdrawFeePercent = _withdrawFeePercent;\n    }\n\n    // -----------------------------------------\n    // Crowdsale external interface\n    // -----------------------------------------\n    \n    /**\n    * @dev fallback function ***DO NOT OVERRIDE***\n    */\n    function () external payable {\n        buyTokens(msg.sender);\n    }\n\n    /**\n    * @dev low level token purchase ***DO NOT OVERRIDE***\n    * @param _beneficiary Address performing the token purchase\n    */\n    function buyTokens(address _beneficiary) \n        public \n        payable \n        onlyWhileOpen\n    {\n    \n        uint256 weiAmount = msg.value;\n        _preValidatePurchase(_beneficiary, weiAmount);\n    \n        // calculate token amount to be created\n        uint256 tokens = _getTokenAmount(weiAmount);\n    \n        // update state\n        weiRaised = weiRaised.add(weiAmount);\n    \n        _processPurchase(_beneficiary, tokens);\n        emit TokenPurchase(\n            msg.sender,\n            _beneficiary,\n            weiAmount,\n            tokens\n        );\n    \n        _updatePurchasingState(_beneficiary, weiAmount);\n    \n        // _postValidatePurchase();\n    }\n    \n    function addAuditor(address _auditor) public {\n        require(block.timestamp <= closingTime);\n        require(!auditSelected);\n        require(audit.isSuperuser(msg.sender));\n        require(audit.isAuditor(_auditor));\n        require(!auditors[_auditor]);\n        \n        auditors[_auditor] = true;\n        auditorsList[auditorsAmount] = _auditor;\n        auditorsAmount++;\n    }\n    \n    function finishAuditorSelection() public {\n        require(block.timestamp <= closingTime);\n        require(!auditSelected);\n        require(audit.isSuperuser(msg.sender));\n        require(auditorsAmount > 0);\n        \n        auditSelected = true;\n    }\n    \n    function withdraw(uint256 _value) public payable {\n        require(msg.sender == wallet);\n        require(auditSelected);\n        require(capReached() && hasClosed());\n        require(_value >= 100 && _value <= address(this).balance);\n        require(request.value == 0);\n        \n        if (address(this).balance - _value < 100) {\n            request = WithdrawRequst(address(this).balance, 0);\n        } else {\n            request = WithdrawRequst(_value, 0);\n        }\n    }\n    \n    // Auditors confirm withdraw\n    function confirmWithdraw() public {\n        require(audit.isAuditor(msg.sender));\n        require(request.value > 0);\n        require(!request.confirmed[msg.sender]);\n        require(auditSelected);\n        require(capReached() && hasClosed());\n        require(auditors[msg.sender]);\n        \n        request.confirmed[msg.sender] = true;\n        request.confirmAmount++;\n        \n        if (request.confirmAmount == auditorsAmount) {\n            uint256 _value = request.value;\n            request = WithdrawRequst(0, 0);\n            for (uint256 i = 0; i < auditorsAmount; i++) {\n                request.confirmed[auditorsList[i]] = false;\n            }\n            uint256 _feeValue = _value.div(100).mul(withdrawFeePercent);\n            uint256 _trasferValue = _value.sub(_feeValue);\n            brem.transfer(_feeValue);\n            wallet.transfer(_trasferValue);\n        }\n    }\n    \n    function refund() public {\n        require(hasClosed() && !capReached());\n        require(balances[msg.sender] > 0);\n        \n        uint256 _value = balances[msg.sender];\n        uint256 _tokenAmount = balancesInToken[msg.sender];\n        balances[msg.sender] = 0;\n        balancesInToken[msg.sender] = 0;\n        token.burnForRefund(msg.sender, _tokenAmount);\n        weiRaised = weiRaised.sub(_value);\n        msg.sender.transfer(_value);\n    }\n    \n    /**\n    * @dev Checks whether the period in which the crowdsale is open has already elapsed.\n    * @return Whether crowdsale period has elapsed\n    */\n    function hasClosed() public view returns (bool) {\n        // solium-disable-next-line security/no-block-members\n        return block.timestamp > closingTime;\n    }\n    \n    /**\n    * @dev Checks whether the cap has been reached.\n    * @return Whether the cap was reached\n    */\n    function capReached() public view returns (bool) {\n        return weiRaised >= cap;\n    }\n    \n    function getAuditor(uint256 _index) public view returns (address) {\n        require(_index < auditorsAmount);\n        return auditorsList[_index];\n    }\n\n    function isAuditor(address _auditor) public view returns (bool) {\n        return auditors[_auditor];\n    }\n    \n    function isRequested() public view returns (bool) {\n        return capReached() && hasClosed() && \n            request.value > 0 && !isWithdrawn();\n    }\n    \n    function isConfirmed(address _auditor) public view returns (bool) {\n        return request.confirmed[_auditor];\n    }\n    \n    function isWithdrawn() public view returns (bool) {\n        return hasClosed() && capReached() && address(this).balance < 100;\n    }\n    \n  // -----------------------------------------\n  // Internal interface (extensible)\n  // -----------------------------------------\n\n    /**\n    * @dev Validation of an incoming purchase. Use require statements to revert state when conditions are not met. Use super to concatenate validations.\n    * @param _beneficiary Address performing the token purchase\n    * @param _weiAmount Value in wei involved in the purchase\n    */\n    function _preValidatePurchase(\n        address _beneficiary,\n        uint256 _weiAmount\n    )\n        internal pure\n    {\n        require(_beneficiary != address(0));\n        require(_weiAmount != 0);\n    }\n\n    /**\n    * @dev Source of tokens. Override this method to modify the way in which the crowdsale ultimately gets and sends its tokens.\n    * @param _beneficiary Address performing the token purchase\n    * @param _tokenAmount Number of tokens to be emitted\n    */\n    function _deliverTokens(\n        address _beneficiary,\n        uint256 _tokenAmount\n    )\n        internal\n    {\n        token.mint(_beneficiary, _tokenAmount);\n    }\n\n    /**\n    * @dev Executed when a purchase has been validated and is ready to be executed. Not necessarily emits/sends tokens.\n    * @param _beneficiary Address receiving the tokens\n    * @param _tokenAmount Number of tokens to be purchased\n    */\n    function _processPurchase(\n        address _beneficiary,\n        uint256 _tokenAmount\n    )\n        internal\n    {\n        _deliverTokens(_beneficiary, _tokenAmount);\n    }\n\n    /**\n    * @dev Override for extensions that require an internal state to check for validity (current user contributions, etc.)\n    * @param _beneficiary Address receiving the tokens\n    * @param _weiAmount Value in wei involved in the purchase\n    */\n    function _updatePurchasingState(\n        address _beneficiary,\n        uint256 _weiAmount\n    )\n        internal\n    {\n        balances[_beneficiary] += _weiAmount;\n        balancesInToken[_beneficiary] += _getTokenAmount(_weiAmount);\n    }\n\n    /**\n    * @dev Override to extend the way in which ether is converted to tokens.\n    * @param _weiAmount Value in wei to be converted into tokens\n    * @return Number of tokens that can be purchased with the specified _weiAmount\n    */\n    function _getTokenAmount(uint256 _weiAmount)\n        internal view returns (uint256)\n    {\n        return _weiAmount.mul(rate);\n    }\n}",
  "sourcePath": "/Users/artur/Development/Brem/contracts/BREMICO.sol",
  "compiler": {
    "name": "solc",
    "version": "0.4.24+commit.e67f0147.Emscripten.clang"
  },
  "schemaVersion": "2.0.1",
  "updatedAt": "2018-08-07T16:23:36.141Z"
}