{
  "contractName": "BREM",
  "abi": [
    {
      "constant": true,
      "inputs": [
        {
          "name": "_operator",
          "type": "address"
        },
        {
          "name": "_role",
          "type": "string"
        }
      ],
      "name": "checkRole",
      "outputs": [],
      "payable": false,
      "stateMutability": "view",
      "type": "function"
    },
    {
      "constant": true,
      "inputs": [
        {
          "name": "_operator",
          "type": "address"
        },
        {
          "name": "_role",
          "type": "string"
        }
      ],
      "name": "hasRole",
      "outputs": [
        {
          "name": "",
          "type": "bool"
        }
      ],
      "payable": false,
      "stateMutability": "view",
      "type": "function"
    },
    {
      "constant": false,
      "inputs": [],
      "name": "addDeveloper",
      "outputs": [],
      "payable": false,
      "stateMutability": "nonpayable",
      "type": "function"
    },
    {
      "constant": true,
      "inputs": [],
      "name": "ROLE_AUDITOR",
      "outputs": [
        {
          "name": "",
          "type": "string"
        }
      ],
      "payable": false,
      "stateMutability": "view",
      "type": "function"
    },
    {
      "constant": false,
      "inputs": [
        {
          "name": "_withdrawFeePercent",
          "type": "uint256"
        }
      ],
      "name": "setWithdrawFeePercent",
      "outputs": [],
      "payable": false,
      "stateMutability": "nonpayable",
      "type": "function"
    },
    {
      "constant": true,
      "inputs": [],
      "name": "withdrawFeePercent",
      "outputs": [
        {
          "name": "",
          "type": "uint256"
        }
      ],
      "payable": false,
      "stateMutability": "view",
      "type": "function"
    },
    {
      "constant": true,
      "inputs": [
        {
          "name": "_addr",
          "type": "address"
        }
      ],
      "name": "isAuditor",
      "outputs": [
        {
          "name": "",
          "type": "bool"
        }
      ],
      "payable": false,
      "stateMutability": "view",
      "type": "function"
    },
    {
      "constant": true,
      "inputs": [
        {
          "name": "_projectName",
          "type": "string"
        }
      ],
      "name": "getProjectByName",
      "outputs": [
        {
          "name": "",
          "type": "address"
        }
      ],
      "payable": false,
      "stateMutability": "view",
      "type": "function"
    },
    {
      "constant": false,
      "inputs": [
        {
          "name": "_newSuperuser",
          "type": "address"
        }
      ],
      "name": "transferSuperuser",
      "outputs": [],
      "payable": false,
      "stateMutability": "nonpayable",
      "type": "function"
    },
    {
      "constant": true,
      "inputs": [
        {
          "name": "_addr",
          "type": "address"
        }
      ],
      "name": "isDeveloper",
      "outputs": [
        {
          "name": "",
          "type": "bool"
        }
      ],
      "payable": false,
      "stateMutability": "view",
      "type": "function"
    },
    {
      "constant": true,
      "inputs": [],
      "name": "icoCreationPrice",
      "outputs": [
        {
          "name": "",
          "type": "uint256"
        }
      ],
      "payable": false,
      "stateMutability": "view",
      "type": "function"
    },
    {
      "constant": true,
      "inputs": [],
      "name": "projectsAmount",
      "outputs": [
        {
          "name": "",
          "type": "uint256"
        }
      ],
      "payable": false,
      "stateMutability": "view",
      "type": "function"
    },
    {
      "constant": false,
      "inputs": [
        {
          "name": "_name",
          "type": "string"
        }
      ],
      "name": "signUp",
      "outputs": [
        {
          "name": "",
          "type": "string"
        }
      ],
      "payable": false,
      "stateMutability": "nonpayable",
      "type": "function"
    },
    {
      "constant": true,
      "inputs": [],
      "name": "login",
      "outputs": [
        {
          "name": "",
          "type": "string"
        }
      ],
      "payable": false,
      "stateMutability": "view",
      "type": "function"
    },
    {
      "constant": true,
      "inputs": [
        {
          "name": "_addr",
          "type": "address"
        }
      ],
      "name": "isSuperuser",
      "outputs": [
        {
          "name": "",
          "type": "bool"
        }
      ],
      "payable": false,
      "stateMutability": "view",
      "type": "function"
    },
    {
      "constant": true,
      "inputs": [],
      "name": "BRM",
      "outputs": [
        {
          "name": "",
          "type": "address"
        }
      ],
      "payable": false,
      "stateMutability": "view",
      "type": "function"
    },
    {
      "constant": false,
      "inputs": [
        {
          "name": "_icoCreationPrice",
          "type": "uint256"
        }
      ],
      "name": "setIcoCreationPrice",
      "outputs": [],
      "payable": false,
      "stateMutability": "nonpayable",
      "type": "function"
    },
    {
      "constant": true,
      "inputs": [],
      "name": "ROLE_DEVELOPER",
      "outputs": [
        {
          "name": "",
          "type": "string"
        }
      ],
      "payable": false,
      "stateMutability": "view",
      "type": "function"
    },
    {
      "constant": false,
      "inputs": [
        {
          "name": "_newAuditor",
          "type": "address"
        }
      ],
      "name": "addAuditor",
      "outputs": [],
      "payable": false,
      "stateMutability": "nonpayable",
      "type": "function"
    },
    {
      "constant": true,
      "inputs": [],
      "name": "ROLE_SUPERUSER",
      "outputs": [
        {
          "name": "",
          "type": "string"
        }
      ],
      "payable": false,
      "stateMutability": "view",
      "type": "function"
    },
    {
      "constant": true,
      "inputs": [
        {
          "name": "_index",
          "type": "uint256"
        }
      ],
      "name": "getProject",
      "outputs": [
        {
          "name": "",
          "type": "address"
        }
      ],
      "payable": false,
      "stateMutability": "view",
      "type": "function"
    },
    {
      "inputs": [
        {
          "name": "_brmAddress",
          "type": "address"
        },
        {
          "name": "_icoCreationPrice",
          "type": "uint256"
        },
        {
          "name": "_withdrawFeePercent",
          "type": "uint256"
        }
      ],
      "payable": false,
      "stateMutability": "nonpayable",
      "type": "constructor"
    },
    {
      "payable": true,
      "stateMutability": "payable",
      "type": "fallback"
    },
    {
      "anonymous": false,
      "inputs": [
        {
          "indexed": true,
          "name": "creator",
          "type": "address"
        },
        {
          "indexed": true,
          "name": "icoAddress",
          "type": "address"
        },
        {
          "indexed": true,
          "name": "tokenAddress",
          "type": "address"
        },
        {
          "indexed": false,
          "name": "name",
          "type": "string"
        }
      ],
      "name": "BREMICOCreated",
      "type": "event"
    },
    {
      "anonymous": false,
      "inputs": [
        {
          "indexed": true,
          "name": "operator",
          "type": "address"
        },
        {
          "indexed": false,
          "name": "role",
          "type": "string"
        }
      ],
      "name": "RoleAdded",
      "type": "event"
    },
    {
      "anonymous": false,
      "inputs": [
        {
          "indexed": true,
          "name": "operator",
          "type": "address"
        },
        {
          "indexed": false,
          "name": "role",
          "type": "string"
        }
      ],
      "name": "RoleRemoved",
      "type": "event"
    },
    {
      "constant": false,
      "inputs": [
        {
          "name": "_name",
          "type": "string"
        },
        {
          "name": "_symbol",
          "type": "string"
        },
        {
          "name": "_rate",
          "type": "uint256"
        },
        {
          "name": "_cap",
          "type": "uint256"
        },
        {
          "name": "_closingTime",
          "type": "uint256"
        },
        {
          "name": "_description",
          "type": "string"
        },
        {
          "name": "_docHash",
          "type": "string"
        }
      ],
      "name": "createBREMICO",
      "outputs": [
        {
          "name": "tokenAddress",
          "type": "address"
        },
        {
          "name": "icoAddress",
          "type": "address"
        }
      ],
      "payable": false,
      "stateMutability": "nonpayable",
      "type": "function"
    },
    {
      "constant": false,
      "inputs": [
        {
          "name": "_value",
          "type": "uint256"
        }
      ],
      "name": "withdrawFees",
      "outputs": [],
      "payable": false,
      "stateMutability": "nonpayable",
      "type": "function"
    }
  ],
  "bytecode": "0x60806040523480156200001157600080fd5b506040516060806200645683398101806040528101908080519060200190929190805190602001909291908051906020019092919050505062000099336040805190810160405280600981526020017f737570657275736572000000000000000000000000000000000000000000000081525062000110640100000000026401000000009004565b60008110158015620000ac575060648111155b1515620000b857600080fd5b82600760006101000a81548173ffffffffffffffffffffffffffffffffffffffff021916908373ffffffffffffffffffffffffffffffffffffffff1602179055508160058190555080600681905550505050620002b7565b6200019f826000836040518082805190602001908083835b6020831015156200014f578051825260208201915060208101905060208303925062000128565b6001836020036101000a038019825116818451168082178552505050505050905001915050908152602001604051809103902062000259640100000000026200235e179091906401000000009004565b8173ffffffffffffffffffffffffffffffffffffffff167fbfec83d64eaa953f2708271a023ab9ee82057f8f3578d548c1a4ba0b5b700489826040518080602001828103825283818151815260200191508051906020019080838360005b838110156200021a578082015181840152602081019050620001fd565b50505050905090810190601f168015620002485780820380516001836020036101000a031916815260200191505b509250505060405180910390a25050565b60018260000160008373ffffffffffffffffffffffffffffffffffffffff1673ffffffffffffffffffffffffffffffffffffffff16815260200190815260200160002060006101000a81548160ff0219169083151502179055505050565b61618f80620002c76000396000f3006080604052600436106200014b576000357c0100000000000000000000000000000000000000000000000000000000900463ffffffff1680630988ca8c146200014d578063217fe6c614620001d95780632b7d7489146200027d5780633f029aaf1462000297578063447cb896146200032d578063495ef705146200035d57806349b90557146200038b5780634b77f26914620003e957806357c393fa14620004955780635e318e0714620004db5780635eca4a70146200050b57806380d2370f14620005695780639cdd99131462000597578063adcfb4fc14620005c5578063b34e97e814620006ad578063bceee05e1462000743578063bfb7703014620007a1578063c4f9181014620007fb578063e31cd22e146200082b578063e429cef114620008c1578063ebb4f4841462000907578063ecdf8ac0146200099d578063f0f3f2c81462000b6c575b005b3480156200015a57600080fd5b50620001d7600480360381019080803573ffffffffffffffffffffffffffffffffffffffff169060200190929190803590602001908201803590602001908080601f016020809104026020016040519081016040528093929190818152602001838380828437820191505050505050919291929050505062000bdc565b005b348015620001e657600080fd5b5062000263600480360381019080803573ffffffffffffffffffffffffffffffffffffffff169060200190929190803590602001908201803590602001908080601f016020809104026020016040519081016040528093929190818152602001838380828437820191505050505050919291929050505062000c61565b604051808215151515815260200191505060405180910390f35b3480156200028a57600080fd5b506200029562000cec565b005b348015620002a457600080fd5b50620002af62000d6c565b6040518080602001828103825283818151815260200191508051906020019080838360005b83811015620002f1578082015181840152602081019050620002d4565b50505050905090810190601f1680156200031f5780820380516001836020036101000a031916815260200191505b509250505060405180910390f35b3480156200033a57600080fd5b506200035b6004803603810190808035906020019092919050505062000da5565b005b3480156200036a57600080fd5b506200037562000e21565b6040518082815260200191505060405180910390f35b3480156200039857600080fd5b50620003cf600480360381019080803573ffffffffffffffffffffffffffffffffffffffff16906020019092919050505062000e27565b604051808215151515815260200191505060405180910390f35b348015620003f657600080fd5b5062000453600480360381019080803590602001908201803590602001908080601f016020809104026020016040519081016040528093929190818152602001838380828437820191505050505050919291929050505062000e71565b604051808273ffffffffffffffffffffffffffffffffffffffff1673ffffffffffffffffffffffffffffffffffffffff16815260200191505060405180910390f35b348015620004a257600080fd5b50620004d9600480360381019080803573ffffffffffffffffffffffffffffffffffffffff16906020019092919050505062000fa1565b005b348015620004e857600080fd5b506200050960048036038101908080359060200190929190505050620010a4565b005b3480156200051857600080fd5b506200054f600480360381019080803573ffffffffffffffffffffffffffffffffffffffff16906020019092919050505062001164565b604051808215151515815260200191505060405180910390f35b3480156200057657600080fd5b5062000581620011ae565b6040518082815260200191505060405180910390f35b348015620005a457600080fd5b50620005af620011b4565b6040518082815260200191505060405180910390f35b348015620005d257600080fd5b506200062f600480360381019080803590602001908201803590602001908080601f0160208091040260200160405190810160405280939291908181526020018383808284378201915050505050509192919290505050620011ba565b6040518080602001828103825283818151815260200191508051906020019080838360005b838110156200067157808201518184015260208101905062000654565b50505050905090810190601f1680156200069f5780820380516001836020036101000a031916815260200191505b509250505060405180910390f35b348015620006ba57600080fd5b50620006c5620013a1565b6040518080602001828103825283818151815260200191508051906020019080838360005b8381101562000707578082015181840152602081019050620006ea565b50505050905090810190601f168015620007355780820380516001836020036101000a031916815260200191505b509250505060405180910390f35b3480156200075057600080fd5b5062000787600480360381019080803573ffffffffffffffffffffffffffffffffffffffff169060200190929190505050620014ed565b604051808215151515815260200191505060405180910390f35b348015620007ae57600080fd5b50620007b962001537565b604051808273ffffffffffffffffffffffffffffffffffffffff1673ffffffffffffffffffffffffffffffffffffffff16815260200191505060405180910390f35b3480156200080857600080fd5b5062000829600480360381019080803590602001909291905050506200155d565b005b3480156200083857600080fd5b5062000843620015ba565b6040518080602001828103825283818151815260200191508051906020019080838360005b838110156200088557808201518184015260208101905062000868565b50505050905090810190601f168015620008b35780820380516001836020036101000a031916815260200191505b509250505060405180910390f35b348015620008ce57600080fd5b5062000905600480360381019080803573ffffffffffffffffffffffffffffffffffffffff169060200190929190505050620015f3565b005b3480156200091457600080fd5b506200091f620016b5565b6040518080602001828103825283818151815260200191508051906020019080838360005b838110156200096157808201518184015260208101905062000944565b50505050905090810190601f1680156200098f5780820380516001836020036101000a031916815260200191505b509250505060405180910390f35b348015620009aa57600080fd5b5062000af7600480360381019080803590602001908201803590602001908080601f0160208091040260200160405190810160405280939291908181526020018383808284378201915050505050509192919290803590602001908201803590602001908080601f0160208091040260200160405190810160405280939291908181526020018383808284378201915050505050509192919290803590602001909291908035906020019092919080359060200190929190803590602001908201803590602001908080601f0160208091040260200160405190810160405280939291908181526020018383808284378201915050505050509192919290803590602001908201803590602001908080601f0160208091040260200160405190810160405280939291908181526020018383808284378201915050505050509192919290505050620016ee565b604051808373ffffffffffffffffffffffffffffffffffffffff1673ffffffffffffffffffffffffffffffffffffffff1681526020018273ffffffffffffffffffffffffffffffffffffffff1673ffffffffffffffffffffffffffffffffffffffff1681526020019250505060405180910390f35b34801562000b7957600080fd5b5062000b9a6004803603810190808035906020019092919050505062002025565b604051808273ffffffffffffffffffffffffffffffffffffffff1673ffffffffffffffffffffffffffffffffffffffff16815260200191505060405180910390f35b62000c5d826000836040518082805190602001908083835b60208310151562000c1b578051825260208201915060208101905060208303925062000bf4565b6001836020036101000a03801982511681845116808217855250505050505090500191505090815260200160405180910390206200207390919063ffffffff16565b5050565b600062000ce4836000846040518082805190602001908083835b60208310151562000ca2578051825260208201915060208101905060208303925062000c7b565b6001836020036101000a03801982511681845116808217855250505050505090500191505090815260200160405180910390206200208f90919063ffffffff16565b905092915050565b600073ffffffffffffffffffffffffffffffffffffffff163373ffffffffffffffffffffffffffffffffffffffff161415151562000d2957600080fd5b62000d6a336040805190810160405280600981526020017f646576656c6f7065720000000000000000000000000000000000000000000000815250620020e8565b565b6040805190810160405280600781526020017f61756469746f720000000000000000000000000000000000000000000000000081525081565b62000de6336040805190810160405280600981526020017f737570657275736572000000000000000000000000000000000000000000000081525062000bdc565b600654811415151562000df857600080fd5b6000811015801562000e0b575060648111155b151562000e1757600080fd5b8060068190555050565b60065481565b600062000e6a826040805190810160405280600781526020017f61756469746f720000000000000000000000000000000000000000000000000081525062000c61565b9050919050565b6000806000835111151562000e8557600080fd5b6004836040518082805190602001908083835b60208310151562000ebf578051825260208201915060208101905060208303925062000e98565b6001836020036101000a0380198251168184511680821785525050505050509050019150509081526020016040518091039020549050600073ffffffffffffffffffffffffffffffffffffffff166003600083815260200190815260200160002060009054906101000a900473ffffffffffffffffffffffffffffffffffffffff1673ffffffffffffffffffffffffffffffffffffffff161415151562000f6557600080fd5b6003600082815260200190815260200160002060009054906101000a900473ffffffffffffffffffffffffffffffffffffffff16915050919050565b62000fe2336040805190810160405280600981526020017f737570657275736572000000000000000000000000000000000000000000000081525062000bdc565b600073ffffffffffffffffffffffffffffffffffffffff168173ffffffffffffffffffffffffffffffffffffffff16141515156200101f57600080fd5b62001060336040805190810160405280600981526020017f737570657275736572000000000000000000000000000000000000000000000081525062002223565b620010a1816040805190810160405280600981526020017f7375706572757365720000000000000000000000000000000000000000000000815250620020e8565b50565b620010e5336040805190810160405280600981526020017f737570657275736572000000000000000000000000000000000000000000000081525062000bdc565b803073ffffffffffffffffffffffffffffffffffffffff1631101580156200110d5750600081115b15156200111957600080fd5b3373ffffffffffffffffffffffffffffffffffffffff166108fc829081150290604051600060405180830381858888f1935050505015801562001160573d6000803e3d6000fd5b5050565b6000620011a7826040805190810160405280600981526020017f646576656c6f706572000000000000000000000000000000000000000000000081525062000c61565b9050919050565b60055481565b60025481565b60608160008151111515620011ce57600080fd5b6000600160003373ffffffffffffffffffffffffffffffffffffffff1673ffffffffffffffffffffffffffffffffffffffff1681526020019081526020016000206000018054600181600116156101000203166002900490501415620012885782600160003373ffffffffffffffffffffffffffffffffffffffff1673ffffffffffffffffffffffffffffffffffffffff1681526020019081526020016000206000019080519060200190620012869291906200241a565b505b6200129333620014ed565b158015620012a95750620012a73362000e27565b155b15620012ba57620012b962000cec565b5b600160003373ffffffffffffffffffffffffffffffffffffffff1673ffffffffffffffffffffffffffffffffffffffff1681526020019081526020016000206000018054600181600116156101000203166002900480601f016020809104026020016040519081016040528092919081815260200182805460018160011615610100020316600290048015620013945780601f10620013685761010080835404028352916020019162001394565b820191906000526020600020905b8154815290600101906020018083116200137657829003601f168201915b5050505050915050919050565b60606000600160003373ffffffffffffffffffffffffffffffffffffffff1673ffffffffffffffffffffffffffffffffffffffff1681526020019081526020016000206000018054600181600116156101000203166002900490501115156200140957600080fd5b600160003373ffffffffffffffffffffffffffffffffffffffff1673ffffffffffffffffffffffffffffffffffffffff1681526020019081526020016000206000018054600181600116156101000203166002900480601f016020809104026020016040519081016040528092919081815260200182805460018160011615610100020316600290048015620014e35780601f10620014b757610100808354040283529160200191620014e3565b820191906000526020600020905b815481529060010190602001808311620014c557829003601f168201915b5050505050905090565b600062001530826040805190810160405280600981526020017f737570657275736572000000000000000000000000000000000000000000000081525062000c61565b9050919050565b600760009054906101000a900473ffffffffffffffffffffffffffffffffffffffff1681565b6200159e336040805190810160405280600981526020017f737570657275736572000000000000000000000000000000000000000000000081525062000bdc565b6005548114151515620015b057600080fd5b8060058190555050565b6040805190810160405280600981526020017f646576656c6f706572000000000000000000000000000000000000000000000081525081565b62001634336040805190810160405280600981526020017f737570657275736572000000000000000000000000000000000000000000000081525062000bdc565b600073ffffffffffffffffffffffffffffffffffffffff168173ffffffffffffffffffffffffffffffffffffffff16141515156200167157600080fd5b620016b2816040805190810160405280600781526020017f61756469746f7200000000000000000000000000000000000000000000000000815250620020e8565b50565b6040805190810160405280600981526020017f737570657275736572000000000000000000000000000000000000000000000081525081565b60008060008062001735336040805190810160405280600981526020017f646576656c6f706572000000000000000000000000000000000000000000000081525062000bdc565b600554600760009054906101000a900473ffffffffffffffffffffffffffffffffffffffff1673ffffffffffffffffffffffffffffffffffffffff166370a08231336040518263ffffffff167c0100000000000000000000000000000000000000000000000000000000028152600401808273ffffffffffffffffffffffffffffffffffffffff1673ffffffffffffffffffffffffffffffffffffffff168152602001915050602060405180830381600087803b158015620017f657600080fd5b505af11580156200180b573d6000803e3d6000fd5b505050506040513d60208110156200182257600080fd5b8101908080519060200190929190505050101515156200184157600080fd5b60008b5111801562001854575060008a51115b15156200186057600080fd5b600060048c6040518082805190602001908083835b6020831015156200189c578051825260208201915060208101905060208303925062001875565b6001836020036101000a038019825116818451168082178552505050505050905001915050908152602001604051809103902054141515620018dd57600080fd5b600760009054906101000a900473ffffffffffffffffffffffffffffffffffffffff1673ffffffffffffffffffffffffffffffffffffffff166323b872dd33306005546040518463ffffffff167c0100000000000000000000000000000000000000000000000000000000028152600401808473ffffffffffffffffffffffffffffffffffffffff1673ffffffffffffffffffffffffffffffffffffffff1681526020018373ffffffffffffffffffffffffffffffffffffffff1673ffffffffffffffffffffffffffffffffffffffff1681526020018281526020019350505050602060405180830381600087803b158015620019d957600080fd5b505af1158015620019ee573d6000803e3d6000fd5b505050506040513d602081101562001a0557600080fd5b8101908080519060200190929190505050151562001a2257600080fd5b8a8a62001a2e620024a1565b808060200180602001838103835285818151815260200191508051906020019080838360005b8381101562001a7157808201518184015260208101905062001a54565b50505050905090810190601f16801562001a9f5780820380516001836020036101000a031916815260200191505b50838103825284818151815260200191508051906020019080838360005b8381101562001ada57808201518184015260208101905062001abd565b50505050905090810190601f16801562001b085780820380516001836020036101000a031916815260200191505b50945050505050604051809103906000f08015801562001b2c573d6000803e3d6000fd5b509150819350308b898b33868c8c8c3060065462001b49620024b2565b808c73ffffffffffffffffffffffffffffffffffffffff1673ffffffffffffffffffffffffffffffffffffffff168152602001806020018b81526020018a81526020018973ffffffffffffffffffffffffffffffffffffffff1673ffffffffffffffffffffffffffffffffffffffff1681526020018873ffffffffffffffffffffffffffffffffffffffff1673ffffffffffffffffffffffffffffffffffffffff16815260200187815260200180602001806020018673ffffffffffffffffffffffffffffffffffffffff1673ffffffffffffffffffffffffffffffffffffffff16815260200185815260200184810384528e818151815260200191508051906020019080838360005b8381101562001c7057808201518184015260208101905062001c53565b50505050905090810190601f16801562001c9e5780820380516001836020036101000a031916815260200191505b50848103835288818151815260200191508051906020019080838360005b8381101562001cd957808201518184015260208101905062001cbc565b50505050905090810190601f16801562001d075780820380516001836020036101000a031916815260200191505b50848103825287818151815260200191508051906020019080838360005b8381101562001d4257808201518184015260208101905062001d25565b50505050905090810190601f16801562001d705780820380516001836020036101000a031916815260200191505b509e505050505050505050505050505050604051809103906000f08015801562001d9e573d6000803e3d6000fd5b5090508092508173ffffffffffffffffffffffffffffffffffffffff1663f2fde38b846040518263ffffffff167c0100000000000000000000000000000000000000000000000000000000028152600401808273ffffffffffffffffffffffffffffffffffffffff1673ffffffffffffffffffffffffffffffffffffffff168152602001915050600060405180830381600087803b15801562001e4057600080fd5b505af115801562001e55573d6000803e3d6000fd5b505050508260036000600254815260200190815260200160002060006101000a81548173ffffffffffffffffffffffffffffffffffffffff021916908373ffffffffffffffffffffffffffffffffffffffff16021790555060025460048c6040518082805190602001908083835b60208310151562001eea578051825260208201915060208101905060208303925062001ec3565b6001836020036101000a0380198251168184511680821785525050505050509050019150509081526020016040518091039020819055506002600081548092919060010191905055508373ffffffffffffffffffffffffffffffffffffffff168373ffffffffffffffffffffffffffffffffffffffff163373ffffffffffffffffffffffffffffffffffffffff167fcbef3bd4943085dfb59f0609e5f754aec11e22a5838e77e0d0c0bff98a0dcdae8e6040518080602001828103825283818151815260200191508051906020019080838360005b8381101562001fdc57808201518184015260208101905062001fbf565b50505050905090810190601f1680156200200a5780820380516001836020036101000a031916815260200191505b509250505060405180910390a4505097509795505050505050565b6000600254821015156200203857600080fd5b6003600083815260200190815260200160002060009054906101000a900473ffffffffffffffffffffffffffffffffffffffff169050919050565b6200207f82826200208f565b15156200208b57600080fd5b5050565b60008260000160008373ffffffffffffffffffffffffffffffffffffffff1673ffffffffffffffffffffffffffffffffffffffff16815260200190815260200160002060009054906101000a900460ff16905092915050565b62002169826000836040518082805190602001908083835b60208310151562002127578051825260208201915060208101905060208303925062002100565b6001836020036101000a03801982511681845116808217855250505050505090500191505090815260200160405180910390206200235e90919063ffffffff16565b8173ffffffffffffffffffffffffffffffffffffffff167fbfec83d64eaa953f2708271a023ab9ee82057f8f3578d548c1a4ba0b5b700489826040518080602001828103825283818151815260200191508051906020019080838360005b83811015620021e4578082015181840152602081019050620021c7565b50505050905090810190601f168015620022125780820380516001836020036101000a031916815260200191505b509250505060405180910390a25050565b620022a4826000836040518082805190602001908083835b6020831015156200226257805182526020820191506020810190506020830392506200223b565b6001836020036101000a0380198251168184511680821785525050505050509050019150509081526020016040518091039020620023bc90919063ffffffff16565b8173ffffffffffffffffffffffffffffffffffffffff167fd211483f91fc6eff862467f8de606587a30c8fc9981056f051b897a418df803a826040518080602001828103825283818151815260200191508051906020019080838360005b838110156200231f57808201518184015260208101905062002302565b50505050905090810190601f1680156200234d5780820380516001836020036101000a031916815260200191505b509250505060405180910390a25050565b60018260000160008373ffffffffffffffffffffffffffffffffffffffff1673ffffffffffffffffffffffffffffffffffffffff16815260200190815260200160002060006101000a81548160ff0219169083151502179055505050565b60008260000160008373ffffffffffffffffffffffffffffffffffffffff1673ffffffffffffffffffffffffffffffffffffffff16815260200190815260200160002060006101000a81548160ff0219169083151502179055505050565b828054600181600116156101000203166002900490600052602060002090601f016020900481019282601f106200245d57805160ff19168380011785556200248e565b828001600101855582156200248e579182015b828111156200248d57825182559160200191906001019062002470565b5b5090506200249d9190620024c3565b5090565b604051611cc780620024ec83390190565b604051611fb180620041b383390190565b620024e891905b80821115620024e4576000816000905550600101620024ca565b5090565b90560060806040526000600360146101000a81548160ff0219169083151502179055503480156200002c57600080fd5b5060405162001cc738038062001cc7833981018060405281019080805182019291906020018051820192919050505033600360006101000a81548173ffffffffffffffffffffffffffffffffffffffff021916908373ffffffffffffffffffffffffffffffffffffffff1602179055508160049080519060200190620000b4929190620000d6565b508060059080519060200190620000cd929190620000d6565b50505062000185565b828054600181600116156101000203166002900490600052602060002090601f016020900481019282601f106200011957805160ff19168380011785556200014a565b828001600101855582156200014a579182015b82811115620001495782518255916020019190600101906200012c565b5b5090506200015991906200015d565b5090565b6200018291905b808211156200017e57600081600090555060010162000164565b5090565b90565b611b3280620001956000396000f3006080604052600436106100f1576000357c0100000000000000000000000000000000000000000000000000000000900463ffffffff16806305d2035b146100f657806306fdde0314610125578063095ea7b3146101b557806318160ddd1461021a57806323b872dd14610245578063313ce567146102ca57806340c10f19146102fb578063661884631461036057806370a08231146103c55780637d64bcb41461041c5780638da5cb5b1461044b57806395d89b41146104a2578063a9059cbb14610532578063d0482d0414610597578063d73dd623146105e4578063dd62ed3e14610649578063f2fde38b146106c0575b600080fd5b34801561010257600080fd5b5061010b610703565b604051808215151515815260200191505060405180910390f35b34801561013157600080fd5b5061013a610716565b6040518080602001828103825283818151815260200191508051906020019080838360005b8381101561017a57808201518184015260208101905061015f565b50505050905090810190601f1680156101a75780820380516001836020036101000a031916815260200191505b509250505060405180910390f35b3480156101c157600080fd5b50610200600480360381019080803573ffffffffffffffffffffffffffffffffffffffff169060200190929190803590602001909291905050506107b4565b604051808215151515815260200191505060405180910390f35b34801561022657600080fd5b5061022f6108a6565b6040518082815260200191505060405180910390f35b34801561025157600080fd5b506102b0600480360381019080803573ffffffffffffffffffffffffffffffffffffffff169060200190929190803573ffffffffffffffffffffffffffffffffffffffff169060200190929190803590602001909291905050506108ac565b604051808215151515815260200191505060405180910390f35b3480156102d657600080fd5b506102df610c6b565b604051808260ff1660ff16815260200191505060405180910390f35b34801561030757600080fd5b50610346600480360381019080803573ffffffffffffffffffffffffffffffffffffffff16906020019092919080359060200190929190505050610c70565b604051808215151515815260200191505060405180910390f35b34801561036c57600080fd5b506103ab600480360381019080803573ffffffffffffffffffffffffffffffffffffffff16906020019092919080359060200190929190505050610e58565b604051808215151515815260200191505060405180910390f35b3480156103d157600080fd5b50610406600480360381019080803573ffffffffffffffffffffffffffffffffffffffff1690602001909291905050506110e9565b6040518082815260200191505060405180910390f35b34801561042857600080fd5b50610431611132565b604051808215151515815260200191505060405180910390f35b34801561045757600080fd5b506104606111fa565b604051808273ffffffffffffffffffffffffffffffffffffffff1673ffffffffffffffffffffffffffffffffffffffff16815260200191505060405180910390f35b3480156104ae57600080fd5b506104b7611220565b6040518080602001828103825283818151815260200191508051906020019080838360005b838110156104f75780820151818401526020810190506104dc565b50505050905090810190601f1680156105245780820380516001836020036101000a031916815260200191505b509250505060405180910390f35b34801561053e57600080fd5b5061057d600480360381019080803573ffffffffffffffffffffffffffffffffffffffff169060200190929190803590602001909291905050506112be565b604051808215151515815260200191505060405180910390f35b3480156105a357600080fd5b506105e2600480360381019080803573ffffffffffffffffffffffffffffffffffffffff169060200190929190803590602001909291905050506114e2565b005b3480156105f057600080fd5b5061062f600480360381019080803573ffffffffffffffffffffffffffffffffffffffff169060200190929190803590602001909291905050506116f4565b604051808215151515815260200191505060405180910390f35b34801561065557600080fd5b506106aa600480360381019080803573ffffffffffffffffffffffffffffffffffffffff169060200190929190803573ffffffffffffffffffffffffffffffffffffffff1690602001909291905050506118f0565b6040518082815260200191505060405180910390f35b3480156106cc57600080fd5b50610701600480360381019080803573ffffffffffffffffffffffffffffffffffffffff169060200190929190505050611977565b005b600360149054906101000a900460ff1681565b60048054600181600116156101000203166002900480601f0160208091040260200160405190810160405280929190818152602001828054600181600116156101000203166002900480156107ac5780601f10610781576101008083540402835291602001916107ac565b820191906000526020600020905b81548152906001019060200180831161078f57829003601f168201915b505050505081565b600081600260003373ffffffffffffffffffffffffffffffffffffffff1673ffffffffffffffffffffffffffffffffffffffff16815260200190815260200160002060008573ffffffffffffffffffffffffffffffffffffffff1673ffffffffffffffffffffffffffffffffffffffff168152602001908152602001600020819055508273ffffffffffffffffffffffffffffffffffffffff163373ffffffffffffffffffffffffffffffffffffffff167f8c5be1e5ebec7d5bd14f71427d1e84f3dd0314c0f7b2291e5b200ac8c7c3b925846040518082815260200191505060405180910390a36001905092915050565b60005481565b60008073ffffffffffffffffffffffffffffffffffffffff168373ffffffffffffffffffffffffffffffffffffffff16141515156108e957600080fd5b600160008573ffffffffffffffffffffffffffffffffffffffff1673ffffffffffffffffffffffffffffffffffffffff16815260200190815260200160002054821115151561093757600080fd5b600260008573ffffffffffffffffffffffffffffffffffffffff1673ffffffffffffffffffffffffffffffffffffffff16815260200190815260200160002060003373ffffffffffffffffffffffffffffffffffffffff1673ffffffffffffffffffffffffffffffffffffffff1681526020019081526020016000205482111515156109c257600080fd5b610a1482600160008773ffffffffffffffffffffffffffffffffffffffff1673ffffffffffffffffffffffffffffffffffffffff16815260200190815260200160002054611acf90919063ffffffff16565b600160008673ffffffffffffffffffffffffffffffffffffffff1673ffffffffffffffffffffffffffffffffffffffff16815260200190815260200160002081905550610aa982600160008673ffffffffffffffffffffffffffffffffffffffff1673ffffffffffffffffffffffffffffffffffffffff16815260200190815260200160002054611ae890919063ffffffff16565b600160008573ffffffffffffffffffffffffffffffffffffffff1673ffffffffffffffffffffffffffffffffffffffff16815260200190815260200160002081905550610b7b82600260008773ffffffffffffffffffffffffffffffffffffffff1673ffffffffffffffffffffffffffffffffffffffff16815260200190815260200160002060003373ffffffffffffffffffffffffffffffffffffffff1673ffffffffffffffffffffffffffffffffffffffff16815260200190815260200160002054611acf90919063ffffffff16565b600260008673ffffffffffffffffffffffffffffffffffffffff1673ffffffffffffffffffffffffffffffffffffffff16815260200190815260200160002060003373ffffffffffffffffffffffffffffffffffffffff1673ffffffffffffffffffffffffffffffffffffffff168152602001908152602001600020819055508273ffffffffffffffffffffffffffffffffffffffff168473ffffffffffffffffffffffffffffffffffffffff167fddf252ad1be2c89b69c2b068fc378daa952ba7f163c4a11628f55a4df523b3ef846040518082815260200191505060405180910390a3600190509392505050565b601281565b6000600360009054906101000a900473ffffffffffffffffffffffffffffffffffffffff1673ffffffffffffffffffffffffffffffffffffffff163373ffffffffffffffffffffffffffffffffffffffff16141515610cce57600080fd5b600360149054906101000a900460ff16151515610cea57600080fd5b610cff82600054611ae890919063ffffffff16565b600081905550610d5782600160008673ffffffffffffffffffffffffffffffffffffffff1673ffffffffffffffffffffffffffffffffffffffff16815260200190815260200160002054611ae890919063ffffffff16565b600160008573ffffffffffffffffffffffffffffffffffffffff1673ffffffffffffffffffffffffffffffffffffffff168152602001908152602001600020819055508273ffffffffffffffffffffffffffffffffffffffff167f0f6798a560793a54c3bcfe86a93cde1e73087d944c0ea20544137d4121396885836040518082815260200191505060405180910390a28273ffffffffffffffffffffffffffffffffffffffff16600073ffffffffffffffffffffffffffffffffffffffff167fddf252ad1be2c89b69c2b068fc378daa952ba7f163c4a11628f55a4df523b3ef846040518082815260200191505060405180910390a36001905092915050565b600080600260003373ffffffffffffffffffffffffffffffffffffffff1673ffffffffffffffffffffffffffffffffffffffff16815260200190815260200160002060008573ffffffffffffffffffffffffffffffffffffffff1673ffffffffffffffffffffffffffffffffffffffff16815260200190815260200160002054905080831115610f69576000600260003373ffffffffffffffffffffffffffffffffffffffff1673ffffffffffffffffffffffffffffffffffffffff16815260200190815260200160002060008673ffffffffffffffffffffffffffffffffffffffff1673ffffffffffffffffffffffffffffffffffffffff16815260200190815260200160002081905550610ffd565b610f7c8382611acf90919063ffffffff16565b600260003373ffffffffffffffffffffffffffffffffffffffff1673ffffffffffffffffffffffffffffffffffffffff16815260200190815260200160002060008673ffffffffffffffffffffffffffffffffffffffff1673ffffffffffffffffffffffffffffffffffffffff168152602001908152602001600020819055505b8373ffffffffffffffffffffffffffffffffffffffff163373ffffffffffffffffffffffffffffffffffffffff167f8c5be1e5ebec7d5bd14f71427d1e84f3dd0314c0f7b2291e5b200ac8c7c3b925600260003373ffffffffffffffffffffffffffffffffffffffff1673ffffffffffffffffffffffffffffffffffffffff16815260200190815260200160002060008873ffffffffffffffffffffffffffffffffffffffff1673ffffffffffffffffffffffffffffffffffffffff168152602001908152602001600020546040518082815260200191505060405180910390a3600191505092915050565b6000600160008373ffffffffffffffffffffffffffffffffffffffff1673ffffffffffffffffffffffffffffffffffffffff168152602001908152602001600020549050919050565b6000600360009054906101000a900473ffffffffffffffffffffffffffffffffffffffff1673ffffffffffffffffffffffffffffffffffffffff163373ffffffffffffffffffffffffffffffffffffffff1614151561119057600080fd5b600360149054906101000a900460ff161515156111ac57600080fd5b6001600360146101000a81548160ff0219169083151502179055507fae5184fba832cb2b1f702aca6117b8d265eaf03ad33eb133f19dde0f5920fa0860405160405180910390a16001905090565b600360009054906101000a900473ffffffffffffffffffffffffffffffffffffffff1681565b60058054600181600116156101000203166002900480601f0160208091040260200160405190810160405280929190818152602001828054600181600116156101000203166002900480156112b65780601f1061128b576101008083540402835291602001916112b6565b820191906000526020600020905b81548152906001019060200180831161129957829003601f168201915b505050505081565b60008073ffffffffffffffffffffffffffffffffffffffff168373ffffffffffffffffffffffffffffffffffffffff16141515156112fb57600080fd5b600160003373ffffffffffffffffffffffffffffffffffffffff1673ffffffffffffffffffffffffffffffffffffffff16815260200190815260200160002054821115151561134957600080fd5b61139b82600160003373ffffffffffffffffffffffffffffffffffffffff1673ffffffffffffffffffffffffffffffffffffffff16815260200190815260200160002054611acf90919063ffffffff16565b600160003373ffffffffffffffffffffffffffffffffffffffff1673ffffffffffffffffffffffffffffffffffffffff1681526020019081526020016000208190555061143082600160008673ffffffffffffffffffffffffffffffffffffffff1673ffffffffffffffffffffffffffffffffffffffff16815260200190815260200160002054611ae890919063ffffffff16565b600160008573ffffffffffffffffffffffffffffffffffffffff1673ffffffffffffffffffffffffffffffffffffffff168152602001908152602001600020819055508273ffffffffffffffffffffffffffffffffffffffff163373ffffffffffffffffffffffffffffffffffffffff167fddf252ad1be2c89b69c2b068fc378daa952ba7f163c4a11628f55a4df523b3ef846040518082815260200191505060405180910390a36001905092915050565b600360009054906101000a900473ffffffffffffffffffffffffffffffffffffffff1673ffffffffffffffffffffffffffffffffffffffff163373ffffffffffffffffffffffffffffffffffffffff1614151561153e57600080fd5b600160008373ffffffffffffffffffffffffffffffffffffffff1673ffffffffffffffffffffffffffffffffffffffff16815260200190815260200160002054811115151561158c57600080fd5b6115de81600160008573ffffffffffffffffffffffffffffffffffffffff1673ffffffffffffffffffffffffffffffffffffffff16815260200190815260200160002054611acf90919063ffffffff16565b600160008473ffffffffffffffffffffffffffffffffffffffff1673ffffffffffffffffffffffffffffffffffffffff1681526020019081526020016000208190555061163681600054611acf90919063ffffffff16565b6000819055508173ffffffffffffffffffffffffffffffffffffffff167fcc16f5dbb4873280815c1ee09dbd06736cffcc184412cf7a71a0fdb75d397ca5826040518082815260200191505060405180910390a2600073ffffffffffffffffffffffffffffffffffffffff168273ffffffffffffffffffffffffffffffffffffffff167fddf252ad1be2c89b69c2b068fc378daa952ba7f163c4a11628f55a4df523b3ef836040518082815260200191505060405180910390a35050565b600061178582600260003373ffffffffffffffffffffffffffffffffffffffff1673ffffffffffffffffffffffffffffffffffffffff16815260200190815260200160002060008673ffffffffffffffffffffffffffffffffffffffff1673ffffffffffffffffffffffffffffffffffffffff16815260200190815260200160002054611ae890919063ffffffff16565b600260003373ffffffffffffffffffffffffffffffffffffffff1673ffffffffffffffffffffffffffffffffffffffff16815260200190815260200160002060008573ffffffffffffffffffffffffffffffffffffffff1673ffffffffffffffffffffffffffffffffffffffff168152602001908152602001600020819055508273ffffffffffffffffffffffffffffffffffffffff163373ffffffffffffffffffffffffffffffffffffffff167f8c5be1e5ebec7d5bd14f71427d1e84f3dd0314c0f7b2291e5b200ac8c7c3b925600260003373ffffffffffffffffffffffffffffffffffffffff1673ffffffffffffffffffffffffffffffffffffffff16815260200190815260200160002060008773ffffffffffffffffffffffffffffffffffffffff1673ffffffffffffffffffffffffffffffffffffffff168152602001908152602001600020546040518082815260200191505060405180910390a36001905092915050565b6000600260008473ffffffffffffffffffffffffffffffffffffffff1673ffffffffffffffffffffffffffffffffffffffff16815260200190815260200160002060008373ffffffffffffffffffffffffffffffffffffffff1673ffffffffffffffffffffffffffffffffffffffff16815260200190815260200160002054905092915050565b600360009054906101000a900473ffffffffffffffffffffffffffffffffffffffff1673ffffffffffffffffffffffffffffffffffffffff163373ffffffffffffffffffffffffffffffffffffffff161415156119d357600080fd5b600073ffffffffffffffffffffffffffffffffffffffff168173ffffffffffffffffffffffffffffffffffffffff1614151515611a0f57600080fd5b8073ffffffffffffffffffffffffffffffffffffffff16600360009054906101000a900473ffffffffffffffffffffffffffffffffffffffff1673ffffffffffffffffffffffffffffffffffffffff167f8be0079c531659141344cd1fd0a4f28419497f9722a3daafe3b4186f6b6457e060405160405180910390a380600360006101000a81548173ffffffffffffffffffffffffffffffffffffffff021916908373ffffffffffffffffffffffffffffffffffffffff16021790555050565b6000828211151515611add57fe5b818303905092915050565b6000808284019050838110151515611afc57fe5b80915050929150505600a165627a7a723058200e3fc72af64d04830cad8fa160befed5c2bf3d4ea38fdbcdecde5d2c791faf28002960806040523480156200001157600080fd5b5060405162001fb138038062001fb18339810180604052810190808051906020019092919080518201929190602001805190602001909291908051906020019092919080519060200190929190805190602001909291908051906020019092919080518201929190602001805182019291906020018051906020019092919080519060200190929190505050600073ffffffffffffffffffffffffffffffffffffffff168b73ffffffffffffffffffffffffffffffffffffffff1614151515620000da57600080fd5b60008a51111515620000eb57600080fd5b600089111515620000fb57600080fd5b6000881115156200010b57600080fd5b600073ffffffffffffffffffffffffffffffffffffffff168773ffffffffffffffffffffffffffffffffffffffff16141515156200014857600080fd5b600073ffffffffffffffffffffffffffffffffffffffff168673ffffffffffffffffffffffffffffffffffffffff16141515156200018557600080fd5b600073ffffffffffffffffffffffffffffffffffffffff168273ffffffffffffffffffffffffffffffffffffffff1614151515620001c257600080fd5b428510151515620001d257600080fd5b60008110158015620001e5575060648111155b1515620001f157600080fd5b8960019080519060200190620002099291906200036c565b508a601360006101000a81548173ffffffffffffffffffffffffffffffffffffffff021916908373ffffffffffffffffffffffffffffffffffffffff160217905550886005819055508760038190555086600260006101000a81548173ffffffffffffffffffffffffffffffffffffffff021916908373ffffffffffffffffffffffffffffffffffffffff160217905550856000806101000a81548173ffffffffffffffffffffffffffffffffffffffff021916908373ffffffffffffffffffffffffffffffffffffffff16021790555084600f819055508360069080519060200190620002f99291906200036c565b508260079080519060200190620003129291906200036c565b5081600860006101000a81548173ffffffffffffffffffffffffffffffffffffffff021916908373ffffffffffffffffffffffffffffffffffffffff1602179055508060128190555050505050505050505050506200041b565b828054600181600116156101000203166002900490600052602060002090601f016020900481019282601f10620003af57805160ff1916838001178555620003e0565b82800160010185558215620003e0579182015b82811115620003df578251825591602001919060010190620003c2565b5b509050620003ef9190620003f3565b5090565b6200041891905b8082111562000414576000816000905550600101620003fa565b5090565b90565b611b86806200042b6000396000f300608060405260043610610154576000357c0100000000000000000000000000000000000000000000000000000000900463ffffffff16806306fdde031461015f5780631515bc2b146101ef57806327e235e31461021e5780632c4e722e146102755780632e1a7d4d146102a0578063338cdca1146102c0578063355274ea146102f25780633d6df0d51461031d5780634042b66f146103ad57806345e4f34a146103d8578063495ef7051461042f57806349b905571461045a5780634b6753bc146104b55780634f935945146104e0578063521eb2731461050f578063590e1ae31461056657806368124f9a1461057d5780637284e416146105945780637eee498814610624578063c8e7f5951461067f578063e429cef1146106aa578063e44e76a0146106ed578063ea78d1ab1461071c578063ec8ac4d814610733578063fad5e0c414610769578063fc0c546a146107c0575b61015d33610817565b005b34801561016b57600080fd5b506101746108fc565b6040518080602001828103825283818151815260200191508051906020019080838360005b838110156101b4578082015181840152602081019050610199565b50505050905090810190601f1680156101e15780820380516001836020036101000a031916815260200191505b509250505060405180910390f35b3480156101fb57600080fd5b5061020461099a565b604051808215151515815260200191505060405180910390f35b34801561022a57600080fd5b5061025f600480360381019080803573ffffffffffffffffffffffffffffffffffffffff1690602001909291905050506109a6565b6040518082815260200191505060405180910390f35b34801561028157600080fd5b5061028a6109be565b6040518082815260200191505060405180910390f35b6102be600480360381019080803590602001909291905050506109c4565b005b3480156102cc57600080fd5b506102d5610ad6565b604051808381526020018281526020019250505060405180910390f35b3480156102fe57600080fd5b50610307610ae8565b6040518082815260200191505060405180910390f35b34801561032957600080fd5b50610332610aee565b6040518080602001828103825283818151815260200191508051906020019080838360005b83811015610372578082015181840152602081019050610357565b50505050905090810190601f16801561039f5780820380516001836020036101000a031916815260200191505b509250505060405180910390f35b3480156103b957600080fd5b506103c2610b8c565b6040518082815260200191505060405180910390f35b3480156103e457600080fd5b50610419600480360381019080803573ffffffffffffffffffffffffffffffffffffffff169060200190929190505050610b92565b6040518082815260200191505060405180910390f35b34801561043b57600080fd5b50610444610baa565b6040518082815260200191505060405180910390f35b34801561046657600080fd5b5061049b600480360381019080803573ffffffffffffffffffffffffffffffffffffffff169060200190929190505050610bb0565b604051808215151515815260200191505060405180910390f35b3480156104c157600080fd5b506104ca610c06565b6040518082815260200191505060405180910390f35b3480156104ec57600080fd5b506104f5610c0c565b604051808215151515815260200191505060405180910390f35b34801561051b57600080fd5b50610524610c1b565b604051808273ffffffffffffffffffffffffffffffffffffffff1673ffffffffffffffffffffffffffffffffffffffff16815260200191505060405180910390f35b34801561057257600080fd5b5061057b610c41565b005b34801561058957600080fd5b50610592610ec1565b005b3480156105a057600080fd5b506105a961129d565b6040518080602001828103825283818151815260200191508051906020019080838360005b838110156105e95780820151818401526020810190506105ce565b50505050905090810190601f1680156106165780820380516001836020036101000a031916815260200191505b509250505060405180910390f35b34801561063057600080fd5b50610665600480360381019080803573ffffffffffffffffffffffffffffffffffffffff16906020019092919050505061133b565b604051808215151515815260200191505060405180910390f35b34801561068b57600080fd5b506106946113ec565b6040518082815260200191505060405180910390f35b3480156106b657600080fd5b506106eb600480360381019080803573ffffffffffffffffffffffffffffffffffffffff1690602001909291905050506113f2565b005b3480156106f957600080fd5b506107026116eb565b604051808215151515815260200191505060405180910390f35b34801561072857600080fd5b506107316116fe565b005b610767600480360381019080803573ffffffffffffffffffffffffffffffffffffffff169060200190929190505050610817565b005b34801561077557600080fd5b5061077e61185c565b604051808273ffffffffffffffffffffffffffffffffffffffff1673ffffffffffffffffffffffffffffffffffffffff16815260200191505060405180910390f35b3480156107cc57600080fd5b506107d5611882565b604051808273ffffffffffffffffffffffffffffffffffffffff1673ffffffffffffffffffffffffffffffffffffffff16815260200191505060405180910390f35b600080600b60009054906101000a900460ff1680156108385750600f544211155b151561084357600080fd5b34915061085083836118a7565b610859826118f7565b90506108708260045461191590919063ffffffff16565b6004819055506108808382611933565b8273ffffffffffffffffffffffffffffffffffffffff163373ffffffffffffffffffffffffffffffffffffffff167f623b3804fa71d67900d064613da8f94b9617215ee90799290593e1745087ad188484604051808381526020018281526020019250505060405180910390a36108f78383611941565b505050565b60018054600181600116156101000203166002900480601f0160208091040260200160405190810160405280929190818152602001828054600181600116156101000203166002900480156109925780601f1061096757610100808354040283529160200191610992565b820191906000526020600020905b81548152906001019060200180831161097557829003601f168201915b505050505081565b6000600f544211905090565b60106020528060005260406000206000915090505481565b60035481565b600260009054906101000a900473ffffffffffffffffffffffffffffffffffffffff1673ffffffffffffffffffffffffffffffffffffffff163373ffffffffffffffffffffffffffffffffffffffff16141515610a2057600080fd5b600b60009054906101000a900460ff161515610a3b57600080fd5b610a43610c0c565b8015610a535750610a5261099a565b5b1515610a5e57600080fd5b600081118015610a8557503073ffffffffffffffffffffffffffffffffffffffff16318111155b1515610a9057600080fd5b6000600c60000154141515610aa457600080fd5b60408051908101604052808281526020016000815250600c600082015181600001556020820151816001015590505050565b600c8060000154908060010154905082565b60055481565b60078054600181600116156101000203166002900480601f016020809104026020016040519081016040528092919081815260200182805460018160011615610100020316600290048015610b845780601f10610b5957610100808354040283529160200191610b84565b820191906000526020600020905b815481529060010190602001808311610b6757829003601f168201915b505050505081565b60045481565b60116020528060005260406000206000915090505481565b60125481565b6000600960008373ffffffffffffffffffffffffffffffffffffffff1673ffffffffffffffffffffffffffffffffffffffff16815260200190815260200160002060009054906101000a900460ff169050919050565b600f5481565b60006005546004541015905090565b600260009054906101000a900473ffffffffffffffffffffffffffffffffffffffff1681565b600080610c4c61099a565b8015610c5d5750610c5b610c0c565b155b1515610c6857600080fd5b6000601060003373ffffffffffffffffffffffffffffffffffffffff1673ffffffffffffffffffffffffffffffffffffffff16815260200190815260200160002054111515610cb657600080fd5b601060003373ffffffffffffffffffffffffffffffffffffffff1673ffffffffffffffffffffffffffffffffffffffff168152602001908152602001600020549150601160003373ffffffffffffffffffffffffffffffffffffffff1673ffffffffffffffffffffffffffffffffffffffff1681526020019081526020016000205490506000601060003373ffffffffffffffffffffffffffffffffffffffff1673ffffffffffffffffffffffffffffffffffffffff168152602001908152602001600020819055506000809054906101000a900473ffffffffffffffffffffffffffffffffffffffff1673ffffffffffffffffffffffffffffffffffffffff1663d0482d0433836040518363ffffffff167c0100000000000000000000000000000000000000000000000000000000028152600401808373ffffffffffffffffffffffffffffffffffffffff1673ffffffffffffffffffffffffffffffffffffffff16815260200182815260200192505050600060405180830381600087803b158015610e4357600080fd5b505af1158015610e57573d6000803e3d6000fd5b50505050610e70826004546119e790919063ffffffff16565b6004819055503373ffffffffffffffffffffffffffffffffffffffff166108fc839081150290604051600060405180830381858888f19350505050158015610ebc573d6000803e3d6000fd5b505050565b6000806000600860009054906101000a900473ffffffffffffffffffffffffffffffffffffffff1673ffffffffffffffffffffffffffffffffffffffff166349b90557336040518263ffffffff167c0100000000000000000000000000000000000000000000000000000000028152600401808273ffffffffffffffffffffffffffffffffffffffff1673ffffffffffffffffffffffffffffffffffffffff168152602001915050602060405180830381600087803b158015610f8357600080fd5b505af1158015610f97573d6000803e3d6000fd5b505050506040513d6020811015610fad57600080fd5b81019080805190602001909291905050501515610fc957600080fd5b6000600c60000154111515610fdd57600080fd5b600c60020160003373ffffffffffffffffffffffffffffffffffffffff1673ffffffffffffffffffffffffffffffffffffffff16815260200190815260200160002060009054906101000a900460ff1615151561103957600080fd5b600b60009054906101000a900460ff16151561105457600080fd5b61105c610c0c565b801561106c575061106b61099a565b5b151561107757600080fd5b600960003373ffffffffffffffffffffffffffffffffffffffff1673ffffffffffffffffffffffffffffffffffffffff16815260200190815260200160002060009054906101000a900460ff1615156110cf57600080fd5b6001600c60020160003373ffffffffffffffffffffffffffffffffffffffff1673ffffffffffffffffffffffffffffffffffffffff16815260200190815260200160002060006101000a81548160ff021916908315150217905550600c60010160008154809291906001019190505550600a54600c60010154141561129857600c6000015492506040805190810160405280600081526020016000815250600c60008201518160000155602082015181600101559050506111ae6012546111a0606486611a0090919063ffffffff16565b611a1b90919063ffffffff16565b91506111c382846119e790919063ffffffff16565b9050601360009054906101000a900473ffffffffffffffffffffffffffffffffffffffff1673ffffffffffffffffffffffffffffffffffffffff166108fc839081150290604051600060405180830381858888f1935050505015801561122d573d6000803e3d6000fd5b50600260009054906101000a900473ffffffffffffffffffffffffffffffffffffffff1673ffffffffffffffffffffffffffffffffffffffff166108fc829081150290604051600060405180830381858888f19350505050158015611296573d6000803e3d6000fd5b505b505050565b60068054600181600116156101000203166002900480601f0160208091040260200160405190810160405280929190818152602001828054600181600116156101000203166002900480156113335780601f1061130857610100808354040283529160200191611333565b820191906000526020600020905b81548152906001019060200180831161131657829003601f168201915b505050505081565b6000600960008373ffffffffffffffffffffffffffffffffffffffff1673ffffffffffffffffffffffffffffffffffffffff16815260200190815260200160002060009054906101000a900460ff16151561139557600080fd5b600c60020160008373ffffffffffffffffffffffffffffffffffffffff1673ffffffffffffffffffffffffffffffffffffffff16815260200190815260200160002060009054906101000a900460ff169050919050565b600a5481565b600f54421115151561140357600080fd5b600b60009054906101000a900460ff1615151561141f57600080fd5b600860009054906101000a900473ffffffffffffffffffffffffffffffffffffffff1673ffffffffffffffffffffffffffffffffffffffff1663bceee05e336040518263ffffffff167c0100000000000000000000000000000000000000000000000000000000028152600401808273ffffffffffffffffffffffffffffffffffffffff1673ffffffffffffffffffffffffffffffffffffffff168152602001915050602060405180830381600087803b1580156114dc57600080fd5b505af11580156114f0573d6000803e3d6000fd5b505050506040513d602081101561150657600080fd5b8101908080519060200190929190505050151561152257600080fd5b600860009054906101000a900473ffffffffffffffffffffffffffffffffffffffff1673ffffffffffffffffffffffffffffffffffffffff166349b90557826040518263ffffffff167c0100000000000000000000000000000000000000000000000000000000028152600401808273ffffffffffffffffffffffffffffffffffffffff1673ffffffffffffffffffffffffffffffffffffffff168152602001915050602060405180830381600087803b1580156115df57600080fd5b505af11580156115f3573d6000803e3d6000fd5b505050506040513d602081101561160957600080fd5b8101908080519060200190929190505050151561162557600080fd5b600960008273ffffffffffffffffffffffffffffffffffffffff1673ffffffffffffffffffffffffffffffffffffffff16815260200190815260200160002060009054906101000a900460ff1615151561167e57600080fd5b6001600960008373ffffffffffffffffffffffffffffffffffffffff1673ffffffffffffffffffffffffffffffffffffffff16815260200190815260200160002060006101000a81548160ff021916908315150217905550600a6000815480929190600101919050555050565b600b60009054906101000a900460ff1681565b600f54421115151561170f57600080fd5b600b60009054906101000a900460ff1615151561172b57600080fd5b600860009054906101000a900473ffffffffffffffffffffffffffffffffffffffff1673ffffffffffffffffffffffffffffffffffffffff1663bceee05e336040518263ffffffff167c0100000000000000000000000000000000000000000000000000000000028152600401808273ffffffffffffffffffffffffffffffffffffffff1673ffffffffffffffffffffffffffffffffffffffff168152602001915050602060405180830381600087803b1580156117e857600080fd5b505af11580156117fc573d6000803e3d6000fd5b505050506040513d602081101561181257600080fd5b8101908080519060200190929190505050151561182e57600080fd5b6000600a5411151561183f57600080fd5b6001600b60006101000a81548160ff021916908315150217905550565b601360009054906101000a900473ffffffffffffffffffffffffffffffffffffffff1681565b6000809054906101000a900473ffffffffffffffffffffffffffffffffffffffff1681565b600073ffffffffffffffffffffffffffffffffffffffff168273ffffffffffffffffffffffffffffffffffffffff16141515156118e357600080fd5b600081141515156118f357600080fd5b5050565b600061190e60035483611a1b90919063ffffffff16565b9050919050565b600080828401905083811015151561192957fe5b8091505092915050565b61193d8282611a56565b5050565b80601060008473ffffffffffffffffffffffffffffffffffffffff1673ffffffffffffffffffffffffffffffffffffffff16815260200190815260200160002060008282540192505081905550611997816118f7565b601160008473ffffffffffffffffffffffffffffffffffffffff1673ffffffffffffffffffffffffffffffffffffffff168152602001908152602001600020600082825401925050819055505050565b60008282111515156119f557fe5b818303905092915050565b6000808284811515611a0e57fe5b0490508091505092915050565b6000806000841415611a305760009150611a4f565b8284029050828482811515611a4157fe5b04141515611a4b57fe5b8091505b5092915050565b6000809054906101000a900473ffffffffffffffffffffffffffffffffffffffff1673ffffffffffffffffffffffffffffffffffffffff166340c10f1983836040518363ffffffff167c0100000000000000000000000000000000000000000000000000000000028152600401808373ffffffffffffffffffffffffffffffffffffffff1673ffffffffffffffffffffffffffffffffffffffff16815260200182815260200192505050602060405180830381600087803b158015611b1a57600080fd5b505af1158015611b2e573d6000803e3d6000fd5b505050506040513d6020811015611b4457600080fd5b81019080805190602001909291905050505050505600a165627a7a72305820067974a9af12d4bff3c9b027050dd1683f3c58f6089b00df2f0c156cf3c17e520029a165627a7a7230582028157273af27ecb84c6a408ac9a90ca6fc4b5d68e17466c0f9e59365289aebb00029",
  "source": "pragma solidity ^0.4.24;\n\nimport \"./BREMFactory.sol\";\nimport \"./Userable.sol\";\nimport \"./BRMToken.sol\";\n\ncontract BREM is BREMFactory {\n\n    BRMToken public BRM;\n\n    constructor(\n        address _brmAddress,\n        uint256 _icoCreationPrice,\n        uint256 _withdrawFeePercent\n    ) \n    public \n    {\n        require(_withdrawFeePercent >= 0 && _withdrawFeePercent <=100);\n        BRM = BRMToken(_brmAddress);\n        icoCreationPrice = _icoCreationPrice;\n        withdrawFeePercent = _withdrawFeePercent;\n    }    \n    \n    function createBREMICO( \n        string _name, \n        string _symbol,\n        uint256 _rate,\n        uint256 _cap,\n        uint256 _closingTime,\n        string _description,\n        string _docHash\n    ) \n    public\n    onlyDeveloper\n    returns (address tokenAddress, address icoAddress)\n    {\n        require(BRM.balanceOf(msg.sender) >= icoCreationPrice);\n        require(bytes(_name).length > 0 && bytes(_symbol).length > 0);\n        require(indexes[_name] == 0);\n        \n        require(BRM.transferFrom(msg.sender, address(this), icoCreationPrice));\n        \n        \n        BREMToken token = new BREMToken(_name, _symbol);\n        tokenAddress = address(token);\n        \n        BREMICO ico = new BREMICO(\n            address(this),\n            _name,\n            _cap, \n            _rate,\n            msg.sender,\n            token,\n            _closingTime,\n            _description, \n            _docHash, \n            this,\n            withdrawFeePercent\n        );\n        icoAddress = address(ico);\n        token.transferOwnership(icoAddress);\n\n        projects[projectsAmount] = icoAddress;\n        indexes[_name] = projectsAmount;\n        projectsAmount++;\n        emit BREMICOCreated(msg.sender, icoAddress, tokenAddress, _name);\n    }\n    \n    // Withdraw collected fies\n    function withdrawFees(uint256 _value) \n        public \n        onlySuperuser\n     {\n        require(address(this).balance >= _value && _value > 0);\n        msg.sender.transfer(_value);\n    } \n\n    function () external payable {}    \n}",
  "sourcePath": "/Users/artur/Development/Brem/contracts/BREM.sol",
  "compiler": {
    "name": "solc",
    "version": "0.4.24+commit.e67f0147.Emscripten.clang"
  },
  "schemaVersion": "2.0.1",
  "updatedAt": "2018-08-04T17:48:51.453Z"
}