{
  "contractName": "BREM",
  "abi": [
    {
      "constant": true,
      "inputs": [
        {
          "name": "_operator",
          "type": "address"
        },
        {
          "name": "_role",
          "type": "string"
        }
      ],
      "name": "checkRole",
      "outputs": [],
      "payable": false,
      "stateMutability": "view",
      "type": "function"
    },
    {
      "constant": true,
      "inputs": [
        {
          "name": "_operator",
          "type": "address"
        },
        {
          "name": "_role",
          "type": "string"
        }
      ],
      "name": "hasRole",
      "outputs": [
        {
          "name": "",
          "type": "bool"
        }
      ],
      "payable": false,
      "stateMutability": "view",
      "type": "function"
    },
    {
      "constant": false,
      "inputs": [],
      "name": "addDeveloper",
      "outputs": [],
      "payable": false,
      "stateMutability": "nonpayable",
      "type": "function"
    },
    {
      "constant": true,
      "inputs": [],
      "name": "ROLE_AUDITOR",
      "outputs": [
        {
          "name": "",
          "type": "string"
        }
      ],
      "payable": false,
      "stateMutability": "view",
      "type": "function"
    },
    {
      "constant": false,
      "inputs": [
        {
          "name": "_withdrawFeePercent",
          "type": "uint256"
        }
      ],
      "name": "setWithdrawFeePercent",
      "outputs": [],
      "payable": false,
      "stateMutability": "nonpayable",
      "type": "function"
    },
    {
      "constant": true,
      "inputs": [],
      "name": "withdrawFeePercent",
      "outputs": [
        {
          "name": "",
          "type": "uint256"
        }
      ],
      "payable": false,
      "stateMutability": "view",
      "type": "function"
    },
    {
      "constant": true,
      "inputs": [
        {
          "name": "_addr",
          "type": "address"
        }
      ],
      "name": "isAuditor",
      "outputs": [
        {
          "name": "",
          "type": "bool"
        }
      ],
      "payable": false,
      "stateMutability": "view",
      "type": "function"
    },
    {
      "constant": true,
      "inputs": [
        {
          "name": "_projectName",
          "type": "string"
        }
      ],
      "name": "getProjectByName",
      "outputs": [
        {
          "name": "",
          "type": "address"
        }
      ],
      "payable": false,
      "stateMutability": "view",
      "type": "function"
    },
    {
      "constant": false,
      "inputs": [
        {
          "name": "_newSuperuser",
          "type": "address"
        }
      ],
      "name": "transferSuperuser",
      "outputs": [],
      "payable": false,
      "stateMutability": "nonpayable",
      "type": "function"
    },
    {
      "constant": true,
      "inputs": [
        {
          "name": "_addr",
          "type": "address"
        }
      ],
      "name": "isDeveloper",
      "outputs": [
        {
          "name": "",
          "type": "bool"
        }
      ],
      "payable": false,
      "stateMutability": "view",
      "type": "function"
    },
    {
      "constant": true,
      "inputs": [],
      "name": "icoCreationPrice",
      "outputs": [
        {
          "name": "",
          "type": "uint256"
        }
      ],
      "payable": false,
      "stateMutability": "view",
      "type": "function"
    },
    {
      "constant": true,
      "inputs": [],
      "name": "projectsAmount",
      "outputs": [
        {
          "name": "",
          "type": "uint256"
        }
      ],
      "payable": false,
      "stateMutability": "view",
      "type": "function"
    },
    {
      "constant": false,
      "inputs": [
        {
          "name": "_name",
          "type": "string"
        }
      ],
      "name": "signUp",
      "outputs": [
        {
          "name": "",
          "type": "string"
        }
      ],
      "payable": false,
      "stateMutability": "nonpayable",
      "type": "function"
    },
    {
      "constant": true,
      "inputs": [],
      "name": "login",
      "outputs": [
        {
          "name": "",
          "type": "string"
        }
      ],
      "payable": false,
      "stateMutability": "view",
      "type": "function"
    },
    {
      "constant": true,
      "inputs": [
        {
          "name": "_addr",
          "type": "address"
        }
      ],
      "name": "isSuperuser",
      "outputs": [
        {
          "name": "",
          "type": "bool"
        }
      ],
      "payable": false,
      "stateMutability": "view",
      "type": "function"
    },
    {
      "constant": true,
      "inputs": [],
      "name": "BRM",
      "outputs": [
        {
          "name": "",
          "type": "address"
        }
      ],
      "payable": false,
      "stateMutability": "view",
      "type": "function"
    },
    {
      "constant": false,
      "inputs": [
        {
          "name": "_icoCreationPrice",
          "type": "uint256"
        }
      ],
      "name": "setIcoCreationPrice",
      "outputs": [],
      "payable": false,
      "stateMutability": "nonpayable",
      "type": "function"
    },
    {
      "constant": true,
      "inputs": [],
      "name": "ROLE_DEVELOPER",
      "outputs": [
        {
          "name": "",
          "type": "string"
        }
      ],
      "payable": false,
      "stateMutability": "view",
      "type": "function"
    },
    {
      "constant": false,
      "inputs": [
        {
          "name": "_newAuditor",
          "type": "address"
        }
      ],
      "name": "addAuditor",
      "outputs": [],
      "payable": false,
      "stateMutability": "nonpayable",
      "type": "function"
    },
    {
      "constant": false,
      "inputs": [
        {
          "name": "_auditor",
          "type": "address"
        }
      ],
      "name": "removeAuditor",
      "outputs": [],
      "payable": false,
      "stateMutability": "nonpayable",
      "type": "function"
    },
    {
      "constant": true,
      "inputs": [],
      "name": "ROLE_SUPERUSER",
      "outputs": [
        {
          "name": "",
          "type": "string"
        }
      ],
      "payable": false,
      "stateMutability": "view",
      "type": "function"
    },
    {
      "constant": true,
      "inputs": [
        {
          "name": "_index",
          "type": "uint256"
        }
      ],
      "name": "getProject",
      "outputs": [
        {
          "name": "",
          "type": "address"
        }
      ],
      "payable": false,
      "stateMutability": "view",
      "type": "function"
    },
    {
      "inputs": [
        {
          "name": "_brmAddress",
          "type": "address"
        },
        {
          "name": "_icoCreationPrice",
          "type": "uint256"
        },
        {
          "name": "_withdrawFeePercent",
          "type": "uint256"
        }
      ],
      "payable": false,
      "stateMutability": "nonpayable",
      "type": "constructor"
    },
    {
      "anonymous": false,
      "inputs": [
        {
          "indexed": true,
          "name": "creator",
          "type": "address"
        },
        {
          "indexed": true,
          "name": "icoAddress",
          "type": "address"
        },
        {
          "indexed": true,
          "name": "tokenAddress",
          "type": "address"
        },
        {
          "indexed": false,
          "name": "name",
          "type": "string"
        }
      ],
      "name": "BREMICOCreated",
      "type": "event"
    },
    {
      "anonymous": false,
      "inputs": [
        {
          "indexed": true,
          "name": "operator",
          "type": "address"
        },
        {
          "indexed": false,
          "name": "role",
          "type": "string"
        }
      ],
      "name": "RoleAdded",
      "type": "event"
    },
    {
      "anonymous": false,
      "inputs": [
        {
          "indexed": true,
          "name": "operator",
          "type": "address"
        },
        {
          "indexed": false,
          "name": "role",
          "type": "string"
        }
      ],
      "name": "RoleRemoved",
      "type": "event"
    },
    {
      "constant": false,
      "inputs": [
        {
          "name": "_name",
          "type": "string"
        },
        {
          "name": "_symbol",
          "type": "string"
        },
        {
          "name": "_rate",
          "type": "uint256"
        },
        {
          "name": "_cap",
          "type": "uint256"
        },
        {
          "name": "_closingTime",
          "type": "uint256"
        },
        {
          "name": "_description",
          "type": "string"
        },
        {
          "name": "_docHash",
          "type": "bytes32"
        }
      ],
      "name": "createBREMICO",
      "outputs": [
        {
          "name": "tokenAddress",
          "type": "address"
        },
        {
          "name": "icoAddress",
          "type": "address"
        }
      ],
      "payable": false,
      "stateMutability": "nonpayable",
      "type": "function"
    },
    {
      "constant": false,
      "inputs": [
        {
          "name": "_value",
          "type": "uint256"
        }
      ],
      "name": "withdrawFees",
      "outputs": [],
      "payable": false,
      "stateMutability": "nonpayable",
      "type": "function"
    }
  ],
  "bytecode": "0x60806040523480156200001157600080fd5b50604051606080620061a383398101806040528101908080519060200190929190805190602001909291908051906020019092919050505062000099336040805190810160405280600981526020017f7375706572757365720000000000000000000000000000000000000000000000815250620000f1640100000000026401000000009004565b82600760006101000a81548173ffffffffffffffffffffffffffffffffffffffff021916908373ffffffffffffffffffffffffffffffffffffffff160217905550816005819055508060068190555050505062000298565b62000180826000836040518082805190602001908083835b60208310151562000130578051825260208201915060208101905060208303925062000109565b6001836020036101000a03801982511681845116808217855250505050505090500191505090815260200160405180910390206200023a64010000000002620023a0179091906401000000009004565b8173ffffffffffffffffffffffffffffffffffffffff167fbfec83d64eaa953f2708271a023ab9ee82057f8f3578d548c1a4ba0b5b700489826040518080602001828103825283818151815260200191508051906020019080838360005b83811015620001fb578082015181840152602081019050620001de565b50505050905090810190601f168015620002295780820380516001836020036101000a031916815260200191505b509250505060405180910390a25050565b60018260000160008373ffffffffffffffffffffffffffffffffffffffff1673ffffffffffffffffffffffffffffffffffffffff16815260200190815260200160002060006101000a81548160ff0219169083151502179055505050565b615efb80620002a86000396000f30060806040526004361062000157576000357c0100000000000000000000000000000000000000000000000000000000900463ffffffff1680630988ca8c146200015c578063217fe6c614620001e85780632b7d7489146200028c578063359845f014620002a65780633f029aaf146200043d578063447cb89614620004d3578063495ef705146200050357806349b9055714620005315780634b77f269146200058f57806357c393fa146200063b5780635e318e0714620006815780635eca4a7014620006b157806380d2370f146200070f5780639cdd9913146200073d578063adcfb4fc146200076b578063b34e97e81462000853578063bceee05e14620008e9578063bfb770301462000947578063c4f9181014620009a1578063e31cd22e14620009d1578063e429cef11462000a67578063e6116cfd1462000aad578063ebb4f4841462000af3578063f0f3f2c81462000b89575b600080fd5b3480156200016957600080fd5b50620001e6600480360381019080803573ffffffffffffffffffffffffffffffffffffffff169060200190929190803590602001908201803590602001908080601f016020809104026020016040519081016040528093929190818152602001838380828437820191505050505050919291929050505062000bf9565b005b348015620001f557600080fd5b5062000272600480360381019080803573ffffffffffffffffffffffffffffffffffffffff169060200190929190803590602001908201803590602001908080601f016020809104026020016040519081016040528093929190818152602001838380828437820191505050505050919291929050505062000c7e565b604051808215151515815260200191505060405180910390f35b3480156200029957600080fd5b50620002a462000d09565b005b348015620002b357600080fd5b50620003c8600480360381019080803590602001908201803590602001908080601f0160208091040260200160405190810160405280939291908181526020018383808284378201915050505050509192919290803590602001908201803590602001908080601f0160208091040260200160405190810160405280939291908181526020018383808284378201915050505050509192919290803590602001909291908035906020019092919080359060200190929190803590602001908201803590602001908080601f0160208091040260200160405190810160405280939291908181526020018383808284378201915050505050509192919290803560001916906020019092919050505062000d89565b604051808373ffffffffffffffffffffffffffffffffffffffff1673ffffffffffffffffffffffffffffffffffffffff1681526020018273ffffffffffffffffffffffffffffffffffffffff1673ffffffffffffffffffffffffffffffffffffffff1681526020019250505060405180910390f35b3480156200044a57600080fd5b506200045562001660565b6040518080602001828103825283818151815260200191508051906020019080838360005b83811015620004975780820151818401526020810190506200047a565b50505050905090810190601f168015620004c55780820380516001836020036101000a031916815260200191505b509250505060405180910390f35b348015620004e057600080fd5b50620005016004803603810190808035906020019092919050505062001699565b005b3480156200051057600080fd5b506200051b62001715565b6040518082815260200191505060405180910390f35b3480156200053e57600080fd5b5062000575600480360381019080803573ffffffffffffffffffffffffffffffffffffffff1690602001909291905050506200171b565b604051808215151515815260200191505060405180910390f35b3480156200059c57600080fd5b50620005f9600480360381019080803590602001908201803590602001908080601f016020809104026020016040519081016040528093929190818152602001838380828437820191505050505050919291929050505062001765565b604051808273ffffffffffffffffffffffffffffffffffffffff1673ffffffffffffffffffffffffffffffffffffffff16815260200191505060405180910390f35b3480156200064857600080fd5b506200067f600480360381019080803573ffffffffffffffffffffffffffffffffffffffff16906020019092919050505062001895565b005b3480156200068e57600080fd5b50620006af6004803603810190808035906020019092919050505062001998565b005b348015620006be57600080fd5b50620006f5600480360381019080803573ffffffffffffffffffffffffffffffffffffffff16906020019092919050505062001a58565b604051808215151515815260200191505060405180910390f35b3480156200071c57600080fd5b506200072762001aa2565b6040518082815260200191505060405180910390f35b3480156200074a57600080fd5b506200075562001aa8565b6040518082815260200191505060405180910390f35b3480156200077857600080fd5b50620007d5600480360381019080803590602001908201803590602001908080601f016020809104026020016040519081016040528093929190818152602001838380828437820191505050505050919291929050505062001aae565b6040518080602001828103825283818151815260200191508051906020019080838360005b8381101562000817578082015181840152602081019050620007fa565b50505050905090810190601f168015620008455780820380516001836020036101000a031916815260200191505b509250505060405180910390f35b3480156200086057600080fd5b506200086b62001c95565b6040518080602001828103825283818151815260200191508051906020019080838360005b83811015620008ad57808201518184015260208101905062000890565b50505050905090810190601f168015620008db5780820380516001836020036101000a031916815260200191505b509250505060405180910390f35b348015620008f657600080fd5b506200092d600480360381019080803573ffffffffffffffffffffffffffffffffffffffff16906020019092919050505062001de1565b604051808215151515815260200191505060405180910390f35b3480156200095457600080fd5b506200095f62001e2b565b604051808273ffffffffffffffffffffffffffffffffffffffff1673ffffffffffffffffffffffffffffffffffffffff16815260200191505060405180910390f35b348015620009ae57600080fd5b50620009cf6004803603810190808035906020019092919050505062001e51565b005b348015620009de57600080fd5b50620009e962001eae565b6040518080602001828103825283818151815260200191508051906020019080838360005b8381101562000a2b57808201518184015260208101905062000a0e565b50505050905090810190601f16801562000a595780820380516001836020036101000a031916815260200191505b509250505060405180910390f35b34801562000a7457600080fd5b5062000aab600480360381019080803573ffffffffffffffffffffffffffffffffffffffff16906020019092919050505062001ee7565b005b34801562000aba57600080fd5b5062000af1600480360381019080803573ffffffffffffffffffffffffffffffffffffffff16906020019092919050505062001fa9565b005b34801562000b0057600080fd5b5062000b0b6200202e565b6040518080602001828103825283818151815260200191508051906020019080838360005b8381101562000b4d57808201518184015260208101905062000b30565b50505050905090810190601f16801562000b7b5780820380516001836020036101000a031916815260200191505b509250505060405180910390f35b34801562000b9657600080fd5b5062000bb76004803603810190808035906020019092919050505062002067565b604051808273ffffffffffffffffffffffffffffffffffffffff1673ffffffffffffffffffffffffffffffffffffffff16815260200191505060405180910390f35b62000c7a826000836040518082805190602001908083835b60208310151562000c38578051825260208201915060208101905060208303925062000c11565b6001836020036101000a0380198251168184511680821785525050505050509050019150509081526020016040518091039020620020b590919063ffffffff16565b5050565b600062000d01836000846040518082805190602001908083835b60208310151562000cbf578051825260208201915060208101905060208303925062000c98565b6001836020036101000a0380198251168184511680821785525050505050509050019150509081526020016040518091039020620020d190919063ffffffff16565b905092915050565b600073ffffffffffffffffffffffffffffffffffffffff163373ffffffffffffffffffffffffffffffffffffffff161415151562000d4657600080fd5b62000d87336040805190810160405280600981526020017f646576656c6f70657200000000000000000000000000000000000000000000008152506200212a565b565b60008060008062000dd0336040805190810160405280600981526020017f646576656c6f706572000000000000000000000000000000000000000000000081525062000bf9565b600554600760009054906101000a900473ffffffffffffffffffffffffffffffffffffffff1673ffffffffffffffffffffffffffffffffffffffff166370a08231336040518263ffffffff167c0100000000000000000000000000000000000000000000000000000000028152600401808273ffffffffffffffffffffffffffffffffffffffff1673ffffffffffffffffffffffffffffffffffffffff168152602001915050602060405180830381600087803b15801562000e9157600080fd5b505af115801562000ea6573d6000803e3d6000fd5b505050506040513d602081101562000ebd57600080fd5b81019080805190602001909291905050501015151562000edc57600080fd5b60008b5111801562000eef575060008a51115b151562000efb57600080fd5b600060048c6040518082805190602001908083835b60208310151562000f37578051825260208201915060208101905060208303925062000f10565b6001836020036101000a03801982511681845116808217855250505050505090500191505090815260200160405180910390205414151562000f7857600080fd5b600760009054906101000a900473ffffffffffffffffffffffffffffffffffffffff1673ffffffffffffffffffffffffffffffffffffffff166323b872dd33306005546040518463ffffffff167c0100000000000000000000000000000000000000000000000000000000028152600401808473ffffffffffffffffffffffffffffffffffffffff1673ffffffffffffffffffffffffffffffffffffffff1681526020018373ffffffffffffffffffffffffffffffffffffffff1673ffffffffffffffffffffffffffffffffffffffff1681526020018281526020019350505050602060405180830381600087803b1580156200107457600080fd5b505af115801562001089573d6000803e3d6000fd5b505050506040513d6020811015620010a057600080fd5b81019080805190602001909291905050501515620010bd57600080fd5b8a8a620010c96200245c565b808060200180602001838103835285818151815260200191508051906020019080838360005b838110156200110c578082015181840152602081019050620010ef565b50505050905090810190601f1680156200113a5780820380516001836020036101000a031916815260200191505b50838103825284818151815260200191508051906020019080838360005b838110156200117557808201518184015260208101905062001158565b50505050905090810190601f168015620011a35780820380516001836020036101000a031916815260200191505b50945050505050604051809103906000f080158015620011c7573d6000803e3d6000fd5b509150819350308b898b33868c8c8c30600654620011e46200246d565b808c73ffffffffffffffffffffffffffffffffffffffff1673ffffffffffffffffffffffffffffffffffffffff168152602001806020018b81526020018a81526020018973ffffffffffffffffffffffffffffffffffffffff1673ffffffffffffffffffffffffffffffffffffffff1681526020018873ffffffffffffffffffffffffffffffffffffffff1673ffffffffffffffffffffffffffffffffffffffff1681526020018781526020018060200186600019166000191681526020018573ffffffffffffffffffffffffffffffffffffffff1673ffffffffffffffffffffffffffffffffffffffff16815260200184815260200183810383528d818151815260200191508051906020019080838360005b8381101562001315578082015181840152602081019050620012f8565b50505050905090810190601f168015620013435780820380516001836020036101000a031916815260200191505b50838103825287818151815260200191508051906020019080838360005b838110156200137e57808201518184015260208101905062001361565b50505050905090810190601f168015620013ac5780820380516001836020036101000a031916815260200191505b509d5050505050505050505050505050604051809103906000f080158015620013d9573d6000803e3d6000fd5b5090508092508173ffffffffffffffffffffffffffffffffffffffff1663f2fde38b846040518263ffffffff167c0100000000000000000000000000000000000000000000000000000000028152600401808273ffffffffffffffffffffffffffffffffffffffff1673ffffffffffffffffffffffffffffffffffffffff168152602001915050600060405180830381600087803b1580156200147b57600080fd5b505af115801562001490573d6000803e3d6000fd5b505050508260036000600254815260200190815260200160002060006101000a81548173ffffffffffffffffffffffffffffffffffffffff021916908373ffffffffffffffffffffffffffffffffffffffff16021790555060025460048c6040518082805190602001908083835b602083101515620015255780518252602082019150602081019050602083039250620014fe565b6001836020036101000a0380198251168184511680821785525050505050509050019150509081526020016040518091039020819055506002600081548092919060010191905055508373ffffffffffffffffffffffffffffffffffffffff168373ffffffffffffffffffffffffffffffffffffffff163373ffffffffffffffffffffffffffffffffffffffff167fcbef3bd4943085dfb59f0609e5f754aec11e22a5838e77e0d0c0bff98a0dcdae8e6040518080602001828103825283818151815260200191508051906020019080838360005b8381101562001617578082015181840152602081019050620015fa565b50505050905090810190601f168015620016455780820380516001836020036101000a031916815260200191505b509250505060405180910390a4505097509795505050505050565b6040805190810160405280600781526020017f61756469746f720000000000000000000000000000000000000000000000000081525081565b620016da336040805190810160405280600981526020017f737570657275736572000000000000000000000000000000000000000000000081525062000bf9565b6006548114151515620016ec57600080fd5b60008110158015620016ff575060648111155b15156200170b57600080fd5b8060068190555050565b60065481565b60006200175e826040805190810160405280600781526020017f61756469746f720000000000000000000000000000000000000000000000000081525062000c7e565b9050919050565b600080600083511115156200177957600080fd5b6004836040518082805190602001908083835b602083101515620017b357805182526020820191506020810190506020830392506200178c565b6001836020036101000a0380198251168184511680821785525050505050509050019150509081526020016040518091039020549050600073ffffffffffffffffffffffffffffffffffffffff166003600083815260200190815260200160002060009054906101000a900473ffffffffffffffffffffffffffffffffffffffff1673ffffffffffffffffffffffffffffffffffffffff16141515156200185957600080fd5b6003600082815260200190815260200160002060009054906101000a900473ffffffffffffffffffffffffffffffffffffffff16915050919050565b620018d6336040805190810160405280600981526020017f737570657275736572000000000000000000000000000000000000000000000081525062000bf9565b600073ffffffffffffffffffffffffffffffffffffffff168173ffffffffffffffffffffffffffffffffffffffff16141515156200191357600080fd5b62001954336040805190810160405280600981526020017f737570657275736572000000000000000000000000000000000000000000000081525062002265565b62001995816040805190810160405280600981526020017f73757065727573657200000000000000000000000000000000000000000000008152506200212a565b50565b620019d9336040805190810160405280600981526020017f737570657275736572000000000000000000000000000000000000000000000081525062000bf9565b803073ffffffffffffffffffffffffffffffffffffffff16311015801562001a015750600081115b151562001a0d57600080fd5b3373ffffffffffffffffffffffffffffffffffffffff166108fc829081150290604051600060405180830381858888f1935050505015801562001a54573d6000803e3d6000fd5b5050565b600062001a9b826040805190810160405280600981526020017f646576656c6f706572000000000000000000000000000000000000000000000081525062000c7e565b9050919050565b60055481565b60025481565b6060816000815111151562001ac257600080fd5b6000600160003373ffffffffffffffffffffffffffffffffffffffff1673ffffffffffffffffffffffffffffffffffffffff168152602001908152602001600020600001805460018160011615610100020316600290049050141562001b7c5782600160003373ffffffffffffffffffffffffffffffffffffffff1673ffffffffffffffffffffffffffffffffffffffff168152602001908152602001600020600001908051906020019062001b7a9291906200247e565b505b62001b873362001de1565b15801562001b9d575062001b9b336200171b565b155b1562001bae5762001bad62000d09565b5b600160003373ffffffffffffffffffffffffffffffffffffffff1673ffffffffffffffffffffffffffffffffffffffff1681526020019081526020016000206000018054600181600116156101000203166002900480601f01602080910402602001604051908101604052809291908181526020018280546001816001161561010002031660029004801562001c885780601f1062001c5c5761010080835404028352916020019162001c88565b820191906000526020600020905b81548152906001019060200180831162001c6a57829003601f168201915b5050505050915050919050565b60606000600160003373ffffffffffffffffffffffffffffffffffffffff1673ffffffffffffffffffffffffffffffffffffffff16815260200190815260200160002060000180546001816001161561010002031660029004905011151562001cfd57600080fd5b600160003373ffffffffffffffffffffffffffffffffffffffff1673ffffffffffffffffffffffffffffffffffffffff1681526020019081526020016000206000018054600181600116156101000203166002900480601f01602080910402602001604051908101604052809291908181526020018280546001816001161561010002031660029004801562001dd75780601f1062001dab5761010080835404028352916020019162001dd7565b820191906000526020600020905b81548152906001019060200180831162001db957829003601f168201915b5050505050905090565b600062001e24826040805190810160405280600981526020017f737570657275736572000000000000000000000000000000000000000000000081525062000c7e565b9050919050565b600760009054906101000a900473ffffffffffffffffffffffffffffffffffffffff1681565b62001e92336040805190810160405280600981526020017f737570657275736572000000000000000000000000000000000000000000000081525062000bf9565b600554811415151562001ea457600080fd5b8060058190555050565b6040805190810160405280600981526020017f646576656c6f706572000000000000000000000000000000000000000000000081525081565b62001f28336040805190810160405280600981526020017f737570657275736572000000000000000000000000000000000000000000000081525062000bf9565b600073ffffffffffffffffffffffffffffffffffffffff168173ffffffffffffffffffffffffffffffffffffffff161415151562001f6557600080fd5b62001fa6816040805190810160405280600781526020017f61756469746f72000000000000000000000000000000000000000000000000008152506200212a565b50565b62001fea336040805190810160405280600981526020017f737570657275736572000000000000000000000000000000000000000000000081525062000bf9565b6200202b816040805190810160405280600781526020017f61756469746f720000000000000000000000000000000000000000000000000081525062002265565b50565b6040805190810160405280600981526020017f737570657275736572000000000000000000000000000000000000000000000081525081565b6000600254821015156200207a57600080fd5b6003600083815260200190815260200160002060009054906101000a900473ffffffffffffffffffffffffffffffffffffffff169050919050565b620020c18282620020d1565b1515620020cd57600080fd5b5050565b60008260000160008373ffffffffffffffffffffffffffffffffffffffff1673ffffffffffffffffffffffffffffffffffffffff16815260200190815260200160002060009054906101000a900460ff16905092915050565b620021ab826000836040518082805190602001908083835b60208310151562002169578051825260208201915060208101905060208303925062002142565b6001836020036101000a0380198251168184511680821785525050505050509050019150509081526020016040518091039020620023a090919063ffffffff16565b8173ffffffffffffffffffffffffffffffffffffffff167fbfec83d64eaa953f2708271a023ab9ee82057f8f3578d548c1a4ba0b5b700489826040518080602001828103825283818151815260200191508051906020019080838360005b838110156200222657808201518184015260208101905062002209565b50505050905090810190601f168015620022545780820380516001836020036101000a031916815260200191505b509250505060405180910390a25050565b620022e6826000836040518082805190602001908083835b602083101515620022a457805182526020820191506020810190506020830392506200227d565b6001836020036101000a0380198251168184511680821785525050505050509050019150509081526020016040518091039020620023fe90919063ffffffff16565b8173ffffffffffffffffffffffffffffffffffffffff167fd211483f91fc6eff862467f8de606587a30c8fc9981056f051b897a418df803a826040518080602001828103825283818151815260200191508051906020019080838360005b838110156200236157808201518184015260208101905062002344565b50505050905090810190601f1680156200238f5780820380516001836020036101000a031916815260200191505b509250505060405180910390a25050565b60018260000160008373ffffffffffffffffffffffffffffffffffffffff1673ffffffffffffffffffffffffffffffffffffffff16815260200190815260200160002060006101000a81548160ff0219169083151502179055505050565b60008260000160008373ffffffffffffffffffffffffffffffffffffffff1673ffffffffffffffffffffffffffffffffffffffff16815260200190815260200160002060006101000a81548160ff0219169083151502179055505050565b604051611cc7806200252e83390190565b604051611cdb80620041f583390190565b828054600181600116156101000203166002900490600052602060002090601f016020900481019282601f10620024c157805160ff1916838001178555620024f2565b82800160010185558215620024f2579182015b82811115620024f1578251825591602001919060010190620024d4565b5b50905062002501919062002505565b5090565b6200252a91905b80821115620025265760008160009055506001016200250c565b5090565b90560060806040526000600360146101000a81548160ff0219169083151502179055503480156200002c57600080fd5b5060405162001cc738038062001cc7833981018060405281019080805182019291906020018051820192919050505033600360006101000a81548173ffffffffffffffffffffffffffffffffffffffff021916908373ffffffffffffffffffffffffffffffffffffffff1602179055508160049080519060200190620000b4929190620000d6565b508060059080519060200190620000cd929190620000d6565b50505062000185565b828054600181600116156101000203166002900490600052602060002090601f016020900481019282601f106200011957805160ff19168380011785556200014a565b828001600101855582156200014a579182015b82811115620001495782518255916020019190600101906200012c565b5b5090506200015991906200015d565b5090565b6200018291905b808211156200017e57600081600090555060010162000164565b5090565b90565b611b3280620001956000396000f3006080604052600436106100f1576000357c0100000000000000000000000000000000000000000000000000000000900463ffffffff16806305d2035b146100f657806306fdde0314610125578063095ea7b3146101b557806318160ddd1461021a57806323b872dd14610245578063313ce567146102ca57806340c10f19146102fb578063661884631461036057806370a08231146103c55780637d64bcb41461041c5780638da5cb5b1461044b57806395d89b41146104a2578063a9059cbb14610532578063d0482d0414610597578063d73dd623146105e4578063dd62ed3e14610649578063f2fde38b146106c0575b600080fd5b34801561010257600080fd5b5061010b610703565b604051808215151515815260200191505060405180910390f35b34801561013157600080fd5b5061013a610716565b6040518080602001828103825283818151815260200191508051906020019080838360005b8381101561017a57808201518184015260208101905061015f565b50505050905090810190601f1680156101a75780820380516001836020036101000a031916815260200191505b509250505060405180910390f35b3480156101c157600080fd5b50610200600480360381019080803573ffffffffffffffffffffffffffffffffffffffff169060200190929190803590602001909291905050506107b4565b604051808215151515815260200191505060405180910390f35b34801561022657600080fd5b5061022f6108a6565b6040518082815260200191505060405180910390f35b34801561025157600080fd5b506102b0600480360381019080803573ffffffffffffffffffffffffffffffffffffffff169060200190929190803573ffffffffffffffffffffffffffffffffffffffff169060200190929190803590602001909291905050506108ac565b604051808215151515815260200191505060405180910390f35b3480156102d657600080fd5b506102df610c6b565b604051808260ff1660ff16815260200191505060405180910390f35b34801561030757600080fd5b50610346600480360381019080803573ffffffffffffffffffffffffffffffffffffffff16906020019092919080359060200190929190505050610c70565b604051808215151515815260200191505060405180910390f35b34801561036c57600080fd5b506103ab600480360381019080803573ffffffffffffffffffffffffffffffffffffffff16906020019092919080359060200190929190505050610e58565b604051808215151515815260200191505060405180910390f35b3480156103d157600080fd5b50610406600480360381019080803573ffffffffffffffffffffffffffffffffffffffff1690602001909291905050506110e9565b6040518082815260200191505060405180910390f35b34801561042857600080fd5b50610431611132565b604051808215151515815260200191505060405180910390f35b34801561045757600080fd5b506104606111fa565b604051808273ffffffffffffffffffffffffffffffffffffffff1673ffffffffffffffffffffffffffffffffffffffff16815260200191505060405180910390f35b3480156104ae57600080fd5b506104b7611220565b6040518080602001828103825283818151815260200191508051906020019080838360005b838110156104f75780820151818401526020810190506104dc565b50505050905090810190601f1680156105245780820380516001836020036101000a031916815260200191505b509250505060405180910390f35b34801561053e57600080fd5b5061057d600480360381019080803573ffffffffffffffffffffffffffffffffffffffff169060200190929190803590602001909291905050506112be565b604051808215151515815260200191505060405180910390f35b3480156105a357600080fd5b506105e2600480360381019080803573ffffffffffffffffffffffffffffffffffffffff169060200190929190803590602001909291905050506114e2565b005b3480156105f057600080fd5b5061062f600480360381019080803573ffffffffffffffffffffffffffffffffffffffff169060200190929190803590602001909291905050506116f4565b604051808215151515815260200191505060405180910390f35b34801561065557600080fd5b506106aa600480360381019080803573ffffffffffffffffffffffffffffffffffffffff169060200190929190803573ffffffffffffffffffffffffffffffffffffffff1690602001909291905050506118f0565b6040518082815260200191505060405180910390f35b3480156106cc57600080fd5b50610701600480360381019080803573ffffffffffffffffffffffffffffffffffffffff169060200190929190505050611977565b005b600360149054906101000a900460ff1681565b60048054600181600116156101000203166002900480601f0160208091040260200160405190810160405280929190818152602001828054600181600116156101000203166002900480156107ac5780601f10610781576101008083540402835291602001916107ac565b820191906000526020600020905b81548152906001019060200180831161078f57829003601f168201915b505050505081565b600081600260003373ffffffffffffffffffffffffffffffffffffffff1673ffffffffffffffffffffffffffffffffffffffff16815260200190815260200160002060008573ffffffffffffffffffffffffffffffffffffffff1673ffffffffffffffffffffffffffffffffffffffff168152602001908152602001600020819055508273ffffffffffffffffffffffffffffffffffffffff163373ffffffffffffffffffffffffffffffffffffffff167f8c5be1e5ebec7d5bd14f71427d1e84f3dd0314c0f7b2291e5b200ac8c7c3b925846040518082815260200191505060405180910390a36001905092915050565b60005481565b60008073ffffffffffffffffffffffffffffffffffffffff168373ffffffffffffffffffffffffffffffffffffffff16141515156108e957600080fd5b600160008573ffffffffffffffffffffffffffffffffffffffff1673ffffffffffffffffffffffffffffffffffffffff16815260200190815260200160002054821115151561093757600080fd5b600260008573ffffffffffffffffffffffffffffffffffffffff1673ffffffffffffffffffffffffffffffffffffffff16815260200190815260200160002060003373ffffffffffffffffffffffffffffffffffffffff1673ffffffffffffffffffffffffffffffffffffffff1681526020019081526020016000205482111515156109c257600080fd5b610a1482600160008773ffffffffffffffffffffffffffffffffffffffff1673ffffffffffffffffffffffffffffffffffffffff16815260200190815260200160002054611acf90919063ffffffff16565b600160008673ffffffffffffffffffffffffffffffffffffffff1673ffffffffffffffffffffffffffffffffffffffff16815260200190815260200160002081905550610aa982600160008673ffffffffffffffffffffffffffffffffffffffff1673ffffffffffffffffffffffffffffffffffffffff16815260200190815260200160002054611ae890919063ffffffff16565b600160008573ffffffffffffffffffffffffffffffffffffffff1673ffffffffffffffffffffffffffffffffffffffff16815260200190815260200160002081905550610b7b82600260008773ffffffffffffffffffffffffffffffffffffffff1673ffffffffffffffffffffffffffffffffffffffff16815260200190815260200160002060003373ffffffffffffffffffffffffffffffffffffffff1673ffffffffffffffffffffffffffffffffffffffff16815260200190815260200160002054611acf90919063ffffffff16565b600260008673ffffffffffffffffffffffffffffffffffffffff1673ffffffffffffffffffffffffffffffffffffffff16815260200190815260200160002060003373ffffffffffffffffffffffffffffffffffffffff1673ffffffffffffffffffffffffffffffffffffffff168152602001908152602001600020819055508273ffffffffffffffffffffffffffffffffffffffff168473ffffffffffffffffffffffffffffffffffffffff167fddf252ad1be2c89b69c2b068fc378daa952ba7f163c4a11628f55a4df523b3ef846040518082815260200191505060405180910390a3600190509392505050565b601281565b6000600360009054906101000a900473ffffffffffffffffffffffffffffffffffffffff1673ffffffffffffffffffffffffffffffffffffffff163373ffffffffffffffffffffffffffffffffffffffff16141515610cce57600080fd5b600360149054906101000a900460ff16151515610cea57600080fd5b610cff82600054611ae890919063ffffffff16565b600081905550610d5782600160008673ffffffffffffffffffffffffffffffffffffffff1673ffffffffffffffffffffffffffffffffffffffff16815260200190815260200160002054611ae890919063ffffffff16565b600160008573ffffffffffffffffffffffffffffffffffffffff1673ffffffffffffffffffffffffffffffffffffffff168152602001908152602001600020819055508273ffffffffffffffffffffffffffffffffffffffff167f0f6798a560793a54c3bcfe86a93cde1e73087d944c0ea20544137d4121396885836040518082815260200191505060405180910390a28273ffffffffffffffffffffffffffffffffffffffff16600073ffffffffffffffffffffffffffffffffffffffff167fddf252ad1be2c89b69c2b068fc378daa952ba7f163c4a11628f55a4df523b3ef846040518082815260200191505060405180910390a36001905092915050565b600080600260003373ffffffffffffffffffffffffffffffffffffffff1673ffffffffffffffffffffffffffffffffffffffff16815260200190815260200160002060008573ffffffffffffffffffffffffffffffffffffffff1673ffffffffffffffffffffffffffffffffffffffff16815260200190815260200160002054905080831115610f69576000600260003373ffffffffffffffffffffffffffffffffffffffff1673ffffffffffffffffffffffffffffffffffffffff16815260200190815260200160002060008673ffffffffffffffffffffffffffffffffffffffff1673ffffffffffffffffffffffffffffffffffffffff16815260200190815260200160002081905550610ffd565b610f7c8382611acf90919063ffffffff16565b600260003373ffffffffffffffffffffffffffffffffffffffff1673ffffffffffffffffffffffffffffffffffffffff16815260200190815260200160002060008673ffffffffffffffffffffffffffffffffffffffff1673ffffffffffffffffffffffffffffffffffffffff168152602001908152602001600020819055505b8373ffffffffffffffffffffffffffffffffffffffff163373ffffffffffffffffffffffffffffffffffffffff167f8c5be1e5ebec7d5bd14f71427d1e84f3dd0314c0f7b2291e5b200ac8c7c3b925600260003373ffffffffffffffffffffffffffffffffffffffff1673ffffffffffffffffffffffffffffffffffffffff16815260200190815260200160002060008873ffffffffffffffffffffffffffffffffffffffff1673ffffffffffffffffffffffffffffffffffffffff168152602001908152602001600020546040518082815260200191505060405180910390a3600191505092915050565b6000600160008373ffffffffffffffffffffffffffffffffffffffff1673ffffffffffffffffffffffffffffffffffffffff168152602001908152602001600020549050919050565b6000600360009054906101000a900473ffffffffffffffffffffffffffffffffffffffff1673ffffffffffffffffffffffffffffffffffffffff163373ffffffffffffffffffffffffffffffffffffffff1614151561119057600080fd5b600360149054906101000a900460ff161515156111ac57600080fd5b6001600360146101000a81548160ff0219169083151502179055507fae5184fba832cb2b1f702aca6117b8d265eaf03ad33eb133f19dde0f5920fa0860405160405180910390a16001905090565b600360009054906101000a900473ffffffffffffffffffffffffffffffffffffffff1681565b60058054600181600116156101000203166002900480601f0160208091040260200160405190810160405280929190818152602001828054600181600116156101000203166002900480156112b65780601f1061128b576101008083540402835291602001916112b6565b820191906000526020600020905b81548152906001019060200180831161129957829003601f168201915b505050505081565b60008073ffffffffffffffffffffffffffffffffffffffff168373ffffffffffffffffffffffffffffffffffffffff16141515156112fb57600080fd5b600160003373ffffffffffffffffffffffffffffffffffffffff1673ffffffffffffffffffffffffffffffffffffffff16815260200190815260200160002054821115151561134957600080fd5b61139b82600160003373ffffffffffffffffffffffffffffffffffffffff1673ffffffffffffffffffffffffffffffffffffffff16815260200190815260200160002054611acf90919063ffffffff16565b600160003373ffffffffffffffffffffffffffffffffffffffff1673ffffffffffffffffffffffffffffffffffffffff1681526020019081526020016000208190555061143082600160008673ffffffffffffffffffffffffffffffffffffffff1673ffffffffffffffffffffffffffffffffffffffff16815260200190815260200160002054611ae890919063ffffffff16565b600160008573ffffffffffffffffffffffffffffffffffffffff1673ffffffffffffffffffffffffffffffffffffffff168152602001908152602001600020819055508273ffffffffffffffffffffffffffffffffffffffff163373ffffffffffffffffffffffffffffffffffffffff167fddf252ad1be2c89b69c2b068fc378daa952ba7f163c4a11628f55a4df523b3ef846040518082815260200191505060405180910390a36001905092915050565b600360009054906101000a900473ffffffffffffffffffffffffffffffffffffffff1673ffffffffffffffffffffffffffffffffffffffff163373ffffffffffffffffffffffffffffffffffffffff1614151561153e57600080fd5b600160008373ffffffffffffffffffffffffffffffffffffffff1673ffffffffffffffffffffffffffffffffffffffff16815260200190815260200160002054811115151561158c57600080fd5b6115de81600160008573ffffffffffffffffffffffffffffffffffffffff1673ffffffffffffffffffffffffffffffffffffffff16815260200190815260200160002054611acf90919063ffffffff16565b600160008473ffffffffffffffffffffffffffffffffffffffff1673ffffffffffffffffffffffffffffffffffffffff1681526020019081526020016000208190555061163681600054611acf90919063ffffffff16565b6000819055508173ffffffffffffffffffffffffffffffffffffffff167fcc16f5dbb4873280815c1ee09dbd06736cffcc184412cf7a71a0fdb75d397ca5826040518082815260200191505060405180910390a2600073ffffffffffffffffffffffffffffffffffffffff168273ffffffffffffffffffffffffffffffffffffffff167fddf252ad1be2c89b69c2b068fc378daa952ba7f163c4a11628f55a4df523b3ef836040518082815260200191505060405180910390a35050565b600061178582600260003373ffffffffffffffffffffffffffffffffffffffff1673ffffffffffffffffffffffffffffffffffffffff16815260200190815260200160002060008673ffffffffffffffffffffffffffffffffffffffff1673ffffffffffffffffffffffffffffffffffffffff16815260200190815260200160002054611ae890919063ffffffff16565b600260003373ffffffffffffffffffffffffffffffffffffffff1673ffffffffffffffffffffffffffffffffffffffff16815260200190815260200160002060008573ffffffffffffffffffffffffffffffffffffffff1673ffffffffffffffffffffffffffffffffffffffff168152602001908152602001600020819055508273ffffffffffffffffffffffffffffffffffffffff163373ffffffffffffffffffffffffffffffffffffffff167f8c5be1e5ebec7d5bd14f71427d1e84f3dd0314c0f7b2291e5b200ac8c7c3b925600260003373ffffffffffffffffffffffffffffffffffffffff1673ffffffffffffffffffffffffffffffffffffffff16815260200190815260200160002060008773ffffffffffffffffffffffffffffffffffffffff1673ffffffffffffffffffffffffffffffffffffffff168152602001908152602001600020546040518082815260200191505060405180910390a36001905092915050565b6000600260008473ffffffffffffffffffffffffffffffffffffffff1673ffffffffffffffffffffffffffffffffffffffff16815260200190815260200160002060008373ffffffffffffffffffffffffffffffffffffffff1673ffffffffffffffffffffffffffffffffffffffff16815260200190815260200160002054905092915050565b600360009054906101000a900473ffffffffffffffffffffffffffffffffffffffff1673ffffffffffffffffffffffffffffffffffffffff163373ffffffffffffffffffffffffffffffffffffffff161415156119d357600080fd5b600073ffffffffffffffffffffffffffffffffffffffff168173ffffffffffffffffffffffffffffffffffffffff1614151515611a0f57600080fd5b8073ffffffffffffffffffffffffffffffffffffffff16600360009054906101000a900473ffffffffffffffffffffffffffffffffffffffff1673ffffffffffffffffffffffffffffffffffffffff167f8be0079c531659141344cd1fd0a4f28419497f9722a3daafe3b4186f6b6457e060405160405180910390a380600360006101000a81548173ffffffffffffffffffffffffffffffffffffffff021916908373ffffffffffffffffffffffffffffffffffffffff16021790555050565b6000828211151515611add57fe5b818303905092915050565b6000808284019050838110151515611afc57fe5b80915050929150505600a165627a7a723058202bd3e7bd3a1c049a284b9a53941b93b12802587b617cdc150fdf3c6a9be73d1d002960806040523480156200001157600080fd5b5060405162001cdb38038062001cdb8339810180604052810190808051906020019092919080518201929190602001805190602001909291908051906020019092919080519060200190929190805190602001909291908051906020019092919080518201929190602001805190602001909291908051906020019092919080519060200190929190505050600073ffffffffffffffffffffffffffffffffffffffff168b73ffffffffffffffffffffffffffffffffffffffff1614151515620000da57600080fd5b60008a51111515620000eb57600080fd5b600089111515620000fb57600080fd5b6000881115156200010b57600080fd5b600073ffffffffffffffffffffffffffffffffffffffff168773ffffffffffffffffffffffffffffffffffffffff16141515156200014857600080fd5b600073ffffffffffffffffffffffffffffffffffffffff168673ffffffffffffffffffffffffffffffffffffffff16141515156200018557600080fd5b600073ffffffffffffffffffffffffffffffffffffffff168273ffffffffffffffffffffffffffffffffffffffff1614151515620001c257600080fd5b428510151515620001d257600080fd5b60008110158015620001e5575060648111155b1515620001f157600080fd5b8960019080519060200190620002099291906200035e565b508a601360006101000a81548173ffffffffffffffffffffffffffffffffffffffff021916908373ffffffffffffffffffffffffffffffffffffffff160217905550886005819055508760038190555086600260006101000a81548173ffffffffffffffffffffffffffffffffffffffff021916908373ffffffffffffffffffffffffffffffffffffffff160217905550856000806101000a81548173ffffffffffffffffffffffffffffffffffffffff021916908373ffffffffffffffffffffffffffffffffffffffff16021790555084600f819055508360069080519060200190620002f99291906200035e565b50826007816000191690555081600860006101000a81548173ffffffffffffffffffffffffffffffffffffffff021916908373ffffffffffffffffffffffffffffffffffffffff1602179055508060128190555050505050505050505050506200040d565b828054600181600116156101000203166002900490600052602060002090601f016020900481019282601f10620003a157805160ff1916838001178555620003d2565b82800160010185558215620003d2579182015b82811115620003d1578251825591602001919060010190620003b4565b5b509050620003e19190620003e5565b5090565b6200040a91905b8082111562000406576000816000905550600101620003ec565b5090565b90565b6118be806200041d6000396000f30060806040526004361061013e576000357c0100000000000000000000000000000000000000000000000000000000900463ffffffff16806306fdde03146101495780631515bc2b146101d957806327e235e3146102085780632c4e722e1461025f5780632e1a7d4d1461028a578063338cdca1146102aa578063355274ea146102dc5780633d6df0d5146103075780634042b66f1461033a57806345e4f34a14610365578063495ef705146103bc5780634b6753bc146103e75780634f93594514610412578063521eb27314610441578063590e1ae31461049857806368124f9a146104af5780637284e416146104c6578063c8e7f59514610556578063e429cef114610581578063e44e76a0146105c4578063ea78d1ab146105f3578063ec8ac4d81461060a578063fad5e0c414610640578063fc0c546a14610697575b610147336106ee565b005b34801561015557600080fd5b5061015e6107d3565b6040518080602001828103825283818151815260200191508051906020019080838360005b8381101561019e578082015181840152602081019050610183565b50505050905090810190601f1680156101cb5780820380516001836020036101000a031916815260200191505b509250505060405180910390f35b3480156101e557600080fd5b506101ee610871565b604051808215151515815260200191505060405180910390f35b34801561021457600080fd5b50610249600480360381019080803573ffffffffffffffffffffffffffffffffffffffff16906020019092919050505061087d565b6040518082815260200191505060405180910390f35b34801561026b57600080fd5b50610274610895565b6040518082815260200191505060405180910390f35b6102a86004803603810190808035906020019092919050505061089b565b005b3480156102b657600080fd5b506102bf6109ad565b604051808381526020018281526020019250505060405180910390f35b3480156102e857600080fd5b506102f16109bf565b6040518082815260200191505060405180910390f35b34801561031357600080fd5b5061031c6109c5565b60405180826000191660001916815260200191505060405180910390f35b34801561034657600080fd5b5061034f6109cb565b6040518082815260200191505060405180910390f35b34801561037157600080fd5b506103a6600480360381019080803573ffffffffffffffffffffffffffffffffffffffff1690602001909291905050506109d1565b6040518082815260200191505060405180910390f35b3480156103c857600080fd5b506103d16109e9565b6040518082815260200191505060405180910390f35b3480156103f357600080fd5b506103fc6109ef565b6040518082815260200191505060405180910390f35b34801561041e57600080fd5b506104276109f5565b604051808215151515815260200191505060405180910390f35b34801561044d57600080fd5b50610456610a04565b604051808273ffffffffffffffffffffffffffffffffffffffff1673ffffffffffffffffffffffffffffffffffffffff16815260200191505060405180910390f35b3480156104a457600080fd5b506104ad610a2a565b005b3480156104bb57600080fd5b506104c4610caa565b005b3480156104d257600080fd5b506104db611086565b6040518080602001828103825283818151815260200191508051906020019080838360005b8381101561051b578082015181840152602081019050610500565b50505050905090810190601f1680156105485780820380516001836020036101000a031916815260200191505b509250505060405180910390f35b34801561056257600080fd5b5061056b611124565b6040518082815260200191505060405180910390f35b34801561058d57600080fd5b506105c2600480360381019080803573ffffffffffffffffffffffffffffffffffffffff16906020019092919050505061112a565b005b3480156105d057600080fd5b506105d9611423565b604051808215151515815260200191505060405180910390f35b3480156105ff57600080fd5b50610608611436565b005b61063e600480360381019080803573ffffffffffffffffffffffffffffffffffffffff1690602001909291905050506106ee565b005b34801561064c57600080fd5b50610655611594565b604051808273ffffffffffffffffffffffffffffffffffffffff1673ffffffffffffffffffffffffffffffffffffffff16815260200191505060405180910390f35b3480156106a357600080fd5b506106ac6115ba565b604051808273ffffffffffffffffffffffffffffffffffffffff1673ffffffffffffffffffffffffffffffffffffffff16815260200191505060405180910390f35b600080600b60009054906101000a900460ff16801561070f5750600f544211155b151561071a57600080fd5b34915061072783836115df565b6107308261162f565b90506107478260045461164d90919063ffffffff16565b600481905550610757838261166b565b8273ffffffffffffffffffffffffffffffffffffffff163373ffffffffffffffffffffffffffffffffffffffff167f623b3804fa71d67900d064613da8f94b9617215ee90799290593e1745087ad188484604051808381526020018281526020019250505060405180910390a36107ce8383611679565b505050565b60018054600181600116156101000203166002900480601f0160208091040260200160405190810160405280929190818152602001828054600181600116156101000203166002900480156108695780601f1061083e57610100808354040283529160200191610869565b820191906000526020600020905b81548152906001019060200180831161084c57829003601f168201915b505050505081565b6000600f544211905090565b60106020528060005260406000206000915090505481565b60035481565b600260009054906101000a900473ffffffffffffffffffffffffffffffffffffffff1673ffffffffffffffffffffffffffffffffffffffff163373ffffffffffffffffffffffffffffffffffffffff161415156108f757600080fd5b600b60009054906101000a900460ff16151561091257600080fd5b61091a6109f5565b801561092a5750610929610871565b5b151561093557600080fd5b60008111801561095c57503073ffffffffffffffffffffffffffffffffffffffff16318111155b151561096757600080fd5b6000600c6000015414151561097b57600080fd5b60408051908101604052808281526020016000815250600c600082015181600001556020820151816001015590505050565b600c8060000154908060010154905082565b60055481565b60075481565b60045481565b60116020528060005260406000206000915090505481565b60125481565b600f5481565b60006005546004541015905090565b600260009054906101000a900473ffffffffffffffffffffffffffffffffffffffff1681565b600080610a35610871565b8015610a465750610a446109f5565b155b1515610a5157600080fd5b6000601060003373ffffffffffffffffffffffffffffffffffffffff1673ffffffffffffffffffffffffffffffffffffffff16815260200190815260200160002054111515610a9f57600080fd5b601060003373ffffffffffffffffffffffffffffffffffffffff1673ffffffffffffffffffffffffffffffffffffffff168152602001908152602001600020549150601160003373ffffffffffffffffffffffffffffffffffffffff1673ffffffffffffffffffffffffffffffffffffffff1681526020019081526020016000205490506000601060003373ffffffffffffffffffffffffffffffffffffffff1673ffffffffffffffffffffffffffffffffffffffff168152602001908152602001600020819055506000809054906101000a900473ffffffffffffffffffffffffffffffffffffffff1673ffffffffffffffffffffffffffffffffffffffff1663d0482d0433836040518363ffffffff167c0100000000000000000000000000000000000000000000000000000000028152600401808373ffffffffffffffffffffffffffffffffffffffff1673ffffffffffffffffffffffffffffffffffffffff16815260200182815260200192505050600060405180830381600087803b158015610c2c57600080fd5b505af1158015610c40573d6000803e3d6000fd5b50505050610c598260045461171f90919063ffffffff16565b6004819055503373ffffffffffffffffffffffffffffffffffffffff166108fc839081150290604051600060405180830381858888f19350505050158015610ca5573d6000803e3d6000fd5b505050565b6000806000600860009054906101000a900473ffffffffffffffffffffffffffffffffffffffff1673ffffffffffffffffffffffffffffffffffffffff166349b90557336040518263ffffffff167c0100000000000000000000000000000000000000000000000000000000028152600401808273ffffffffffffffffffffffffffffffffffffffff1673ffffffffffffffffffffffffffffffffffffffff168152602001915050602060405180830381600087803b158015610d6c57600080fd5b505af1158015610d80573d6000803e3d6000fd5b505050506040513d6020811015610d9657600080fd5b81019080805190602001909291905050501515610db257600080fd5b6000600c60000154111515610dc657600080fd5b600c60020160003373ffffffffffffffffffffffffffffffffffffffff1673ffffffffffffffffffffffffffffffffffffffff16815260200190815260200160002060009054906101000a900460ff16151515610e2257600080fd5b600b60009054906101000a900460ff161515610e3d57600080fd5b610e456109f5565b8015610e555750610e54610871565b5b1515610e6057600080fd5b600960003373ffffffffffffffffffffffffffffffffffffffff1673ffffffffffffffffffffffffffffffffffffffff16815260200190815260200160002060009054906101000a900460ff161515610eb857600080fd5b6001600c60020160003373ffffffffffffffffffffffffffffffffffffffff1673ffffffffffffffffffffffffffffffffffffffff16815260200190815260200160002060006101000a81548160ff021916908315150217905550600c60010160008154809291906001019190505550600a54600c60010154141561108157600c6000015492506040805190810160405280600081526020016000815250600c6000820151816000015560208201518160010155905050610f97601254610f8960648661173890919063ffffffff16565b61175390919063ffffffff16565b9150610fac828461171f90919063ffffffff16565b9050601360009054906101000a900473ffffffffffffffffffffffffffffffffffffffff1673ffffffffffffffffffffffffffffffffffffffff166108fc839081150290604051600060405180830381858888f19350505050158015611016573d6000803e3d6000fd5b50600260009054906101000a900473ffffffffffffffffffffffffffffffffffffffff1673ffffffffffffffffffffffffffffffffffffffff166108fc829081150290604051600060405180830381858888f1935050505015801561107f573d6000803e3d6000fd5b505b505050565b60068054600181600116156101000203166002900480601f01602080910402602001604051908101604052809291908181526020018280546001816001161561010002031660029004801561111c5780601f106110f15761010080835404028352916020019161111c565b820191906000526020600020905b8154815290600101906020018083116110ff57829003601f168201915b505050505081565b600a5481565b600f54421115151561113b57600080fd5b600b60009054906101000a900460ff1615151561115757600080fd5b600860009054906101000a900473ffffffffffffffffffffffffffffffffffffffff1673ffffffffffffffffffffffffffffffffffffffff1663bceee05e336040518263ffffffff167c0100000000000000000000000000000000000000000000000000000000028152600401808273ffffffffffffffffffffffffffffffffffffffff1673ffffffffffffffffffffffffffffffffffffffff168152602001915050602060405180830381600087803b15801561121457600080fd5b505af1158015611228573d6000803e3d6000fd5b505050506040513d602081101561123e57600080fd5b8101908080519060200190929190505050151561125a57600080fd5b600860009054906101000a900473ffffffffffffffffffffffffffffffffffffffff1673ffffffffffffffffffffffffffffffffffffffff166349b90557826040518263ffffffff167c0100000000000000000000000000000000000000000000000000000000028152600401808273ffffffffffffffffffffffffffffffffffffffff1673ffffffffffffffffffffffffffffffffffffffff168152602001915050602060405180830381600087803b15801561131757600080fd5b505af115801561132b573d6000803e3d6000fd5b505050506040513d602081101561134157600080fd5b8101908080519060200190929190505050151561135d57600080fd5b600960008273ffffffffffffffffffffffffffffffffffffffff1673ffffffffffffffffffffffffffffffffffffffff16815260200190815260200160002060009054906101000a900460ff161515156113b657600080fd5b6001600960008373ffffffffffffffffffffffffffffffffffffffff1673ffffffffffffffffffffffffffffffffffffffff16815260200190815260200160002060006101000a81548160ff021916908315150217905550600a6000815480929190600101919050555050565b600b60009054906101000a900460ff1681565b600f54421115151561144757600080fd5b600b60009054906101000a900460ff1615151561146357600080fd5b600860009054906101000a900473ffffffffffffffffffffffffffffffffffffffff1673ffffffffffffffffffffffffffffffffffffffff1663bceee05e336040518263ffffffff167c0100000000000000000000000000000000000000000000000000000000028152600401808273ffffffffffffffffffffffffffffffffffffffff1673ffffffffffffffffffffffffffffffffffffffff168152602001915050602060405180830381600087803b15801561152057600080fd5b505af1158015611534573d6000803e3d6000fd5b505050506040513d602081101561154a57600080fd5b8101908080519060200190929190505050151561156657600080fd5b6000600a5411151561157757600080fd5b6001600b60006101000a81548160ff021916908315150217905550565b601360009054906101000a900473ffffffffffffffffffffffffffffffffffffffff1681565b6000809054906101000a900473ffffffffffffffffffffffffffffffffffffffff1681565b600073ffffffffffffffffffffffffffffffffffffffff168273ffffffffffffffffffffffffffffffffffffffff161415151561161b57600080fd5b6000811415151561162b57600080fd5b5050565b60006116466003548361175390919063ffffffff16565b9050919050565b600080828401905083811015151561166157fe5b8091505092915050565b611675828261178e565b5050565b80601060008473ffffffffffffffffffffffffffffffffffffffff1673ffffffffffffffffffffffffffffffffffffffff168152602001908152602001600020600082825401925050819055506116cf8161162f565b601160008473ffffffffffffffffffffffffffffffffffffffff1673ffffffffffffffffffffffffffffffffffffffff168152602001908152602001600020600082825401925050819055505050565b600082821115151561172d57fe5b818303905092915050565b600080828481151561174657fe5b0490508091505092915050565b60008060008414156117685760009150611787565b828402905082848281151561177957fe5b0414151561178357fe5b8091505b5092915050565b6000809054906101000a900473ffffffffffffffffffffffffffffffffffffffff1673ffffffffffffffffffffffffffffffffffffffff166340c10f1983836040518363ffffffff167c0100000000000000000000000000000000000000000000000000000000028152600401808373ffffffffffffffffffffffffffffffffffffffff1673ffffffffffffffffffffffffffffffffffffffff16815260200182815260200192505050602060405180830381600087803b15801561185257600080fd5b505af1158015611866573d6000803e3d6000fd5b505050506040513d602081101561187c57600080fd5b81019080805190602001909291905050505050505600a165627a7a723058205431d6d50ed5cef2f3449a36da696953d340f1eb67fa58d215554f1d938473070029a165627a7a72305820623216cfab0bea1dcc296eedb467e0714e823103cf4727d80057a4cd7199fc5b0029",
  "source": "pragma solidity ^0.4.24;\r\n\r\nimport \"./BREMFactory.sol\";\r\nimport \"./Userable.sol\";\r\nimport \"./BRMToken.sol\";\r\n\r\ncontract BREM is BREMFactory {\r\n\r\n    BRMToken public BRM;\r\n\r\n    constructor(\r\n        address _brmAddress,\r\n        uint256 _icoCreationPrice,\r\n        uint256 _withdrawFeePercent\r\n    ) \r\n    public \r\n    {\r\n        BRM = BRMToken(_brmAddress);\r\n        icoCreationPrice = _icoCreationPrice;\r\n        withdrawFeePercent = _withdrawFeePercent;\r\n    }    \r\n    \r\n    function createBREMICO( \r\n        string _name, \r\n        string _symbol,\r\n        uint256 _rate,\r\n        uint256 _cap,\r\n        uint256 _closingTime,\r\n        string _description,\r\n        bytes32 _docHash\r\n    ) \r\n    public\r\n    onlyDeveloper\r\n    returns (address tokenAddress, address icoAddress)\r\n    {\r\n        require(BRM.balanceOf(msg.sender) >= icoCreationPrice);\r\n        require(bytes(_name).length > 0 && bytes(_symbol).length > 0);\r\n        require(indexes[_name] == 0);\r\n        \r\n        require(BRM.transferFrom(msg.sender, address(this), icoCreationPrice));\r\n        \r\n        \r\n        BREMToken token = new BREMToken(_name, _symbol);\r\n        tokenAddress = address(token);\r\n        \r\n        BREMICO ico = new BREMICO(\r\n            address(this),\r\n            _name,\r\n            _cap, \r\n            _rate,\r\n            msg.sender,\r\n            token,\r\n            _closingTime,\r\n            _description, \r\n            _docHash, \r\n            this,\r\n            withdrawFeePercent\r\n        );\r\n        icoAddress = address(ico);\r\n        token.transferOwnership(icoAddress);\r\n\r\n        projects[projectsAmount] = icoAddress;\r\n        indexes[_name] = projectsAmount;\r\n        projectsAmount++;\r\n        emit BREMICOCreated(msg.sender, icoAddress, tokenAddress, _name);\r\n    }\r\n    \r\n    // Withdraw collected fies\r\n    function withdrawFees(uint256 _value) \r\n        public \r\n        onlySuperuser\r\n     {\r\n        require(address(this).balance >= _value && _value > 0);\r\n        msg.sender.transfer(_value);\r\n    } \r\n    \r\n}",
  "sourcePath": "C:\\Users\\Solidity\\Documents\\HashLab\\GENERAL\\Brem\\contracts\\BREM.sol",
  "compiler": {
    "name": "solc",
    "version": "0.4.24+commit.e67f0147.Emscripten.clang"
  },
  "schemaVersion": "2.0.1",
  "updatedAt": "2018-07-30T06:02:34.539Z"
}