{
  "contractName": "BREMFactory",
  "abi": [
    {
      "constant": true,
      "inputs": [
        {
          "name": "_operator",
          "type": "address"
        },
        {
          "name": "_role",
          "type": "string"
        }
      ],
      "name": "checkRole",
      "outputs": [],
      "payable": false,
      "stateMutability": "view",
      "type": "function"
    },
    {
      "constant": true,
      "inputs": [
        {
          "name": "_operator",
          "type": "address"
        },
        {
          "name": "_role",
          "type": "string"
        }
      ],
      "name": "hasRole",
      "outputs": [
        {
          "name": "",
          "type": "bool"
        }
      ],
      "payable": false,
      "stateMutability": "view",
      "type": "function"
    },
    {
      "constant": true,
      "inputs": [],
      "name": "ROLE_AUDITOR",
      "outputs": [
        {
          "name": "",
          "type": "string"
        }
      ],
      "payable": false,
      "stateMutability": "view",
      "type": "function"
    },
    {
      "constant": true,
      "inputs": [],
      "name": "withdrawFeePercent",
      "outputs": [
        {
          "name": "",
          "type": "uint256"
        }
      ],
      "payable": false,
      "stateMutability": "view",
      "type": "function"
    },
    {
      "constant": true,
      "inputs": [
        {
          "name": "_addr",
          "type": "address"
        }
      ],
      "name": "isAuditor",
      "outputs": [
        {
          "name": "",
          "type": "bool"
        }
      ],
      "payable": false,
      "stateMutability": "view",
      "type": "function"
    },
    {
      "constant": false,
      "inputs": [
        {
          "name": "_newSuperuser",
          "type": "address"
        }
      ],
      "name": "transferSuperuser",
      "outputs": [],
      "payable": false,
      "stateMutability": "nonpayable",
      "type": "function"
    },
    {
      "constant": true,
      "inputs": [],
      "name": "projectsAmount",
      "outputs": [
        {
          "name": "",
          "type": "uint256"
        }
      ],
      "payable": false,
      "stateMutability": "view",
      "type": "function"
    },
    {
      "constant": false,
      "inputs": [
        {
          "name": "_name",
          "type": "string"
        }
      ],
      "name": "signUp",
      "outputs": [
        {
          "name": "",
          "type": "string"
        }
      ],
      "payable": false,
      "stateMutability": "nonpayable",
      "type": "function"
    },
    {
      "constant": true,
      "inputs": [],
      "name": "login",
      "outputs": [
        {
          "name": "",
          "type": "string"
        }
      ],
      "payable": false,
      "stateMutability": "view",
      "type": "function"
    },
    {
      "constant": true,
      "inputs": [
        {
          "name": "_addr",
          "type": "address"
        }
      ],
      "name": "isSuperuser",
      "outputs": [
        {
          "name": "",
          "type": "bool"
        }
      ],
      "payable": false,
      "stateMutability": "view",
      "type": "function"
    },
    {
      "constant": false,
      "inputs": [
        {
          "name": "_newAuditor",
          "type": "address"
        }
      ],
      "name": "addAuditor",
      "outputs": [],
      "payable": false,
      "stateMutability": "nonpayable",
      "type": "function"
    },
    {
      "constant": true,
      "inputs": [],
      "name": "ROLE_SUPERUSER",
      "outputs": [
        {
          "name": "",
          "type": "string"
        }
      ],
      "payable": false,
      "stateMutability": "view",
      "type": "function"
    },
    {
      "anonymous": false,
      "inputs": [
        {
          "indexed": true,
          "name": "creator",
          "type": "address"
        },
        {
          "indexed": true,
          "name": "icoAddress",
          "type": "address"
        },
        {
          "indexed": true,
          "name": "tokenAddress",
          "type": "address"
        },
        {
          "indexed": false,
          "name": "name",
          "type": "string"
        }
      ],
      "name": "BREMICOCreated",
      "type": "event"
    },
    {
      "anonymous": false,
      "inputs": [
        {
          "indexed": true,
          "name": "operator",
          "type": "address"
        },
        {
          "indexed": false,
          "name": "role",
          "type": "string"
        }
      ],
      "name": "RoleAdded",
      "type": "event"
    },
    {
      "anonymous": false,
      "inputs": [
        {
          "indexed": true,
          "name": "operator",
          "type": "address"
        },
        {
          "indexed": false,
          "name": "role",
          "type": "string"
        }
      ],
      "name": "RoleRemoved",
      "type": "event"
    },
    {
      "constant": true,
      "inputs": [
        {
          "name": "_index",
          "type": "uint256"
        }
      ],
      "name": "getProject",
      "outputs": [
        {
          "name": "",
          "type": "address"
        }
      ],
      "payable": false,
      "stateMutability": "view",
      "type": "function"
    },
    {
      "constant": true,
      "inputs": [
        {
          "name": "_projectName",
          "type": "string"
        }
      ],
      "name": "getProjectByName",
      "outputs": [
        {
          "name": "",
          "type": "address"
        }
      ],
      "payable": false,
      "stateMutability": "view",
      "type": "function"
    },
    {
      "constant": false,
      "inputs": [
        {
          "name": "_withdrawFeePercent",
          "type": "uint256"
        }
      ],
      "name": "setWithdrawFeePercent",
      "outputs": [],
      "payable": false,
      "stateMutability": "nonpayable",
      "type": "function"
    }
  ],
  "bytecode": "0x6080604052610052336040805190810160405280600981526020017f7375706572757365720000000000000000000000000000000000000000000000815250610057640100000000026401000000009004565b6101f6565b6100e1826000836040518082805190602001908083835b602083101515610093578051825260208201915060208101905060208303925061006e565b6001836020036101000a03801982511681845116808217855250505050505090500191505090815260200160405180910390206101986401000000000261135c179091906401000000009004565b8173ffffffffffffffffffffffffffffffffffffffff167fbfec83d64eaa953f2708271a023ab9ee82057f8f3578d548c1a4ba0b5b700489826040518080602001828103825283818151815260200191508051906020019080838360005b8381101561015a57808201518184015260208101905061013f565b50505050905090810190601f1680156101875780820380516001836020036101000a031916815260200191505b509250505060405180910390a25050565b60018260000160008373ffffffffffffffffffffffffffffffffffffffff1673ffffffffffffffffffffffffffffffffffffffff16815260200190815260200160002060006101000a81548160ff0219169083151502179055505050565b61148b80620002066000396000f3006080604052600436106100db576000357c0100000000000000000000000000000000000000000000000000000000900463ffffffff1680630988ca8c146100e0578063217fe6c6146101695780633f029aaf1461020a578063447cb8961461029a578063495ef705146102c757806349b90557146102f25780634b77f2691461034d57806357c393fa146103f65780639cdd991314610439578063adcfb4fc14610464578063b34e97e814610546578063bceee05e146105d6578063e429cef114610631578063ebb4f48414610674578063f0f3f2c814610704575b600080fd5b3480156100ec57600080fd5b50610167600480360381019080803573ffffffffffffffffffffffffffffffffffffffff169060200190929190803590602001908201803590602001908080601f0160208091040260200160405190810160405280939291908181526020018383808284378201915050505050509192919290505050610771565b005b34801561017557600080fd5b506101f0600480360381019080803573ffffffffffffffffffffffffffffffffffffffff169060200190929190803590602001908201803590602001908080601f01602080910402602001604051908101604052809392919081815260200183838082843782019150505050505091929192905050506107f2565b604051808215151515815260200191505060405180910390f35b34801561021657600080fd5b5061021f610879565b6040518080602001828103825283818151815260200191508051906020019080838360005b8381101561025f578082015181840152602081019050610244565b50505050905090810190601f16801561028c5780820380516001836020036101000a031916815260200191505b509250505060405180910390f35b3480156102a657600080fd5b506102c5600480360381019080803590602001909291905050506108b2565b005b3480156102d357600080fd5b506102dc610929565b6040518082815260200191505060405180910390f35b3480156102fe57600080fd5b50610333600480360381019080803573ffffffffffffffffffffffffffffffffffffffff16906020019092919050505061092f565b604051808215151515815260200191505060405180910390f35b34801561035957600080fd5b506103b4600480360381019080803590602001908201803590602001908080601f0160208091040260200160405190810160405280939291908181526020018383808284378201915050505050509192919290505050610977565b604051808273ffffffffffffffffffffffffffffffffffffffff1673ffffffffffffffffffffffffffffffffffffffff16815260200191505060405180910390f35b34801561040257600080fd5b50610437600480360381019080803573ffffffffffffffffffffffffffffffffffffffff169060200190929190505050610aa3565b005b34801561044557600080fd5b5061044e610b9f565b6040518082815260200191505060405180910390f35b34801561047057600080fd5b506104cb600480360381019080803590602001908201803590602001908080601f0160208091040260200160405190810160405280939291908181526020018383808284378201915050505050509192919290505050610ba5565b6040518080602001828103825283818151815260200191508051906020019080838360005b8381101561050b5780820151818401526020810190506104f0565b50505050905090810190601f1680156105385780820380516001836020036101000a031916815260200191505b509250505060405180910390f35b34801561055257600080fd5b5061055b610d52565b6040518080602001828103825283818151815260200191508051906020019080838360005b8381101561059b578082015181840152602081019050610580565b50505050905090810190601f1680156105c85780820380516001836020036101000a031916815260200191505b509250505060405180910390f35b3480156105e257600080fd5b50610617600480360381019080803573ffffffffffffffffffffffffffffffffffffffff169060200190929190505050610e99565b604051808215151515815260200191505060405180910390f35b34801561063d57600080fd5b50610672600480360381019080803573ffffffffffffffffffffffffffffffffffffffff169060200190929190505050610ee1565b005b34801561068057600080fd5b50610689610f9e565b6040518080602001828103825283818151815260200191508051906020019080838360005b838110156106c95780820151818401526020810190506106ae565b50505050905090810190601f1680156106f65780820380516001836020036101000a031916815260200191505b509250505060405180910390f35b34801561071057600080fd5b5061072f60048036038101908080359060200190929190505050610fd7565b604051808273ffffffffffffffffffffffffffffffffffffffff1673ffffffffffffffffffffffffffffffffffffffff16815260200191505060405180910390f35b6107ee826000836040518082805190602001908083835b6020831015156107ad5780518252602082019150602081019050602083039250610788565b6001836020036101000a038019825116818451168082178552505050505050905001915050908152602001604051809103902061102490919063ffffffff16565b5050565b6000610871836000846040518082805190602001908083835b602083101515610830578051825260208201915060208101905060208303925061080b565b6001836020036101000a038019825116818451168082178552505050505050905001915050908152602001604051809103902061103d90919063ffffffff16565b905092915050565b6040805190810160405280600781526020017f61756469746f720000000000000000000000000000000000000000000000000081525081565b6108f1336040805190810160405280600981526020017f7375706572757365720000000000000000000000000000000000000000000000815250610771565b600654811415151561090257600080fd5b60008110158015610914575060648111155b151561091f57600080fd5b8060068190555050565b60065481565b6000610970826040805190810160405280600781526020017f61756469746f72000000000000000000000000000000000000000000000000008152506107f2565b9050919050565b6000806000835111151561098a57600080fd5b6005836040518082805190602001908083835b6020831015156109c2578051825260208201915060208101905060208303925061099d565b6001836020036101000a0380198251168184511680821785525050505050509050019150509081526020016040518091039020549050600073ffffffffffffffffffffffffffffffffffffffff166003600083815260200190815260200160002060009054906101000a900473ffffffffffffffffffffffffffffffffffffffff1673ffffffffffffffffffffffffffffffffffffffff1614151515610a6757600080fd5b6003600082815260200190815260200160002060009054906101000a900473ffffffffffffffffffffffffffffffffffffffff16915050919050565b610ae2336040805190810160405280600981526020017f7375706572757365720000000000000000000000000000000000000000000000815250610771565b600073ffffffffffffffffffffffffffffffffffffffff168173ffffffffffffffffffffffffffffffffffffffff1614151515610b1e57600080fd5b610b5d336040805190810160405280600981526020017f7375706572757365720000000000000000000000000000000000000000000000815250611096565b610b9c816040805190810160405280600981526020017f73757065727573657200000000000000000000000000000000000000000000008152506111ca565b50565b60025481565b60608160008151111515610bb857600080fd5b6000600160003373ffffffffffffffffffffffffffffffffffffffff1673ffffffffffffffffffffffffffffffffffffffff1681526020019081526020016000206000018054600181600116156101000203166002900490501415610c6f5782600160003373ffffffffffffffffffffffffffffffffffffffff1673ffffffffffffffffffffffffffffffffffffffff1681526020019081526020016000206000019080519060200190610c6d9291906113ba565b505b600160003373ffffffffffffffffffffffffffffffffffffffff1673ffffffffffffffffffffffffffffffffffffffff1681526020019081526020016000206000018054600181600116156101000203166002900480601f016020809104026020016040519081016040528092919081815260200182805460018160011615610100020316600290048015610d455780601f10610d1a57610100808354040283529160200191610d45565b820191906000526020600020905b815481529060010190602001808311610d2857829003601f168201915b5050505050915050919050565b60606000600160003373ffffffffffffffffffffffffffffffffffffffff1673ffffffffffffffffffffffffffffffffffffffff168152602001908152602001600020600001805460018160011615610100020316600290049050111515610db957600080fd5b600160003373ffffffffffffffffffffffffffffffffffffffff1673ffffffffffffffffffffffffffffffffffffffff1681526020019081526020016000206000018054600181600116156101000203166002900480601f016020809104026020016040519081016040528092919081815260200182805460018160011615610100020316600290048015610e8f5780601f10610e6457610100808354040283529160200191610e8f565b820191906000526020600020905b815481529060010190602001808311610e7257829003601f168201915b5050505050905090565b6000610eda826040805190810160405280600981526020017f73757065727573657200000000000000000000000000000000000000000000008152506107f2565b9050919050565b610f20336040805190810160405280600981526020017f7375706572757365720000000000000000000000000000000000000000000000815250610771565b600073ffffffffffffffffffffffffffffffffffffffff168173ffffffffffffffffffffffffffffffffffffffff1614151515610f5c57600080fd5b610f9b816040805190810160405280600781526020017f61756469746f72000000000000000000000000000000000000000000000000008152506111ca565b50565b6040805190810160405280600981526020017f737570657275736572000000000000000000000000000000000000000000000081525081565b600060025482101515610fe957600080fd5b6003600083815260200190815260200160002060009054906101000a900473ffffffffffffffffffffffffffffffffffffffff169050919050565b61102e828261103d565b151561103957600080fd5b5050565b60008260000160008373ffffffffffffffffffffffffffffffffffffffff1673ffffffffffffffffffffffffffffffffffffffff16815260200190815260200160002060009054906101000a900460ff16905092915050565b611113826000836040518082805190602001908083835b6020831015156110d257805182526020820191506020810190506020830392506110ad565b6001836020036101000a03801982511681845116808217855250505050505090500191505090815260200160405180910390206112fe90919063ffffffff16565b8173ffffffffffffffffffffffffffffffffffffffff167fd211483f91fc6eff862467f8de606587a30c8fc9981056f051b897a418df803a826040518080602001828103825283818151815260200191508051906020019080838360005b8381101561118c578082015181840152602081019050611171565b50505050905090810190601f1680156111b95780820380516001836020036101000a031916815260200191505b509250505060405180910390a25050565b611247826000836040518082805190602001908083835b60208310151561120657805182526020820191506020810190506020830392506111e1565b6001836020036101000a038019825116818451168082178552505050505050905001915050908152602001604051809103902061135c90919063ffffffff16565b8173ffffffffffffffffffffffffffffffffffffffff167fbfec83d64eaa953f2708271a023ab9ee82057f8f3578d548c1a4ba0b5b700489826040518080602001828103825283818151815260200191508051906020019080838360005b838110156112c05780820151818401526020810190506112a5565b50505050905090810190601f1680156112ed5780820380516001836020036101000a031916815260200191505b509250505060405180910390a25050565b60008260000160008373ffffffffffffffffffffffffffffffffffffffff1673ffffffffffffffffffffffffffffffffffffffff16815260200190815260200160002060006101000a81548160ff0219169083151502179055505050565b60018260000160008373ffffffffffffffffffffffffffffffffffffffff1673ffffffffffffffffffffffffffffffffffffffff16815260200190815260200160002060006101000a81548160ff0219169083151502179055505050565b828054600181600116156101000203166002900490600052602060002090601f016020900481019282601f106113fb57805160ff1916838001178555611429565b82800160010185558215611429579182015b8281111561142857825182559160200191906001019061140d565b5b509050611436919061143a565b5090565b61145c91905b80821115611458576000816000905550600101611440565b5090565b905600a165627a7a7230582071c42d929df61b3a268727474314a7db16c7c7999ca2781780ab5b868028c5a20029",
  "source": "pragma solidity ^0.4.24;\r\n\r\nimport \"./BREMToken.sol\";\r\nimport \"./BREMICO.sol\";\r\n\r\ncontract BREMFactory is Userable{\r\n    \r\n    uint256 public projectsAmount;\r\n    \r\n    mapping(uint256 => address) projects;\r\n    \r\n    function getProject(uint256 _index) \r\n        public \r\n        view \r\n        returns(address)\r\n    {\r\n        require(_index < projectsAmount);\r\n        return projects[_index];\r\n    }\r\n    \r\n    bytes32 internal firtProjectNameHash;\r\n    \r\n    mapping(string => uint256) indexes;\r\n    \r\n    function getProjectByName(string _projectName)\r\n        public\r\n        view\r\n        returns(address) \r\n    {\r\n        require(bytes(_projectName).length > 0);\r\n        uint256 index = indexes[_projectName];\r\n        require(projects[index] != address(0));\r\n        \r\n        return projects[index];    \r\n    }\r\n    \r\n    event BREMICOCreated(\r\n        address indexed creator,\r\n        address indexed icoAddress,\r\n        address indexed tokenAddress,\r\n        string name\r\n    );\r\n    \r\n    // uint256 public icoCreationPrice;\r\n\r\n    // function setIcoCreationPrice(uint256 _icoCreationPrice)\r\n    //     public \r\n    //     onlySuperuser\r\n    // {\r\n    //     require(_icoCreationPrice != icoCreationPrice);\r\n    //     icoCreationPrice = _icoCreationPrice;\r\n    // }\r\n\r\n    uint256 public withdrawFeePercent;\r\n\r\n    function setWithdrawFeePercent(uint256 _withdrawFeePercent)\r\n        public\r\n        onlySuperuser\r\n    {\r\n        require(_withdrawFeePercent != withdrawFeePercent);\r\n        require(_withdrawFeePercent >= 0 && _withdrawFeePercent <=100);\r\n\r\n        withdrawFeePercent = _withdrawFeePercent;\r\n    }\r\n}",
  "sourcePath": "C:\\Users\\Solidity\\Documents\\HashLab\\GENERAL_DEV\\Brem\\contracts\\BREMFactory.sol",
  "compiler": {
    "name": "solc",
    "version": "0.4.24+commit.e67f0147.Emscripten.clang"
  },
  "schemaVersion": "2.0.1",
  "updatedAt": "2018-08-15T10:51:58.292Z"
}