{
  "contractName": "BREM",
  "abi": [
    {
      "constant": true,
      "inputs": [
        {
          "name": "_operator",
          "type": "address"
        },
        {
          "name": "_role",
          "type": "string"
        }
      ],
      "name": "checkRole",
      "outputs": [],
      "payable": false,
      "stateMutability": "view",
      "type": "function"
    },
    {
      "constant": true,
      "inputs": [
        {
          "name": "_name",
          "type": "string"
        }
      ],
      "name": "isValidName",
      "outputs": [
        {
          "name": "",
          "type": "bool"
        }
      ],
      "payable": false,
      "stateMutability": "view",
      "type": "function"
    },
    {
      "constant": true,
      "inputs": [
        {
          "name": "_operator",
          "type": "address"
        },
        {
          "name": "_role",
          "type": "string"
        }
      ],
      "name": "hasRole",
      "outputs": [
        {
          "name": "",
          "type": "bool"
        }
      ],
      "payable": false,
      "stateMutability": "view",
      "type": "function"
    },
    {
      "constant": true,
      "inputs": [
        {
          "name": "_name",
          "type": "string"
        }
      ],
      "name": "isValidUsername",
      "outputs": [
        {
          "name": "",
          "type": "bool"
        }
      ],
      "payable": false,
      "stateMutability": "view",
      "type": "function"
    },
    {
      "constant": true,
      "inputs": [],
      "name": "ROLE_AUDITOR",
      "outputs": [
        {
          "name": "",
          "type": "string"
        }
      ],
      "payable": false,
      "stateMutability": "view",
      "type": "function"
    },
    {
      "constant": false,
      "inputs": [
        {
          "name": "_withdrawFeePercent",
          "type": "uint256"
        }
      ],
      "name": "setWithdrawFeePercent",
      "outputs": [],
      "payable": false,
      "stateMutability": "nonpayable",
      "type": "function"
    },
    {
      "constant": true,
      "inputs": [],
      "name": "withdrawFeePercent",
      "outputs": [
        {
          "name": "",
          "type": "uint256"
        }
      ],
      "payable": false,
      "stateMutability": "view",
      "type": "function"
    },
    {
      "constant": true,
      "inputs": [
        {
          "name": "_addr",
          "type": "address"
        }
      ],
      "name": "isAuditor",
      "outputs": [
        {
          "name": "",
          "type": "bool"
        }
      ],
      "payable": false,
      "stateMutability": "view",
      "type": "function"
    },
    {
      "constant": true,
      "inputs": [
        {
          "name": "_projectName",
          "type": "string"
        }
      ],
      "name": "getProjectByName",
      "outputs": [
        {
          "name": "",
          "type": "address"
        }
      ],
      "payable": false,
      "stateMutability": "view",
      "type": "function"
    },
    {
      "constant": true,
      "inputs": [],
      "name": "isSignUp",
      "outputs": [
        {
          "name": "",
          "type": "bool"
        }
      ],
      "payable": false,
      "stateMutability": "view",
      "type": "function"
    },
    {
      "constant": false,
      "inputs": [
        {
          "name": "_newSuperuser",
          "type": "address"
        }
      ],
      "name": "transferSuperuser",
      "outputs": [],
      "payable": false,
      "stateMutability": "nonpayable",
      "type": "function"
    },
    {
      "constant": true,
      "inputs": [],
      "name": "projectsAmount",
      "outputs": [
        {
          "name": "",
          "type": "uint256"
        }
      ],
      "payable": false,
      "stateMutability": "view",
      "type": "function"
    },
    {
      "constant": false,
      "inputs": [
        {
          "name": "_name",
          "type": "string"
        }
      ],
      "name": "signUp",
      "outputs": [
        {
          "name": "",
          "type": "string"
        }
      ],
      "payable": false,
      "stateMutability": "nonpayable",
      "type": "function"
    },
    {
      "constant": true,
      "inputs": [],
      "name": "login",
      "outputs": [
        {
          "name": "",
          "type": "string"
        }
      ],
      "payable": false,
      "stateMutability": "view",
      "type": "function"
    },
    {
      "constant": true,
      "inputs": [
        {
          "name": "_addr",
          "type": "address"
        }
      ],
      "name": "isSuperuser",
      "outputs": [
        {
          "name": "",
          "type": "bool"
        }
      ],
      "payable": false,
      "stateMutability": "view",
      "type": "function"
    },
    {
      "constant": false,
      "inputs": [
        {
          "name": "_newAuditor",
          "type": "address"
        }
      ],
      "name": "addAuditor",
      "outputs": [],
      "payable": false,
      "stateMutability": "nonpayable",
      "type": "function"
    },
    {
      "constant": true,
      "inputs": [],
      "name": "ROLE_SUPERUSER",
      "outputs": [
        {
          "name": "",
          "type": "string"
        }
      ],
      "payable": false,
      "stateMutability": "view",
      "type": "function"
    },
    {
      "constant": true,
      "inputs": [
        {
          "name": "_index",
          "type": "uint256"
        }
      ],
      "name": "getProject",
      "outputs": [
        {
          "name": "",
          "type": "address"
        }
      ],
      "payable": false,
      "stateMutability": "view",
      "type": "function"
    },
    {
      "inputs": [
        {
          "name": "_withdrawFeePercent",
          "type": "uint256"
        }
      ],
      "payable": false,
      "stateMutability": "nonpayable",
      "type": "constructor"
    },
    {
      "payable": true,
      "stateMutability": "payable",
      "type": "fallback"
    },
    {
      "anonymous": false,
      "inputs": [
        {
          "indexed": true,
          "name": "creator",
          "type": "address"
        },
        {
          "indexed": true,
          "name": "icoAddress",
          "type": "address"
        },
        {
          "indexed": true,
          "name": "tokenAddress",
          "type": "address"
        },
        {
          "indexed": false,
          "name": "name",
          "type": "string"
        }
      ],
      "name": "BREMICOCreated",
      "type": "event"
    },
    {
      "anonymous": false,
      "inputs": [
        {
          "indexed": true,
          "name": "operator",
          "type": "address"
        },
        {
          "indexed": false,
          "name": "role",
          "type": "string"
        }
      ],
      "name": "RoleAdded",
      "type": "event"
    },
    {
      "anonymous": false,
      "inputs": [
        {
          "indexed": true,
          "name": "operator",
          "type": "address"
        },
        {
          "indexed": false,
          "name": "role",
          "type": "string"
        }
      ],
      "name": "RoleRemoved",
      "type": "event"
    },
    {
      "constant": false,
      "inputs": [
        {
          "name": "_name",
          "type": "string"
        },
        {
          "name": "_symbol",
          "type": "string"
        },
        {
          "name": "_rate",
          "type": "uint256"
        },
        {
          "name": "_cap",
          "type": "uint256"
        },
        {
          "name": "_closingTime",
          "type": "uint256"
        },
        {
          "name": "_docHash",
          "type": "string"
        }
      ],
      "name": "createBREMICO",
      "outputs": [
        {
          "name": "tokenAddress",
          "type": "address"
        },
        {
          "name": "icoAddress",
          "type": "address"
        }
      ],
      "payable": false,
      "stateMutability": "nonpayable",
      "type": "function"
    },
    {
      "constant": false,
      "inputs": [
        {
          "name": "_value",
          "type": "uint256"
        }
      ],
      "name": "withdrawFees",
      "outputs": [],
      "payable": false,
      "stateMutability": "nonpayable",
      "type": "function"
    }
  ],
  "bytecode": "0x60806040523480156200001157600080fd5b50604051602080620041638339810160408181529151828201909252600981527f737570657275736572000000000000000000000000000000000000000000000060208201526200006d90339064010000000062000095810204565b6000811015801562000080575060648111155b15156200008c57600080fd5b600755620001e0565b62000111826000836040518082805190602001908083835b60208310620000ce5780518252601f199092019160209182019101620000ad565b51815160209384036101000a6000190180199092169116179052920194855250604051938490030190922092915050640100000000620001bb81026200170c1704565b81600160a060020a03167fbfec83d64eaa953f2708271a023ab9ee82057f8f3578d548c1a4ba0b5b700489826040518080602001828103825283818151815260200191508051906020019080838360005b838110156200017c57818101518382015260200162000162565b50505050905090810190601f168015620001aa5780820380516001836020036101000a031916815260200191505b509250505060405180910390a25050565b600160a060020a0316600090815260209190915260409020805460ff19166001179055565b613f7380620001f06000396000f300608060405260043610620001265763ffffffff7c01000000000000000000000000000000000000000000000000000000006000350416630988ca8c8114620001285780631e30397f1462000192578063217fe6c614620002025780633b032005146200026c5780633f029aaf14620002c8578063447cb8961462000358578063495ef705146200037357806349b90557146200039d5780634b77f26914620003c15780634fb19457146200043957806357c393fa14620004515780635e318e071462000475578063625c006d14620004905780639cdd991314620005a0578063adcfb4fc14620005b8578063b34e97e81462000614578063bceee05e146200062c578063e429cef11462000650578063ebb4f4841462000674578063f0f3f2c8146200068c575b005b3480156200013557600080fd5b5060408051602060046024803582810135601f810185900485028601850190965285855262000126958335600160a060020a0316953695604494919390910191908190840183828082843750949750620006a79650505050505050565b3480156200019f57600080fd5b506040805160206004803580820135601f8101849004840285018401909552848452620001ee943694929360249392840191908190840183828082843750949750620007199650505050505050565b604080519115158252519081900360200190f35b3480156200020f57600080fd5b5060408051602060046024803582810135601f8101859004850286018501909652858552620001ee958335600160a060020a0316953695604494919390910191908190840183828082843750949750620008119650505050505050565b3480156200027957600080fd5b506040805160206004803580820135601f8101849004840285018401909552848452620001ee943694929360249392840191908190840183828082843750949750620008889650505050505050565b348015620002d557600080fd5b50620002e062000918565b6040805160208082528351818301528351919283929083019185019080838360005b838110156200031c57818101518382015260200162000302565b50505050905090810190601f1680156200034a5780820380516001836020036101000a031916815260200191505b509250505060405180910390f35b3480156200036557600080fd5b50620001266004356200094f565b3480156200038057600080fd5b506200038b620009b3565b60408051918252519081900360200190f35b348015620003aa57600080fd5b50620001ee600160a060020a0360043516620009b9565b348015620003ce57600080fd5b506040805160206004803580820135601f81018490048402850184019095528484526200041d943694929360249392840191908190840183828082843750949750620009fc9650505050505050565b60408051600160a060020a039092168252519081900360200190f35b3480156200044657600080fd5b50620001ee62000ab8565b3480156200045e57600080fd5b5062000126600160a060020a036004351662000adf565b3480156200048257600080fd5b506200012660043562000b88565b3480156200049d57600080fd5b506040805160206004803580820135601f81018490048402850184019095528484526200057a94369492936024939284019190819084018382808284375050604080516020601f89358b018035918201839004830284018301909452808352979a99988101979196509182019450925082915084018382808284375050604080516020601f60608a01358b0180359182018390048302840183018552818452989b8a359b838c01359b958601359a91995097506080909401955091935091820191819084018382808284375094975062000c049650505050505050565b60408051600160a060020a03938416815291909216602082015281519081900390910190f35b348015620005ad57600080fd5b506200038b62001125565b348015620005c557600080fd5b506040805160206004803580820135601f8101849004840285018401909552848452620002e09436949293602493928401919081908401838280828437509497506200112b9650505050505050565b3480156200062157600080fd5b50620002e0620012e0565b3480156200063957600080fd5b50620001ee600160a060020a0360043516620013b6565b3480156200065d57600080fd5b5062000126600160a060020a0360043516620013e8565b3480156200068157600080fd5b50620002e06200146f565b3480156200069957600080fd5b506200041d60043562001495565b62000715826000836040518082805190602001908083835b60208310620006e05780518252601f199092019160209182019101620006bf565b51815160209384036101000a6000190180199092169116179052920194855250604051938490030190922092915050620014c3565b5050565b600080600083511115156200072d57600080fd5b826040518082805190602001908083835b602083106200075f5780518252601f1990920191602091820191016200073e565b5181516020939093036101000a600019018019909116921691909117905260405192018290039091206005549094508414159250620007a591505057600091506200080b565b6006836040518082805190602001908083835b60208310620007d95780518252601f199092019160209182019101620007b8565b51815160209384036101000a600019018019909216911617905292019485525060405193849003019092205415935050505b50919050565b600062000881836000846040518082805190602001908083835b602083106200084c5780518252601f1990920191602091820191016200082b565b51815160209384036101000a6000190180199092169116179052920194855250604051938490030190922092915050620014db565b9392505050565b60008082511180156200091257506000600160a060020a03166002836040518082805190602001908083835b60208310620008d55780518252601f199092019160209182019101620008b4565b51815160209384036101000a6000190180199092169116179052920194855250604051938490030190922054600160a060020a0316929092149150505b92915050565b60408051808201909152600781527f61756469746f7200000000000000000000000000000000000000000000000000602082015281565b6200097f3360408051908101604052806009815260200160008051602062003f28833981519152815250620006a7565b6007548114156200098f57600080fd5b60008110158015620009a2575060648111155b1515620009ae57600080fd5b600755565b60075481565b600062000912826040805190810160405280600781526020017f61756469746f720000000000000000000000000000000000000000000000000081525062000811565b6000806000835111151562000a1057600080fd5b6006836040518082805190602001908083835b6020831062000a445780518252601f19909201916020918201910162000a23565b51815160209384036101000a6000190180199092169116179052920194855250604080519485900382019094205460008181526004909252939020549293505050600160a060020a0316151562000a9a57600080fd5b600090815260046020526040902054600160a060020a031692915050565b33600090815260016020819052604082205460029181161561010002600019011604115b90565b62000b0f3360408051908101604052806009815260200160008051602062003f28833981519152815250620006a7565b600160a060020a038116151562000b2557600080fd5b62000b553360408051908101604052806009815260200160008051602062003f28833981519152815250620014fa565b62000b858160408051908101604052806009815260200160008051602062003f2883398151915281525062001612565b50565b62000bb83360408051908101604052806009815260200160008051602062003f28833981519152815250620006a7565b3031811180159062000bca5750600081115b151562000bd657600080fd5b604051339082156108fc029083906000818181858888f1935050505015801562000715573d6000803e3d6000fd5b60008060008062000c1533620013b6565b15801562000c2b575062000c2933620009b9565b155b151562000c3757600080fd5b60008a5111801562000c4a575060008951115b151562000c5657600080fd5b896040518082805190602001908083835b6020831062000c885780518252601f19909201916020918201910162000c67565b5181516020939093036101000a60001901801990911692169190911790526040519201829003909120600554909550851415925062000cc991505057600080fd5b60068a6040518082805190602001908083835b6020831062000cfd5780518252601f19909201916020918201910162000cdc565b51815160209384036101000a600019018019909216911617905292019485525060405193849003019092205415915062000d38905057600080fd5b606487101562000d4757600080fd5b308a8a898b338b8b60075462000d5c62001731565b808a600160a060020a0316600160a060020a03168152602001806020018060200189815260200188815260200187600160a060020a0316600160a060020a031681526020018681526020018060200185815260200184810384528c818151815260200191508051906020019080838360005b8381101562000de857818101518382015260200162000dce565b50505050905090810190601f16801562000e165780820380516001836020036101000a031916815260200191505b5084810383528b5181528b516020918201918d019080838360005b8381101562000e4b57818101518382015260200162000e31565b50505050905090810190601f16801562000e795780820380516001836020036101000a031916815260200191505b50848103825286518152865160209182019188019080838360005b8381101562000eae57818101518382015260200162000e94565b50505050905090810190601f16801562000edc5780820380516001836020036101000a031916815260200191505b509c50505050505050505050505050604051809103906000f08015801562000f08573d6000803e3d6000fd5b50905080925080600160a060020a031663fc0c546a6040518163ffffffff167c0100000000000000000000000000000000000000000000000000000000028152600401602060405180830381600087803b15801562000f6657600080fd5b505af115801562000f7b573d6000803e3d6000fd5b505050506040513d602081101562000f9257600080fd5b505160038054600090815260046020908152604091829020805473ffffffffffffffffffffffffffffffffffffffff1916600160a060020a038916179055915490518d5193975090926006928e929182918401908083835b602083106200100b5780518252601f19909201916020918201910162000fea565b51815160209384036101000a6000190180199092169116179052920194855250604051938490030190922092909255505060035415156200104c5760058290555b60036000815480929190600101919050555083600160a060020a031683600160a060020a031633600160a060020a03167fcbef3bd4943085dfb59f0609e5f754aec11e22a5838e77e0d0c0bff98a0dcdae8d6040518080602001828103825283818151815260200191508051906020019080838360005b83811015620010dd578181015183820152602001620010c3565b50505050905090810190601f1680156200110b5780820380516001836020036101000a031916815260200191505b509250505060405180910390a45050965096945050505050565b60035481565b606081600081511115156200113f57600080fd5b6000600160a060020a03166002826040518082805190602001908083835b602083106200117e5780518252601f1990920191602091820191016200115d565b51815160209384036101000a6000190180199092169116179052920194855250604051938490030190922054600160a060020a0316929092149150620011c5905057600080fd5b620011d033620013b6565b80620011e25750620011e233620009b9565b1515620011ee57600080fd5b336000908152600160208190526040909120546002918116156101000260001901160415156200123c5733600090815260016020908152604090912084516200123a9286019062001742565b505b3360009081526001602081815260409283902080548451600294821615610100026000190190911693909304601f8101839004830284018301909452838352919290830182828015620012d35780601f10620012a757610100808354040283529160200191620012d3565b820191906000526020600020905b815481529060010190602001808311620012b557829003601f168201915b5050505050915050919050565b336000908152600160208190526040822054606092600292821615610100026000190190911691909104116200131557600080fd5b3360009081526001602081815260409283902080548451600294821615610100026000190190911693909304601f8101839004830284018301909452838352919290830182828015620013ac5780601f106200138057610100808354040283529160200191620013ac565b820191906000526020600020905b8154815290600101906020018083116200138e57829003601f168201915b5050505050905090565b6000620009128260408051908101604052806009815260200160008051602062003f2883398151915281525062000811565b620014183360408051908101604052806009815260200160008051602062003f28833981519152815250620006a7565b600160a060020a03811615156200142e57600080fd5b62000b85816040805190810160405280600781526020017f61756469746f720000000000000000000000000000000000000000000000000081525062001612565b604080518082019091526009815260008051602062003f28833981519152602082015281565b6003546000908210620014a757600080fd5b50600090815260046020526040902054600160a060020a031690565b620014cf8282620014db565b15156200071557600080fd5b600160a060020a03166000908152602091909152604090205460ff1690565b62001568826000836040518082805190602001908083835b60208310620015335780518252601f19909201916020918201910162001512565b51815160209384036101000a6000190180199092169116179052920194855250604051938490030190922092915050620016ea565b81600160a060020a03167fd211483f91fc6eff862467f8de606587a30c8fc9981056f051b897a418df803a826040518080602001828103825283818151815260200191508051906020019080838360005b83811015620015d3578181015183820152602001620015b9565b50505050905090810190601f168015620016015780820380516001836020036101000a031916815260200191505b509250505060405180910390a25050565b62001680826000836040518082805190602001908083835b602083106200164b5780518252601f1990920191602091820191016200162a565b51815160209384036101000a60001901801990921691161790529201948552506040519384900301909220929150506200170c565b81600160a060020a03167fbfec83d64eaa953f2708271a023ab9ee82057f8f3578d548c1a4ba0b5b7004898260405180806020018281038252838181518152602001915080519060200190808383600083811015620015d3578181015183820152602001620015b9565b600160a060020a0316600090815260209190915260409020805460ff19169055565b600160a060020a0316600090815260209190915260409020805460ff19166001179055565b60405161274380620017e583390190565b828054600181600116156101000203166002900490600052602060002090601f016020900481019282601f106200178557805160ff1916838001178555620017b5565b82800160010185558215620017b5579182015b82811115620017b557825182559160200191906001019062001798565b50620017c3929150620017c7565b5090565b62000adc91905b80821115620017c35760008155600101620017ce560060806040523480156200001157600080fd5b50604051620027433803806200274383398101604090815281516020830151918301516060840151608085015160a086015160c087015160e08801516101008901519698978801979586019694959394929391929101906000600160a060020a038a1615156200008057600080fd5b88516000106200008f57600080fd5b60648710156200009e57600080fd5b60008611620000ac57600080fd5b600160a060020a0385161515620000c257600080fd5b42841015620000d057600080fd5b60008210158015620000e3575060648211155b1515620000ef57600080fd5b60118054600160a060020a03808d16600160a060020a031992831617909255600489905560028890556001805492881692909116919091179055600e849055825162000143906005906020860190620002ac565b5060115460068054600160a060020a031916600160a060020a0390921691909117905560108290558888306200017862000331565b600160a060020a0382166040820152606080825284519082015283518190602080830191608084019188019080838360005b83811015620001c4578181015183820152602001620001aa565b50505050905090810190601f168015620001f25780820380516001836020036101000a031916815260200191505b50838103825285518152855160209182019187019080838360005b83811015620002275781810151838201526020016200020d565b50505050905090810190601f168015620002555780820380516001836020036101000a031916815260200191505b5095505050505050604051809103906000f0801580156200027a573d6000803e3d6000fd5b5060008054600160a060020a031916600160a060020a0392909216919091179055506200036298505050505050505050565b828054600181600116156101000203166002900490600052602060002090601f016020900481019282601f10620002ef57805160ff19168380011785556200031f565b828001600101855582156200031f579182015b828111156200031f57825182559160200191906001019062000302565b506200032d92915062000342565b5090565b60405161139780620013ac83390190565b6200035f91905b808211156200032d576000815560010162000349565b90565b61103a80620003726000396000f3006080604052600436106101695763ffffffff7c010000000000000000000000000000000000000000000000000000000060003504166312065fe081146101745780631515bc2b1461019b57806318e4ac35146101c457806327e235e3146101e55780632c4e722e146102065780632e1a7d4d1461021b578063338cdca114610226578063355274ea146102545780633b957317146102695780633d6df0d51461027e5780634042b66f1461030857806344aa57001461031d578063495ef7051461033257806349b90557146103475780634b6753bc146103685780634f9359451461037d578063521eb27314610392578063590e1ae3146103c357806368124f9a146103d857806393f80ff4146103ed57806397781f0214610405578063c8e7f5951461041a578063e429cef11461042f578063e44e76a014610450578063ea78d1ab14610465578063ec8ac4d81461047a578063fad5e0c41461048e578063fc0c546a146104a3575b610172336104b8565b005b34801561018057600080fd5b5061018961056c565b60408051918252519081900360200190f35b3480156101a757600080fd5b506101b061057f565b604080519115158252519081900360200190f35b3480156101d057600080fd5b506101b0600160a060020a0360043516610587565b3480156101f157600080fd5b50610189600160a060020a03600435166105a5565b34801561021257600080fd5b506101896105b7565b6101726004356105bd565b34801561023257600080fd5b5061023b610685565b6040805192835260208301919091528051918290030190f35b34801561026057600080fd5b5061018961068e565b34801561027557600080fd5b506101b0610694565b34801561028a57600080fd5b506102936106b2565b6040805160208082528351818301528351919283929083019185019080838360005b838110156102cd5781810151838201526020016102b5565b50505050905090810190601f1680156102fa5780820380516001836020036101000a031916815260200191505b509250505060405180910390f35b34801561031457600080fd5b50610189610740565b34801561032957600080fd5b506101b0610746565b34801561033e57600080fd5b5061018961076f565b34801561035357600080fd5b506101b0600160a060020a0360043516610775565b34801561037457600080fd5b50610189610793565b34801561038957600080fd5b506101b0610799565b34801561039e57600080fd5b506103a76107a4565b60408051600160a060020a039092168252519081900360200190f35b3480156103cf57600080fd5b506101726107b3565b3480156103e457600080fd5b506101726108dc565b3480156103f957600080fd5b506103a7600435610b4a565b34801561041157600080fd5b506101b0610b77565b34801561042657600080fd5b50610189610bb3565b34801561043b57600080fd5b50610172600160a060020a0360043516610bb9565b34801561045c57600080fd5b506101b0610d95565b34801561047157600080fd5b50610172610d9e565b610172600160a060020a03600435166104b8565b34801561049a57600080fd5b506103a7610e78565b3480156104af57600080fd5b506103a7610e87565b600a54600090819060ff1680156104d15750600e544211155b15156104dc57600080fd5b3491506104e98383610e96565b6104f282610ebb565b600354909150610508908363ffffffff610ed816565b6003556105158382610ef2565b60408051838152602081018390528151600160a060020a0386169233927f623b3804fa71d67900d064613da8f94b9617215ee90799290593e1745087ad18929081900390910190a36105678383610efc565b505050565b336000908152600f602052604090205490565b600e54421190565b600160a060020a03166000908152600d602052604090205460ff1690565b600f6020526000908152604090205481565b60025481565b600154600160a060020a031633146105d457600080fd5b600a5460ff1615156105e557600080fd5b6105ed610799565b80156105fc57506105fc61057f565b151561060757600080fd5b60648110158015610619575030318111155b151561062457600080fd5b600b541561063157600080fd5b6064303182900310156106625760408051808201909152303180825260006020909201829052600b55600c55610682565b6040805180820190915281815260006020909101819052600b829055600c555b50565b600b54600c5482565b60045481565b600061069e61057f565b80156106ad5750600a5460ff16155b905090565b6005805460408051602060026001851615610100026000190190941693909304601f810184900484028201840190925281815292918301828280156107385780601f1061070d57610100808354040283529160200191610738565b820191906000526020600020905b81548152906001019060200180831161071b57829003601f168201915b505050505081565b60035481565b600061075061057f565b801561075f575061075f610799565b80156106ad575050606430311090565b60105481565b600160a060020a031660009081526007602052604090205460ff1690565b600e5481565b600454600354101590565b600154600160a060020a031681565b6000806107be61057f565b80156107cf57506107cd610799565b155b15156107da57600080fd5b336000908152600f6020526040812054116107f457600080fd5b336000908152600f602052604081208054919055915061081382610ebb565b60008054604080517fd0482d04000000000000000000000000000000000000000000000000000000008152336004820152602481018590529051939450600160a060020a039091169263d0482d049260448084019391929182900301818387803b15801561088057600080fd5b505af1158015610894573d6000803e3d6000fd5b50506003546108ac925090508363ffffffff610f1e16565b600355604051339083156108fc029084906000818181858888f19350505050158015610567573d6000803e3d6000fd5b600654604080517f49b905570000000000000000000000000000000000000000000000000000000081523360048201529051600092839283928392600160a060020a0316916349b9055791602480830192602092919082900301818787803b15801561094757600080fd5b505af115801561095b573d6000803e3d6000fd5b505050506040513d602081101561097157600080fd5b5051151561097e57600080fd5b600b5460001061098d57600080fd5b336000908152600d602052604090205460ff16156109aa57600080fd5b600a5460ff1615156109bb57600080fd5b6109c3610799565b80156109d257506109d261057f565b15156109dd57600080fd5b3360009081526007602052604090205460ff1615156109fb57600080fd5b336000908152600d60205260409020805460ff19166001908117909155600c8054909101908190556009541415610b4457600b8054604080518082019091526000808252602090910181905291829055600c829055945092505b600954831015610a9657600083815260086020908152604080832054600160a060020a03168352600d9091529020805460ff19169055600190920191610a55565b601054610aba90610aae86606463ffffffff610f3016565b9063ffffffff610f4716565b9150610acc848363ffffffff610f1e16565b601154604051919250600160a060020a03169083156108fc029084906000818181858888f19350505050158015610b07573d6000803e3d6000fd5b50600154604051600160a060020a039091169082156108fc029083906000818181858888f19350505050158015610b42573d6000803e3d6000fd5b505b50505050565b6009546000908210610b5b57600080fd5b50600090815260086020526040902054600160a060020a031690565b6000610b81610799565b8015610b905750610b9061057f565b8015610b9e5750600b546000105b80156106ad5750610bad610746565b15905090565b60095481565b600e54421115610bc857600080fd5b600a5460ff1615610bd857600080fd5b600654604080517fbceee05e0000000000000000000000000000000000000000000000000000000081523360048201529051600160a060020a039092169163bceee05e916024808201926020929091908290030181600087803b158015610c3e57600080fd5b505af1158015610c52573d6000803e3d6000fd5b505050506040513d6020811015610c6857600080fd5b50511515610c7557600080fd5b600654604080517f49b90557000000000000000000000000000000000000000000000000000000008152600160a060020a038481166004830152915191909216916349b905579160248083019260209291908290030181600087803b158015610cdd57600080fd5b505af1158015610cf1573d6000803e3d6000fd5b505050506040513d6020811015610d0757600080fd5b50511515610d1457600080fd5b600160a060020a03811660009081526007602052604090205460ff1615610d3a57600080fd5b600160a060020a03166000818152600760209081526040808320805460ff1916600190811790915560098054855260089093529220805473ffffffffffffffffffffffffffffffffffffffff19169093179092558154019055565b600a5460ff1681565b600e54421115610dad57600080fd5b600a5460ff1615610dbd57600080fd5b600654604080517fbceee05e0000000000000000000000000000000000000000000000000000000081523360048201529051600160a060020a039092169163bceee05e916024808201926020929091908290030181600087803b158015610e2357600080fd5b505af1158015610e37573d6000803e3d6000fd5b505050506040513d6020811015610e4d57600080fd5b50511515610e5a57600080fd5b600954600010610e6957600080fd5b600a805460ff19166001179055565b601154600160a060020a031681565b600054600160a060020a031681565b600160a060020a0382161515610eab57600080fd5b801515610eb757600080fd5b5050565b6000610ed260025483610f4790919063ffffffff16565b92915050565b600082820183811015610ee757fe5b8091505b5092915050565b610eb78282610f72565b600160a060020a039091166000908152600f6020526040902080549091019055565b600082821115610f2a57fe5b50900390565b6000808284811515610f3e57fe5b04949350505050565b600080831515610f5a5760009150610eeb565b50828202828482811515610f6a57fe5b0414610ee757fe5b60008054604080517f40c10f19000000000000000000000000000000000000000000000000000000008152600160a060020a03868116600483015260248201869052915191909216926340c10f1992604480820193602093909283900390910190829087803b158015610fe457600080fd5b505af1158015610ff8573d6000803e3d6000fd5b505050506040513d6020811015610b4457600080fd00a165627a7a72305820687f600fb6c938cad2da443ced072148d8de5bdb5a1fa06d356296fc4b170340002960806040526003805460a060020a60ff02191690553480156200002157600080fd5b50604051620013973803806200139783398101604090815281516020808401519284015160038054600160a060020a03191633179055918401805190949390930192620000759160049190860190620000b5565b5081516200008b906005906020850190620000b5565b5060068054600160a060020a031916600160a060020a0392909216919091179055506200015a9050565b828054600181600116156101000203166002900490600052602060002090601f016020900481019282601f10620000f857805160ff191683800117855562000128565b8280016001018555821562000128579182015b82811115620001285782518255916020019190600101906200010b565b50620001369291506200013a565b5090565b6200015791905b8082111562000136576000815560010162000141565b90565b61122d806200016a6000396000f3006080604052600436106100d75763ffffffff60e060020a60003504166305d2035b81146100dc57806306fdde0314610105578063095ea7b31461018f57806318160ddd146101b357806323b872dd146101da578063313ce5671461020457806340c10f191461022f578063661884631461025357806370a08231146102775780637d64bcb4146102985780638da5cb5b146102ad57806395d89b41146102de578063a9059cbb146102f3578063d0482d0414610317578063d73dd6231461033d578063dd62ed3e14610361578063f2fde38b14610388575b600080fd5b3480156100e857600080fd5b506100f16103a9565b604080519115158252519081900360200190f35b34801561011157600080fd5b5061011a6103ca565b6040805160208082528351818301528351919283929083019185019080838360005b8381101561015457818101518382015260200161013c565b50505050905090810190601f1680156101815780820380516001836020036101000a031916815260200191505b509250505060405180910390f35b34801561019b57600080fd5b506100f1600160a060020a0360043516602435610458565b3480156101bf57600080fd5b506101c8610570565b60408051918252519081900360200190f35b3480156101e657600080fd5b506100f1600160a060020a0360043581169060243516604435610576565b34801561021057600080fd5b50610219610690565b6040805160ff9092168252519081900360200190f35b34801561023b57600080fd5b506100f1600160a060020a0360043516602435610695565b34801561025f57600080fd5b506100f1600160a060020a036004351660243561079f565b34801561028357600080fd5b506101c8600160a060020a03600435166108b0565b3480156102a457600080fd5b506100f16108cb565b3480156102b957600080fd5b506102c2610971565b60408051600160a060020a039092168252519081900360200190f35b3480156102ea57600080fd5b5061011a610980565b3480156102ff57600080fd5b506100f1600160a060020a03600435166024356109db565b34801561032357600080fd5b5061033b600160a060020a0360043516602435610aec565b005b34801561034957600080fd5b506100f1600160a060020a0360043516602435610bc8565b34801561036d57600080fd5b506101c8600160a060020a0360043581169060243516610cd9565b34801561039457600080fd5b5061033b600160a060020a0360043516610d04565b60035474010000000000000000000000000000000000000000900460ff1681565b6004805460408051602060026001851615610100026000190190941693909304601f810184900484028201840190925281815292918301828280156104505780601f1061042557610100808354040283529160200191610450565b820191906000526020600020905b81548152906001019060200180831161043357829003601f168201915b505050505081565b6006546040805160e060020a631515bc2b0281529051600092600160a060020a031691631515bc2b91600480830192602092919082900301818787803b1580156104a157600080fd5b505af11580156104b5573d6000803e3d6000fd5b505050506040513d60208110156104cb57600080fd5b505180156105545750600660009054906101000a9004600160a060020a0316600160a060020a0316634f9359456040518163ffffffff1660e060020a028152600401602060405180830381600087803b15801561052757600080fd5b505af115801561053b573d6000803e3d6000fd5b505050506040513d602081101561055157600080fd5b50515b151561055f57600080fd5b6105698383610d99565b9392505050565b60005481565b6006546040805160e060020a631515bc2b0281529051600092600160a060020a031691631515bc2b91600480830192602092919082900301818787803b1580156105bf57600080fd5b505af11580156105d3573d6000803e3d6000fd5b505050506040513d60208110156105e957600080fd5b505180156106725750600660009054906101000a9004600160a060020a0316600160a060020a0316634f9359456040518163ffffffff1660e060020a028152600401602060405180830381600087803b15801561064557600080fd5b505af1158015610659573d6000803e3d6000fd5b505050506040513d602081101561066f57600080fd5b50515b151561067d57600080fd5b610688848484610dff565b949350505050565b601281565b600354600090600160a060020a031633146106af57600080fd5b60035474010000000000000000000000000000000000000000900460ff16156106d757600080fd5b6000546106ea908363ffffffff610f6616565b6000908155600160a060020a038416815260016020526040902054610715908363ffffffff610f6616565b600160a060020a038416600081815260016020908152604091829020939093558051858152905191927f0f6798a560793a54c3bcfe86a93cde1e73087d944c0ea20544137d412139688592918290030190a2604080518381529051600160a060020a038516916000916000805160206111e28339815191529181900360200190a350600192915050565b6006546040805160e060020a631515bc2b0281529051600092600160a060020a031691631515bc2b91600480830192602092919082900301818787803b1580156107e857600080fd5b505af11580156107fc573d6000803e3d6000fd5b505050506040513d602081101561081257600080fd5b5051801561089b5750600660009054906101000a9004600160a060020a0316600160a060020a0316634f9359456040518163ffffffff1660e060020a028152600401602060405180830381600087803b15801561086e57600080fd5b505af1158015610882573d6000803e3d6000fd5b505050506040513d602081101561089857600080fd5b50515b15156108a657600080fd5b6105698383610f75565b600160a060020a031660009081526001602052604090205490565b600354600090600160a060020a031633146108e557600080fd5b60035474010000000000000000000000000000000000000000900460ff161561090d57600080fd5b6003805474ff00000000000000000000000000000000000000001916740100000000000000000000000000000000000000001790556040517fae5184fba832cb2b1f702aca6117b8d265eaf03ad33eb133f19dde0f5920fa0890600090a150600190565b600354600160a060020a031681565b6005805460408051602060026001851615610100026000190190941693909304601f810184900484028201840190925281815292918301828280156104505780601f1061042557610100808354040283529160200191610450565b6006546040805160e060020a631515bc2b0281529051600092600160a060020a031691631515bc2b91600480830192602092919082900301818787803b158015610a2457600080fd5b505af1158015610a38573d6000803e3d6000fd5b505050506040513d6020811015610a4e57600080fd5b50518015610ad75750600660009054906101000a9004600160a060020a0316600160a060020a0316634f9359456040518163ffffffff1660e060020a028152600401602060405180830381600087803b158015610aaa57600080fd5b505af1158015610abe573d6000803e3d6000fd5b505050506040513d6020811015610ad457600080fd5b50515b1515610ae257600080fd5b6105698383611065565b600354600160a060020a03163314610b0357600080fd5b600160a060020a0382166000908152600160205260409020548114610b2757600080fd5b600160a060020a038216600090815260016020526040812081905554610b53908263ffffffff61113616565b600055604080518281529051600160a060020a038416917fcc16f5dbb4873280815c1ee09dbd06736cffcc184412cf7a71a0fdb75d397ca5919081900360200190a2604080518281529051600091600160a060020a038516916000805160206111e28339815191529181900360200190a35050565b6006546040805160e060020a631515bc2b0281529051600092600160a060020a031691631515bc2b91600480830192602092919082900301818787803b158015610c1157600080fd5b505af1158015610c25573d6000803e3d6000fd5b505050506040513d6020811015610c3b57600080fd5b50518015610cc45750600660009054906101000a9004600160a060020a0316600160a060020a0316634f9359456040518163ffffffff1660e060020a028152600401602060405180830381600087803b158015610c9757600080fd5b505af1158015610cab573d6000803e3d6000fd5b505050506040513d6020811015610cc157600080fd5b50515b1515610ccf57600080fd5b6105698383611148565b600160a060020a03918216600090815260026020908152604080832093909416825291909152205490565b600354600160a060020a03163314610d1b57600080fd5b600160a060020a0381161515610d3057600080fd5b600354604051600160a060020a038084169216907f8be0079c531659141344cd1fd0a4f28419497f9722a3daafe3b4186f6b6457e090600090a36003805473ffffffffffffffffffffffffffffffffffffffff1916600160a060020a0392909216919091179055565b336000818152600260209081526040808320600160a060020a038716808552908352818420869055815186815291519394909390927f8c5be1e5ebec7d5bd14f71427d1e84f3dd0314c0f7b2291e5b200ac8c7c3b925928290030190a350600192915050565b6000600160a060020a0383161515610e1657600080fd5b600160a060020a038416600090815260016020526040902054821115610e3b57600080fd5b600160a060020a0384166000908152600260209081526040808320338452909152902054821115610e6b57600080fd5b600160a060020a038416600090815260016020526040902054610e94908363ffffffff61113616565b600160a060020a038086166000908152600160205260408082209390935590851681522054610ec9908363ffffffff610f6616565b600160a060020a038085166000908152600160209081526040808320949094559187168152600282528281203382529091522054610f0d908363ffffffff61113616565b600160a060020a03808616600081815260026020908152604080832033845282529182902094909455805186815290519287169391926000805160206111e2833981519152929181900390910190a35060019392505050565b60008282018381101561056957fe5b336000908152600260209081526040808320600160a060020a038616845290915281205480831115610fca57336000908152600260209081526040808320600160a060020a0388168452909152812055610fff565b610fda818463ffffffff61113616565b336000908152600260209081526040808320600160a060020a03891684529091529020555b336000818152600260209081526040808320600160a060020a0389168085529083529281902054815190815290519293927f8c5be1e5ebec7d5bd14f71427d1e84f3dd0314c0f7b2291e5b200ac8c7c3b925929181900390910190a35060019392505050565b6000600160a060020a038316151561107c57600080fd5b3360009081526001602052604090205482111561109857600080fd5b336000908152600160205260409020546110b8908363ffffffff61113616565b3360009081526001602052604080822092909255600160a060020a038516815220546110ea908363ffffffff610f6616565b600160a060020a0384166000818152600160209081526040918290209390935580518581529051919233926000805160206111e28339815191529281900390910190a350600192915050565b60008282111561114257fe5b50900390565b336000908152600260209081526040808320600160a060020a038616845290915281205461117c908363ffffffff610f6616565b336000818152600260209081526040808320600160a060020a0389168085529083529281902085905580519485525191937f8c5be1e5ebec7d5bd14f71427d1e84f3dd0314c0f7b2291e5b200ac8c7c3b925929081900390910190a3506001929150505600ddf252ad1be2c89b69c2b068fc378daa952ba7f163c4a11628f55a4df523b3efa165627a7a72305820299ee343c91a07b188f0bc0635741dee465a3fdfa9b4a3df0ede8cf07966176600297375706572757365720000000000000000000000000000000000000000000000a165627a7a72305820a5e60eca09371733d6628af749030abe0673ee863f30ac7a51fb4af5661134080029",
  "source": "pragma solidity ^0.4.24;\n\nimport \"./BREMFactory.sol\";\nimport \"./Userable.sol\";\n// import \"./BRMToken.sol\";\n\ncontract BREM is BREMFactory {\n\n    // BRMToken public BRM;\n\n    constructor(\n        // address _brmAddress,\n        // uint256 _icoCreationPrice,\n        uint256 _withdrawFeePercent\n    ) \n    public \n    {\n        require(_withdrawFeePercent >= 0 && _withdrawFeePercent <=100);\n        // BRM = BRMToken(_brmAddress);\n        // icoCreationPrice = _icoCreationPrice;\n        withdrawFeePercent = _withdrawFeePercent;\n    }    \n    \n    function createBREMICO( \n        string _name, \n        string _symbol,\n        uint256 _rate,\n        uint256 _cap,\n        uint256 _closingTime,\n        string _docHash\n    ) \n    public\n    // onlyDeveloper\n    returns (address tokenAddress, address icoAddress)\n    {\n        // require(BRM.balanceOf(msg.sender) >= icoCreationPrice);\n        require(!isSuperuser(msg.sender) && !isAuditor(msg.sender));\n        require(bytes(_name).length > 0 && bytes(_symbol).length > 0);\n        bytes32 nameHash = keccak256(bytes(_name));\n        require(nameHash != firtProjectNameHash);\n        require(indexes[_name] == 0);\n        require(_cap >= 100);\n        \n        // require(BRM.transferFrom(msg.sender, address(this), icoCreationPrice));\n        \n        \n        BREMICO ico = new BREMICO(\n            address(this),\n            _name,\n            _symbol,\n            _cap, \n            _rate,\n            msg.sender,\n            _closingTime,\n            _docHash, \n            withdrawFeePercent\n        );\n        icoAddress = address(ico);\n        tokenAddress = ico.token();\n\n        projects[projectsAmount] = icoAddress;\n        indexes[_name] = projectsAmount;\n        if (projectsAmount == 0) {\n            firtProjectNameHash = nameHash;\n        }\n        projectsAmount++;\n        emit BREMICOCreated(msg.sender, icoAddress, tokenAddress, _name);\n    }\n    \n    // Withdraw collected fies\n    function withdrawFees(uint256 _value) \n        public \n        onlySuperuser\n     {\n        require(address(this).balance >= _value && _value > 0);\n        msg.sender.transfer(_value);\n    } \n\n    function () external payable {}    \n}",
  "sourcePath": "/Users/artur/Development/Brem/contracts/BREM.sol",
  "compiler": {
    "name": "solc",
    "version": "0.4.24+commit.e67f0147.Emscripten.clang"
  },
  "schemaVersion": "2.0.1",
  "updatedAt": "2018-08-21T17:53:24.876Z"
}