{
  "contractName": "BREMFactory",
  "abi": [
    {
      "constant": true,
      "inputs": [],
      "name": "icoCreationPrice",
      "outputs": [
        {
          "name": "",
          "type": "uint256"
        }
      ],
      "payable": false,
      "stateMutability": "view",
      "type": "function"
    },
    {
      "constant": true,
      "inputs": [],
      "name": "projectsAmount",
      "outputs": [
        {
          "name": "",
          "type": "uint256"
        }
      ],
      "payable": false,
      "stateMutability": "view",
      "type": "function"
    },
    {
      "anonymous": false,
      "inputs": [
        {
          "indexed": true,
          "name": "creator",
          "type": "address"
        },
        {
          "indexed": true,
          "name": "icoAddress",
          "type": "address"
        },
        {
          "indexed": true,
          "name": "tokenAddress",
          "type": "address"
        },
        {
          "indexed": false,
          "name": "name",
          "type": "string"
        }
      ],
      "name": "BREMICOCreated",
      "type": "event"
    },
    {
      "constant": true,
      "inputs": [
        {
          "name": "_index",
          "type": "uint256"
        }
      ],
      "name": "getProject",
      "outputs": [
        {
          "name": "",
          "type": "address"
        }
      ],
      "payable": false,
      "stateMutability": "view",
      "type": "function"
    },
    {
      "constant": true,
      "inputs": [
        {
          "name": "_projectName",
          "type": "string"
        }
      ],
      "name": "getProjectByName",
      "outputs": [
        {
          "name": "",
          "type": "address"
        }
      ],
      "payable": false,
      "stateMutability": "view",
      "type": "function"
    }
  ],
  "bytecode": "0x608060405261271060035534801561001657600080fd5b50610383806100266000396000f300608060405260043610610062576000357c0100000000000000000000000000000000000000000000000000000000900463ffffffff1680634b77f2691461006757806380d2370f146101105780639cdd99131461013b578063f0f3f2c814610166575b600080fd5b34801561007357600080fd5b506100ce600480360381019080803590602001908201803590602001908080601f01602080910402602001604051908101604052809392919081815260200183838082843782019150505050505091929192905050506101d3565b604051808273ffffffffffffffffffffffffffffffffffffffff1673ffffffffffffffffffffffffffffffffffffffff16815260200191505060405180910390f35b34801561011c57600080fd5b506101256102ff565b6040518082815260200191505060405180910390f35b34801561014757600080fd5b50610150610305565b6040518082815260200191505060405180910390f35b34801561017257600080fd5b506101916004803603810190808035906020019092919050505061030b565b604051808273ffffffffffffffffffffffffffffffffffffffff1673ffffffffffffffffffffffffffffffffffffffff16815260200191505060405180910390f35b600080600083511115156101e657600080fd5b6002836040518082805190602001908083835b60208310151561021e57805182526020820191506020810190506020830392506101f9565b6001836020036101000a0380198251168184511680821785525050505050509050019150509081526020016040518091039020549050600073ffffffffffffffffffffffffffffffffffffffff166001600083815260200190815260200160002060009054906101000a900473ffffffffffffffffffffffffffffffffffffffff1673ffffffffffffffffffffffffffffffffffffffff16141515156102c357600080fd5b6001600082815260200190815260200160002060009054906101000a900473ffffffffffffffffffffffffffffffffffffffff16915050919050565b60035481565b60005481565b600080548210151561031c57600080fd5b6001600083815260200190815260200160002060009054906101000a900473ffffffffffffffffffffffffffffffffffffffff1690509190505600a165627a7a72305820289c58db4e7fdd8924ba5abe7c30f200cf89612b8fc1491957c6d770865a82770029",
  "source": "pragma solidity ^0.4.24;\n\nimport \"./BREMToken.sol\";\nimport \"./BREMICO.sol\";\n\ncontract BREMFactory {\n    \n    uint256 public projectsAmount;\n    \n    mapping(uint256 => address) projects;\n    \n    function getProject(uint256 _index) \n        public \n        view \n        returns(address)\n    {\n        require(_index < projectsAmount);\n        return projects[_index];\n    }\n    \n    mapping(string => uint256) indexes;\n    \n    function getProjectByName(string _projectName)\n        public\n        view\n        returns(address) \n    {\n        require(bytes(_projectName).length > 0);\n        uint256 index = indexes[_projectName];\n        require(projects[index] != address(0));\n        \n        return projects[index];    \n    }\n    \n    event BREMICOCreated(\n        address indexed creator,\n        address indexed icoAddress,\n        address indexed tokenAddress,\n        string name\n    );\n    \n    uint256 public icoCreationPrice = 10000;\n}",
  "sourcePath": "/Users/artur/Development/Brem/contracts/BREMFactory.sol",
  "compiler": {
    "name": "solc",
    "version": "0.4.24+commit.e67f0147.Emscripten.clang"
  },
  "schemaVersion": "2.0.1",
  "updatedAt": "2018-07-24T22:42:39.136Z"
}