{
  "contractName": "Developerable",
  "abi": [
    {
      "constant": true,
      "inputs": [
        {
          "name": "_operator",
          "type": "address"
        },
        {
          "name": "_role",
          "type": "string"
        }
      ],
      "name": "checkRole",
      "outputs": [],
      "payable": false,
      "stateMutability": "view",
      "type": "function"
    },
    {
      "constant": true,
      "inputs": [
        {
          "name": "_operator",
          "type": "address"
        },
        {
          "name": "_role",
          "type": "string"
        }
      ],
      "name": "hasRole",
      "outputs": [
        {
          "name": "",
          "type": "bool"
        }
      ],
      "payable": false,
      "stateMutability": "view",
      "type": "function"
    },
    {
      "constant": true,
      "inputs": [],
      "name": "ROLE_AUDITOR",
      "outputs": [
        {
          "name": "",
          "type": "string"
        }
      ],
      "payable": false,
      "stateMutability": "view",
      "type": "function"
    },
    {
      "constant": true,
      "inputs": [
        {
          "name": "_addr",
          "type": "address"
        }
      ],
      "name": "isAuditor",
      "outputs": [
        {
          "name": "",
          "type": "bool"
        }
      ],
      "payable": false,
      "stateMutability": "view",
      "type": "function"
    },
    {
      "constant": false,
      "inputs": [
        {
          "name": "_newSuperuser",
          "type": "address"
        }
      ],
      "name": "transferSuperuser",
      "outputs": [],
      "payable": false,
      "stateMutability": "nonpayable",
      "type": "function"
    },
    {
      "constant": true,
      "inputs": [
        {
          "name": "_addr",
          "type": "address"
        }
      ],
      "name": "isSuperuser",
      "outputs": [
        {
          "name": "",
          "type": "bool"
        }
      ],
      "payable": false,
      "stateMutability": "view",
      "type": "function"
    },
    {
      "constant": true,
      "inputs": [],
      "name": "ROLE_DEVELOPER",
      "outputs": [
        {
          "name": "",
          "type": "string"
        }
      ],
      "payable": false,
      "stateMutability": "view",
      "type": "function"
    },
    {
      "constant": false,
      "inputs": [
        {
          "name": "_newAuditor",
          "type": "address"
        }
      ],
      "name": "addAuditor",
      "outputs": [],
      "payable": false,
      "stateMutability": "nonpayable",
      "type": "function"
    },
    {
      "constant": true,
      "inputs": [],
      "name": "ROLE_SUPERUSER",
      "outputs": [
        {
          "name": "",
          "type": "string"
        }
      ],
      "payable": false,
      "stateMutability": "view",
      "type": "function"
    },
    {
      "anonymous": false,
      "inputs": [
        {
          "indexed": true,
          "name": "operator",
          "type": "address"
        },
        {
          "indexed": false,
          "name": "role",
          "type": "string"
        }
      ],
      "name": "RoleAdded",
      "type": "event"
    },
    {
      "anonymous": false,
      "inputs": [
        {
          "indexed": true,
          "name": "operator",
          "type": "address"
        },
        {
          "indexed": false,
          "name": "role",
          "type": "string"
        }
      ],
      "name": "RoleRemoved",
      "type": "event"
    },
    {
      "constant": false,
      "inputs": [],
      "name": "addDeveloper",
      "outputs": [],
      "payable": false,
      "stateMutability": "nonpayable",
      "type": "function"
    },
    {
      "constant": true,
      "inputs": [
        {
          "name": "_addr",
          "type": "address"
        }
      ],
      "name": "isDeveloper",
      "outputs": [
        {
          "name": "",
          "type": "bool"
        }
      ],
      "payable": false,
      "stateMutability": "view",
      "type": "function"
    }
  ],
  "bytecode": "0x6080604052610052336040805190810160405280600981526020017f7375706572757365720000000000000000000000000000000000000000000000815250610057640100000000026401000000009004565b6101f6565b6100e1826000836040518082805190602001908083835b602083101515610093578051825260208201915060208101905060208303925061006e565b6001836020036101000a038019825116818451168082178552505050505050905001915050908152602001604051809103902061019864010000000002610cd7179091906401000000009004565b8173ffffffffffffffffffffffffffffffffffffffff167fbfec83d64eaa953f2708271a023ab9ee82057f8f3578d548c1a4ba0b5b700489826040518080602001828103825283818151815260200191508051906020019080838360005b8381101561015a57808201518184015260208101905061013f565b50505050905090810190601f1680156101875780820380516001836020036101000a031916815260200191505b509250505060405180910390a25050565b60018260000160008373ffffffffffffffffffffffffffffffffffffffff1673ffffffffffffffffffffffffffffffffffffffff16815260200190815260200160002060006101000a81548160ff0219169083151502179055505050565b610dbf806102056000396000f3006080604052600436106100af576000357c0100000000000000000000000000000000000000000000000000000000900463ffffffff1680630988ca8c146100b4578063217fe6c61461013d5780632b7d7489146101de5780633f029aaf146101f557806349b905571461028557806357c393fa146102e05780635eca4a7014610323578063bceee05e1461037e578063e31cd22e146103d9578063e429cef114610469578063ebb4f484146104ac575b600080fd5b3480156100c057600080fd5b5061013b600480360381019080803573ffffffffffffffffffffffffffffffffffffffff169060200190929190803590602001908201803590602001908080601f016020809104026020016040519081016040528093929190818152602001838380828437820191505050505050919291929050505061053c565b005b34801561014957600080fd5b506101c4600480360381019080803573ffffffffffffffffffffffffffffffffffffffff169060200190929190803590602001908201803590602001908080601f01602080910402602001604051908101604052809392919081815260200183838082843782019150505050505091929192905050506105bd565b604051808215151515815260200191505060405180910390f35b3480156101ea57600080fd5b506101f3610644565b005b34801561020157600080fd5b5061020a6106c1565b6040518080602001828103825283818151815260200191508051906020019080838360005b8381101561024a57808201518184015260208101905061022f565b50505050905090810190601f1680156102775780820380516001836020036101000a031916815260200191505b509250505060405180910390f35b34801561029157600080fd5b506102c6600480360381019080803573ffffffffffffffffffffffffffffffffffffffff1690602001909291905050506106fa565b604051808215151515815260200191505060405180910390f35b3480156102ec57600080fd5b50610321600480360381019080803573ffffffffffffffffffffffffffffffffffffffff169060200190929190505050610742565b005b34801561032f57600080fd5b50610364600480360381019080803573ffffffffffffffffffffffffffffffffffffffff16906020019092919050505061083e565b604051808215151515815260200191505060405180910390f35b34801561038a57600080fd5b506103bf600480360381019080803573ffffffffffffffffffffffffffffffffffffffff169060200190929190505050610886565b604051808215151515815260200191505060405180910390f35b3480156103e557600080fd5b506103ee6108ce565b6040518080602001828103825283818151815260200191508051906020019080838360005b8381101561042e578082015181840152602081019050610413565b50505050905090810190601f16801561045b5780820380516001836020036101000a031916815260200191505b509250505060405180910390f35b34801561047557600080fd5b506104aa600480360381019080803573ffffffffffffffffffffffffffffffffffffffff169060200190929190505050610907565b005b3480156104b857600080fd5b506104c16109c4565b6040518080602001828103825283818151815260200191508051906020019080838360005b838110156105015780820151818401526020810190506104e6565b50505050905090810190601f16801561052e5780820380516001836020036101000a031916815260200191505b509250505060405180910390f35b6105b9826000836040518082805190602001908083835b6020831015156105785780518252602082019150602081019050602083039250610553565b6001836020036101000a03801982511681845116808217855250505050505090500191505090815260200160405180910390206109fd90919063ffffffff16565b5050565b600061063c836000846040518082805190602001908083835b6020831015156105fb57805182526020820191506020810190506020830392506105d6565b6001836020036101000a0380198251168184511680821785525050505050509050019150509081526020016040518091039020610a1690919063ffffffff16565b905092915050565b600073ffffffffffffffffffffffffffffffffffffffff163373ffffffffffffffffffffffffffffffffffffffff161415151561068057600080fd5b6106bf336040805190810160405280600981526020017f646576656c6f7065720000000000000000000000000000000000000000000000815250610a6f565b565b6040805190810160405280600781526020017f61756469746f720000000000000000000000000000000000000000000000000081525081565b600061073b826040805190810160405280600781526020017f61756469746f72000000000000000000000000000000000000000000000000008152506105bd565b9050919050565b610781336040805190810160405280600981526020017f737570657275736572000000000000000000000000000000000000000000000081525061053c565b600073ffffffffffffffffffffffffffffffffffffffff168173ffffffffffffffffffffffffffffffffffffffff16141515156107bd57600080fd5b6107fc336040805190810160405280600981526020017f7375706572757365720000000000000000000000000000000000000000000000815250610ba3565b61083b816040805190810160405280600981526020017f7375706572757365720000000000000000000000000000000000000000000000815250610a6f565b50565b600061087f826040805190810160405280600981526020017f646576656c6f70657200000000000000000000000000000000000000000000008152506105bd565b9050919050565b60006108c7826040805190810160405280600981526020017f73757065727573657200000000000000000000000000000000000000000000008152506105bd565b9050919050565b6040805190810160405280600981526020017f646576656c6f706572000000000000000000000000000000000000000000000081525081565b610946336040805190810160405280600981526020017f737570657275736572000000000000000000000000000000000000000000000081525061053c565b600073ffffffffffffffffffffffffffffffffffffffff168173ffffffffffffffffffffffffffffffffffffffff161415151561098257600080fd5b6109c1816040805190810160405280600781526020017f61756469746f7200000000000000000000000000000000000000000000000000815250610a6f565b50565b6040805190810160405280600981526020017f737570657275736572000000000000000000000000000000000000000000000081525081565b610a078282610a16565b1515610a1257600080fd5b5050565b60008260000160008373ffffffffffffffffffffffffffffffffffffffff1673ffffffffffffffffffffffffffffffffffffffff16815260200190815260200160002060009054906101000a900460ff16905092915050565b610aec826000836040518082805190602001908083835b602083101515610aab5780518252602082019150602081019050602083039250610a86565b6001836020036101000a0380198251168184511680821785525050505050509050019150509081526020016040518091039020610cd790919063ffffffff16565b8173ffffffffffffffffffffffffffffffffffffffff167fbfec83d64eaa953f2708271a023ab9ee82057f8f3578d548c1a4ba0b5b700489826040518080602001828103825283818151815260200191508051906020019080838360005b83811015610b65578082015181840152602081019050610b4a565b50505050905090810190601f168015610b925780820380516001836020036101000a031916815260200191505b509250505060405180910390a25050565b610c20826000836040518082805190602001908083835b602083101515610bdf5780518252602082019150602081019050602083039250610bba565b6001836020036101000a0380198251168184511680821785525050505050509050019150509081526020016040518091039020610d3590919063ffffffff16565b8173ffffffffffffffffffffffffffffffffffffffff167fd211483f91fc6eff862467f8de606587a30c8fc9981056f051b897a418df803a826040518080602001828103825283818151815260200191508051906020019080838360005b83811015610c99578082015181840152602081019050610c7e565b50505050905090810190601f168015610cc65780820380516001836020036101000a031916815260200191505b509250505060405180910390a25050565b60018260000160008373ffffffffffffffffffffffffffffffffffffffff1673ffffffffffffffffffffffffffffffffffffffff16815260200190815260200160002060006101000a81548160ff0219169083151502179055505050565b60008260000160008373ffffffffffffffffffffffffffffffffffffffff1673ffffffffffffffffffffffffffffffffffffffff16815260200190815260200160002060006101000a81548160ff02191690831515021790555050505600a165627a7a72305820f47ae9aa104419473b98662a28c7063d1d30641c50b7c04963f22ca370324d320029",
  "source": "pragma solidity ^0.4.24;\n\n/**\n * @title Roles\n * @author Francisco Giordano (@frangio)\n * @dev Library for managing addresses assigned to a Role.\n * See RBAC.sol for example usage.\n */\nlibrary Roles {\n    struct Role {\n        mapping (address => bool) bearer;\n    }\n\n    /**\n    * @dev give an address access to this role\n    */\n    function add(Role storage role, address addr)\n        internal\n    {\n        role.bearer[addr] = true;\n    }\n\n    /**\n    * @dev remove an address' access to this role\n    */\n    function remove(Role storage role, address addr)\n        internal\n    {\n        role.bearer[addr] = false;\n    }\n\n    /**\n    * @dev check if an address has this role\n    * // reverts\n    */\n    function check(Role storage role, address addr)\n        view\n        internal\n    {\n        require(has(role, addr));\n    }\n\n    /**\n    * @dev check if an address has this role\n    * @return bool\n    */\n    function has(Role storage role, address addr)\n        view\n        internal\n    returns (bool)\n    {\n        return role.bearer[addr];\n    }\n}\n\n/**\n * @title RBAC (Role-Based Access Control)\n * @author Matt Condon (@Shrugs)\n * @dev Stores and provides setters and getters for roles and addresses.\n * Supports unlimited numbers of roles and addresses.\n * See //contracts/mocks/RBACMock.sol for an example of usage.\n * This RBAC method uses strings to key roles. It may be beneficial\n * for you to write your own implementation of this interface using Enums or similar.\n * It's also recommended that you define constants in the contract, like ROLE_ADMIN below,\n * to avoid typos.\n */\ncontract RBAC {\n    using Roles for Roles.Role;\n\n    mapping (string => Roles.Role) private roles;\n\n    event RoleAdded(address indexed operator, string role);\n    event RoleRemoved(address indexed operator, string role);\n\n    /**\n    * @dev reverts if addr does not have role\n    * @param _operator address\n    * @param _role the name of the role\n    * // reverts\n    */\n    function checkRole(address _operator, string _role)\n        view\n        public\n    {\n        roles[_role].check(_operator);\n    }\n\n    /**\n    * @dev determine if addr has role\n    * @param _operator address\n    * @param _role the name of the role\n    * @return bool\n    */\n    function hasRole(address _operator, string _role)\n        view\n        public\n    returns (bool)\n    {\n        return roles[_role].has(_operator);\n    }\n\n    /**\n    * @dev add a role to an address\n    * @param _operator address\n    * @param _role the name of the role\n    */\n    function addRole(address _operator, string _role)\n        internal\n    {\n        roles[_role].add(_operator);\n        emit RoleAdded(_operator, _role);\n    }\n\n    /**\n    * @dev remove a role from an address\n    * @param _operator address\n    * @param _role the name of the role\n    */\n    function removeRole(address _operator, string _role)\n        internal\n    {\n        roles[_role].remove(_operator);\n        emit RoleRemoved(_operator, _role);\n    }\n\n    /**\n    * @dev modifier to scope access to a single role (uses msg.sender as addr)\n    * @param _role the name of the role\n    * // reverts\n    */\n    modifier onlyRole(string _role)\n    {\n        checkRole(msg.sender, _role);\n        _;\n    }\n}\n\n/**\n * @title Superuser\n * @dev The Superuser contract defines a single superuser who can transfer the ownership \n * of a contract to a new address, even if he is not the owner. \n * A superuser can transfer his role to a new address. \n */\ncontract Superuserable is RBAC {\n    \n    string public constant ROLE_SUPERUSER = \"superuser\";\n\n    constructor () public {\n        addRole(msg.sender, ROLE_SUPERUSER);\n    }\n\n    /**\n    * @dev Throws if called by any account that's not a superuser.\n    */\n    modifier onlySuperuser() {\n        checkRole(msg.sender, ROLE_SUPERUSER);\n        _;\n    }\n\n    /**\n    * @dev getter to determine if address has superuser role\n    */\n    function isSuperuser(address _addr)\n        public\n        view\n    returns (bool)\n    {\n        return hasRole(_addr, ROLE_SUPERUSER);\n    }\n\n    /**\n    * @dev Allows the current superuser to transfer his role to a newSuperuser.\n    * @param _newSuperuser The address to transfer ownership to.\n    */\n    function transferSuperuser(address _newSuperuser) public onlySuperuser {\n        require(_newSuperuser != address(0));\n        removeRole(msg.sender, ROLE_SUPERUSER);\n        addRole(_newSuperuser, ROLE_SUPERUSER);\n    }\n}\n\ncontract Auditable is Superuserable {\n    \n    string public constant ROLE_AUDITOR = \"auditor\";\n    \n    function addAuditor(address _newAuditor) public onlySuperuser {\n        require(_newAuditor != address(0));\n        addRole(_newAuditor, ROLE_AUDITOR);\n    }\n    \n    // function removeAuditor(address _auditor) public onlySuperuser {\n    //     removeRole(_auditor, ROLE_AUDITOR);\n    // }\n    \n    modifier onlyAuditor() {\n        checkRole(msg.sender, ROLE_AUDITOR);\n        _;\n    }\n    \n    function isAuditor(address _addr)\n        public\n        view\n    returns (bool) \n    {\n        return hasRole(_addr, ROLE_AUDITOR);\n    }\n}\n\ncontract Developerable is Auditable {\n    \n    string public constant ROLE_DEVELOPER = \"developer\";\n    \n    function addDeveloper() public {\n        require(msg.sender != address(0));\n        addRole(msg.sender, ROLE_DEVELOPER);\n    }\n    \n    modifier onlyDeveloper() {\n        checkRole(msg.sender, ROLE_DEVELOPER);\n        _;\n    }\n    \n    function isDeveloper(address _addr) \n        public\n        view\n    returns (bool)\n    {\n        return hasRole(_addr, ROLE_DEVELOPER);\n    }\n}\n\ncontract Userable is Developerable {\n    \n    struct User {\n        string name;\n    }\n    \n    mapping(address => User) users;\n    \n    modifier onlyValidName(string _name) {\n        require(bytes(_name).length > 0);\n        _;\n    }\n    \n    modifier onlyExistingUser() {\n        require(bytes(users[msg.sender].name).length > 0);\n        _;\n    }\n    \n    function signUp(string _name) \n        public \n        onlyValidName(_name)\n    returns (string)\n    {\n        if (bytes(users[msg.sender].name).length == 0) {\n            users[msg.sender].name = _name;\n        }\n        \n        if (!isSuperuser(msg.sender) && !isAuditor(msg.sender)) {\n            addDeveloper();\n        }\n        \n        return users[msg.sender].name;\n    }\n    \n    function login()\n        view\n        public\n        onlyExistingUser\n    returns (string)\n    {\n        return users[msg.sender].name;\n    }\n}",
  "sourcePath": "/Users/artur/Development/Brem/contracts/Userable.sol",
  "compiler": {
    "name": "solc",
    "version": "0.4.24+commit.e67f0147.Emscripten.clang"
  },
  "schemaVersion": "2.0.1",
  "updatedAt": "2018-08-05T22:12:46.283Z"
}