{
  "contractName": "RBAC",
  "abi": [
    {
      "anonymous": false,
      "inputs": [
        {
          "indexed": true,
          "name": "operator",
          "type": "address"
        },
        {
          "indexed": false,
          "name": "role",
          "type": "string"
        }
      ],
      "name": "RoleAdded",
      "type": "event"
    },
    {
      "anonymous": false,
      "inputs": [
        {
          "indexed": true,
          "name": "operator",
          "type": "address"
        },
        {
          "indexed": false,
          "name": "role",
          "type": "string"
        }
      ],
      "name": "RoleRemoved",
      "type": "event"
    },
    {
      "constant": true,
      "inputs": [
        {
          "name": "_operator",
          "type": "address"
        },
        {
          "name": "_role",
          "type": "string"
        }
      ],
      "name": "checkRole",
      "outputs": [],
      "payable": false,
      "stateMutability": "view",
      "type": "function"
    },
    {
      "constant": true,
      "inputs": [
        {
          "name": "_operator",
          "type": "address"
        },
        {
          "name": "_role",
          "type": "string"
        }
      ],
      "name": "hasRole",
      "outputs": [
        {
          "name": "",
          "type": "bool"
        }
      ],
      "payable": false,
      "stateMutability": "view",
      "type": "function"
    }
  ],
  "bytecode": "0x608060405234801561001057600080fd5b5061029c806100206000396000f30060806040526004361061004b5763ffffffff7c01000000000000000000000000000000000000000000000000000000006000350416630988ca8c8114610050578063217fe6c6146100c6575b600080fd5b34801561005c57600080fd5b5060408051602060046024803582810135601f81018590048502860185019096528585526100c495833573ffffffffffffffffffffffffffffffffffffffff1695369560449491939091019190819084018382808284375094975061014e9650505050505050565b005b3480156100d257600080fd5b5060408051602060046024803582810135601f810185900485028601850190965285855261013a95833573ffffffffffffffffffffffffffffffffffffffff169536956044949193909101919081908401838280828437509497506101bc9650505050505050565b604080519115158252519081900360200190f35b6101b8826000836040518082805190602001908083835b602083106101845780518252601f199092019160209182019101610165565b51815160209384036101000a600019018019909216911617905292019485525060405193849003019092209291505061022f565b5050565b6000610228836000846040518082805190602001908083835b602083106101f45780518252601f1990920191602091820191016101d5565b51815160209384036101000a6000190180199092169116179052920194855250604051938490030190922092915050610244565b9392505050565b6102398282610244565b15156101b857600080fd5b73ffffffffffffffffffffffffffffffffffffffff166000908152602091909152604090205460ff16905600a165627a7a723058205d538ce7779b2c9bcfd9f8bc108e13c2c5c643e3f8631bc2c5bb9ddb75dc53620029",
  "source": "pragma solidity ^0.4.24;\n\n/**\n * @title Roles\n * @author Francisco Giordano (@frangio)\n * @dev Library for managing addresses assigned to a Role.\n * See RBAC.sol for example usage.\n */\nlibrary Roles {\n    struct Role {\n        mapping (address => bool) bearer;\n    }\n\n    /**\n    * @dev give an address access to this role\n    */\n    function add(Role storage role, address addr)\n        internal\n    {\n        role.bearer[addr] = true;\n    }\n\n    /**\n    * @dev remove an address' access to this role\n    */\n    function remove(Role storage role, address addr)\n        internal\n    {\n        role.bearer[addr] = false;\n    }\n\n    /**\n    * @dev check if an address has this role\n    * // reverts\n    */\n    function check(Role storage role, address addr)\n        view\n        internal\n    {\n        require(has(role, addr));\n    }\n\n    /**\n    * @dev check if an address has this role\n    * @return bool\n    */\n    function has(Role storage role, address addr)\n        view\n        internal\n    returns (bool)\n    {\n        return role.bearer[addr];\n    }\n}\n\n/**\n * @title RBAC (Role-Based Access Control)\n * @author Matt Condon (@Shrugs)\n * @dev Stores and provides setters and getters for roles and addresses.\n * Supports unlimited numbers of roles and addresses.\n * See //contracts/mocks/RBACMock.sol for an example of usage.\n * This RBAC method uses strings to key roles. It may be beneficial\n * for you to write your own implementation of this interface using Enums or similar.\n * It's also recommended that you define constants in the contract, like ROLE_ADMIN below,\n * to avoid typos.\n */\ncontract RBAC {\n    using Roles for Roles.Role;\n\n    mapping (string => Roles.Role) private roles;\n\n    event RoleAdded(address indexed operator, string role);\n    event RoleRemoved(address indexed operator, string role);\n\n    /**\n    * @dev reverts if addr does not have role\n    * @param _operator address\n    * @param _role the name of the role\n    * // reverts\n    */\n    function checkRole(address _operator, string _role)\n        view\n        public\n    {\n        roles[_role].check(_operator);\n    }\n\n    /**\n    * @dev determine if addr has role\n    * @param _operator address\n    * @param _role the name of the role\n    * @return bool\n    */\n    function hasRole(address _operator, string _role)\n        view\n        public\n    returns (bool)\n    {\n        return roles[_role].has(_operator);\n    }\n\n    /**\n    * @dev add a role to an address\n    * @param _operator address\n    * @param _role the name of the role\n    */\n    function addRole(address _operator, string _role)\n        internal\n    {\n        roles[_role].add(_operator);\n        emit RoleAdded(_operator, _role);\n    }\n\n    /**\n    * @dev remove a role from an address\n    * @param _operator address\n    * @param _role the name of the role\n    */\n    function removeRole(address _operator, string _role)\n        internal\n    {\n        roles[_role].remove(_operator);\n        emit RoleRemoved(_operator, _role);\n    }\n\n    /**\n    * @dev modifier to scope access to a single role (uses msg.sender as addr)\n    * @param _role the name of the role\n    * // reverts\n    */\n    modifier onlyRole(string _role)\n    {\n        checkRole(msg.sender, _role);\n        _;\n    }\n}\n\n/**\n * @title Superuser\n * @dev The Superuser contract defines a single superuser who can transfer the ownership \n * of a contract to a new address, even if he is not the owner. \n * A superuser can transfer his role to a new address. \n */\ncontract Superuserable is RBAC {\n    \n    string public constant ROLE_SUPERUSER = \"superuser\";\n\n    constructor () public {\n        addRole(msg.sender, ROLE_SUPERUSER);\n    }\n\n    /**\n    * @dev Throws if called by any account that's not a superuser.\n    */\n    modifier onlySuperuser() {\n        checkRole(msg.sender, ROLE_SUPERUSER);\n        _;\n    }\n\n    /**\n    * @dev getter to determine if address has superuser role\n    */\n    function isSuperuser(address _addr)\n        public\n        view\n    returns (bool)\n    {\n        return hasRole(_addr, ROLE_SUPERUSER);\n    }\n\n    /**\n    * @dev Allows the current superuser to transfer his role to a newSuperuser.\n    * @param _newSuperuser The address to transfer ownership to.\n    */\n    function transferSuperuser(address _newSuperuser) public onlySuperuser {\n        require(_newSuperuser != address(0));\n        removeRole(msg.sender, ROLE_SUPERUSER);\n        addRole(_newSuperuser, ROLE_SUPERUSER);\n    }\n}\n\ncontract Auditable is Superuserable {\n    \n    string public constant ROLE_AUDITOR = \"auditor\";\n    \n    function addAuditor(address _newAuditor) public onlySuperuser {\n        require(_newAuditor != address(0));\n        addRole(_newAuditor, ROLE_AUDITOR);\n    }\n    \n    // function removeAuditor(address _auditor) public onlySuperuser {\n    //     removeRole(_auditor, ROLE_AUDITOR);\n    // }\n    \n    modifier onlyAuditor() {\n        checkRole(msg.sender, ROLE_AUDITOR);\n        _;\n    }\n    \n    function isAuditor(address _addr)\n        public\n        view\n    returns (bool) \n    {\n        return hasRole(_addr, ROLE_AUDITOR);\n    }\n}\n\n// contract Developerable is Auditable {\n    \n//     string public constant ROLE_DEVELOPER = \"developer\";\n    \n//     function addDeveloper() public {\n//         require(msg.sender != address(0));\n//         addRole(msg.sender, ROLE_DEVELOPER);\n//     }\n    \n//     modifier onlyDeveloper() {\n//         checkRole(msg.sender, ROLE_DEVELOPER);\n//         _;\n//     }\n    \n//     function isDeveloper(address _addr) \n//         public\n//         view\n//     returns (bool)\n//     {\n//         return hasRole(_addr, ROLE_DEVELOPER);\n//     }\n// }\n\ncontract Userable is Auditable {\n    \n    struct User {\n        string name;\n    }\n    \n    mapping(address => User) users;\n    \n    modifier onlyValidName(string _name) {\n        require(bytes(_name).length > 0);\n        _;\n    }\n    \n    modifier onlyExistingUser() {\n        require(bytes(users[msg.sender].name).length > 0);\n        _;\n    }\n    \n    function signUp(string _name) \n        public \n        onlyValidName(_name)\n        onlySuperuser\n        onlyAuditor\n    returns (string)\n    {\n        if (bytes(users[msg.sender].name).length == 0) {\n            users[msg.sender].name = _name;\n        }\n        \n        // if (!isSuperuser(msg.sender) && !isAuditor(msg.sender)) {\n        //     addDeveloper();\n        // }\n        \n        return users[msg.sender].name;\n    }\n    \n    function isSignUp() public view returns(bool) {\n        return (bytes(users[msg.sender].name).length > 0);\n    }\n\n    function login()\n        view\n        public\n        onlyExistingUser\n    returns (string)\n    {\n        return users[msg.sender].name;\n    }\n}",
  "sourcePath": "/Users/artur/Development/Brem/contracts/Userable.sol",
  "compiler": {
    "name": "solc",
    "version": "0.4.24+commit.e67f0147.Emscripten.clang"
  },
  "schemaVersion": "2.0.1",
  "updatedAt": "2018-08-18T15:38:10.432Z"
}