{
  "contractName": "RBAC",
  "abi": [
    {
      "anonymous": false,
      "inputs": [
        {
          "indexed": true,
          "name": "operator",
          "type": "address"
        },
        {
          "indexed": false,
          "name": "role",
          "type": "string"
        }
      ],
      "name": "RoleAdded",
      "type": "event"
    },
    {
      "anonymous": false,
      "inputs": [
        {
          "indexed": true,
          "name": "operator",
          "type": "address"
        },
        {
          "indexed": false,
          "name": "role",
          "type": "string"
        }
      ],
      "name": "RoleRemoved",
      "type": "event"
    },
    {
      "constant": true,
      "inputs": [
        {
          "name": "_operator",
          "type": "address"
        },
        {
          "name": "_role",
          "type": "string"
        }
      ],
      "name": "checkRole",
      "outputs": [],
      "payable": false,
      "stateMutability": "view",
      "type": "function"
    },
    {
      "constant": true,
      "inputs": [
        {
          "name": "_operator",
          "type": "address"
        },
        {
          "name": "_role",
          "type": "string"
        }
      ],
      "name": "hasRole",
      "outputs": [
        {
          "name": "",
          "type": "bool"
        }
      ],
      "payable": false,
      "stateMutability": "view",
      "type": "function"
    }
  ],
  "bytecode": "0x608060405234801561001057600080fd5b50610321806100206000396000f30060806040526004361061004c576000357c0100000000000000000000000000000000000000000000000000000000900463ffffffff1680630988ca8c14610051578063217fe6c6146100da575b600080fd5b34801561005d57600080fd5b506100d8600480360381019080803573ffffffffffffffffffffffffffffffffffffffff169060200190929190803590602001908201803590602001908080601f016020809104026020016040519081016040528093929190818152602001838380828437820191505050505050919291929050505061017b565b005b3480156100e657600080fd5b50610161600480360381019080803573ffffffffffffffffffffffffffffffffffffffff169060200190929190803590602001908201803590602001908080601f01602080910402602001604051908101604052809392919081815260200183838082843782019150505050505091929192905050506101fc565b604051808215151515815260200191505060405180910390f35b6101f8826000836040518082805190602001908083835b6020831015156101b75780518252602082019150602081019050602083039250610192565b6001836020036101000a038019825116818451168082178552505050505050905001915050908152602001604051809103902061028390919063ffffffff16565b5050565b600061027b836000846040518082805190602001908083835b60208310151561023a5780518252602082019150602081019050602083039250610215565b6001836020036101000a038019825116818451168082178552505050505050905001915050908152602001604051809103902061029c90919063ffffffff16565b905092915050565b61028d828261029c565b151561029857600080fd5b5050565b60008260000160008373ffffffffffffffffffffffffffffffffffffffff1673ffffffffffffffffffffffffffffffffffffffff16815260200190815260200160002060009054906101000a900460ff169050929150505600a165627a7a7230582063f620cfd63894b7858ac87f35202d0f03fe2e476244d200e841c6c01f495cb00029",
  "source": "pragma solidity ^0.4.24;\n\n/**\n * @title Roles\n * @author Francisco Giordano (@frangio)\n * @dev Library for managing addresses assigned to a Role.\n * See RBAC.sol for example usage.\n */\nlibrary Roles {\n    struct Role {\n        mapping (address => bool) bearer;\n    }\n\n    /**\n    * @dev give an address access to this role\n    */\n    function add(Role storage role, address addr)\n        internal\n    {\n        role.bearer[addr] = true;\n    }\n\n    /**\n    * @dev remove an address' access to this role\n    */\n    function remove(Role storage role, address addr)\n        internal\n    {\n        role.bearer[addr] = false;\n    }\n\n    /**\n    * @dev check if an address has this role\n    * // reverts\n    */\n    function check(Role storage role, address addr)\n        view\n        internal\n    {\n        require(has(role, addr));\n    }\n\n    /**\n    * @dev check if an address has this role\n    * @return bool\n    */\n    function has(Role storage role, address addr)\n        view\n        internal\n    returns (bool)\n    {\n        return role.bearer[addr];\n    }\n}\n\n/**\n * @title RBAC (Role-Based Access Control)\n * @author Matt Condon (@Shrugs)\n * @dev Stores and provides setters and getters for roles and addresses.\n * Supports unlimited numbers of roles and addresses.\n * See //contracts/mocks/RBACMock.sol for an example of usage.\n * This RBAC method uses strings to key roles. It may be beneficial\n * for you to write your own implementation of this interface using Enums or similar.\n * It's also recommended that you define constants in the contract, like ROLE_ADMIN below,\n * to avoid typos.\n */\ncontract RBAC {\n    using Roles for Roles.Role;\n\n    mapping (string => Roles.Role) private roles;\n\n    event RoleAdded(address indexed operator, string role);\n    event RoleRemoved(address indexed operator, string role);\n\n    /**\n    * @dev reverts if addr does not have role\n    * @param _operator address\n    * @param _role the name of the role\n    * // reverts\n    */\n    function checkRole(address _operator, string _role)\n        view\n        public\n    {\n        roles[_role].check(_operator);\n    }\n\n    /**\n    * @dev determine if addr has role\n    * @param _operator address\n    * @param _role the name of the role\n    * @return bool\n    */\n    function hasRole(address _operator, string _role)\n        view\n        public\n    returns (bool)\n    {\n        return roles[_role].has(_operator);\n    }\n\n    /**\n    * @dev add a role to an address\n    * @param _operator address\n    * @param _role the name of the role\n    */\n    function addRole(address _operator, string _role)\n        internal\n    {\n        roles[_role].add(_operator);\n        emit RoleAdded(_operator, _role);\n    }\n\n    /**\n    * @dev remove a role from an address\n    * @param _operator address\n    * @param _role the name of the role\n    */\n    function removeRole(address _operator, string _role)\n        internal\n    {\n        roles[_role].remove(_operator);\n        emit RoleRemoved(_operator, _role);\n    }\n\n    /**\n    * @dev modifier to scope access to a single role (uses msg.sender as addr)\n    * @param _role the name of the role\n    * // reverts\n    */\n    modifier onlyRole(string _role)\n    {\n        checkRole(msg.sender, _role);\n        _;\n    }\n}\n\n/**\n * @title Superuser\n * @dev The Superuser contract defines a single superuser who can transfer the ownership \n * of a contract to a new address, even if he is not the owner. \n * A superuser can transfer his role to a new address. \n */\ncontract Superuserable is RBAC {\n    \n    string public constant ROLE_SUPERUSER = \"superuser\";\n\n    constructor () public {\n        addRole(msg.sender, ROLE_SUPERUSER);\n    }\n\n    /**\n    * @dev Throws if called by any account that's not a superuser.\n    */\n    modifier onlySuperuser() {\n        checkRole(msg.sender, ROLE_SUPERUSER);\n        _;\n    }\n\n    /**\n    * @dev getter to determine if address has superuser role\n    */\n    function isSuperuser(address _addr)\n        public\n        view\n    returns (bool)\n    {\n        return hasRole(_addr, ROLE_SUPERUSER);\n    }\n\n    /**\n    * @dev Allows the current superuser to transfer his role to a newSuperuser.\n    * @param _newSuperuser The address to transfer ownership to.\n    */\n    function transferSuperuser(address _newSuperuser) public onlySuperuser {\n        require(_newSuperuser != address(0));\n        removeRole(msg.sender, ROLE_SUPERUSER);\n        addRole(_newSuperuser, ROLE_SUPERUSER);\n    }\n}\n\ncontract Auditable is Superuserable {\n    \n    string public constant ROLE_AUDITOR = \"auditor\";\n    \n    function addAuditor(address _newAuditor) public onlySuperuser {\n        require(_newAuditor != address(0));\n        addRole(_newAuditor, ROLE_AUDITOR);\n    }\n    \n    // function removeAuditor(address _auditor) public onlySuperuser {\n    //     removeRole(_auditor, ROLE_AUDITOR);\n    // }\n    \n    modifier onlyAuditor() {\n        checkRole(msg.sender, ROLE_AUDITOR);\n        _;\n    }\n    \n    function isAuditor(address _addr)\n        public\n        view\n    returns (bool) \n    {\n        return hasRole(_addr, ROLE_AUDITOR);\n    }\n}\n\ncontract Developerable is Auditable {\n    \n    string public constant ROLE_DEVELOPER = \"developer\";\n    \n    function addDeveloper() public {\n        require(msg.sender != address(0));\n        addRole(msg.sender, ROLE_DEVELOPER);\n    }\n    \n    modifier onlyDeveloper() {\n        checkRole(msg.sender, ROLE_DEVELOPER);\n        _;\n    }\n    \n    function isDeveloper(address _addr) \n        public\n        view\n    returns (bool)\n    {\n        return hasRole(_addr, ROLE_DEVELOPER);\n    }\n}\n\ncontract Userable is Developerable {\n    \n    struct User {\n        string name;\n    }\n    \n    mapping(address => User) users;\n    \n    modifier onlyValidName(string _name) {\n        require(bytes(_name).length > 0);\n        _;\n    }\n    \n    modifier onlyExistingUser() {\n        require(bytes(users[msg.sender].name).length > 0);\n        _;\n    }\n    \n    function signUp(string _name) \n        public \n        onlyValidName(_name)\n    returns (string)\n    {\n        if (bytes(users[msg.sender].name).length == 0) {\n            users[msg.sender].name = _name;\n        }\n        \n        if (!isSuperuser(msg.sender) && !isAuditor(msg.sender)) {\n            addDeveloper();\n        }\n        \n        return users[msg.sender].name;\n    }\n    \n    function login()\n        view\n        public\n        onlyExistingUser\n    returns (string)\n    {\n        return users[msg.sender].name;\n    }\n}",
  "sourcePath": "/Users/artur/Development/Brem/contracts/Userable.sol",
  "compiler": {
    "name": "solc",
    "version": "0.4.24+commit.e67f0147.Emscripten.clang"
  },
  "schemaVersion": "2.0.1",
  "updatedAt": "2018-08-04T17:48:51.485Z"
}