{
  "contractName": "RBAC",
  "abi": [
    {
      "anonymous": false,
      "inputs": [
        {
          "indexed": true,
          "name": "operator",
          "type": "address"
        },
        {
          "indexed": false,
          "name": "role",
          "type": "string"
        }
      ],
      "name": "RoleAdded",
      "type": "event"
    },
    {
      "anonymous": false,
      "inputs": [
        {
          "indexed": true,
          "name": "operator",
          "type": "address"
        },
        {
          "indexed": false,
          "name": "role",
          "type": "string"
        }
      ],
      "name": "RoleRemoved",
      "type": "event"
    },
    {
      "constant": true,
      "inputs": [
        {
          "name": "_operator",
          "type": "address"
        },
        {
          "name": "_role",
          "type": "string"
        }
      ],
      "name": "checkRole",
      "outputs": [],
      "payable": false,
      "stateMutability": "view",
      "type": "function"
    },
    {
      "constant": true,
      "inputs": [
        {
          "name": "_operator",
          "type": "address"
        },
        {
          "name": "_role",
          "type": "string"
        }
      ],
      "name": "hasRole",
      "outputs": [
        {
          "name": "",
          "type": "bool"
        }
      ],
      "payable": false,
      "stateMutability": "view",
      "type": "function"
    }
  ],
  "bytecode": "0x608060405234801561001057600080fd5b50610321806100206000396000f30060806040526004361061004c576000357c0100000000000000000000000000000000000000000000000000000000900463ffffffff1680630988ca8c14610051578063217fe6c6146100da575b600080fd5b34801561005d57600080fd5b506100d8600480360381019080803573ffffffffffffffffffffffffffffffffffffffff169060200190929190803590602001908201803590602001908080601f016020809104026020016040519081016040528093929190818152602001838380828437820191505050505050919291929050505061017b565b005b3480156100e657600080fd5b50610161600480360381019080803573ffffffffffffffffffffffffffffffffffffffff169060200190929190803590602001908201803590602001908080601f01602080910402602001604051908101604052809392919081815260200183838082843782019150505050505091929192905050506101fc565b604051808215151515815260200191505060405180910390f35b6101f8826000836040518082805190602001908083835b6020831015156101b75780518252602082019150602081019050602083039250610192565b6001836020036101000a038019825116818451168082178552505050505050905001915050908152602001604051809103902061028390919063ffffffff16565b5050565b600061027b836000846040518082805190602001908083835b60208310151561023a5780518252602082019150602081019050602083039250610215565b6001836020036101000a038019825116818451168082178552505050505050905001915050908152602001604051809103902061029c90919063ffffffff16565b905092915050565b61028d828261029c565b151561029857600080fd5b5050565b60008260000160008373ffffffffffffffffffffffffffffffffffffffff1673ffffffffffffffffffffffffffffffffffffffff16815260200190815260200160002060009054906101000a900460ff169050929150505600a165627a7a7230582095a323c616af9f1e0ad74385c84131d20aba9244cbfc55bd940bad1a3144d7e70029",
  "source": "pragma solidity ^0.4.24;\r\n\r\n/**\r\n * @title Roles\r\n * @author Francisco Giordano (@frangio)\r\n * @dev Library for managing addresses assigned to a Role.\r\n * See RBAC.sol for example usage.\r\n */\r\nlibrary Roles {\r\n    struct Role {\r\n        mapping (address => bool) bearer;\r\n    }\r\n\r\n    /**\r\n    * @dev give an address access to this role\r\n    */\r\n    function add(Role storage role, address addr)\r\n        internal\r\n    {\r\n        role.bearer[addr] = true;\r\n    }\r\n\r\n    /**\r\n    * @dev remove an address' access to this role\r\n    */\r\n    function remove(Role storage role, address addr)\r\n        internal\r\n    {\r\n        role.bearer[addr] = false;\r\n    }\r\n\r\n    /**\r\n    * @dev check if an address has this role\r\n    * // reverts\r\n    */\r\n    function check(Role storage role, address addr)\r\n        view\r\n        internal\r\n    {\r\n        require(has(role, addr));\r\n    }\r\n\r\n    /**\r\n    * @dev check if an address has this role\r\n    * @return bool\r\n    */\r\n    function has(Role storage role, address addr)\r\n        view\r\n        internal\r\n    returns (bool)\r\n    {\r\n        return role.bearer[addr];\r\n    }\r\n}\r\n\r\n/**\r\n * @title RBAC (Role-Based Access Control)\r\n * @author Matt Condon (@Shrugs)\r\n * @dev Stores and provides setters and getters for roles and addresses.\r\n * Supports unlimited numbers of roles and addresses.\r\n * See //contracts/mocks/RBACMock.sol for an example of usage.\r\n * This RBAC method uses strings to key roles. It may be beneficial\r\n * for you to write your own implementation of this interface using Enums or similar.\r\n * It's also recommended that you define constants in the contract, like ROLE_ADMIN below,\r\n * to avoid typos.\r\n */\r\ncontract RBAC {\r\n    using Roles for Roles.Role;\r\n\r\n    mapping (string => Roles.Role) private roles;\r\n\r\n    event RoleAdded(address indexed operator, string role);\r\n    event RoleRemoved(address indexed operator, string role);\r\n\r\n    /**\r\n    * @dev reverts if addr does not have role\r\n    * @param _operator address\r\n    * @param _role the name of the role\r\n    * // reverts\r\n    */\r\n    function checkRole(address _operator, string _role)\r\n        view\r\n        public\r\n    {\r\n        roles[_role].check(_operator);\r\n    }\r\n\r\n    /**\r\n    * @dev determine if addr has role\r\n    * @param _operator address\r\n    * @param _role the name of the role\r\n    * @return bool\r\n    */\r\n    function hasRole(address _operator, string _role)\r\n        view\r\n        public\r\n    returns (bool)\r\n    {\r\n        return roles[_role].has(_operator);\r\n    }\r\n\r\n    /**\r\n    * @dev add a role to an address\r\n    * @param _operator address\r\n    * @param _role the name of the role\r\n    */\r\n    function addRole(address _operator, string _role)\r\n        internal\r\n    {\r\n        roles[_role].add(_operator);\r\n        emit RoleAdded(_operator, _role);\r\n    }\r\n\r\n    /**\r\n    * @dev remove a role from an address\r\n    * @param _operator address\r\n    * @param _role the name of the role\r\n    */\r\n    function removeRole(address _operator, string _role)\r\n        internal\r\n    {\r\n        roles[_role].remove(_operator);\r\n        emit RoleRemoved(_operator, _role);\r\n    }\r\n\r\n    /**\r\n    * @dev modifier to scope access to a single role (uses msg.sender as addr)\r\n    * @param _role the name of the role\r\n    * // reverts\r\n    */\r\n    modifier onlyRole(string _role)\r\n    {\r\n        checkRole(msg.sender, _role);\r\n        _;\r\n    }\r\n}\r\n\r\n/**\r\n * @title Superuser\r\n * @dev The Superuser contract defines a single superuser who can transfer the ownership \r\n * of a contract to a new address, even if he is not the owner. \r\n * A superuser can transfer his role to a new address. \r\n */\r\ncontract Superuserable is RBAC {\r\n    \r\n    string public constant ROLE_SUPERUSER = \"superuser\";\r\n\r\n    constructor () public {\r\n        addRole(msg.sender, ROLE_SUPERUSER);\r\n    }\r\n\r\n    /**\r\n    * @dev Throws if called by any account that's not a superuser.\r\n    */\r\n    modifier onlySuperuser() {\r\n        checkRole(msg.sender, ROLE_SUPERUSER);\r\n        _;\r\n    }\r\n\r\n    /**\r\n    * @dev getter to determine if address has superuser role\r\n    */\r\n    function isSuperuser(address _addr)\r\n        public\r\n        view\r\n    returns (bool)\r\n    {\r\n        return hasRole(_addr, ROLE_SUPERUSER);\r\n    }\r\n\r\n    /**\r\n    * @dev Allows the current superuser to transfer his role to a newSuperuser.\r\n    * @param _newSuperuser The address to transfer ownership to.\r\n    */\r\n    function transferSuperuser(address _newSuperuser) public onlySuperuser {\r\n        require(_newSuperuser != address(0));\r\n        removeRole(msg.sender, ROLE_SUPERUSER);\r\n        addRole(_newSuperuser, ROLE_SUPERUSER);\r\n    }\r\n}\r\n\r\ncontract Auditable is Superuserable {\r\n    \r\n    string public constant ROLE_AUDITOR = \"auditor\";\r\n    \r\n    function addAuditor(address _newAuditor) public onlySuperuser {\r\n        require(_newAuditor != address(0));\r\n        addRole(_newAuditor, ROLE_AUDITOR);\r\n    }\r\n    \r\n    // function removeAuditor(address _auditor) public onlySuperuser {\r\n    //     removeRole(_auditor, ROLE_AUDITOR);\r\n    // }\r\n    \r\n    modifier onlyAuditor() {\r\n        checkRole(msg.sender, ROLE_AUDITOR);\r\n        _;\r\n    }\r\n    \r\n    function isAuditor(address _addr)\r\n        public\r\n        view\r\n    returns (bool) \r\n    {\r\n        return hasRole(_addr, ROLE_AUDITOR);\r\n    }\r\n}\r\n\r\n// contract Developerable is Auditable {\r\n    \r\n//     string public constant ROLE_DEVELOPER = \"developer\";\r\n    \r\n//     function addDeveloper() public {\r\n//         require(msg.sender != address(0));\r\n//         addRole(msg.sender, ROLE_DEVELOPER);\r\n//     }\r\n    \r\n//     modifier onlyDeveloper() {\r\n//         checkRole(msg.sender, ROLE_DEVELOPER);\r\n//         _;\r\n//     }\r\n    \r\n//     function isDeveloper(address _addr) \r\n//         public\r\n//         view\r\n//     returns (bool)\r\n//     {\r\n//         return hasRole(_addr, ROLE_DEVELOPER);\r\n//     }\r\n// }\r\n\r\ncontract Userable is Auditable {\r\n    \r\n    struct User {\r\n        string name;\r\n    }\r\n    \r\n    mapping(address => User) users;\r\n    \r\n    modifier onlyValidName(string _name) {\r\n        require(bytes(_name).length > 0);\r\n        _;\r\n    }\r\n    \r\n    modifier onlyExistingUser() {\r\n        require(bytes(users[msg.sender].name).length > 0);\r\n        _;\r\n    }\r\n    \r\n    function signUp(string _name) \r\n        public \r\n        onlyValidName(_name)\r\n    returns (string)\r\n    {\r\n        if (bytes(users[msg.sender].name).length == 0) {\r\n            users[msg.sender].name = _name;\r\n        }\r\n        \r\n        // if (!isSuperuser(msg.sender) && !isAuditor(msg.sender)) {\r\n        //     addDeveloper();\r\n        // }\r\n        \r\n        return users[msg.sender].name;\r\n    }\r\n    \r\n    function login()\r\n        view\r\n        public\r\n        onlyExistingUser\r\n    returns (string)\r\n    {\r\n        return users[msg.sender].name;\r\n    }\r\n}",
  "sourcePath": "C:\\Users\\Solidity\\Documents\\HashLab\\GENERAL_DEV\\Brem\\contracts\\Userable.sol",
  "compiler": {
    "name": "solc",
    "version": "0.4.24+commit.e67f0147.Emscripten.clang"
  },
  "schemaVersion": "2.0.1",
  "updatedAt": "2018-08-15T10:51:58.433Z"
}