{
  "contractName": "Superuserable",
  "abi": [
    {
      "constant": true,
      "inputs": [
        {
          "name": "_operator",
          "type": "address"
        },
        {
          "name": "_role",
          "type": "string"
        }
      ],
      "name": "checkRole",
      "outputs": [],
      "payable": false,
      "stateMutability": "view",
      "type": "function"
    },
    {
      "constant": true,
      "inputs": [
        {
          "name": "_operator",
          "type": "address"
        },
        {
          "name": "_role",
          "type": "string"
        }
      ],
      "name": "hasRole",
      "outputs": [
        {
          "name": "",
          "type": "bool"
        }
      ],
      "payable": false,
      "stateMutability": "view",
      "type": "function"
    },
    {
      "constant": true,
      "inputs": [],
      "name": "ROLE_SUPERUSER",
      "outputs": [
        {
          "name": "",
          "type": "string"
        }
      ],
      "payable": false,
      "stateMutability": "view",
      "type": "function"
    },
    {
      "inputs": [],
      "payable": false,
      "stateMutability": "nonpayable",
      "type": "constructor"
    },
    {
      "anonymous": false,
      "inputs": [
        {
          "indexed": true,
          "name": "operator",
          "type": "address"
        },
        {
          "indexed": false,
          "name": "role",
          "type": "string"
        }
      ],
      "name": "RoleAdded",
      "type": "event"
    },
    {
      "anonymous": false,
      "inputs": [
        {
          "indexed": true,
          "name": "operator",
          "type": "address"
        },
        {
          "indexed": false,
          "name": "role",
          "type": "string"
        }
      ],
      "name": "RoleRemoved",
      "type": "event"
    },
    {
      "constant": true,
      "inputs": [
        {
          "name": "_addr",
          "type": "address"
        }
      ],
      "name": "isSuperuser",
      "outputs": [
        {
          "name": "",
          "type": "bool"
        }
      ],
      "payable": false,
      "stateMutability": "view",
      "type": "function"
    },
    {
      "constant": false,
      "inputs": [
        {
          "name": "_newSuperuser",
          "type": "address"
        }
      ],
      "name": "transferSuperuser",
      "outputs": [],
      "payable": false,
      "stateMutability": "nonpayable",
      "type": "function"
    }
  ],
  "bytecode": "0x608060405234801561001057600080fd5b5061005f336040805190810160405280600981526020017f7375706572757365720000000000000000000000000000000000000000000000815250610064640100000000026401000000009004565b6101a7565b6100db826000836040518082805190602001908083835b6020831061009a5780518252601f19909201916020918201910161007b565b51815160209384036101000a600019018019909216911617905292019485525060405193849003019092209291505064010000000061018281026106341704565b81600160a060020a03167fbfec83d64eaa953f2708271a023ab9ee82057f8f3578d548c1a4ba0b5b700489826040518080602001828103825283818151815260200191508051906020019080838360005b8381101561014457818101518382015260200161012c565b50505050905090810190601f1680156101715780820380516001836020036101000a031916815260200191505b509250505060405180910390a25050565b600160a060020a0316600090815260209190915260409020805460ff19166001179055565b6106a5806101b66000396000f30060806040526004361061006c5763ffffffff7c01000000000000000000000000000000000000000000000000000000006000350416630988ca8c8114610071578063217fe6c6146100da57806357c393fa14610155578063bceee05e14610176578063ebb4f48414610197575b600080fd5b34801561007d57600080fd5b5060408051602060046024803582810135601f81018590048502860185019096528585526100d8958335600160a060020a03169536956044949193909101919081908401838280828437509497506102219650505050505050565b005b3480156100e657600080fd5b5060408051602060046024803582810135601f8101859004850286018501909652858552610141958335600160a060020a031695369560449491939091019190819084018382808284375094975061028f9650505050505050565b604080519115158252519081900360200190f35b34801561016157600080fd5b506100d8600160a060020a0360043516610302565b34801561018257600080fd5b50610141600160a060020a03600435166103a1565b3480156101a357600080fd5b506101ac6103d6565b6040805160208082528351818301528351919283929083019185019080838360005b838110156101e65781810151838201526020016101ce565b50505050905090810190601f1680156102135780820380516001836020036101000a031916815260200191505b509250505060405180910390f35b61028b826000836040518082805190602001908083835b602083106102575780518252601f199092019160209182019101610238565b51815160209384036101000a60001901801990921691161790529201948552506040519384900301909220929150506103fb565b5050565b60006102fb836000846040518082805190602001908083835b602083106102c75780518252601f1990920191602091820191016102a8565b51815160209384036101000a6000190180199092169116179052920194855250604051938490030190922092915050610410565b9392505050565b61032f3360408051908101604052806009815260200160008051602061065a833981519152815250610221565b600160a060020a038116151561034457600080fd5b6103713360408051908101604052806009815260200160008051602061065a83398151915281525061042f565b61039e8160408051908101604052806009815260200160008051602061065a833981519152815250610540565b50565b60006103d08260408051908101604052806009815260200160008051602061065a83398151915281525061028f565b92915050565b604080518082019091526009815260008051602061065a833981519152602082015281565b6104058282610410565b151561028b57600080fd5b600160a060020a03166000908152602091909152604090205460ff1690565b610499826000836040518082805190602001908083835b602083106104655780518252601f199092019160209182019101610446565b51815160209384036101000a6000190180199092169116179052920194855250604051938490030190922092915050610612565b81600160a060020a03167fd211483f91fc6eff862467f8de606587a30c8fc9981056f051b897a418df803a826040518080602001828103825283818151815260200191508051906020019080838360005b838110156105025781810151838201526020016104ea565b50505050905090810190601f16801561052f5780820380516001836020036101000a031916815260200191505b509250505060405180910390a25050565b6105aa826000836040518082805190602001908083835b602083106105765780518252601f199092019160209182019101610557565b51815160209384036101000a6000190180199092169116179052920194855250604051938490030190922092915050610634565b81600160a060020a03167fbfec83d64eaa953f2708271a023ab9ee82057f8f3578d548c1a4ba0b5b70048982604051808060200182810382528381815181526020019150805190602001908083836000838110156105025781810151838201526020016104ea565b600160a060020a0316600090815260209190915260409020805460ff19169055565b600160a060020a0316600090815260209190915260409020805460ff1916600117905556007375706572757365720000000000000000000000000000000000000000000000a165627a7a723058200a0ab870ded4a4d2695dd91a625b3df5f48f3c6dddf87b49df42131a5ab5c4060029",
  "source": "pragma solidity ^0.4.24;\r\n\r\n/**\r\n * @title Roles\r\n * @author Francisco Giordano (@frangio)\r\n * @dev Library for managing addresses assigned to a Role.\r\n * See RBAC.sol for example usage.\r\n */\r\nlibrary Roles {\r\n    struct Role {\r\n        mapping (address => bool) bearer;\r\n    }\r\n\r\n    /**\r\n    * @dev give an address access to this role\r\n    */\r\n    function add(Role storage role, address addr)\r\n        internal\r\n    {\r\n        role.bearer[addr] = true;\r\n    }\r\n\r\n    /**\r\n    * @dev remove an address' access to this role\r\n    */\r\n    function remove(Role storage role, address addr)\r\n        internal\r\n    {\r\n        role.bearer[addr] = false;\r\n    }\r\n\r\n    /**\r\n    * @dev check if an address has this role\r\n    * // reverts\r\n    */\r\n    function check(Role storage role, address addr)\r\n        view\r\n        internal\r\n    {\r\n        require(has(role, addr));\r\n    }\r\n\r\n    /**\r\n    * @dev check if an address has this role\r\n    * @return bool\r\n    */\r\n    function has(Role storage role, address addr)\r\n        view\r\n        internal\r\n    returns (bool)\r\n    {\r\n        return role.bearer[addr];\r\n    }\r\n}\r\n\r\n/**\r\n * @title RBAC (Role-Based Access Control)\r\n * @author Matt Condon (@Shrugs)\r\n * @dev Stores and provides setters and getters for roles and addresses.\r\n * Supports unlimited numbers of roles and addresses.\r\n * See //contracts/mocks/RBACMock.sol for an example of usage.\r\n * This RBAC method uses strings to key roles. It may be beneficial\r\n * for you to write your own implementation of this interface using Enums or similar.\r\n * It's also recommended that you define constants in the contract, like ROLE_ADMIN below,\r\n * to avoid typos.\r\n */\r\ncontract RBAC {\r\n    using Roles for Roles.Role;\r\n\r\n    mapping (string => Roles.Role) private roles;\r\n\r\n    event RoleAdded(address indexed operator, string role);\r\n    event RoleRemoved(address indexed operator, string role);\r\n\r\n    /**\r\n    * @dev reverts if addr does not have role\r\n    * @param _operator address\r\n    * @param _role the name of the role\r\n    * // reverts\r\n    */\r\n    function checkRole(address _operator, string _role)\r\n        view\r\n        public\r\n    {\r\n        roles[_role].check(_operator);\r\n    }\r\n\r\n    /**\r\n    * @dev determine if addr has role\r\n    * @param _operator address\r\n    * @param _role the name of the role\r\n    * @return bool\r\n    */\r\n    function hasRole(address _operator, string _role)\r\n        view\r\n        public\r\n    returns (bool)\r\n    {\r\n        return roles[_role].has(_operator);\r\n    }\r\n\r\n    /**\r\n    * @dev add a role to an address\r\n    * @param _operator address\r\n    * @param _role the name of the role\r\n    */\r\n    function addRole(address _operator, string _role)\r\n        internal\r\n    {\r\n        roles[_role].add(_operator);\r\n        emit RoleAdded(_operator, _role);\r\n    }\r\n\r\n    /**\r\n    * @dev remove a role from an address\r\n    * @param _operator address\r\n    * @param _role the name of the role\r\n    */\r\n    function removeRole(address _operator, string _role)\r\n        internal\r\n    {\r\n        roles[_role].remove(_operator);\r\n        emit RoleRemoved(_operator, _role);\r\n    }\r\n\r\n    /**\r\n    * @dev modifier to scope access to a single role (uses msg.sender as addr)\r\n    * @param _role the name of the role\r\n    * // reverts\r\n    */\r\n    modifier onlyRole(string _role)\r\n    {\r\n        checkRole(msg.sender, _role);\r\n        _;\r\n    }\r\n}\r\n\r\n/**\r\n * @title Superuser\r\n * @dev The Superuser contract defines a single superuser who can transfer the ownership \r\n * of a contract to a new address, even if he is not the owner. \r\n * A superuser can transfer his role to a new address. \r\n */\r\ncontract Superuserable is RBAC {\r\n    \r\n    string public constant ROLE_SUPERUSER = \"superuser\";\r\n\r\n    constructor () public {\r\n        addRole(msg.sender, ROLE_SUPERUSER);\r\n    }\r\n\r\n    /**\r\n    * @dev Throws if called by any account that's not a superuser.\r\n    */\r\n    modifier onlySuperuser() {\r\n        checkRole(msg.sender, ROLE_SUPERUSER);\r\n        _;\r\n    }\r\n\r\n    /**\r\n    * @dev getter to determine if address has superuser role\r\n    */\r\n    function isSuperuser(address _addr)\r\n        public\r\n        view\r\n    returns (bool)\r\n    {\r\n        return hasRole(_addr, ROLE_SUPERUSER);\r\n    }\r\n\r\n    /**\r\n    * @dev Allows the current superuser to transfer his role to a newSuperuser.\r\n    * @param _newSuperuser The address to transfer ownership to.\r\n    */\r\n    function transferSuperuser(address _newSuperuser) public onlySuperuser {\r\n        require(_newSuperuser != address(0));\r\n        removeRole(msg.sender, ROLE_SUPERUSER);\r\n        addRole(_newSuperuser, ROLE_SUPERUSER);\r\n    }\r\n}\r\n\r\ncontract Auditable is Superuserable {\r\n    \r\n    string public constant ROLE_AUDITOR = \"auditor\";\r\n    \r\n    function addAuditor(address _newAuditor) public onlySuperuser {\r\n        require(_newAuditor != address(0));\r\n        addRole(_newAuditor, ROLE_AUDITOR);\r\n    }\r\n    \r\n    // function removeAuditor(address _auditor) public onlySuperuser {\r\n    //     removeRole(_auditor, ROLE_AUDITOR);\r\n    // }\r\n    \r\n    modifier onlyAuditor() {\r\n        checkRole(msg.sender, ROLE_AUDITOR);\r\n        _;\r\n    }\r\n    \r\n    function isAuditor(address _addr)\r\n        public\r\n        view\r\n    returns (bool) \r\n    {\r\n        return hasRole(_addr, ROLE_AUDITOR);\r\n    }\r\n}\r\n\r\n// contract Developerable is Auditable {\r\n    \r\n//     string public constant ROLE_DEVELOPER = \"developer\";\r\n    \r\n//     function addDeveloper() public {\r\n//         require(msg.sender != address(0));\r\n//         addRole(msg.sender, ROLE_DEVELOPER);\r\n//     }\r\n    \r\n//     modifier onlyDeveloper() {\r\n//         checkRole(msg.sender, ROLE_DEVELOPER);\r\n//         _;\r\n//     }\r\n    \r\n//     function isDeveloper(address _addr) \r\n//         public\r\n//         view\r\n//     returns (bool)\r\n//     {\r\n//         return hasRole(_addr, ROLE_DEVELOPER);\r\n//     }\r\n// }\r\n\r\ncontract Userable is Auditable {\r\n    \r\n    struct User {\r\n        string name;\r\n    }\r\n    \r\n    mapping(address => User) users;\r\n\r\n    mapping(string => address) usernames;\r\n    \r\n    modifier onlyValidName(string _name) {\r\n        require(bytes(_name).length > 0);\r\n        require(usernames[_name] == address(0));\r\n        _;\r\n    }\r\n    \r\n    modifier onlyExistingUser() {\r\n        require(bytes(users[msg.sender].name).length > 0);\r\n        _;\r\n    }\r\n    \r\n    function signUp(string _name) \r\n        public \r\n        onlyValidName(_name)\r\n    returns (string)\r\n    {\r\n        require(isSuperuser(msg.sender) || isAuditor(msg.sender));\r\n        if (bytes(users[msg.sender].name).length == 0) {\r\n            users[msg.sender].name = _name;\r\n        }\r\n        \r\n        // if (!isSuperuser(msg.sender) && !isAuditor(msg.sender)) {\r\n        //     addDeveloper();\r\n        // }\r\n        \r\n        return users[msg.sender].name;\r\n    }\r\n\r\n    function isValidUsername(string _name) public view returns(bool) {\r\n        return (bytes(_name).length > 0 && usernames[_name] == address(0));\r\n    }\r\n    \r\n    function isSignUp() public view returns(bool) {\r\n        return (bytes(users[msg.sender].name).length > 0);\r\n    }\r\n\r\n    function login()\r\n        view\r\n        public\r\n        onlyExistingUser\r\n    returns (string)\r\n    {\r\n        return users[msg.sender].name;\r\n    }\r\n}",
  "sourcePath": "C:\\Users\\Solidity\\Documents\\HashLab\\GENERAL\\Brem\\contracts\\Userable.sol",
  "compiler": {
    "name": "solc",
    "version": "0.4.24+commit.e67f0147.Emscripten.clang"
  },
  "schemaVersion": "2.0.1",
  "updatedAt": "2018-08-21T13:17:08.902Z"
}