{
  "contractName": "Superuserable",
  "abi": [
    {
      "constant": true,
      "inputs": [
        {
          "name": "_operator",
          "type": "address"
        },
        {
          "name": "_role",
          "type": "string"
        }
      ],
      "name": "checkRole",
      "outputs": [],
      "payable": false,
      "stateMutability": "view",
      "type": "function"
    },
    {
      "constant": true,
      "inputs": [
        {
          "name": "_operator",
          "type": "address"
        },
        {
          "name": "_role",
          "type": "string"
        }
      ],
      "name": "hasRole",
      "outputs": [
        {
          "name": "",
          "type": "bool"
        }
      ],
      "payable": false,
      "stateMutability": "view",
      "type": "function"
    },
    {
      "constant": true,
      "inputs": [],
      "name": "ROLE_SUPERUSER",
      "outputs": [
        {
          "name": "",
          "type": "string"
        }
      ],
      "payable": false,
      "stateMutability": "view",
      "type": "function"
    },
    {
      "inputs": [],
      "payable": false,
      "stateMutability": "nonpayable",
      "type": "constructor"
    },
    {
      "anonymous": false,
      "inputs": [
        {
          "indexed": true,
          "name": "operator",
          "type": "address"
        },
        {
          "indexed": false,
          "name": "role",
          "type": "string"
        }
      ],
      "name": "RoleAdded",
      "type": "event"
    },
    {
      "anonymous": false,
      "inputs": [
        {
          "indexed": true,
          "name": "operator",
          "type": "address"
        },
        {
          "indexed": false,
          "name": "role",
          "type": "string"
        }
      ],
      "name": "RoleRemoved",
      "type": "event"
    },
    {
      "constant": true,
      "inputs": [
        {
          "name": "_addr",
          "type": "address"
        }
      ],
      "name": "isSuperuser",
      "outputs": [
        {
          "name": "",
          "type": "bool"
        }
      ],
      "payable": false,
      "stateMutability": "view",
      "type": "function"
    },
    {
      "constant": false,
      "inputs": [
        {
          "name": "_newSuperuser",
          "type": "address"
        }
      ],
      "name": "transferSuperuser",
      "outputs": [],
      "payable": false,
      "stateMutability": "nonpayable",
      "type": "function"
    }
  ],
  "bytecode": "0x608060405234801561001057600080fd5b5061005f336040805190810160405280600981526020017f7375706572757365720000000000000000000000000000000000000000000000815250610064640100000000026401000000009004565b610203565b6100ee826000836040518082805190602001908083835b6020831015156100a0578051825260208201915060208101905060208303925061007b565b6001836020036101000a03801982511681845116808217855250505050505090500191505090815260200160405180910390206101a564010000000002610887179091906401000000009004565b8173ffffffffffffffffffffffffffffffffffffffff167fbfec83d64eaa953f2708271a023ab9ee82057f8f3578d548c1a4ba0b5b700489826040518080602001828103825283818151815260200191508051906020019080838360005b8381101561016757808201518184015260208101905061014c565b50505050905090810190601f1680156101945780820380516001836020036101000a031916815260200191505b509250505060405180910390a25050565b60018260000160008373ffffffffffffffffffffffffffffffffffffffff1673ffffffffffffffffffffffffffffffffffffffff16815260200190815260200160002060006101000a81548160ff0219169083151502179055505050565b610911806102126000396000f30060806040526004361061006d576000357c0100000000000000000000000000000000000000000000000000000000900463ffffffff1680630988ca8c14610072578063217fe6c6146100fb57806357c393fa1461019c578063bceee05e146101df578063ebb4f4841461023a575b600080fd5b34801561007e57600080fd5b506100f9600480360381019080803573ffffffffffffffffffffffffffffffffffffffff169060200190929190803590602001908201803590602001908080601f01602080910402602001604051908101604052809392919081815260200183838082843782019150505050505091929192905050506102ca565b005b34801561010757600080fd5b50610182600480360381019080803573ffffffffffffffffffffffffffffffffffffffff169060200190929190803590602001908201803590602001908080601f016020809104026020016040519081016040528093929190818152602001838380828437820191505050505050919291929050505061034b565b604051808215151515815260200191505060405180910390f35b3480156101a857600080fd5b506101dd600480360381019080803573ffffffffffffffffffffffffffffffffffffffff1690602001909291905050506103d2565b005b3480156101eb57600080fd5b50610220600480360381019080803573ffffffffffffffffffffffffffffffffffffffff1690602001909291905050506104ce565b604051808215151515815260200191505060405180910390f35b34801561024657600080fd5b5061024f610516565b6040518080602001828103825283818151815260200191508051906020019080838360005b8381101561028f578082015181840152602081019050610274565b50505050905090810190601f1680156102bc5780820380516001836020036101000a031916815260200191505b509250505060405180910390f35b610347826000836040518082805190602001908083835b60208310151561030657805182526020820191506020810190506020830392506102e1565b6001836020036101000a038019825116818451168082178552505050505050905001915050908152602001604051809103902061054f90919063ffffffff16565b5050565b60006103ca836000846040518082805190602001908083835b6020831015156103895780518252602082019150602081019050602083039250610364565b6001836020036101000a038019825116818451168082178552505050505050905001915050908152602001604051809103902061056890919063ffffffff16565b905092915050565b610411336040805190810160405280600981526020017f73757065727573657200000000000000000000000000000000000000000000008152506102ca565b600073ffffffffffffffffffffffffffffffffffffffff168173ffffffffffffffffffffffffffffffffffffffff161415151561044d57600080fd5b61048c336040805190810160405280600981526020017f73757065727573657200000000000000000000000000000000000000000000008152506105c1565b6104cb816040805190810160405280600981526020017f73757065727573657200000000000000000000000000000000000000000000008152506106f5565b50565b600061050f826040805190810160405280600981526020017f737570657275736572000000000000000000000000000000000000000000000081525061034b565b9050919050565b6040805190810160405280600981526020017f737570657275736572000000000000000000000000000000000000000000000081525081565b6105598282610568565b151561056457600080fd5b5050565b60008260000160008373ffffffffffffffffffffffffffffffffffffffff1673ffffffffffffffffffffffffffffffffffffffff16815260200190815260200160002060009054906101000a900460ff16905092915050565b61063e826000836040518082805190602001908083835b6020831015156105fd57805182526020820191506020810190506020830392506105d8565b6001836020036101000a038019825116818451168082178552505050505050905001915050908152602001604051809103902061082990919063ffffffff16565b8173ffffffffffffffffffffffffffffffffffffffff167fd211483f91fc6eff862467f8de606587a30c8fc9981056f051b897a418df803a826040518080602001828103825283818151815260200191508051906020019080838360005b838110156106b757808201518184015260208101905061069c565b50505050905090810190601f1680156106e45780820380516001836020036101000a031916815260200191505b509250505060405180910390a25050565b610772826000836040518082805190602001908083835b602083101515610731578051825260208201915060208101905060208303925061070c565b6001836020036101000a038019825116818451168082178552505050505050905001915050908152602001604051809103902061088790919063ffffffff16565b8173ffffffffffffffffffffffffffffffffffffffff167fbfec83d64eaa953f2708271a023ab9ee82057f8f3578d548c1a4ba0b5b700489826040518080602001828103825283818151815260200191508051906020019080838360005b838110156107eb5780820151818401526020810190506107d0565b50505050905090810190601f1680156108185780820380516001836020036101000a031916815260200191505b509250505060405180910390a25050565b60008260000160008373ffffffffffffffffffffffffffffffffffffffff1673ffffffffffffffffffffffffffffffffffffffff16815260200190815260200160002060006101000a81548160ff0219169083151502179055505050565b60018260000160008373ffffffffffffffffffffffffffffffffffffffff1673ffffffffffffffffffffffffffffffffffffffff16815260200190815260200160002060006101000a81548160ff02191690831515021790555050505600a165627a7a723058204f9b1d805ea84581e9eb19590d074c33894c1f7a2521cb81eef73fbfe525082c0029",
  "source": "pragma solidity ^0.4.24;\r\n\r\n/**\r\n * @title Roles\r\n * @author Francisco Giordano (@frangio)\r\n * @dev Library for managing addresses assigned to a Role.\r\n * See RBAC.sol for example usage.\r\n */\r\nlibrary Roles {\r\n    struct Role {\r\n        mapping (address => bool) bearer;\r\n    }\r\n\r\n    /**\r\n    * @dev give an address access to this role\r\n    */\r\n    function add(Role storage role, address addr)\r\n        internal\r\n    {\r\n        role.bearer[addr] = true;\r\n    }\r\n\r\n    /**\r\n    * @dev remove an address' access to this role\r\n    */\r\n    function remove(Role storage role, address addr)\r\n        internal\r\n    {\r\n        role.bearer[addr] = false;\r\n    }\r\n\r\n    /**\r\n    * @dev check if an address has this role\r\n    * // reverts\r\n    */\r\n    function check(Role storage role, address addr)\r\n        view\r\n        internal\r\n    {\r\n        require(has(role, addr));\r\n    }\r\n\r\n    /**\r\n    * @dev check if an address has this role\r\n    * @return bool\r\n    */\r\n    function has(Role storage role, address addr)\r\n        view\r\n        internal\r\n    returns (bool)\r\n    {\r\n        return role.bearer[addr];\r\n    }\r\n}\r\n\r\n/**\r\n * @title RBAC (Role-Based Access Control)\r\n * @author Matt Condon (@Shrugs)\r\n * @dev Stores and provides setters and getters for roles and addresses.\r\n * Supports unlimited numbers of roles and addresses.\r\n * See //contracts/mocks/RBACMock.sol for an example of usage.\r\n * This RBAC method uses strings to key roles. It may be beneficial\r\n * for you to write your own implementation of this interface using Enums or similar.\r\n * It's also recommended that you define constants in the contract, like ROLE_ADMIN below,\r\n * to avoid typos.\r\n */\r\ncontract RBAC {\r\n    using Roles for Roles.Role;\r\n\r\n    mapping (string => Roles.Role) private roles;\r\n\r\n    event RoleAdded(address indexed operator, string role);\r\n    event RoleRemoved(address indexed operator, string role);\r\n\r\n    /**\r\n    * @dev reverts if addr does not have role\r\n    * @param _operator address\r\n    * @param _role the name of the role\r\n    * // reverts\r\n    */\r\n    function checkRole(address _operator, string _role)\r\n        view\r\n        public\r\n    {\r\n        roles[_role].check(_operator);\r\n    }\r\n\r\n    /**\r\n    * @dev determine if addr has role\r\n    * @param _operator address\r\n    * @param _role the name of the role\r\n    * @return bool\r\n    */\r\n    function hasRole(address _operator, string _role)\r\n        view\r\n        public\r\n    returns (bool)\r\n    {\r\n        return roles[_role].has(_operator);\r\n    }\r\n\r\n    /**\r\n    * @dev add a role to an address\r\n    * @param _operator address\r\n    * @param _role the name of the role\r\n    */\r\n    function addRole(address _operator, string _role)\r\n        internal\r\n    {\r\n        roles[_role].add(_operator);\r\n        emit RoleAdded(_operator, _role);\r\n    }\r\n\r\n    /**\r\n    * @dev remove a role from an address\r\n    * @param _operator address\r\n    * @param _role the name of the role\r\n    */\r\n    function removeRole(address _operator, string _role)\r\n        internal\r\n    {\r\n        roles[_role].remove(_operator);\r\n        emit RoleRemoved(_operator, _role);\r\n    }\r\n\r\n    /**\r\n    * @dev modifier to scope access to a single role (uses msg.sender as addr)\r\n    * @param _role the name of the role\r\n    * // reverts\r\n    */\r\n    modifier onlyRole(string _role)\r\n    {\r\n        checkRole(msg.sender, _role);\r\n        _;\r\n    }\r\n}\r\n\r\n/**\r\n * @title Superuser\r\n * @dev The Superuser contract defines a single superuser who can transfer the ownership \r\n * of a contract to a new address, even if he is not the owner. \r\n * A superuser can transfer his role to a new address. \r\n */\r\ncontract Superuserable is RBAC {\r\n    \r\n    string public constant ROLE_SUPERUSER = \"superuser\";\r\n\r\n    constructor () public {\r\n        addRole(msg.sender, ROLE_SUPERUSER);\r\n    }\r\n\r\n    /**\r\n    * @dev Throws if called by any account that's not a superuser.\r\n    */\r\n    modifier onlySuperuser() {\r\n        checkRole(msg.sender, ROLE_SUPERUSER);\r\n        _;\r\n    }\r\n\r\n    /**\r\n    * @dev getter to determine if address has superuser role\r\n    */\r\n    function isSuperuser(address _addr)\r\n        public\r\n        view\r\n    returns (bool)\r\n    {\r\n        return hasRole(_addr, ROLE_SUPERUSER);\r\n    }\r\n\r\n    /**\r\n    * @dev Allows the current superuser to transfer his role to a newSuperuser.\r\n    * @param _newSuperuser The address to transfer ownership to.\r\n    */\r\n    function transferSuperuser(address _newSuperuser) public onlySuperuser {\r\n        require(_newSuperuser != address(0));\r\n        removeRole(msg.sender, ROLE_SUPERUSER);\r\n        addRole(_newSuperuser, ROLE_SUPERUSER);\r\n    }\r\n}\r\n\r\ncontract Auditable is Superuserable {\r\n    \r\n    string public constant ROLE_AUDITOR = \"auditor\";\r\n    \r\n    function addAuditor(address _newAuditor) public onlySuperuser {\r\n        require(_newAuditor != address(0));\r\n        addRole(_newAuditor, ROLE_AUDITOR);\r\n    }\r\n    \r\n    // function removeAuditor(address _auditor) public onlySuperuser {\r\n    //     removeRole(_auditor, ROLE_AUDITOR);\r\n    // }\r\n    \r\n    modifier onlyAuditor() {\r\n        checkRole(msg.sender, ROLE_AUDITOR);\r\n        _;\r\n    }\r\n    \r\n    function isAuditor(address _addr)\r\n        public\r\n        view\r\n    returns (bool) \r\n    {\r\n        return hasRole(_addr, ROLE_AUDITOR);\r\n    }\r\n}\r\n\r\ncontract Developerable is Auditable {\r\n    \r\n    string public constant ROLE_DEVELOPER = \"developer\";\r\n    \r\n    function addDeveloper() public {\r\n        require(msg.sender != address(0));\r\n        addRole(msg.sender, ROLE_DEVELOPER);\r\n    }\r\n    \r\n    modifier onlyDeveloper() {\r\n        checkRole(msg.sender, ROLE_DEVELOPER);\r\n        _;\r\n    }\r\n    \r\n    function isDeveloper(address _addr) \r\n        public\r\n        view\r\n    returns (bool)\r\n    {\r\n        return hasRole(_addr, ROLE_DEVELOPER);\r\n    }\r\n}\r\n\r\ncontract Userable is Developerable {\r\n    \r\n    struct User {\r\n        string name;\r\n    }\r\n    \r\n    mapping(address => User) users;\r\n    \r\n    modifier onlyValidName(string _name) {\r\n        require(bytes(_name).length > 0);\r\n        _;\r\n    }\r\n    \r\n    modifier onlyExistingUser() {\r\n        require(bytes(users[msg.sender].name).length > 0);\r\n        _;\r\n    }\r\n    \r\n    function signUp(string _name) \r\n        public \r\n        onlyValidName(_name)\r\n    returns (string)\r\n    {\r\n        if (bytes(users[msg.sender].name).length == 0) {\r\n            users[msg.sender].name = _name;\r\n        }\r\n        \r\n        if (!isSuperuser(msg.sender) && !isAuditor(msg.sender)) {\r\n            addDeveloper();\r\n        }\r\n        \r\n        return users[msg.sender].name;\r\n    }\r\n    \r\n    function login()\r\n        view\r\n        public\r\n        onlyExistingUser\r\n    returns (string)\r\n    {\r\n        return users[msg.sender].name;\r\n    }\r\n}",
  "sourcePath": "C:\\Users\\Solidity\\Documents\\HashLab\\GENERAL\\Brem\\contracts\\Userable.sol",
  "compiler": {
    "name": "solc",
    "version": "0.4.24+commit.e67f0147.Emscripten.clang"
  },
  "schemaVersion": "2.0.1",
  "updatedAt": "2018-08-09T14:40:38.461Z"
}