{
  "contractName": "Superuserable",
  "abi": [
    {
      "constant": true,
      "inputs": [
        {
          "name": "_operator",
          "type": "address"
        },
        {
          "name": "_role",
          "type": "string"
        }
      ],
      "name": "checkRole",
      "outputs": [],
      "payable": false,
      "stateMutability": "view",
      "type": "function"
    },
    {
      "constant": true,
      "inputs": [
        {
          "name": "_operator",
          "type": "address"
        },
        {
          "name": "_role",
          "type": "string"
        }
      ],
      "name": "hasRole",
      "outputs": [
        {
          "name": "",
          "type": "bool"
        }
      ],
      "payable": false,
      "stateMutability": "view",
      "type": "function"
    },
    {
      "constant": true,
      "inputs": [],
      "name": "ROLE_SUPERUSER",
      "outputs": [
        {
          "name": "",
          "type": "string"
        }
      ],
      "payable": false,
      "stateMutability": "view",
      "type": "function"
    },
    {
      "inputs": [],
      "payable": false,
      "stateMutability": "nonpayable",
      "type": "constructor"
    },
    {
      "anonymous": false,
      "inputs": [
        {
          "indexed": true,
          "name": "operator",
          "type": "address"
        },
        {
          "indexed": false,
          "name": "role",
          "type": "string"
        }
      ],
      "name": "RoleAdded",
      "type": "event"
    },
    {
      "anonymous": false,
      "inputs": [
        {
          "indexed": true,
          "name": "operator",
          "type": "address"
        },
        {
          "indexed": false,
          "name": "role",
          "type": "string"
        }
      ],
      "name": "RoleRemoved",
      "type": "event"
    },
    {
      "constant": true,
      "inputs": [
        {
          "name": "_addr",
          "type": "address"
        }
      ],
      "name": "isSuperuser",
      "outputs": [
        {
          "name": "",
          "type": "bool"
        }
      ],
      "payable": false,
      "stateMutability": "view",
      "type": "function"
    },
    {
      "constant": false,
      "inputs": [
        {
          "name": "_newSuperuser",
          "type": "address"
        }
      ],
      "name": "transferSuperuser",
      "outputs": [],
      "payable": false,
      "stateMutability": "nonpayable",
      "type": "function"
    }
  ],
  "bytecode": "0x608060405234801561001057600080fd5b5061005f336040805190810160405280600981526020017f7375706572757365720000000000000000000000000000000000000000000000815250610064640100000000026401000000009004565b610203565b6100ee826000836040518082805190602001908083835b6020831015156100a0578051825260208201915060208101905060208303925061007b565b6001836020036101000a03801982511681845116808217855250505050505090500191505090815260200160405180910390206101a564010000000002610887179091906401000000009004565b8173ffffffffffffffffffffffffffffffffffffffff167fbfec83d64eaa953f2708271a023ab9ee82057f8f3578d548c1a4ba0b5b700489826040518080602001828103825283818151815260200191508051906020019080838360005b8381101561016757808201518184015260208101905061014c565b50505050905090810190601f1680156101945780820380516001836020036101000a031916815260200191505b509250505060405180910390a25050565b60018260000160008373ffffffffffffffffffffffffffffffffffffffff1673ffffffffffffffffffffffffffffffffffffffff16815260200190815260200160002060006101000a81548160ff0219169083151502179055505050565b610911806102126000396000f30060806040526004361061006d576000357c0100000000000000000000000000000000000000000000000000000000900463ffffffff1680630988ca8c14610072578063217fe6c6146100fb57806357c393fa1461019c578063bceee05e146101df578063ebb4f4841461023a575b600080fd5b34801561007e57600080fd5b506100f9600480360381019080803573ffffffffffffffffffffffffffffffffffffffff169060200190929190803590602001908201803590602001908080601f01602080910402602001604051908101604052809392919081815260200183838082843782019150505050505091929192905050506102ca565b005b34801561010757600080fd5b50610182600480360381019080803573ffffffffffffffffffffffffffffffffffffffff169060200190929190803590602001908201803590602001908080601f016020809104026020016040519081016040528093929190818152602001838380828437820191505050505050919291929050505061034b565b604051808215151515815260200191505060405180910390f35b3480156101a857600080fd5b506101dd600480360381019080803573ffffffffffffffffffffffffffffffffffffffff1690602001909291905050506103d2565b005b3480156101eb57600080fd5b50610220600480360381019080803573ffffffffffffffffffffffffffffffffffffffff1690602001909291905050506104ce565b604051808215151515815260200191505060405180910390f35b34801561024657600080fd5b5061024f610516565b6040518080602001828103825283818151815260200191508051906020019080838360005b8381101561028f578082015181840152602081019050610274565b50505050905090810190601f1680156102bc5780820380516001836020036101000a031916815260200191505b509250505060405180910390f35b610347826000836040518082805190602001908083835b60208310151561030657805182526020820191506020810190506020830392506102e1565b6001836020036101000a038019825116818451168082178552505050505050905001915050908152602001604051809103902061054f90919063ffffffff16565b5050565b60006103ca836000846040518082805190602001908083835b6020831015156103895780518252602082019150602081019050602083039250610364565b6001836020036101000a038019825116818451168082178552505050505050905001915050908152602001604051809103902061056890919063ffffffff16565b905092915050565b610411336040805190810160405280600981526020017f73757065727573657200000000000000000000000000000000000000000000008152506102ca565b600073ffffffffffffffffffffffffffffffffffffffff168173ffffffffffffffffffffffffffffffffffffffff161415151561044d57600080fd5b61048c336040805190810160405280600981526020017f73757065727573657200000000000000000000000000000000000000000000008152506105c1565b6104cb816040805190810160405280600981526020017f73757065727573657200000000000000000000000000000000000000000000008152506106f5565b50565b600061050f826040805190810160405280600981526020017f737570657275736572000000000000000000000000000000000000000000000081525061034b565b9050919050565b6040805190810160405280600981526020017f737570657275736572000000000000000000000000000000000000000000000081525081565b6105598282610568565b151561056457600080fd5b5050565b60008260000160008373ffffffffffffffffffffffffffffffffffffffff1673ffffffffffffffffffffffffffffffffffffffff16815260200190815260200160002060009054906101000a900460ff16905092915050565b61063e826000836040518082805190602001908083835b6020831015156105fd57805182526020820191506020810190506020830392506105d8565b6001836020036101000a038019825116818451168082178552505050505050905001915050908152602001604051809103902061082990919063ffffffff16565b8173ffffffffffffffffffffffffffffffffffffffff167fd211483f91fc6eff862467f8de606587a30c8fc9981056f051b897a418df803a826040518080602001828103825283818151815260200191508051906020019080838360005b838110156106b757808201518184015260208101905061069c565b50505050905090810190601f1680156106e45780820380516001836020036101000a031916815260200191505b509250505060405180910390a25050565b610772826000836040518082805190602001908083835b602083101515610731578051825260208201915060208101905060208303925061070c565b6001836020036101000a038019825116818451168082178552505050505050905001915050908152602001604051809103902061088790919063ffffffff16565b8173ffffffffffffffffffffffffffffffffffffffff167fbfec83d64eaa953f2708271a023ab9ee82057f8f3578d548c1a4ba0b5b700489826040518080602001828103825283818151815260200191508051906020019080838360005b838110156107eb5780820151818401526020810190506107d0565b50505050905090810190601f1680156108185780820380516001836020036101000a031916815260200191505b509250505060405180910390a25050565b60008260000160008373ffffffffffffffffffffffffffffffffffffffff1673ffffffffffffffffffffffffffffffffffffffff16815260200190815260200160002060006101000a81548160ff0219169083151502179055505050565b60018260000160008373ffffffffffffffffffffffffffffffffffffffff1673ffffffffffffffffffffffffffffffffffffffff16815260200190815260200160002060006101000a81548160ff02191690831515021790555050505600a165627a7a72305820ee2261307b0c278a513adfeda4e074b602a7b36d1c0cece8318738e387e5d8fd0029",
  "source": "pragma solidity ^0.4.24;\n\n/**\n * @title Roles\n * @author Francisco Giordano (@frangio)\n * @dev Library for managing addresses assigned to a Role.\n * See RBAC.sol for example usage.\n */\nlibrary Roles {\n    struct Role {\n        mapping (address => bool) bearer;\n    }\n\n    /**\n    * @dev give an address access to this role\n    */\n    function add(Role storage role, address addr)\n        internal\n    {\n        role.bearer[addr] = true;\n    }\n\n    /**\n    * @dev remove an address' access to this role\n    */\n    function remove(Role storage role, address addr)\n        internal\n    {\n        role.bearer[addr] = false;\n    }\n\n    /**\n    * @dev check if an address has this role\n    * // reverts\n    */\n    function check(Role storage role, address addr)\n        view\n        internal\n    {\n        require(has(role, addr));\n    }\n\n    /**\n    * @dev check if an address has this role\n    * @return bool\n    */\n    function has(Role storage role, address addr)\n        view\n        internal\n    returns (bool)\n    {\n        return role.bearer[addr];\n    }\n}\n\n/**\n * @title RBAC (Role-Based Access Control)\n * @author Matt Condon (@Shrugs)\n * @dev Stores and provides setters and getters for roles and addresses.\n * Supports unlimited numbers of roles and addresses.\n * See //contracts/mocks/RBACMock.sol for an example of usage.\n * This RBAC method uses strings to key roles. It may be beneficial\n * for you to write your own implementation of this interface using Enums or similar.\n * It's also recommended that you define constants in the contract, like ROLE_ADMIN below,\n * to avoid typos.\n */\ncontract RBAC {\n    using Roles for Roles.Role;\n\n    mapping (string => Roles.Role) private roles;\n\n    event RoleAdded(address indexed operator, string role);\n    event RoleRemoved(address indexed operator, string role);\n\n    /**\n    * @dev reverts if addr does not have role\n    * @param _operator address\n    * @param _role the name of the role\n    * // reverts\n    */\n    function checkRole(address _operator, string _role)\n        view\n        public\n    {\n        roles[_role].check(_operator);\n    }\n\n    /**\n    * @dev determine if addr has role\n    * @param _operator address\n    * @param _role the name of the role\n    * @return bool\n    */\n    function hasRole(address _operator, string _role)\n        view\n        public\n    returns (bool)\n    {\n        return roles[_role].has(_operator);\n    }\n\n    /**\n    * @dev add a role to an address\n    * @param _operator address\n    * @param _role the name of the role\n    */\n    function addRole(address _operator, string _role)\n        internal\n    {\n        roles[_role].add(_operator);\n        emit RoleAdded(_operator, _role);\n    }\n\n    /**\n    * @dev remove a role from an address\n    * @param _operator address\n    * @param _role the name of the role\n    */\n    function removeRole(address _operator, string _role)\n        internal\n    {\n        roles[_role].remove(_operator);\n        emit RoleRemoved(_operator, _role);\n    }\n\n    /**\n    * @dev modifier to scope access to a single role (uses msg.sender as addr)\n    * @param _role the name of the role\n    * // reverts\n    */\n    modifier onlyRole(string _role)\n    {\n        checkRole(msg.sender, _role);\n        _;\n    }\n}\n\n/**\n * @title Superuser\n * @dev The Superuser contract defines a single superuser who can transfer the ownership \n * of a contract to a new address, even if he is not the owner. \n * A superuser can transfer his role to a new address. \n */\ncontract Superuserable is RBAC {\n    \n    string public constant ROLE_SUPERUSER = \"superuser\";\n\n    constructor () public {\n        addRole(msg.sender, ROLE_SUPERUSER);\n    }\n\n    /**\n    * @dev Throws if called by any account that's not a superuser.\n    */\n    modifier onlySuperuser() {\n        checkRole(msg.sender, ROLE_SUPERUSER);\n        _;\n    }\n\n    /**\n    * @dev getter to determine if address has superuser role\n    */\n    function isSuperuser(address _addr)\n        public\n        view\n    returns (bool)\n    {\n        return hasRole(_addr, ROLE_SUPERUSER);\n    }\n\n    /**\n    * @dev Allows the current superuser to transfer his role to a newSuperuser.\n    * @param _newSuperuser The address to transfer ownership to.\n    */\n    function transferSuperuser(address _newSuperuser) public onlySuperuser {\n        require(_newSuperuser != address(0));\n        removeRole(msg.sender, ROLE_SUPERUSER);\n        addRole(_newSuperuser, ROLE_SUPERUSER);\n    }\n}\n\ncontract Auditable is Superuserable {\n    \n    string public constant ROLE_AUDITOR = \"auditor\";\n    \n    function addAuditor(address _newAuditor) public onlySuperuser {\n        require(_newAuditor != address(0));\n        addRole(_newAuditor, ROLE_AUDITOR);\n    }\n    \n    // function removeAuditor(address _auditor) public onlySuperuser {\n    //     removeRole(_auditor, ROLE_AUDITOR);\n    // }\n    \n    modifier onlyAuditor() {\n        checkRole(msg.sender, ROLE_AUDITOR);\n        _;\n    }\n    \n    function isAuditor(address _addr)\n        public\n        view\n    returns (bool) \n    {\n        return hasRole(_addr, ROLE_AUDITOR);\n    }\n}\n\ncontract Developerable is Auditable {\n    \n    string public constant ROLE_DEVELOPER = \"developer\";\n    \n    function addDeveloper() public {\n        require(msg.sender != address(0));\n        addRole(msg.sender, ROLE_DEVELOPER);\n    }\n    \n    modifier onlyDeveloper() {\n        checkRole(msg.sender, ROLE_DEVELOPER);\n        _;\n    }\n    \n    function isDeveloper(address _addr) \n        public\n        view\n    returns (bool)\n    {\n        return hasRole(_addr, ROLE_DEVELOPER);\n    }\n}\n\ncontract Userable is Developerable {\n    \n    struct User {\n        string name;\n    }\n    \n    mapping(address => User) users;\n    \n    modifier onlyValidName(string _name) {\n        require(bytes(_name).length > 0);\n        _;\n    }\n    \n    modifier onlyExistingUser() {\n        require(bytes(users[msg.sender].name).length > 0);\n        _;\n    }\n    \n    function signUp(string _name) \n        public \n        onlyValidName(_name)\n    returns (string)\n    {\n        if (bytes(users[msg.sender].name).length == 0) {\n            users[msg.sender].name = _name;\n        }\n        \n        if (!isSuperuser(msg.sender) && !isAuditor(msg.sender)) {\n            addDeveloper();\n        }\n        \n        return users[msg.sender].name;\n    }\n    \n    function login()\n        view\n        public\n        onlyExistingUser\n    returns (string)\n    {\n        return users[msg.sender].name;\n    }\n}",
  "sourcePath": "/Users/artur/Development/Brem/contracts/Userable.sol",
  "compiler": {
    "name": "solc",
    "version": "0.4.24+commit.e67f0147.Emscripten.clang"
  },
  "schemaVersion": "2.0.1",
  "updatedAt": "2018-08-04T17:48:51.488Z"
}