{
  "contractName": "Userable",
  "abi": [
    {
      "constant": true,
      "inputs": [
        {
          "name": "_operator",
          "type": "address"
        },
        {
          "name": "_role",
          "type": "string"
        }
      ],
      "name": "checkRole",
      "outputs": [],
      "payable": false,
      "stateMutability": "view",
      "type": "function"
    },
    {
      "constant": true,
      "inputs": [
        {
          "name": "_operator",
          "type": "address"
        },
        {
          "name": "_role",
          "type": "string"
        }
      ],
      "name": "hasRole",
      "outputs": [
        {
          "name": "",
          "type": "bool"
        }
      ],
      "payable": false,
      "stateMutability": "view",
      "type": "function"
    },
    {
      "constant": false,
      "inputs": [],
      "name": "addDeveloper",
      "outputs": [],
      "payable": false,
      "stateMutability": "nonpayable",
      "type": "function"
    },
    {
      "constant": true,
      "inputs": [],
      "name": "ROLE_AUDITOR",
      "outputs": [
        {
          "name": "",
          "type": "string"
        }
      ],
      "payable": false,
      "stateMutability": "view",
      "type": "function"
    },
    {
      "constant": true,
      "inputs": [
        {
          "name": "_addr",
          "type": "address"
        }
      ],
      "name": "isAuditor",
      "outputs": [
        {
          "name": "",
          "type": "bool"
        }
      ],
      "payable": false,
      "stateMutability": "view",
      "type": "function"
    },
    {
      "constant": false,
      "inputs": [
        {
          "name": "_newSuperuser",
          "type": "address"
        }
      ],
      "name": "transferSuperuser",
      "outputs": [],
      "payable": false,
      "stateMutability": "nonpayable",
      "type": "function"
    },
    {
      "constant": true,
      "inputs": [
        {
          "name": "_addr",
          "type": "address"
        }
      ],
      "name": "isDeveloper",
      "outputs": [
        {
          "name": "",
          "type": "bool"
        }
      ],
      "payable": false,
      "stateMutability": "view",
      "type": "function"
    },
    {
      "constant": true,
      "inputs": [
        {
          "name": "_addr",
          "type": "address"
        }
      ],
      "name": "isSuperuser",
      "outputs": [
        {
          "name": "",
          "type": "bool"
        }
      ],
      "payable": false,
      "stateMutability": "view",
      "type": "function"
    },
    {
      "constant": true,
      "inputs": [],
      "name": "ROLE_DEVELOPER",
      "outputs": [
        {
          "name": "",
          "type": "string"
        }
      ],
      "payable": false,
      "stateMutability": "view",
      "type": "function"
    },
    {
      "constant": false,
      "inputs": [
        {
          "name": "_newAuditor",
          "type": "address"
        }
      ],
      "name": "addAuditor",
      "outputs": [],
      "payable": false,
      "stateMutability": "nonpayable",
      "type": "function"
    },
    {
      "constant": false,
      "inputs": [
        {
          "name": "_auditor",
          "type": "address"
        }
      ],
      "name": "removeAuditor",
      "outputs": [],
      "payable": false,
      "stateMutability": "nonpayable",
      "type": "function"
    },
    {
      "constant": true,
      "inputs": [],
      "name": "ROLE_SUPERUSER",
      "outputs": [
        {
          "name": "",
          "type": "string"
        }
      ],
      "payable": false,
      "stateMutability": "view",
      "type": "function"
    },
    {
      "anonymous": false,
      "inputs": [
        {
          "indexed": true,
          "name": "operator",
          "type": "address"
        },
        {
          "indexed": false,
          "name": "role",
          "type": "string"
        }
      ],
      "name": "RoleAdded",
      "type": "event"
    },
    {
      "anonymous": false,
      "inputs": [
        {
          "indexed": true,
          "name": "operator",
          "type": "address"
        },
        {
          "indexed": false,
          "name": "role",
          "type": "string"
        }
      ],
      "name": "RoleRemoved",
      "type": "event"
    },
    {
      "constant": false,
      "inputs": [
        {
          "name": "_name",
          "type": "string"
        }
      ],
      "name": "signUp",
      "outputs": [
        {
          "name": "",
          "type": "string"
        }
      ],
      "payable": false,
      "stateMutability": "nonpayable",
      "type": "function"
    },
    {
      "constant": true,
      "inputs": [],
      "name": "login",
      "outputs": [
        {
          "name": "",
          "type": "string"
        }
      ],
      "payable": false,
      "stateMutability": "view",
      "type": "function"
    }
  ],
  "bytecode": "0x6080604052610052336040805190810160405280600981526020017f7375706572757365720000000000000000000000000000000000000000000000815250610057640100000000026401000000009004565b6101f6565b6100e1826000836040518082805190602001908083835b602083101515610093578051825260208201915060208101905060208303925061006e565b6001836020036101000a03801982511681845116808217855250505050505090500191505090815260200160405180910390206101986401000000000261124c179091906401000000009004565b8173ffffffffffffffffffffffffffffffffffffffff167fbfec83d64eaa953f2708271a023ab9ee82057f8f3578d548c1a4ba0b5b700489826040518080602001828103825283818151815260200191508051906020019080838360005b8381101561015a57808201518184015260208101905061013f565b50505050905090810190601f1680156101875780820380516001836020036101000a031916815260200191505b509250505060405180910390a25050565b60018260000160008373ffffffffffffffffffffffffffffffffffffffff1673ffffffffffffffffffffffffffffffffffffffff16815260200190815260200160002060006101000a81548160ff0219169083151502179055505050565b6113d980620002066000396000f3006080604052600436106100d0576000357c0100000000000000000000000000000000000000000000000000000000900463ffffffff1680630988ca8c146100d5578063217fe6c61461015e5780632b7d7489146101ff5780633f029aaf1461021657806349b90557146102a657806357c393fa146103015780635eca4a7014610344578063adcfb4fc1461039f578063b34e97e814610481578063bceee05e14610511578063e31cd22e1461056c578063e429cef1146105fc578063e6116cfd1461063f578063ebb4f48414610682575b600080fd5b3480156100e157600080fd5b5061015c600480360381019080803573ffffffffffffffffffffffffffffffffffffffff169060200190929190803590602001908201803590602001908080601f0160208091040260200160405190810160405280939291908181526020018383808284378201915050505050509192919290505050610712565b005b34801561016a57600080fd5b506101e5600480360381019080803573ffffffffffffffffffffffffffffffffffffffff169060200190929190803590602001908201803590602001908080601f0160208091040260200160405190810160405280939291908181526020018383808284378201915050505050509192919290505050610793565b604051808215151515815260200191505060405180910390f35b34801561020b57600080fd5b5061021461081a565b005b34801561022257600080fd5b5061022b610897565b6040518080602001828103825283818151815260200191508051906020019080838360005b8381101561026b578082015181840152602081019050610250565b50505050905090810190601f1680156102985780820380516001836020036101000a031916815260200191505b509250505060405180910390f35b3480156102b257600080fd5b506102e7600480360381019080803573ffffffffffffffffffffffffffffffffffffffff1690602001909291905050506108d0565b604051808215151515815260200191505060405180910390f35b34801561030d57600080fd5b50610342600480360381019080803573ffffffffffffffffffffffffffffffffffffffff169060200190929190505050610918565b005b34801561035057600080fd5b50610385600480360381019080803573ffffffffffffffffffffffffffffffffffffffff169060200190929190505050610a14565b604051808215151515815260200191505060405180910390f35b3480156103ab57600080fd5b50610406600480360381019080803590602001908201803590602001908080601f0160208091040260200160405190810160405280939291908181526020018383808284378201915050505050509192919290505050610a5c565b6040518080602001828103825283818151815260200191508051906020019080838360005b8381101561044657808201518184015260208101905061042b565b50505050905090810190601f1680156104735780820380516001836020036101000a031916815260200191505b509250505060405180910390f35b34801561048d57600080fd5b50610496610c33565b6040518080602001828103825283818151815260200191508051906020019080838360005b838110156104d65780820151818401526020810190506104bb565b50505050905090810190601f1680156105035780820380516001836020036101000a031916815260200191505b509250505060405180910390f35b34801561051d57600080fd5b50610552600480360381019080803573ffffffffffffffffffffffffffffffffffffffff169060200190929190505050610d7a565b604051808215151515815260200191505060405180910390f35b34801561057857600080fd5b50610581610dc2565b6040518080602001828103825283818151815260200191508051906020019080838360005b838110156105c15780820151818401526020810190506105a6565b50505050905090810190601f1680156105ee5780820380516001836020036101000a031916815260200191505b509250505060405180910390f35b34801561060857600080fd5b5061063d600480360381019080803573ffffffffffffffffffffffffffffffffffffffff169060200190929190505050610dfb565b005b34801561064b57600080fd5b50610680600480360381019080803573ffffffffffffffffffffffffffffffffffffffff169060200190929190505050610eb8565b005b34801561068e57600080fd5b50610697610f39565b6040518080602001828103825283818151815260200191508051906020019080838360005b838110156106d75780820151818401526020810190506106bc565b50505050905090810190601f1680156107045780820380516001836020036101000a031916815260200191505b509250505060405180910390f35b61078f826000836040518082805190602001908083835b60208310151561074e5780518252602082019150602081019050602083039250610729565b6001836020036101000a0380198251168184511680821785525050505050509050019150509081526020016040518091039020610f7290919063ffffffff16565b5050565b6000610812836000846040518082805190602001908083835b6020831015156107d157805182526020820191506020810190506020830392506107ac565b6001836020036101000a0380198251168184511680821785525050505050509050019150509081526020016040518091039020610f8b90919063ffffffff16565b905092915050565b600073ffffffffffffffffffffffffffffffffffffffff163373ffffffffffffffffffffffffffffffffffffffff161415151561085657600080fd5b610895336040805190810160405280600981526020017f646576656c6f7065720000000000000000000000000000000000000000000000815250610fe4565b565b6040805190810160405280600781526020017f61756469746f720000000000000000000000000000000000000000000000000081525081565b6000610911826040805190810160405280600781526020017f61756469746f7200000000000000000000000000000000000000000000000000815250610793565b9050919050565b610957336040805190810160405280600981526020017f7375706572757365720000000000000000000000000000000000000000000000815250610712565b600073ffffffffffffffffffffffffffffffffffffffff168173ffffffffffffffffffffffffffffffffffffffff161415151561099357600080fd5b6109d2336040805190810160405280600981526020017f7375706572757365720000000000000000000000000000000000000000000000815250611118565b610a11816040805190810160405280600981526020017f7375706572757365720000000000000000000000000000000000000000000000815250610fe4565b50565b6000610a55826040805190810160405280600981526020017f646576656c6f7065720000000000000000000000000000000000000000000000815250610793565b9050919050565b60608160008151111515610a6f57600080fd5b6000600160003373ffffffffffffffffffffffffffffffffffffffff1673ffffffffffffffffffffffffffffffffffffffff1681526020019081526020016000206000018054600181600116156101000203166002900490501415610b265782600160003373ffffffffffffffffffffffffffffffffffffffff1673ffffffffffffffffffffffffffffffffffffffff1681526020019081526020016000206000019080519060200190610b24929190611308565b505b610b2f33610d7a565b158015610b425750610b40336108d0565b155b15610b5057610b4f61081a565b5b600160003373ffffffffffffffffffffffffffffffffffffffff1673ffffffffffffffffffffffffffffffffffffffff1681526020019081526020016000206000018054600181600116156101000203166002900480601f016020809104026020016040519081016040528092919081815260200182805460018160011615610100020316600290048015610c265780601f10610bfb57610100808354040283529160200191610c26565b820191906000526020600020905b815481529060010190602001808311610c0957829003601f168201915b5050505050915050919050565b60606000600160003373ffffffffffffffffffffffffffffffffffffffff1673ffffffffffffffffffffffffffffffffffffffff168152602001908152602001600020600001805460018160011615610100020316600290049050111515610c9a57600080fd5b600160003373ffffffffffffffffffffffffffffffffffffffff1673ffffffffffffffffffffffffffffffffffffffff1681526020019081526020016000206000018054600181600116156101000203166002900480601f016020809104026020016040519081016040528092919081815260200182805460018160011615610100020316600290048015610d705780601f10610d4557610100808354040283529160200191610d70565b820191906000526020600020905b815481529060010190602001808311610d5357829003601f168201915b5050505050905090565b6000610dbb826040805190810160405280600981526020017f7375706572757365720000000000000000000000000000000000000000000000815250610793565b9050919050565b6040805190810160405280600981526020017f646576656c6f706572000000000000000000000000000000000000000000000081525081565b610e3a336040805190810160405280600981526020017f7375706572757365720000000000000000000000000000000000000000000000815250610712565b600073ffffffffffffffffffffffffffffffffffffffff168173ffffffffffffffffffffffffffffffffffffffff1614151515610e7657600080fd5b610eb5816040805190810160405280600781526020017f61756469746f7200000000000000000000000000000000000000000000000000815250610fe4565b50565b610ef7336040805190810160405280600981526020017f7375706572757365720000000000000000000000000000000000000000000000815250610712565b610f36816040805190810160405280600781526020017f61756469746f7200000000000000000000000000000000000000000000000000815250611118565b50565b6040805190810160405280600981526020017f737570657275736572000000000000000000000000000000000000000000000081525081565b610f7c8282610f8b565b1515610f8757600080fd5b5050565b60008260000160008373ffffffffffffffffffffffffffffffffffffffff1673ffffffffffffffffffffffffffffffffffffffff16815260200190815260200160002060009054906101000a900460ff16905092915050565b611061826000836040518082805190602001908083835b6020831015156110205780518252602082019150602081019050602083039250610ffb565b6001836020036101000a038019825116818451168082178552505050505050905001915050908152602001604051809103902061124c90919063ffffffff16565b8173ffffffffffffffffffffffffffffffffffffffff167fbfec83d64eaa953f2708271a023ab9ee82057f8f3578d548c1a4ba0b5b700489826040518080602001828103825283818151815260200191508051906020019080838360005b838110156110da5780820151818401526020810190506110bf565b50505050905090810190601f1680156111075780820380516001836020036101000a031916815260200191505b509250505060405180910390a25050565b611195826000836040518082805190602001908083835b602083101515611154578051825260208201915060208101905060208303925061112f565b6001836020036101000a03801982511681845116808217855250505050505090500191505090815260200160405180910390206112aa90919063ffffffff16565b8173ffffffffffffffffffffffffffffffffffffffff167fd211483f91fc6eff862467f8de606587a30c8fc9981056f051b897a418df803a826040518080602001828103825283818151815260200191508051906020019080838360005b8381101561120e5780820151818401526020810190506111f3565b50505050905090810190601f16801561123b5780820380516001836020036101000a031916815260200191505b509250505060405180910390a25050565b60018260000160008373ffffffffffffffffffffffffffffffffffffffff1673ffffffffffffffffffffffffffffffffffffffff16815260200190815260200160002060006101000a81548160ff0219169083151502179055505050565b60008260000160008373ffffffffffffffffffffffffffffffffffffffff1673ffffffffffffffffffffffffffffffffffffffff16815260200190815260200160002060006101000a81548160ff0219169083151502179055505050565b828054600181600116156101000203166002900490600052602060002090601f016020900481019282601f1061134957805160ff1916838001178555611377565b82800160010185558215611377579182015b8281111561137657825182559160200191906001019061135b565b5b5090506113849190611388565b5090565b6113aa91905b808211156113a657600081600090555060010161138e565b5090565b905600a165627a7a723058205d523c44b9b18bf1406099055c59d8166324f028cfc1fc1056113cfae3f5958d0029",
  "source": "pragma solidity ^0.4.24;\n\n/**\n * @title Roles\n * @author Francisco Giordano (@frangio)\n * @dev Library for managing addresses assigned to a Role.\n * See RBAC.sol for example usage.\n */\nlibrary Roles {\n    struct Role {\n        mapping (address => bool) bearer;\n    }\n\n    /**\n    * @dev give an address access to this role\n    */\n    function add(Role storage role, address addr)\n        internal\n    {\n        role.bearer[addr] = true;\n    }\n\n    /**\n    * @dev remove an address' access to this role\n    */\n    function remove(Role storage role, address addr)\n        internal\n    {\n        role.bearer[addr] = false;\n    }\n\n    /**\n    * @dev check if an address has this role\n    * // reverts\n    */\n    function check(Role storage role, address addr)\n        view\n        internal\n    {\n        require(has(role, addr));\n    }\n\n    /**\n    * @dev check if an address has this role\n    * @return bool\n    */\n    function has(Role storage role, address addr)\n        view\n        internal\n    returns (bool)\n    {\n        return role.bearer[addr];\n    }\n}\n\n/**\n * @title RBAC (Role-Based Access Control)\n * @author Matt Condon (@Shrugs)\n * @dev Stores and provides setters and getters for roles and addresses.\n * Supports unlimited numbers of roles and addresses.\n * See //contracts/mocks/RBACMock.sol for an example of usage.\n * This RBAC method uses strings to key roles. It may be beneficial\n * for you to write your own implementation of this interface using Enums or similar.\n * It's also recommended that you define constants in the contract, like ROLE_ADMIN below,\n * to avoid typos.\n */\ncontract RBAC {\n    using Roles for Roles.Role;\n\n    mapping (string => Roles.Role) private roles;\n\n    event RoleAdded(address indexed operator, string role);\n    event RoleRemoved(address indexed operator, string role);\n\n    /**\n    * @dev reverts if addr does not have role\n    * @param _operator address\n    * @param _role the name of the role\n    * // reverts\n    */\n    function checkRole(address _operator, string _role)\n        view\n        public\n    {\n        roles[_role].check(_operator);\n    }\n\n    /**\n    * @dev determine if addr has role\n    * @param _operator address\n    * @param _role the name of the role\n    * @return bool\n    */\n    function hasRole(address _operator, string _role)\n        view\n        public\n    returns (bool)\n    {\n        return roles[_role].has(_operator);\n    }\n\n    /**\n    * @dev add a role to an address\n    * @param _operator address\n    * @param _role the name of the role\n    */\n    function addRole(address _operator, string _role)\n        internal\n    {\n        roles[_role].add(_operator);\n        emit RoleAdded(_operator, _role);\n    }\n\n    /**\n    * @dev remove a role from an address\n    * @param _operator address\n    * @param _role the name of the role\n    */\n    function removeRole(address _operator, string _role)\n        internal\n    {\n        roles[_role].remove(_operator);\n        emit RoleRemoved(_operator, _role);\n    }\n\n    /**\n    * @dev modifier to scope access to a single role (uses msg.sender as addr)\n    * @param _role the name of the role\n    * // reverts\n    */\n    modifier onlyRole(string _role)\n    {\n        checkRole(msg.sender, _role);\n        _;\n    }\n}\n\n/**\n * @title Superuser\n * @dev The Superuser contract defines a single superuser who can transfer the ownership \n * of a contract to a new address, even if he is not the owner. \n * A superuser can transfer his role to a new address. \n */\ncontract Superuserable is RBAC {\n    \n    string public constant ROLE_SUPERUSER = \"superuser\";\n\n    constructor () public {\n        addRole(msg.sender, ROLE_SUPERUSER);\n    }\n\n    /**\n    * @dev Throws if called by any account that's not a superuser.\n    */\n    modifier onlySuperuser() {\n        checkRole(msg.sender, ROLE_SUPERUSER);\n        _;\n    }\n\n    /**\n    * @dev getter to determine if address has superuser role\n    */\n    function isSuperuser(address _addr)\n        public\n        view\n    returns (bool)\n    {\n        return hasRole(_addr, ROLE_SUPERUSER);\n    }\n\n    /**\n    * @dev Allows the current superuser to transfer his role to a newSuperuser.\n    * @param _newSuperuser The address to transfer ownership to.\n    */\n    function transferSuperuser(address _newSuperuser) public onlySuperuser {\n        require(_newSuperuser != address(0));\n        removeRole(msg.sender, ROLE_SUPERUSER);\n        addRole(_newSuperuser, ROLE_SUPERUSER);\n    }\n}\n\ncontract Auditable is Superuserable {\n    \n    string public constant ROLE_AUDITOR = \"auditor\";\n    \n    function addAuditor(address _newAuditor) public onlySuperuser {\n        require(_newAuditor != address(0));\n        addRole(_newAuditor, ROLE_AUDITOR);\n    }\n    \n    function removeAuditor(address _auditor) public onlySuperuser {\n        removeRole(_auditor, ROLE_AUDITOR);\n    }\n    \n    modifier onlyAuditor() {\n        checkRole(msg.sender, ROLE_AUDITOR);\n        _;\n    }\n    \n    function isAuditor(address _addr)\n        public\n        view\n    returns (bool) \n    {\n        return hasRole(_addr, ROLE_AUDITOR);\n    }\n}\n\ncontract Developerable is Auditable {\n    \n    string public constant ROLE_DEVELOPER = \"developer\";\n    \n    function addDeveloper() public {\n        require(msg.sender != address(0));\n        addRole(msg.sender, ROLE_DEVELOPER);\n    }\n    \n    modifier onlyDeveloper() {\n        checkRole(msg.sender, ROLE_DEVELOPER);\n        _;\n    }\n    \n    function isDeveloper(address _addr) \n        public\n        view\n    returns (bool)\n    {\n        return hasRole(_addr, ROLE_DEVELOPER);\n    }\n}\n\ncontract Userable is Developerable {\n    \n    struct User {\n        string name;\n    }\n    \n    mapping(address => User) users;\n    \n    modifier onlyValidName(string _name) {\n        require(bytes(_name).length > 0);\n        _;\n    }\n    \n    modifier onlyExistingUser() {\n        require(bytes(users[msg.sender].name).length > 0);\n        _;\n    }\n    \n    function signUp(string _name) \n        public \n        onlyValidName(_name)\n    returns (string)\n    {\n        if (bytes(users[msg.sender].name).length == 0) {\n            users[msg.sender].name = _name;\n        }\n        \n        if (!isSuperuser(msg.sender) && !isAuditor(msg.sender)) {\n            addDeveloper();\n        }\n        \n        return users[msg.sender].name;\n    }\n    \n    function login()\n        view\n        public\n        onlyExistingUser\n    returns (string)\n    {\n        return users[msg.sender].name;\n    }\n}",
  "sourcePath": "/Users/artur/Development/Brem/contracts/Userable.sol",
  "compiler": {
    "name": "solc",
    "version": "0.4.24+commit.e67f0147.Emscripten.clang"
  },
  "schemaVersion": "2.0.1",
  "updatedAt": "2018-07-31T14:09:29.701Z"
}