{
  "contractName": "Userable",
  "abi": [
    {
      "constant": true,
      "inputs": [
        {
          "name": "_operator",
          "type": "address"
        },
        {
          "name": "_role",
          "type": "string"
        }
      ],
      "name": "checkRole",
      "outputs": [],
      "payable": false,
      "stateMutability": "view",
      "type": "function"
    },
    {
      "constant": true,
      "inputs": [
        {
          "name": "_operator",
          "type": "address"
        },
        {
          "name": "_role",
          "type": "string"
        }
      ],
      "name": "hasRole",
      "outputs": [
        {
          "name": "",
          "type": "bool"
        }
      ],
      "payable": false,
      "stateMutability": "view",
      "type": "function"
    },
    {
      "constant": true,
      "inputs": [],
      "name": "ROLE_AUDITOR",
      "outputs": [
        {
          "name": "",
          "type": "string"
        }
      ],
      "payable": false,
      "stateMutability": "view",
      "type": "function"
    },
    {
      "constant": true,
      "inputs": [
        {
          "name": "_addr",
          "type": "address"
        }
      ],
      "name": "isAuditor",
      "outputs": [
        {
          "name": "",
          "type": "bool"
        }
      ],
      "payable": false,
      "stateMutability": "view",
      "type": "function"
    },
    {
      "constant": false,
      "inputs": [
        {
          "name": "_newSuperuser",
          "type": "address"
        }
      ],
      "name": "transferSuperuser",
      "outputs": [],
      "payable": false,
      "stateMutability": "nonpayable",
      "type": "function"
    },
    {
      "constant": true,
      "inputs": [
        {
          "name": "_addr",
          "type": "address"
        }
      ],
      "name": "isSuperuser",
      "outputs": [
        {
          "name": "",
          "type": "bool"
        }
      ],
      "payable": false,
      "stateMutability": "view",
      "type": "function"
    },
    {
      "constant": false,
      "inputs": [
        {
          "name": "_newAuditor",
          "type": "address"
        }
      ],
      "name": "addAuditor",
      "outputs": [],
      "payable": false,
      "stateMutability": "nonpayable",
      "type": "function"
    },
    {
      "constant": true,
      "inputs": [],
      "name": "ROLE_SUPERUSER",
      "outputs": [
        {
          "name": "",
          "type": "string"
        }
      ],
      "payable": false,
      "stateMutability": "view",
      "type": "function"
    },
    {
      "anonymous": false,
      "inputs": [
        {
          "indexed": true,
          "name": "operator",
          "type": "address"
        },
        {
          "indexed": false,
          "name": "role",
          "type": "string"
        }
      ],
      "name": "RoleAdded",
      "type": "event"
    },
    {
      "anonymous": false,
      "inputs": [
        {
          "indexed": true,
          "name": "operator",
          "type": "address"
        },
        {
          "indexed": false,
          "name": "role",
          "type": "string"
        }
      ],
      "name": "RoleRemoved",
      "type": "event"
    },
    {
      "constant": false,
      "inputs": [
        {
          "name": "_name",
          "type": "string"
        }
      ],
      "name": "signUp",
      "outputs": [
        {
          "name": "",
          "type": "string"
        }
      ],
      "payable": false,
      "stateMutability": "nonpayable",
      "type": "function"
    },
    {
      "constant": true,
      "inputs": [],
      "name": "login",
      "outputs": [
        {
          "name": "",
          "type": "string"
        }
      ],
      "payable": false,
      "stateMutability": "view",
      "type": "function"
    }
  ],
  "bytecode": "0x6080604052610052336040805190810160405280600981526020017f7375706572757365720000000000000000000000000000000000000000000000815250610057640100000000026401000000009004565b6101f6565b6100e1826000836040518082805190602001908083835b602083101515610093578051825260208201915060208101905060208303925061006e565b6001836020036101000a038019825116818451168082178552505050505050905001915050908152602001604051809103902061019864010000000002610f90179091906401000000009004565b8173ffffffffffffffffffffffffffffffffffffffff167fbfec83d64eaa953f2708271a023ab9ee82057f8f3578d548c1a4ba0b5b700489826040518080602001828103825283818151815260200191508051906020019080838360005b8381101561015a57808201518184015260208101905061013f565b50505050905090810190601f1680156101875780820380516001836020036101000a031916815260200191505b509250505060405180910390a25050565b60018260000160008373ffffffffffffffffffffffffffffffffffffffff1673ffffffffffffffffffffffffffffffffffffffff16815260200190815260200160002060006101000a81548160ff0219169083151502179055505050565b6110bf806102056000396000f3006080604052600436106100a4576000357c0100000000000000000000000000000000000000000000000000000000900463ffffffff1680630988ca8c146100a9578063217fe6c6146101325780633f029aaf146101d357806349b905571461026357806357c393fa146102be578063adcfb4fc14610301578063b34e97e8146103e3578063bceee05e14610473578063e429cef1146104ce578063ebb4f48414610511575b600080fd5b3480156100b557600080fd5b50610130600480360381019080803573ffffffffffffffffffffffffffffffffffffffff169060200190929190803590602001908201803590602001908080601f01602080910402602001604051908101604052809392919081815260200183838082843782019150505050505091929192905050506105a1565b005b34801561013e57600080fd5b506101b9600480360381019080803573ffffffffffffffffffffffffffffffffffffffff169060200190929190803590602001908201803590602001908080601f0160208091040260200160405190810160405280939291908181526020018383808284378201915050505050509192919290505050610622565b604051808215151515815260200191505060405180910390f35b3480156101df57600080fd5b506101e86106a9565b6040518080602001828103825283818151815260200191508051906020019080838360005b8381101561022857808201518184015260208101905061020d565b50505050905090810190601f1680156102555780820380516001836020036101000a031916815260200191505b509250505060405180910390f35b34801561026f57600080fd5b506102a4600480360381019080803573ffffffffffffffffffffffffffffffffffffffff1690602001909291905050506106e2565b604051808215151515815260200191505060405180910390f35b3480156102ca57600080fd5b506102ff600480360381019080803573ffffffffffffffffffffffffffffffffffffffff16906020019092919050505061072a565b005b34801561030d57600080fd5b50610368600480360381019080803590602001908201803590602001908080601f0160208091040260200160405190810160405280939291908181526020018383808284378201915050505050509192919290505050610826565b6040518080602001828103825283818151815260200191508051906020019080838360005b838110156103a857808201518184015260208101905061038d565b50505050905090810190601f1680156103d55780820380516001836020036101000a031916815260200191505b509250505060405180910390f35b3480156103ef57600080fd5b506103f86109d3565b6040518080602001828103825283818151815260200191508051906020019080838360005b8381101561043857808201518184015260208101905061041d565b50505050905090810190601f1680156104655780820380516001836020036101000a031916815260200191505b509250505060405180910390f35b34801561047f57600080fd5b506104b4600480360381019080803573ffffffffffffffffffffffffffffffffffffffff169060200190929190505050610b1a565b604051808215151515815260200191505060405180910390f35b3480156104da57600080fd5b5061050f600480360381019080803573ffffffffffffffffffffffffffffffffffffffff169060200190929190505050610b62565b005b34801561051d57600080fd5b50610526610c1f565b6040518080602001828103825283818151815260200191508051906020019080838360005b8381101561056657808201518184015260208101905061054b565b50505050905090810190601f1680156105935780820380516001836020036101000a031916815260200191505b509250505060405180910390f35b61061e826000836040518082805190602001908083835b6020831015156105dd57805182526020820191506020810190506020830392506105b8565b6001836020036101000a0380198251168184511680821785525050505050509050019150509081526020016040518091039020610c5890919063ffffffff16565b5050565b60006106a1836000846040518082805190602001908083835b602083101515610660578051825260208201915060208101905060208303925061063b565b6001836020036101000a0380198251168184511680821785525050505050509050019150509081526020016040518091039020610c7190919063ffffffff16565b905092915050565b6040805190810160405280600781526020017f61756469746f720000000000000000000000000000000000000000000000000081525081565b6000610723826040805190810160405280600781526020017f61756469746f7200000000000000000000000000000000000000000000000000815250610622565b9050919050565b610769336040805190810160405280600981526020017f73757065727573657200000000000000000000000000000000000000000000008152506105a1565b600073ffffffffffffffffffffffffffffffffffffffff168173ffffffffffffffffffffffffffffffffffffffff16141515156107a557600080fd5b6107e4336040805190810160405280600981526020017f7375706572757365720000000000000000000000000000000000000000000000815250610cca565b610823816040805190810160405280600981526020017f7375706572757365720000000000000000000000000000000000000000000000815250610dfe565b50565b6060816000815111151561083957600080fd5b6000600160003373ffffffffffffffffffffffffffffffffffffffff1673ffffffffffffffffffffffffffffffffffffffff16815260200190815260200160002060000180546001816001161561010002031660029004905014156108f05782600160003373ffffffffffffffffffffffffffffffffffffffff1673ffffffffffffffffffffffffffffffffffffffff16815260200190815260200160002060000190805190602001906108ee929190610fee565b505b600160003373ffffffffffffffffffffffffffffffffffffffff1673ffffffffffffffffffffffffffffffffffffffff1681526020019081526020016000206000018054600181600116156101000203166002900480601f0160208091040260200160405190810160405280929190818152602001828054600181600116156101000203166002900480156109c65780601f1061099b576101008083540402835291602001916109c6565b820191906000526020600020905b8154815290600101906020018083116109a957829003601f168201915b5050505050915050919050565b60606000600160003373ffffffffffffffffffffffffffffffffffffffff1673ffffffffffffffffffffffffffffffffffffffff168152602001908152602001600020600001805460018160011615610100020316600290049050111515610a3a57600080fd5b600160003373ffffffffffffffffffffffffffffffffffffffff1673ffffffffffffffffffffffffffffffffffffffff1681526020019081526020016000206000018054600181600116156101000203166002900480601f016020809104026020016040519081016040528092919081815260200182805460018160011615610100020316600290048015610b105780601f10610ae557610100808354040283529160200191610b10565b820191906000526020600020905b815481529060010190602001808311610af357829003601f168201915b5050505050905090565b6000610b5b826040805190810160405280600981526020017f7375706572757365720000000000000000000000000000000000000000000000815250610622565b9050919050565b610ba1336040805190810160405280600981526020017f73757065727573657200000000000000000000000000000000000000000000008152506105a1565b600073ffffffffffffffffffffffffffffffffffffffff168173ffffffffffffffffffffffffffffffffffffffff1614151515610bdd57600080fd5b610c1c816040805190810160405280600781526020017f61756469746f7200000000000000000000000000000000000000000000000000815250610dfe565b50565b6040805190810160405280600981526020017f737570657275736572000000000000000000000000000000000000000000000081525081565b610c628282610c71565b1515610c6d57600080fd5b5050565b60008260000160008373ffffffffffffffffffffffffffffffffffffffff1673ffffffffffffffffffffffffffffffffffffffff16815260200190815260200160002060009054906101000a900460ff16905092915050565b610d47826000836040518082805190602001908083835b602083101515610d065780518252602082019150602081019050602083039250610ce1565b6001836020036101000a0380198251168184511680821785525050505050509050019150509081526020016040518091039020610f3290919063ffffffff16565b8173ffffffffffffffffffffffffffffffffffffffff167fd211483f91fc6eff862467f8de606587a30c8fc9981056f051b897a418df803a826040518080602001828103825283818151815260200191508051906020019080838360005b83811015610dc0578082015181840152602081019050610da5565b50505050905090810190601f168015610ded5780820380516001836020036101000a031916815260200191505b509250505060405180910390a25050565b610e7b826000836040518082805190602001908083835b602083101515610e3a5780518252602082019150602081019050602083039250610e15565b6001836020036101000a0380198251168184511680821785525050505050509050019150509081526020016040518091039020610f9090919063ffffffff16565b8173ffffffffffffffffffffffffffffffffffffffff167fbfec83d64eaa953f2708271a023ab9ee82057f8f3578d548c1a4ba0b5b700489826040518080602001828103825283818151815260200191508051906020019080838360005b83811015610ef4578082015181840152602081019050610ed9565b50505050905090810190601f168015610f215780820380516001836020036101000a031916815260200191505b509250505060405180910390a25050565b60008260000160008373ffffffffffffffffffffffffffffffffffffffff1673ffffffffffffffffffffffffffffffffffffffff16815260200190815260200160002060006101000a81548160ff0219169083151502179055505050565b60018260000160008373ffffffffffffffffffffffffffffffffffffffff1673ffffffffffffffffffffffffffffffffffffffff16815260200190815260200160002060006101000a81548160ff0219169083151502179055505050565b828054600181600116156101000203166002900490600052602060002090601f016020900481019282601f1061102f57805160ff191683800117855561105d565b8280016001018555821561105d579182015b8281111561105c578251825591602001919060010190611041565b5b50905061106a919061106e565b5090565b61109091905b8082111561108c576000816000905550600101611074565b5090565b905600a165627a7a72305820fd70329f314cf4e4a5cdf1638beaa7e65ac5b19d21cfaf9ae1dceb4f856083b60029",
  "source": "pragma solidity ^0.4.24;\r\n\r\n/**\r\n * @title Roles\r\n * @author Francisco Giordano (@frangio)\r\n * @dev Library for managing addresses assigned to a Role.\r\n * See RBAC.sol for example usage.\r\n */\r\nlibrary Roles {\r\n    struct Role {\r\n        mapping (address => bool) bearer;\r\n    }\r\n\r\n    /**\r\n    * @dev give an address access to this role\r\n    */\r\n    function add(Role storage role, address addr)\r\n        internal\r\n    {\r\n        role.bearer[addr] = true;\r\n    }\r\n\r\n    /**\r\n    * @dev remove an address' access to this role\r\n    */\r\n    function remove(Role storage role, address addr)\r\n        internal\r\n    {\r\n        role.bearer[addr] = false;\r\n    }\r\n\r\n    /**\r\n    * @dev check if an address has this role\r\n    * // reverts\r\n    */\r\n    function check(Role storage role, address addr)\r\n        view\r\n        internal\r\n    {\r\n        require(has(role, addr));\r\n    }\r\n\r\n    /**\r\n    * @dev check if an address has this role\r\n    * @return bool\r\n    */\r\n    function has(Role storage role, address addr)\r\n        view\r\n        internal\r\n    returns (bool)\r\n    {\r\n        return role.bearer[addr];\r\n    }\r\n}\r\n\r\n/**\r\n * @title RBAC (Role-Based Access Control)\r\n * @author Matt Condon (@Shrugs)\r\n * @dev Stores and provides setters and getters for roles and addresses.\r\n * Supports unlimited numbers of roles and addresses.\r\n * See //contracts/mocks/RBACMock.sol for an example of usage.\r\n * This RBAC method uses strings to key roles. It may be beneficial\r\n * for you to write your own implementation of this interface using Enums or similar.\r\n * It's also recommended that you define constants in the contract, like ROLE_ADMIN below,\r\n * to avoid typos.\r\n */\r\ncontract RBAC {\r\n    using Roles for Roles.Role;\r\n\r\n    mapping (string => Roles.Role) private roles;\r\n\r\n    event RoleAdded(address indexed operator, string role);\r\n    event RoleRemoved(address indexed operator, string role);\r\n\r\n    /**\r\n    * @dev reverts if addr does not have role\r\n    * @param _operator address\r\n    * @param _role the name of the role\r\n    * // reverts\r\n    */\r\n    function checkRole(address _operator, string _role)\r\n        view\r\n        public\r\n    {\r\n        roles[_role].check(_operator);\r\n    }\r\n\r\n    /**\r\n    * @dev determine if addr has role\r\n    * @param _operator address\r\n    * @param _role the name of the role\r\n    * @return bool\r\n    */\r\n    function hasRole(address _operator, string _role)\r\n        view\r\n        public\r\n    returns (bool)\r\n    {\r\n        return roles[_role].has(_operator);\r\n    }\r\n\r\n    /**\r\n    * @dev add a role to an address\r\n    * @param _operator address\r\n    * @param _role the name of the role\r\n    */\r\n    function addRole(address _operator, string _role)\r\n        internal\r\n    {\r\n        roles[_role].add(_operator);\r\n        emit RoleAdded(_operator, _role);\r\n    }\r\n\r\n    /**\r\n    * @dev remove a role from an address\r\n    * @param _operator address\r\n    * @param _role the name of the role\r\n    */\r\n    function removeRole(address _operator, string _role)\r\n        internal\r\n    {\r\n        roles[_role].remove(_operator);\r\n        emit RoleRemoved(_operator, _role);\r\n    }\r\n\r\n    /**\r\n    * @dev modifier to scope access to a single role (uses msg.sender as addr)\r\n    * @param _role the name of the role\r\n    * // reverts\r\n    */\r\n    modifier onlyRole(string _role)\r\n    {\r\n        checkRole(msg.sender, _role);\r\n        _;\r\n    }\r\n}\r\n\r\n/**\r\n * @title Superuser\r\n * @dev The Superuser contract defines a single superuser who can transfer the ownership \r\n * of a contract to a new address, even if he is not the owner. \r\n * A superuser can transfer his role to a new address. \r\n */\r\ncontract Superuserable is RBAC {\r\n    \r\n    string public constant ROLE_SUPERUSER = \"superuser\";\r\n\r\n    constructor () public {\r\n        addRole(msg.sender, ROLE_SUPERUSER);\r\n    }\r\n\r\n    /**\r\n    * @dev Throws if called by any account that's not a superuser.\r\n    */\r\n    modifier onlySuperuser() {\r\n        checkRole(msg.sender, ROLE_SUPERUSER);\r\n        _;\r\n    }\r\n\r\n    /**\r\n    * @dev getter to determine if address has superuser role\r\n    */\r\n    function isSuperuser(address _addr)\r\n        public\r\n        view\r\n    returns (bool)\r\n    {\r\n        return hasRole(_addr, ROLE_SUPERUSER);\r\n    }\r\n\r\n    /**\r\n    * @dev Allows the current superuser to transfer his role to a newSuperuser.\r\n    * @param _newSuperuser The address to transfer ownership to.\r\n    */\r\n    function transferSuperuser(address _newSuperuser) public onlySuperuser {\r\n        require(_newSuperuser != address(0));\r\n        removeRole(msg.sender, ROLE_SUPERUSER);\r\n        addRole(_newSuperuser, ROLE_SUPERUSER);\r\n    }\r\n}\r\n\r\ncontract Auditable is Superuserable {\r\n    \r\n    string public constant ROLE_AUDITOR = \"auditor\";\r\n    \r\n    function addAuditor(address _newAuditor) public onlySuperuser {\r\n        require(_newAuditor != address(0));\r\n        addRole(_newAuditor, ROLE_AUDITOR);\r\n    }\r\n    \r\n    // function removeAuditor(address _auditor) public onlySuperuser {\r\n    //     removeRole(_auditor, ROLE_AUDITOR);\r\n    // }\r\n    \r\n    modifier onlyAuditor() {\r\n        checkRole(msg.sender, ROLE_AUDITOR);\r\n        _;\r\n    }\r\n    \r\n    function isAuditor(address _addr)\r\n        public\r\n        view\r\n    returns (bool) \r\n    {\r\n        return hasRole(_addr, ROLE_AUDITOR);\r\n    }\r\n}\r\n\r\n// contract Developerable is Auditable {\r\n    \r\n//     string public constant ROLE_DEVELOPER = \"developer\";\r\n    \r\n//     function addDeveloper() public {\r\n//         require(msg.sender != address(0));\r\n//         addRole(msg.sender, ROLE_DEVELOPER);\r\n//     }\r\n    \r\n//     modifier onlyDeveloper() {\r\n//         checkRole(msg.sender, ROLE_DEVELOPER);\r\n//         _;\r\n//     }\r\n    \r\n//     function isDeveloper(address _addr) \r\n//         public\r\n//         view\r\n//     returns (bool)\r\n//     {\r\n//         return hasRole(_addr, ROLE_DEVELOPER);\r\n//     }\r\n// }\r\n\r\ncontract Userable is Auditable {\r\n    \r\n    struct User {\r\n        string name;\r\n    }\r\n    \r\n    mapping(address => User) users;\r\n    \r\n    modifier onlyValidName(string _name) {\r\n        require(bytes(_name).length > 0);\r\n        _;\r\n    }\r\n    \r\n    modifier onlyExistingUser() {\r\n        require(bytes(users[msg.sender].name).length > 0);\r\n        _;\r\n    }\r\n    \r\n    function signUp(string _name) \r\n        public \r\n        onlyValidName(_name)\r\n    returns (string)\r\n    {\r\n        if (bytes(users[msg.sender].name).length == 0) {\r\n            users[msg.sender].name = _name;\r\n        }\r\n        \r\n        // if (!isSuperuser(msg.sender) && !isAuditor(msg.sender)) {\r\n        //     addDeveloper();\r\n        // }\r\n        \r\n        return users[msg.sender].name;\r\n    }\r\n    \r\n    function login()\r\n        view\r\n        public\r\n        onlyExistingUser\r\n    returns (string)\r\n    {\r\n        return users[msg.sender].name;\r\n    }\r\n}",
  "sourcePath": "C:\\Users\\Solidity\\Documents\\HashLab\\GENERAL_DEV\\Brem\\contracts\\Userable.sol",
  "compiler": {
    "name": "solc",
    "version": "0.4.24+commit.e67f0147.Emscripten.clang"
  },
  "schemaVersion": "2.0.1",
  "updatedAt": "2018-08-15T10:51:58.447Z"
}